{"contracts/Escrow.sol":{"Escrow":{"abi":[{"inputs":[],"stateMutability":"nonpayable","type":"constructor"},{"anonymous":false,"inputs":[{"indexed":true,"internalType":"uint256","name":"escrowId","type":"uint256"},{"indexed":true,"internalType":"address","name":"raiser","type":"address"}],"name":"DisputeRaised","type":"event"},{"anonymous":false,"inputs":[{"indexed":true,"internalType":"uint256","name":"escrowId","type":"uint256"}],"name":"EscrowCancelled","type":"event"},{"anonymous":false,"inputs":[{"indexed":true,"internalType":"uint256","name":"escrowId","type":"uint256"}],"name":"EscrowCompleted","type":"event"},{"anonymous":false,"inputs":[{"indexed":true,"internalType":"uint256","name":"escrowId","type":"uint256"},{"indexed":true,"internalType":"address","name":"payer","type":"address"},{"indexed":true,"internalType":"address","name":"payee","type":"address"},{"indexed":false,"internalType":"uint256","name":"amount","type":"uint256"}],"name":"EscrowCreated","type":"event"},{"anonymous":false,"inputs":[{"indexed":true,"internalType":"uint256","name":"escrowId","type":"uint256"},{"indexed":false,"internalType":"uint256","name":"amount","type":"uint256"}],"name":"FundsReleased","type":"event"},{"anonymous":false,"inputs":[{"indexed":true,"internalType":"address","name":"previousOwner","type":"address"},{"indexed":true,"internalType":"address","name":"newOwner","type":"address"}],"name":"OwnershipTransferred","type":"event"},{"inputs":[{"internalType":"uint256","name":"escrowId","type":"uint256"}],"name":"cancelEscrow","outputs":[],"stateMutability":"nonpayable","type":"function"},{"inputs":[{"internalType":"address","name":"payee","type":"address"},{"internalType":"address","name":"tokenAddress","type":"address"},{"internalType":"uint256","name":"amount","type":"uint256"},{"internalType":"uint256","name":"deadline","type":"uint256"},{"internalType":"string","name":"description","type":"string"}],"name":"createEscrow","outputs":[{"internalType":"uint256","name":"escrowId","type":"uint256"}],"stateMutability":"payable","type":"function"},{"inputs":[],"name":"disputeTimeWindow","outputs":[{"internalType":"uint256","name":"","type":"uint256"}],"stateMutability":"view","type":"function"},{"inputs":[{"internalType":"uint256","name":"","type":"uint256"}],"name":"escrows","outputs":[{"internalType":"uint256","name":"id","type":"uint256"},{"internalType":"address","name":"payer","type":"address"},{"internalType":"address","name":"payee","type":"address"},{"internalType":"address","name":"tokenAddress","type":"address"},{"internalType":"uint256","name":"amount","type":"uint256"},{"internalType":"uint256","name":"releasedAmount","type":"uint256"},{"internalType":"enum Escrow.EscrowStatus","name":"status","type":"uint8"},{"internalType":"uint256","name":"createdAt","type":"uint256"},{"internalType":"uint256","name":"deadline","type":"uint256"},{"internalType":"string","name":"description","type":"string"}],"stateMutability":"view","type":"function"},{"inputs":[{"internalType":"uint256","name":"escrowId","type":"uint256"}],"name":"getEscrow","outputs":[{"components":[{"internalType":"uint256","name":"id","type":"uint256"},{"internalType":"address","name":"payer","type":"address"},{"internalType":"address","name":"payee","type":"address"},{"internalType":"address","name":"tokenAddress","type":"address"},{"internalType":"uint256","name":"amount","type":"uint256"},{"internalType":"uint256","name":"releasedAmount","type":"uint256"},{"internalType":"enum Escrow.EscrowStatus","name":"status","type":"uint8"},{"internalType":"uint256","name":"createdAt","type":"uint256"},{"internalType":"uint256","name":"deadline","type":"uint256"},{"internalType":"string","name":"description","type":"string"}],"internalType":"struct Escrow.EscrowAgreement","name":"","type":"tuple"}],"stateMutability":"view","type":"function"},{"inputs":[{"internalType":"address","name":"user","type":"address"}],"name":"getUserEscrows","outputs":[{"internalType":"uint256[]","name":"","type":"uint256[]"}],"stateMutability":"view","type":"function"},{"inputs":[],"name":"nextEscrowId","outputs":[{"internalType":"uint256","name":"","type":"uint256"}],"stateMutability":"view","type":"function"},{"inputs":[],"name":"owner","outputs":[{"internalType":"address","name":"","type":"address"}],"stateMutability":"view","type":"function"},{"inputs":[{"internalType":"uint256","name":"escrowId","type":"uint256"}],"name":"raiseDispute","outputs":[],"stateMutability":"nonpayable","type":"function"},{"inputs":[{"internalType":"uint256","name":"escrowId","type":"uint256"},{"internalType":"uint256","name":"amount","type":"uint256"}],"name":"releaseFunds","outputs":[],"stateMutability":"nonpayable","type":"function"},{"inputs":[],"name":"renounceOwnership","outputs":[],"stateMutability":"nonpayable","type":"function"},{"inputs":[{"internalType":"uint256","name":"escrowId","type":"uint256"},{"internalType":"uint256","name":"payerAmount","type":"uint256"},{"internalType":"uint256","name":"payeeAmount","type":"uint256"}],"name":"resolveDispute","outputs":[],"stateMutability":"nonpayable","type":"function"},{"inputs":[{"internalType":"uint256","name":"newTimeWindow","type":"uint256"}],"name":"setDisputeTimeWindow","outputs":[],"stateMutability":"nonpayable","type":"function"},{"inputs":[{"internalType":"address","name":"newOwner","type":"address"}],"name":"transferOwnership","outputs":[],"stateMutability":"nonpayable","type":"function"},{"inputs":[{"internalType":"address","name":"","type":"address"},{"internalType":"uint256","name":"","type":"uint256"}],"name":"userEscrows","outputs":[{"internalType":"uint256","name":"","type":"uint256"}],"stateMutability":"view","type":"function"}],"evm":{"bytecode":{"linkReferences":{},"object":"6080806040523461006b5760008054336001600160a01b0319821681178355916001600160a01b03909116907f8be0079c531659141344cd1fd0a4f28419497f9722a3daafe3b4186f6b6457e09080a360018055600160045562093a8060055561172c90816100718239f35b600080fdfe6080604052600436101561001257600080fd5b60003560e01c8063012f52ee146112bc5780633fabe74f14610f5b5780635ccea85e14610ea7578063708831e414610e86578063715018a614610e2d5780637d19e59614610c905780637e4dcc0614610c725780637f944dd014610c1957806389cb29dd14610bfb5780638da5cb5b14610bd2578063a5c1674e14610b20578063d27dc2db1461065f578063df7843ae146103ce578063e01824361461018f5763f2fde38b146100c157600080fd5b3461018a57602036600319011261018a576100da6114e1565b6100e2611525565b6001600160a01b0390811690811561013657600054826bffffffffffffffffffffffff60a01b821617600055167f8be0079c531659141344cd1fd0a4f28419497f9722a3daafe3b4186f6b6457e0600080a3005b60405162461bcd60e51b815260206004820152602660248201527f4f776e61626c653a206e6577206f776e657220697320746865207a65726f206160448201526564647265737360d01b6064820152608490fd5b600080fd5b3461018a5760208060031936011261018a576004359081600052600281526040600020906001820160018060a01b039182825416803303610391576006850180549060ff8216600481101561037b576101e8901561169c565b6005870154918261032b5786926003928361020e9360ff191617905560048901546116e9565b9601541690816102705750505060008093819382935416828215610267575bf11561025b575b7f0d977c6b1a383ac5ce532b4a668d0ef9ad38478e1a5ff28abb221f4b682b2643600080a2005b6040513d6000823e3d90fd5b506108fc61022d565b60405163a9059cbb60e01b81526001600160a01b03919091166004820152602481019590955290939250839150829060449082906000905af190811561025b576000916102fe575b50156102c45750610234565b6064906040519062461bcd60e51b825260048201526013602482015272151bdad95b881c99599d5b990819985a5b1959606a1b6044820152fd5b61031e9150823d8411610324575b61031681836113cc565b8101906115c9565b836102b8565b503d61030c565b60405162461bcd60e51b815260048101869052602260248201527f43616e6e6f742063616e63656c2061667465722066756e64732072656c656173604482015261195960f21b6064820152608490fd5b634e487b7160e01b600052602160045260246000fd5b60405162461bcd60e51b815260048101839052601560248201527413db9b1e481c185e595c8818d85b8818d85b98d95b605a1b6044820152606490fd5b3461018a57604036600319011261018a57600435602435908060005260029160209083825260406000209360018060a01b03926104216001968584818a840154163314928315610650575b50505061165f565b8186541461060c5781865584600052818152604060002092600684019460ff865416600481101561037b57610456901561169c565b811590610463821561157d565b600586019485549661047585896116dc565b9760048201988954106105c7578561048c916116dc565b8755600381015483168061052e575084600094859485948594015416908390610525575bf11561025b5785917f80230996023d69b50793fa73f1919127c9d8e741d3989743c479169f22e7a288915b604051908152a2549054146104ef57828055005b805460ff1916831790557f9285bd636dda01bef18996aa38303bb742f6c67a6941646dddb17630cb492c2e600080a28180828055005b506108fc6104b0565b91015460405163a9059cbb60e01b815292166001600160a01b03166004830152602482018490529093915081908490816000816044810103925af191821561025b576105a57f80230996023d69b50793fa73f1919127c9d8e741d3989743c479169f22e7a2889389956000916105aa575b506115e1565b6104db565b6105c19150843d86116103245761031681836113cc565b8b61059f565b60405162461bcd60e51b815260048101889052601c60248201527f496e73756666696369656e742066756e647320696e20657363726f77000000006044820152606490fd5b6064906040519062461bcd60e51b82526004820152601f60248201527f5265656e7472616e637947756172643a207265656e7472616e742063616c6c006044820152fd5b0154163314905085848a610419565b60a036600319011261018a576106736114e1565b602435906001600160a01b038216820361018a576084359067ffffffffffffffff821161018a573660238301121561018a57816004013567ffffffffffffffff81116109c657604051926106d1601f8301601f1916602001856113cc565b818452366024838301011161018a578160009260246020930183870137840101526001600160a01b03811615610ae35761070e604435151561157d565b426064351115610a9e57600454916000198314610a8857600183016004556001600160a01b038416610a185760443534036109dc575b60405193610751856113af565b8385523360208087019182526001600160a01b038581166040808a0191825294821660608a0190815260443560808b01908152600060a08c0181815260c08d018281524260e08f01526064356101008f01526101208e019a909a528b82526002968790529790208b51815595516001870180549186166001600160a01b0319928316179055925194860180549585169584169590951790945551600385018054919093169116179055516004808301919091559151600582015591516006830192909182101561037b576101209260099260ff8019835416911617905560e0860151600782015561010086015160088201550193015192835167ffffffffffffffff81116109c6576108638254611375565b601f811161097e575b50806020958690601f831160011461091a5760009261090f575b50508160011b916000199060031b1c19161790555b33600052600383526108b1826040600020611625565b60018060a01b038116600052600383526108cf826040600020611625565b60405190604435825260018060a01b031690827f9405ad0a6208539879349284d71265479b1623846f70303da1f9890d6e8c10a7853393a4604051908152f35b015190508680610886565b60008581528881209350601f198516905b818110610967575090846001959493921061094e575b505050811b01905561089b565b015160001960f88460031b161c19169055868080610941565b92938960018192878601518155019501930161092b565b826000526020600020601f830160051c810191602084106109bc575b601f0160051c01905b8181106109b0575061086c565b600081556001016109a3565b909150819061099a565b634e487b7160e01b600052604160045260246000fd5b60405162461bcd60e51b8152602060048201526014602482015273125b98dbdc9c9958dd0811551208185b5bdd5b9d60621b6044820152606490fd5b6040516323b872dd60e01b8152336004820152306024820152604480359082015260208160648160006001600160a01b038a165af1801561025b57610a6491600091610a6957506115e1565b610744565b610a82915060203d6020116103245761031681836113cc565b8661059f565b634e487b7160e01b600052601160045260246000fd5b60405162461bcd60e51b815260206004820152601e60248201527f446561646c696e65206d75737420626520696e207468652066757475726500006044820152606490fd5b60405162461bcd60e51b8152602060048201526015602482015274496e76616c6964207061796565206164647265737360581b6044820152606490fd5b3461018a57602036600319011261018a57600435806000526002602052610b64604060002060018060a01b03806001830154163314918215610bc1575b505061165f565b8060005260026020526006604060002001805460ff811690600482101561037b57610b916002921561169c565b60ff191617905533907f84a477df8a28a4276ca6dee4458a06c3015f30c477d9c949ede4e13ff8a552b4600080a3005b600291925001541633148380610b5d565b3461018a57600036600319011261018a576000546040516001600160a01b039091168152602090f35b3461018a57600036600319011261018a576020600454604051908152f35b3461018a57604036600319011261018a57610c326114e1565b6001600160a01b031660009081526003602052604090208054602435919082101561018a57602091610c63916114f7565b90549060031b1c604051908152f35b3461018a57600036600319011261018a576020600554604051908152f35b3461018a57602036600319011261018a576060610120604051610cb2816113af565b60008152600060208201526000604082015260008382015260006080820152600060a0820152600060c0820152600060e08201526000610100820152015260043560005260026020526040600020604051610d0c816113af565b8154815260018201546001600160a01b03908116602083015260028301548116604083015260038301541660608201526004808301546080830152600583015460a0830152600683015460ff16929083101561037b576009610d8c916101209460c0850152600781015460e08501526008810154610100850152016113ee565b82820152610e29604051928392602084528051602085015260018060a01b03602082015116604085015260018060a01b03604082015116606085015260018060a01b036060820151166080850152608081015160a085015260a081015160c0850152610e0060c082015160e0860190611494565b60e0810151610100850152610100810151828501520151610140808401526101608301906114a1565b0390f35b3461018a57600036600319011261018a57610e46611525565b600080546001600160a01b0319811682556001600160a01b03167f8be0079c531659141344cd1fd0a4f28419497f9722a3daafe3b4186f6b6457e08280a3005b3461018a57602036600319011261018a57610e9f611525565b600435600555005b3461018a5760208060031936011261018a576001600160a01b03610ec96114e1565b1660005260038152604060002060405190818382549182815201908192600052846000209060005b86828210610f47578686610f07828803836113cc565b604051928392818401908285525180915260408401929160005b828110610f3057505050500390f35b835185528695509381019392810192600101610f21565b835485529093019260019283019201610ef1565b3461018a57606036600319011261018a57600435602480359060443590610f80611525565b8360005260209260028452604060002093600685019260ff84541660048110156112a75760020361126e57610fb585846116dc565b956004810195865497610fce60058401998a54906116e9565b0361121e5780158015611126575b50508315928315611022575b5050505050600160ff198254161790555490557f9285bd636dda01bef18996aa38303bb742f6c67a6941646dddb17630cb492c2e600080a2005b60038201546001600160a01b03939084168061106b575050506000938493849360018594015416908390611062575bf11561025b575b8480808080610fe8565b506108fc611051565b6001939093015460405163a9059cbb60e01b815294166001600160a01b03166004850152602484019590955293925083908290816000816044810103925af190811561025b57600091611109575b50156110c6575050611058565b90601e6064926040519262461bcd60e51b845260048401528201527f546f6b656e207472616e7366657220746f207061796572206661696c656400006044820152fd5b6111209150833d85116103245761031681836113cc565b876110b9565b60038301546001600160a01b0390869082168061116c5750506000809381938293600288015416908390611163575bf11561025b575b8880610fdc565b506108fc611155565b600286015460405163a9059cbb60e01b815293166001600160a01b03166004840152602483019490945290929091508290816000816044810103925af190811561025b57600091611201575b5061115c5760405162461bcd60e51b815260048101849052601e818401527f546f6b656e207472616e7366657220746f207061796565206661696c656400006044820152606490fd5b6112189150843d86116103245761031681836113cc565b896111b8565b60405162461bcd60e51b8152600481018590526023818501527f416d6f756e747320646f6e2774206d617463682072656d61696e696e672066756044820152626e647360e81b6064820152608490fd5b9060136064926040519262461bcd60e51b8452600484015282015272115cd8dc9bddc81b9bdd08191a5cdc1d5d1959606a1b6044820152fd5b50634e487b7160e01b60009081526021600452fd5b3461018a57602036600319011261018a57600435600052600260205260406000208054610e2960018060a01b03806001850154169381600282015416916003820154166113586004830154600584015460ff6006860154169160078601549461132c6009600889015498016113ee565b976040519b8c9b8c5260208c015260408b015260608a0152608089015260a088015260c0870190611494565b60e0850152610100840152610140806101208501528301906114a1565b90600182811c921680156113a5575b602083101461138f57565b634e487b7160e01b600052602260045260246000fd5b91607f1691611384565b610140810190811067ffffffffffffffff8211176109c657604052565b90601f8019910116810190811067ffffffffffffffff8211176109c657604052565b906040519182600082549261140284611375565b908184526001948581169081600014611471575060011461142e575b505061142c925003836113cc565b565b9093915060005260209081600020936000915b81831061145957505061142c9350820101388061141e565b85548884018501529485019487945091830191611441565b91505061142c94506020925060ff191682840152151560051b820101388061141e565b90600482101561037b5752565b919082519283825260005b8481106114cd575050826000602080949584010152601f8019910116010190565b6020818301810151848301820152016114ac565b600435906001600160a01b038216820361018a57565b805482101561150f5760005260206000200190600090565b634e487b7160e01b600052603260045260246000fd5b6000546001600160a01b0316330361153957565b606460405162461bcd60e51b815260206004820152602060248201527f4f776e61626c653a2063616c6c6572206973206e6f7420746865206f776e65726044820152fd5b1561158457565b60405162461bcd60e51b815260206004820152601d60248201527f416d6f756e74206d7573742062652067726561746572207468616e20300000006044820152606490fd5b9081602091031261018a5751801515810361018a5790565b156115e857565b60405162461bcd60e51b8152602060048201526015602482015274151bdad95b881d1c985b9cd9995c8819985a5b1959605a1b6044820152606490fd5b8054680100000000000000008110156109c657611647916001820181556114f7565b819291549060031b91821b91600019901b1916179055565b1561166657565b60405162461bcd60e51b815260206004820152600e60248201526d139bdd08185d5d1a1bdc9a5e995960921b6044820152606490fd5b156116a357565b60405162461bcd60e51b8152602060048201526011602482015270457363726f77206e6f742061637469766560781b6044820152606490fd5b91908201809211610a8857565b91908203918211610a885756fea26469706673582212200c4207f8454d31f00180fffa20b586fdc4d9b0bafaa3328ed81fa32aa6c3e33864736f6c63430008140033","opcodes":"PUSH1 0x80 DUP1 PUSH1 0x40 MSTORE CALLVALUE PUSH2 0x6B JUMPI PUSH1 0x0 DUP1 SLOAD CALLER PUSH1 0x1 PUSH1 0x1 PUSH1 0xA0 SHL SUB NOT DUP3 AND DUP2 OR DUP4 SSTORE SWAP2 PUSH1 0x1 PUSH1 0x1 PUSH1 0xA0 SHL SUB SWAP1 SWAP2 AND SWAP1 PUSH32 0x8BE0079C531659141344CD1FD0A4F28419497F9722A3DAAFE3B4186F6B6457E0 SWAP1 DUP1 LOG3 PUSH1 0x1 DUP1 SSTORE PUSH1 0x1 PUSH1 0x4 SSTORE PUSH3 0x93A80 PUSH1 0x5 SSTORE PUSH2 0x172C SWAP1 DUP2 PUSH2 0x71 DUP3 CODECOPY RETURN JUMPDEST PUSH1 0x0 DUP1 REVERT INVALID PUSH1 0x80 PUSH1 0x40 MSTORE PUSH1 0x4 CALLDATASIZE LT ISZERO PUSH2 0x12 JUMPI PUSH1 0x0 DUP1 REVERT JUMPDEST PUSH1 0x0 CALLDATALOAD PUSH1 0xE0 SHR DUP1 PUSH4 0x12F52EE EQ PUSH2 0x12BC JUMPI DUP1 PUSH4 0x3FABE74F EQ PUSH2 0xF5B JUMPI DUP1 PUSH4 0x5CCEA85E EQ PUSH2 0xEA7 JUMPI DUP1 PUSH4 0x708831E4 EQ PUSH2 0xE86 JUMPI DUP1 PUSH4 0x715018A6 EQ PUSH2 0xE2D JUMPI DUP1 PUSH4 0x7D19E596 EQ PUSH2 0xC90 JUMPI DUP1 PUSH4 0x7E4DCC06 EQ PUSH2 0xC72 JUMPI DUP1 PUSH4 0x7F944DD0 EQ PUSH2 0xC19 JUMPI DUP1 PUSH4 0x89CB29DD EQ PUSH2 0xBFB JUMPI DUP1 PUSH4 0x8DA5CB5B EQ PUSH2 0xBD2 JUMPI DUP1 PUSH4 0xA5C1674E EQ PUSH2 0xB20 JUMPI DUP1 PUSH4 0xD27DC2DB EQ PUSH2 0x65F JUMPI DUP1 PUSH4 0xDF7843AE EQ PUSH2 0x3CE JUMPI DUP1 PUSH4 0xE0182436 EQ PUSH2 0x18F JUMPI PUSH4 0xF2FDE38B EQ PUSH2 0xC1 JUMPI PUSH1 0x0 DUP1 REVERT JUMPDEST CALLVALUE PUSH2 0x18A JUMPI PUSH1 0x20 CALLDATASIZE PUSH1 0x3 NOT ADD SLT PUSH2 0x18A JUMPI PUSH2 0xDA PUSH2 0x14E1 JUMP JUMPDEST PUSH2 0xE2 PUSH2 0x1525 JUMP JUMPDEST PUSH1 0x1 PUSH1 0x1 PUSH1 0xA0 SHL SUB SWAP1 DUP2 AND SWAP1 DUP2 ISZERO PUSH2 0x136 JUMPI PUSH1 0x0 SLOAD DUP3 PUSH12 0xFFFFFFFFFFFFFFFFFFFFFFFF PUSH1 0xA0 SHL DUP3 AND OR PUSH1 0x0 SSTORE AND PUSH32 0x8BE0079C531659141344CD1FD0A4F28419497F9722A3DAAFE3B4186F6B6457E0 PUSH1 0x0 DUP1 LOG3 STOP JUMPDEST PUSH1 0x40 MLOAD PUSH3 0x461BCD PUSH1 0xE5 SHL DUP2 MSTORE PUSH1 0x20 PUSH1 0x4 DUP3 ADD MSTORE PUSH1 0x26 PUSH1 0x24 DUP3 ADD MSTORE PUSH32 0x4F776E61626C653A206E6577206F776E657220697320746865207A65726F2061 PUSH1 0x44 DUP3 ADD MSTORE PUSH6 0x646472657373 PUSH1 0xD0 SHL PUSH1 0x64 DUP3 ADD MSTORE PUSH1 0x84 SWAP1 REVERT JUMPDEST PUSH1 0x0 DUP1 REVERT JUMPDEST CALLVALUE PUSH2 0x18A JUMPI PUSH1 0x20 DUP1 PUSH1 0x3 NOT CALLDATASIZE ADD SLT PUSH2 0x18A JUMPI PUSH1 0x4 CALLDATALOAD SWAP1 DUP2 PUSH1 0x0 MSTORE PUSH1 0x2 DUP2 MSTORE PUSH1 0x40 PUSH1 0x0 KECCAK256 SWAP1 PUSH1 0x1 DUP3 ADD PUSH1 0x1 DUP1 PUSH1 0xA0 SHL SUB SWAP2 DUP3 DUP3 SLOAD AND DUP1 CALLER SUB PUSH2 0x391 JUMPI PUSH1 0x6 DUP6 ADD DUP1 SLOAD SWAP1 PUSH1 0xFF DUP3 AND PUSH1 0x4 DUP2 LT ISZERO PUSH2 0x37B JUMPI PUSH2 0x1E8 SWAP1 ISZERO PUSH2 0x169C JUMP JUMPDEST PUSH1 0x5 DUP8 ADD SLOAD SWAP2 DUP3 PUSH2 0x32B JUMPI DUP7 SWAP3 PUSH1 0x3 SWAP3 DUP4 PUSH2 0x20E SWAP4 PUSH1 0xFF NOT AND OR SWAP1 SSTORE PUSH1 0x4 DUP10 ADD SLOAD PUSH2 0x16E9 JUMP JUMPDEST SWAP7 ADD SLOAD AND SWAP1 DUP2 PUSH2 0x270 JUMPI POP POP POP PUSH1 0x0 DUP1 SWAP4 DUP2 SWAP4 DUP3 SWAP4 SLOAD AND DUP3 DUP3 ISZERO PUSH2 0x267 JUMPI JUMPDEST CALL ISZERO PUSH2 0x25B JUMPI JUMPDEST PUSH32 0xD977C6B1A383AC5CE532B4A668D0EF9AD38478E1A5FF28ABB221F4B682B2643 PUSH1 0x0 DUP1 LOG2 STOP JUMPDEST PUSH1 0x40 MLOAD RETURNDATASIZE PUSH1 0x0 DUP3 RETURNDATACOPY RETURNDATASIZE SWAP1 REVERT JUMPDEST POP PUSH2 0x8FC PUSH2 0x22D JUMP JUMPDEST PUSH1 0x40 MLOAD PUSH4 0xA9059CBB PUSH1 0xE0 SHL DUP2 MSTORE PUSH1 0x1 PUSH1 0x1 PUSH1 0xA0 SHL SUB SWAP2 SWAP1 SWAP2 AND PUSH1 0x4 DUP3 ADD MSTORE PUSH1 0x24 DUP2 ADD SWAP6 SWAP1 SWAP6 MSTORE SWAP1 SWAP4 SWAP3 POP DUP4 SWAP2 POP DUP3 SWAP1 PUSH1 0x44 SWAP1 DUP3 SWAP1 PUSH1 0x0 SWAP1 GAS CALL SWAP1 DUP2 ISZERO PUSH2 0x25B JUMPI PUSH1 0x0 SWAP2 PUSH2 0x2FE JUMPI JUMPDEST POP ISZERO PUSH2 0x2C4 JUMPI POP PUSH2 0x234 JUMP JUMPDEST PUSH1 0x64 SWAP1 PUSH1 0x40 MLOAD SWAP1 PUSH3 0x461BCD PUSH1 0xE5 SHL DUP3 MSTORE PUSH1 0x4 DUP3 ADD MSTORE PUSH1 0x13 PUSH1 0x24 DUP3 ADD MSTORE PUSH19 0x151BDAD95B881C99599D5B990819985A5B1959 PUSH1 0x6A SHL PUSH1 0x44 DUP3 ADD MSTORE REVERT JUMPDEST PUSH2 0x31E SWAP2 POP DUP3 RETURNDATASIZE DUP5 GT PUSH2 0x324 JUMPI JUMPDEST PUSH2 0x316 DUP2 DUP4 PUSH2 0x13CC JUMP JUMPDEST DUP2 ADD SWAP1 PUSH2 0x15C9 JUMP JUMPDEST DUP4 PUSH2 0x2B8 JUMP JUMPDEST POP RETURNDATASIZE PUSH2 0x30C JUMP JUMPDEST PUSH1 0x40 MLOAD PUSH3 0x461BCD PUSH1 0xE5 SHL DUP2 MSTORE PUSH1 0x4 DUP2 ADD DUP7 SWAP1 MSTORE PUSH1 0x22 PUSH1 0x24 DUP3 ADD MSTORE PUSH32 0x43616E6E6F742063616E63656C2061667465722066756E64732072656C656173 PUSH1 0x44 DUP3 ADD MSTORE PUSH2 0x1959 PUSH1 0xF2 SHL PUSH1 0x64 DUP3 ADD MSTORE PUSH1 0x84 SWAP1 REVERT JUMPDEST PUSH4 0x4E487B71 PUSH1 0xE0 SHL PUSH1 0x0 MSTORE PUSH1 0x21 PUSH1 0x4 MSTORE PUSH1 0x24 PUSH1 0x0 REVERT JUMPDEST PUSH1 0x40 MLOAD PUSH3 0x461BCD PUSH1 0xE5 SHL DUP2 MSTORE PUSH1 0x4 DUP2 ADD DUP4 SWAP1 MSTORE PUSH1 0x15 PUSH1 0x24 DUP3 ADD MSTORE PUSH21 0x13DB9B1E481C185E595C8818D85B8818D85B98D95B PUSH1 0x5A SHL PUSH1 0x44 DUP3 ADD MSTORE PUSH1 0x64 SWAP1 REVERT JUMPDEST CALLVALUE PUSH2 0x18A JUMPI PUSH1 0x40 CALLDATASIZE PUSH1 0x3 NOT ADD SLT PUSH2 0x18A JUMPI PUSH1 0x4 CALLDATALOAD PUSH1 0x24 CALLDATALOAD SWAP1 DUP1 PUSH1 0x0 MSTORE PUSH1 0x2 SWAP2 PUSH1 0x20 SWAP1 DUP4 DUP3 MSTORE PUSH1 0x40 PUSH1 0x0 KECCAK256 SWAP4 PUSH1 0x1 DUP1 PUSH1 0xA0 SHL SUB SWAP3 PUSH2 0x421 PUSH1 0x1 SWAP7 DUP6 DUP5 DUP2 DUP11 DUP5 ADD SLOAD AND CALLER EQ SWAP3 DUP4 ISZERO PUSH2 0x650 JUMPI JUMPDEST POP POP POP PUSH2 0x165F JUMP JUMPDEST DUP2 DUP7 SLOAD EQ PUSH2 0x60C JUMPI DUP2 DUP7 SSTORE DUP5 PUSH1 0x0 MSTORE DUP2 DUP2 MSTORE PUSH1 0x40 PUSH1 0x0 KECCAK256 SWAP3 PUSH1 0x6 DUP5 ADD SWAP5 PUSH1 0xFF DUP7 SLOAD AND PUSH1 0x4 DUP2 LT ISZERO PUSH2 0x37B JUMPI PUSH2 0x456 SWAP1 ISZERO PUSH2 0x169C JUMP JUMPDEST DUP2 ISZERO SWAP1 PUSH2 0x463 DUP3 ISZERO PUSH2 0x157D JUMP JUMPDEST PUSH1 0x5 DUP7 ADD SWAP5 DUP6 SLOAD SWAP7 PUSH2 0x475 DUP6 DUP10 PUSH2 0x16DC JUMP JUMPDEST SWAP8 PUSH1 0x4 DUP3 ADD SWAP9 DUP10 SLOAD LT PUSH2 0x5C7 JUMPI DUP6 PUSH2 0x48C SWAP2 PUSH2 0x16DC JUMP JUMPDEST DUP8 SSTORE PUSH1 0x3 DUP2 ADD SLOAD DUP4 AND DUP1 PUSH2 0x52E JUMPI POP DUP5 PUSH1 0x0 SWAP5 DUP6 SWAP5 DUP6 SWAP5 DUP6 SWAP5 ADD SLOAD AND SWAP1 DUP4 SWAP1 PUSH2 0x525 JUMPI JUMPDEST CALL ISZERO PUSH2 0x25B JUMPI DUP6 SWAP2 PUSH32 0x80230996023D69B50793FA73F1919127C9D8E741D3989743C479169F22E7A288 SWAP2 JUMPDEST PUSH1 0x40 MLOAD SWAP1 DUP2 MSTORE LOG2 SLOAD SWAP1 SLOAD EQ PUSH2 0x4EF JUMPI DUP3 DUP1 SSTORE STOP JUMPDEST DUP1 SLOAD PUSH1 0xFF NOT AND DUP4 OR SWAP1 SSTORE PUSH32 0x9285BD636DDA01BEF18996AA38303BB742F6C67A6941646DDDB17630CB492C2E PUSH1 0x0 DUP1 LOG2 DUP2 DUP1 DUP3 DUP1 SSTORE STOP JUMPDEST POP PUSH2 0x8FC PUSH2 0x4B0 JUMP JUMPDEST SWAP2 ADD SLOAD PUSH1 0x40 MLOAD PUSH4 0xA9059CBB PUSH1 0xE0 SHL DUP2 MSTORE SWAP3 AND PUSH1 0x1 PUSH1 0x1 PUSH1 0xA0 SHL SUB AND PUSH1 0x4 DUP4 ADD MSTORE PUSH1 0x24 DUP3 ADD DUP5 SWAP1 MSTORE SWAP1 SWAP4 SWAP2 POP DUP2 SWAP1 DUP5 SWAP1 DUP2 PUSH1 0x0 DUP2 PUSH1 0x44 DUP2 ADD SUB SWAP3 GAS CALL SWAP2 DUP3 ISZERO PUSH2 0x25B JUMPI PUSH2 0x5A5 PUSH32 0x80230996023D69B50793FA73F1919127C9D8E741D3989743C479169F22E7A288 SWAP4 DUP10 SWAP6 PUSH1 0x0 SWAP2 PUSH2 0x5AA JUMPI JUMPDEST POP PUSH2 0x15E1 JUMP JUMPDEST PUSH2 0x4DB JUMP JUMPDEST PUSH2 0x5C1 SWAP2 POP DUP5 RETURNDATASIZE DUP7 GT PUSH2 0x324 JUMPI PUSH2 0x316 DUP2 DUP4 PUSH2 0x13CC JUMP JUMPDEST DUP12 PUSH2 0x59F JUMP JUMPDEST PUSH1 0x40 MLOAD PUSH3 0x461BCD PUSH1 0xE5 SHL DUP2 MSTORE PUSH1 0x4 DUP2 ADD DUP9 SWAP1 MSTORE PUSH1 0x1C PUSH1 0x24 DUP3 ADD MSTORE PUSH32 0x496E73756666696369656E742066756E647320696E20657363726F7700000000 PUSH1 0x44 DUP3 ADD MSTORE PUSH1 0x64 SWAP1 REVERT JUMPDEST PUSH1 0x64 SWAP1 PUSH1 0x40 MLOAD SWAP1 PUSH3 0x461BCD PUSH1 0xE5 SHL DUP3 MSTORE PUSH1 0x4 DUP3 ADD MSTORE PUSH1 0x1F PUSH1 0x24 DUP3 ADD MSTORE PUSH32 0x5265656E7472616E637947756172643A207265656E7472616E742063616C6C00 PUSH1 0x44 DUP3 ADD MSTORE REVERT JUMPDEST ADD SLOAD AND CALLER EQ SWAP1 POP DUP6 DUP5 DUP11 PUSH2 0x419 JUMP JUMPDEST PUSH1 0xA0 CALLDATASIZE PUSH1 0x3 NOT ADD SLT PUSH2 0x18A JUMPI PUSH2 0x673 PUSH2 0x14E1 JUMP JUMPDEST PUSH1 0x24 CALLDATALOAD SWAP1 PUSH1 0x1 PUSH1 0x1 PUSH1 0xA0 SHL SUB DUP3 AND DUP3 SUB PUSH2 0x18A JUMPI PUSH1 0x84 CALLDATALOAD SWAP1 PUSH8 0xFFFFFFFFFFFFFFFF DUP3 GT PUSH2 0x18A JUMPI CALLDATASIZE PUSH1 0x23 DUP4 ADD SLT ISZERO PUSH2 0x18A JUMPI DUP2 PUSH1 0x4 ADD CALLDATALOAD PUSH8 0xFFFFFFFFFFFFFFFF DUP2 GT PUSH2 0x9C6 JUMPI PUSH1 0x40 MLOAD SWAP3 PUSH2 0x6D1 PUSH1 0x1F DUP4 ADD PUSH1 0x1F NOT AND PUSH1 0x20 ADD DUP6 PUSH2 0x13CC JUMP JUMPDEST DUP2 DUP5 MSTORE CALLDATASIZE PUSH1 0x24 DUP4 DUP4 ADD ADD GT PUSH2 0x18A JUMPI DUP2 PUSH1 0x0 SWAP3 PUSH1 0x24 PUSH1 0x20 SWAP4 ADD DUP4 DUP8 ADD CALLDATACOPY DUP5 ADD ADD MSTORE PUSH1 0x1 PUSH1 0x1 PUSH1 0xA0 SHL SUB DUP2 AND ISZERO PUSH2 0xAE3 JUMPI PUSH2 0x70E PUSH1 0x44 CALLDATALOAD ISZERO ISZERO PUSH2 0x157D JUMP JUMPDEST TIMESTAMP PUSH1 0x64 CALLDATALOAD GT ISZERO PUSH2 0xA9E JUMPI PUSH1 0x4 SLOAD SWAP2 PUSH1 0x0 NOT DUP4 EQ PUSH2 0xA88 JUMPI PUSH1 0x1 DUP4 ADD PUSH1 0x4 SSTORE PUSH1 0x1 PUSH1 0x1 PUSH1 0xA0 SHL SUB DUP5 AND PUSH2 0xA18 JUMPI PUSH1 0x44 CALLDATALOAD CALLVALUE SUB PUSH2 0x9DC JUMPI JUMPDEST PUSH1 0x40 MLOAD SWAP4 PUSH2 0x751 DUP6 PUSH2 0x13AF JUMP JUMPDEST DUP4 DUP6 MSTORE CALLER PUSH1 0x20 DUP1 DUP8 ADD SWAP2 DUP3 MSTORE PUSH1 0x1 PUSH1 0x1 PUSH1 0xA0 SHL SUB DUP6 DUP2 AND PUSH1 0x40 DUP1 DUP11 ADD SWAP2 DUP3 MSTORE SWAP5 DUP3 AND PUSH1 0x60 DUP11 ADD SWAP1 DUP2 MSTORE PUSH1 0x44 CALLDATALOAD PUSH1 0x80 DUP12 ADD SWAP1 DUP2 MSTORE PUSH1 0x0 PUSH1 0xA0 DUP13 ADD DUP2 DUP2 MSTORE PUSH1 0xC0 DUP14 ADD DUP3 DUP2 MSTORE TIMESTAMP PUSH1 0xE0 DUP16 ADD MSTORE PUSH1 0x64 CALLDATALOAD PUSH2 0x100 DUP16 ADD MSTORE PUSH2 0x120 DUP15 ADD SWAP11 SWAP1 SWAP11 MSTORE DUP12 DUP3 MSTORE PUSH1 0x2 SWAP7 DUP8 SWAP1 MSTORE SWAP8 SWAP1 KECCAK256 DUP12 MLOAD DUP2 SSTORE SWAP6 MLOAD PUSH1 0x1 DUP8 ADD DUP1 SLOAD SWAP2 DUP7 AND PUSH1 0x1 PUSH1 0x1 PUSH1 0xA0 SHL SUB NOT SWAP3 DUP4 AND OR SWAP1 SSTORE SWAP3 MLOAD SWAP5 DUP7 ADD DUP1 SLOAD SWAP6 DUP6 AND SWAP6 DUP5 AND SWAP6 SWAP1 SWAP6 OR SWAP1 SWAP5 SSTORE MLOAD PUSH1 0x3 DUP6 ADD DUP1 SLOAD SWAP2 SWAP1 SWAP4 AND SWAP2 AND OR SWAP1 SSTORE MLOAD PUSH1 0x4 DUP1 DUP4 ADD SWAP2 SWAP1 SWAP2 SSTORE SWAP2 MLOAD PUSH1 0x5 DUP3 ADD SSTORE SWAP2 MLOAD PUSH1 0x6 DUP4 ADD SWAP3 SWAP1 SWAP2 DUP3 LT ISZERO PUSH2 0x37B JUMPI PUSH2 0x120 SWAP3 PUSH1 0x9 SWAP3 PUSH1 0xFF DUP1 NOT DUP4 SLOAD AND SWAP2 AND OR SWAP1 SSTORE PUSH1 0xE0 DUP7 ADD MLOAD PUSH1 0x7 DUP3 ADD SSTORE PUSH2 0x100 DUP7 ADD MLOAD PUSH1 0x8 DUP3 ADD SSTORE ADD SWAP4 ADD MLOAD SWAP3 DUP4 MLOAD PUSH8 0xFFFFFFFFFFFFFFFF DUP2 GT PUSH2 0x9C6 JUMPI PUSH2 0x863 DUP3 SLOAD PUSH2 0x1375 JUMP JUMPDEST PUSH1 0x1F DUP2 GT PUSH2 0x97E JUMPI JUMPDEST POP DUP1 PUSH1 0x20 SWAP6 DUP7 SWAP1 PUSH1 0x1F DUP4 GT PUSH1 0x1 EQ PUSH2 0x91A JUMPI PUSH1 0x0 SWAP3 PUSH2 0x90F JUMPI JUMPDEST POP POP DUP2 PUSH1 0x1 SHL SWAP2 PUSH1 0x0 NOT SWAP1 PUSH1 0x3 SHL SHR NOT AND OR SWAP1 SSTORE JUMPDEST CALLER PUSH1 0x0 MSTORE PUSH1 0x3 DUP4 MSTORE PUSH2 0x8B1 DUP3 PUSH1 0x40 PUSH1 0x0 KECCAK256 PUSH2 0x1625 JUMP JUMPDEST PUSH1 0x1 DUP1 PUSH1 0xA0 SHL SUB DUP2 AND PUSH1 0x0 MSTORE PUSH1 0x3 DUP4 MSTORE PUSH2 0x8CF DUP3 PUSH1 0x40 PUSH1 0x0 KECCAK256 PUSH2 0x1625 JUMP JUMPDEST PUSH1 0x40 MLOAD SWAP1 PUSH1 0x44 CALLDATALOAD DUP3 MSTORE PUSH1 0x1 DUP1 PUSH1 0xA0 SHL SUB AND SWAP1 DUP3 PUSH32 0x9405AD0A6208539879349284D71265479B1623846F70303DA1F9890D6E8C10A7 DUP6 CALLER SWAP4 LOG4 PUSH1 0x40 MLOAD SWAP1 DUP2 MSTORE RETURN JUMPDEST ADD MLOAD SWAP1 POP DUP7 DUP1 PUSH2 0x886 JUMP JUMPDEST PUSH1 0x0 DUP6 DUP2 MSTORE DUP9 DUP2 KECCAK256 SWAP4 POP PUSH1 0x1F NOT DUP6 AND SWAP1 JUMPDEST DUP2 DUP2 LT PUSH2 0x967 JUMPI POP SWAP1 DUP5 PUSH1 0x1 SWAP6 SWAP5 SWAP4 SWAP3 LT PUSH2 0x94E JUMPI JUMPDEST POP POP POP DUP2 SHL ADD SWAP1 SSTORE PUSH2 0x89B JUMP JUMPDEST ADD MLOAD PUSH1 0x0 NOT PUSH1 0xF8 DUP5 PUSH1 0x3 SHL AND SHR NOT AND SWAP1 SSTORE DUP7 DUP1 DUP1 PUSH2 0x941 JUMP JUMPDEST SWAP3 SWAP4 DUP10 PUSH1 0x1 DUP2 SWAP3 DUP8 DUP7 ADD MLOAD DUP2 SSTORE ADD SWAP6 ADD SWAP4 ADD PUSH2 0x92B JUMP JUMPDEST DUP3 PUSH1 0x0 MSTORE PUSH1 0x20 PUSH1 0x0 KECCAK256 PUSH1 0x1F DUP4 ADD PUSH1 0x5 SHR DUP2 ADD SWAP2 PUSH1 0x20 DUP5 LT PUSH2 0x9BC JUMPI JUMPDEST PUSH1 0x1F ADD PUSH1 0x5 SHR ADD SWAP1 JUMPDEST DUP2 DUP2 LT PUSH2 0x9B0 JUMPI POP PUSH2 0x86C JUMP JUMPDEST PUSH1 0x0 DUP2 SSTORE PUSH1 0x1 ADD PUSH2 0x9A3 JUMP JUMPDEST SWAP1 SWAP2 POP DUP2 SWAP1 PUSH2 0x99A JUMP JUMPDEST PUSH4 0x4E487B71 PUSH1 0xE0 SHL PUSH1 0x0 MSTORE PUSH1 0x41 PUSH1 0x4 MSTORE PUSH1 0x24 PUSH1 0x0 REVERT JUMPDEST PUSH1 0x40 MLOAD PUSH3 0x461BCD PUSH1 0xE5 SHL DUP2 MSTORE PUSH1 0x20 PUSH1 0x4 DUP3 ADD MSTORE PUSH1 0x14 PUSH1 0x24 DUP3 ADD MSTORE PUSH20 0x125B98DBDC9C9958DD0811551208185B5BDD5B9D PUSH1 0x62 SHL PUSH1 0x44 DUP3 ADD MSTORE PUSH1 0x64 SWAP1 REVERT JUMPDEST PUSH1 0x40 MLOAD PUSH4 0x23B872DD PUSH1 0xE0 SHL DUP2 MSTORE CALLER PUSH1 0x4 DUP3 ADD MSTORE ADDRESS PUSH1 0x24 DUP3 ADD MSTORE PUSH1 0x44 DUP1 CALLDATALOAD SWAP1 DUP3 ADD MSTORE PUSH1 0x20 DUP2 PUSH1 0x64 DUP2 PUSH1 0x0 PUSH1 0x1 PUSH1 0x1 PUSH1 0xA0 SHL SUB DUP11 AND GAS CALL DUP1 ISZERO PUSH2 0x25B JUMPI PUSH2 0xA64 SWAP2 PUSH1 0x0 SWAP2 PUSH2 0xA69 JUMPI POP PUSH2 0x15E1 JUMP JUMPDEST PUSH2 0x744 JUMP JUMPDEST PUSH2 0xA82 SWAP2 POP PUSH1 0x20 RETURNDATASIZE PUSH1 0x20 GT PUSH2 0x324 JUMPI PUSH2 0x316 DUP2 DUP4 PUSH2 0x13CC JUMP JUMPDEST DUP7 PUSH2 0x59F JUMP JUMPDEST PUSH4 0x4E487B71 PUSH1 0xE0 SHL PUSH1 0x0 MSTORE PUSH1 0x11 PUSH1 0x4 MSTORE PUSH1 0x24 PUSH1 0x0 REVERT JUMPDEST PUSH1 0x40 MLOAD PUSH3 0x461BCD PUSH1 0xE5 SHL DUP2 MSTORE PUSH1 0x20 PUSH1 0x4 DUP3 ADD MSTORE PUSH1 0x1E PUSH1 0x24 DUP3 ADD MSTORE PUSH32 0x446561646C696E65206D75737420626520696E20746865206675747572650000 PUSH1 0x44 DUP3 ADD MSTORE PUSH1 0x64 SWAP1 REVERT JUMPDEST PUSH1 0x40 MLOAD PUSH3 0x461BCD PUSH1 0xE5 SHL DUP2 MSTORE PUSH1 0x20 PUSH1 0x4 DUP3 ADD MSTORE PUSH1 0x15 PUSH1 0x24 DUP3 ADD MSTORE PUSH21 0x496E76616C69642070617965652061646472657373 PUSH1 0x58 SHL PUSH1 0x44 DUP3 ADD MSTORE PUSH1 0x64 SWAP1 REVERT JUMPDEST CALLVALUE PUSH2 0x18A JUMPI PUSH1 0x20 CALLDATASIZE PUSH1 0x3 NOT ADD SLT PUSH2 0x18A JUMPI PUSH1 0x4 CALLDATALOAD DUP1 PUSH1 0x0 MSTORE PUSH1 0x2 PUSH1 0x20 MSTORE PUSH2 0xB64 PUSH1 0x40 PUSH1 0x0 KECCAK256 PUSH1 0x1 DUP1 PUSH1 0xA0 SHL SUB DUP1 PUSH1 0x1 DUP4 ADD SLOAD AND CALLER EQ SWAP2 DUP3 ISZERO PUSH2 0xBC1 JUMPI JUMPDEST POP POP PUSH2 0x165F JUMP JUMPDEST DUP1 PUSH1 0x0 MSTORE PUSH1 0x2 PUSH1 0x20 MSTORE PUSH1 0x6 PUSH1 0x40 PUSH1 0x0 KECCAK256 ADD DUP1 SLOAD PUSH1 0xFF DUP2 AND SWAP1 PUSH1 0x4 DUP3 LT ISZERO PUSH2 0x37B JUMPI PUSH2 0xB91 PUSH1 0x2 SWAP3 ISZERO PUSH2 0x169C JUMP JUMPDEST PUSH1 0xFF NOT AND OR SWAP1 SSTORE CALLER SWAP1 PUSH32 0x84A477DF8A28A4276CA6DEE4458A06C3015F30C477D9C949EDE4E13FF8A552B4 PUSH1 0x0 DUP1 LOG3 STOP JUMPDEST PUSH1 0x2 SWAP2 SWAP3 POP ADD SLOAD AND CALLER EQ DUP4 DUP1 PUSH2 0xB5D JUMP JUMPDEST CALLVALUE PUSH2 0x18A JUMPI PUSH1 0x0 CALLDATASIZE PUSH1 0x3 NOT ADD SLT PUSH2 0x18A JUMPI PUSH1 0x0 SLOAD PUSH1 0x40 MLOAD PUSH1 0x1 PUSH1 0x1 PUSH1 0xA0 SHL SUB SWAP1 SWAP2 AND DUP2 MSTORE PUSH1 0x20 SWAP1 RETURN JUMPDEST CALLVALUE PUSH2 0x18A JUMPI PUSH1 0x0 CALLDATASIZE PUSH1 0x3 NOT ADD SLT PUSH2 0x18A JUMPI PUSH1 0x20 PUSH1 0x4 SLOAD PUSH1 0x40 MLOAD SWAP1 DUP2 MSTORE RETURN JUMPDEST CALLVALUE PUSH2 0x18A JUMPI PUSH1 0x40 CALLDATASIZE PUSH1 0x3 NOT ADD SLT PUSH2 0x18A JUMPI PUSH2 0xC32 PUSH2 0x14E1 JUMP JUMPDEST PUSH1 0x1 PUSH1 0x1 PUSH1 0xA0 SHL SUB AND PUSH1 0x0 SWAP1 DUP2 MSTORE PUSH1 0x3 PUSH1 0x20 MSTORE PUSH1 0x40 SWAP1 KECCAK256 DUP1 SLOAD PUSH1 0x24 CALLDATALOAD SWAP2 SWAP1 DUP3 LT ISZERO PUSH2 0x18A JUMPI PUSH1 0x20 SWAP2 PUSH2 0xC63 SWAP2 PUSH2 0x14F7 JUMP JUMPDEST SWAP1 SLOAD SWAP1 PUSH1 0x3 SHL SHR PUSH1 0x40 MLOAD SWAP1 DUP2 MSTORE RETURN JUMPDEST CALLVALUE PUSH2 0x18A JUMPI PUSH1 0x0 CALLDATASIZE PUSH1 0x3 NOT ADD SLT PUSH2 0x18A JUMPI PUSH1 0x20 PUSH1 0x5 SLOAD PUSH1 0x40 MLOAD SWAP1 DUP2 MSTORE RETURN JUMPDEST CALLVALUE PUSH2 0x18A JUMPI PUSH1 0x20 CALLDATASIZE PUSH1 0x3 NOT ADD SLT PUSH2 0x18A JUMPI PUSH1 0x60 PUSH2 0x120 PUSH1 0x40 MLOAD PUSH2 0xCB2 DUP2 PUSH2 0x13AF JUMP JUMPDEST PUSH1 0x0 DUP2 MSTORE PUSH1 0x0 PUSH1 0x20 DUP3 ADD MSTORE PUSH1 0x0 PUSH1 0x40 DUP3 ADD MSTORE PUSH1 0x0 DUP4 DUP3 ADD MSTORE PUSH1 0x0 PUSH1 0x80 DUP3 ADD MSTORE PUSH1 0x0 PUSH1 0xA0 DUP3 ADD MSTORE PUSH1 0x0 PUSH1 0xC0 DUP3 ADD MSTORE PUSH1 0x0 PUSH1 0xE0 DUP3 ADD MSTORE PUSH1 0x0 PUSH2 0x100 DUP3 ADD MSTORE ADD MSTORE PUSH1 0x4 CALLDATALOAD PUSH1 0x0 MSTORE PUSH1 0x2 PUSH1 0x20 MSTORE PUSH1 0x40 PUSH1 0x0 KECCAK256 PUSH1 0x40 MLOAD PUSH2 0xD0C DUP2 PUSH2 0x13AF JUMP JUMPDEST DUP2 SLOAD DUP2 MSTORE PUSH1 0x1 DUP3 ADD SLOAD PUSH1 0x1 PUSH1 0x1 PUSH1 0xA0 SHL SUB SWAP1 DUP2 AND PUSH1 0x20 DUP4 ADD MSTORE PUSH1 0x2 DUP4 ADD SLOAD DUP2 AND PUSH1 0x40 DUP4 ADD MSTORE PUSH1 0x3 DUP4 ADD SLOAD AND PUSH1 0x60 DUP3 ADD MSTORE PUSH1 0x4 DUP1 DUP4 ADD SLOAD PUSH1 0x80 DUP4 ADD MSTORE PUSH1 0x5 DUP4 ADD SLOAD PUSH1 0xA0 DUP4 ADD MSTORE PUSH1 0x6 DUP4 ADD SLOAD PUSH1 0xFF AND SWAP3 SWAP1 DUP4 LT ISZERO PUSH2 0x37B JUMPI PUSH1 0x9 PUSH2 0xD8C SWAP2 PUSH2 0x120 SWAP5 PUSH1 0xC0 DUP6 ADD MSTORE PUSH1 0x7 DUP2 ADD SLOAD PUSH1 0xE0 DUP6 ADD MSTORE PUSH1 0x8 DUP2 ADD SLOAD PUSH2 0x100 DUP6 ADD MSTORE ADD PUSH2 0x13EE JUMP JUMPDEST DUP3 DUP3 ADD MSTORE PUSH2 0xE29 PUSH1 0x40 MLOAD SWAP3 DUP4 SWAP3 PUSH1 0x20 DUP5 MSTORE DUP1 MLOAD PUSH1 0x20 DUP6 ADD MSTORE PUSH1 0x1 DUP1 PUSH1 0xA0 SHL SUB PUSH1 0x20 DUP3 ADD MLOAD AND PUSH1 0x40 DUP6 ADD MSTORE PUSH1 0x1 DUP1 PUSH1 0xA0 SHL SUB PUSH1 0x40 DUP3 ADD MLOAD AND PUSH1 0x60 DUP6 ADD MSTORE PUSH1 0x1 DUP1 PUSH1 0xA0 SHL SUB PUSH1 0x60 DUP3 ADD MLOAD AND PUSH1 0x80 DUP6 ADD MSTORE PUSH1 0x80 DUP2 ADD MLOAD PUSH1 0xA0 DUP6 ADD MSTORE PUSH1 0xA0 DUP2 ADD MLOAD PUSH1 0xC0 DUP6 ADD MSTORE PUSH2 0xE00 PUSH1 0xC0 DUP3 ADD MLOAD PUSH1 0xE0 DUP7 ADD SWAP1 PUSH2 0x1494 JUMP JUMPDEST PUSH1 0xE0 DUP2 ADD MLOAD PUSH2 0x100 DUP6 ADD MSTORE PUSH2 0x100 DUP2 ADD MLOAD DUP3 DUP6 ADD MSTORE ADD MLOAD PUSH2 0x140 DUP1 DUP5 ADD MSTORE PUSH2 0x160 DUP4 ADD SWAP1 PUSH2 0x14A1 JUMP JUMPDEST SUB SWAP1 RETURN JUMPDEST CALLVALUE PUSH2 0x18A JUMPI PUSH1 0x0 CALLDATASIZE PUSH1 0x3 NOT ADD SLT PUSH2 0x18A JUMPI PUSH2 0xE46 PUSH2 0x1525 JUMP JUMPDEST PUSH1 0x0 DUP1 SLOAD PUSH1 0x1 PUSH1 0x1 PUSH1 0xA0 SHL SUB NOT DUP2 AND DUP3 SSTORE PUSH1 0x1 PUSH1 0x1 PUSH1 0xA0 SHL SUB AND PUSH32 0x8BE0079C531659141344CD1FD0A4F28419497F9722A3DAAFE3B4186F6B6457E0 DUP3 DUP1 LOG3 STOP JUMPDEST CALLVALUE PUSH2 0x18A JUMPI PUSH1 0x20 CALLDATASIZE PUSH1 0x3 NOT ADD SLT PUSH2 0x18A JUMPI PUSH2 0xE9F PUSH2 0x1525 JUMP JUMPDEST PUSH1 0x4 CALLDATALOAD PUSH1 0x5 SSTORE STOP JUMPDEST CALLVALUE PUSH2 0x18A JUMPI PUSH1 0x20 DUP1 PUSH1 0x3 NOT CALLDATASIZE ADD SLT PUSH2 0x18A JUMPI PUSH1 0x1 PUSH1 0x1 PUSH1 0xA0 SHL SUB PUSH2 0xEC9 PUSH2 0x14E1 JUMP JUMPDEST AND PUSH1 0x0 MSTORE PUSH1 0x3 DUP2 MSTORE PUSH1 0x40 PUSH1 0x0 KECCAK256 PUSH1 0x40 MLOAD SWAP1 DUP2 DUP4 DUP3 SLOAD SWAP2 DUP3 DUP2 MSTORE ADD SWAP1 DUP2 SWAP3 PUSH1 0x0 MSTORE DUP5 PUSH1 0x0 KECCAK256 SWAP1 PUSH1 0x0 JUMPDEST DUP7 DUP3 DUP3 LT PUSH2 0xF47 JUMPI DUP7 DUP7 PUSH2 0xF07 DUP3 DUP9 SUB DUP4 PUSH2 0x13CC JUMP JUMPDEST PUSH1 0x40 MLOAD SWAP3 DUP4 SWAP3 DUP2 DUP5 ADD SWAP1 DUP3 DUP6 MSTORE MLOAD DUP1 SWAP2 MSTORE PUSH1 0x40 DUP5 ADD SWAP3 SWAP2 PUSH1 0x0 JUMPDEST DUP3 DUP2 LT PUSH2 0xF30 JUMPI POP POP POP POP SUB SWAP1 RETURN JUMPDEST DUP4 MLOAD DUP6 MSTORE DUP7 SWAP6 POP SWAP4 DUP2 ADD SWAP4 SWAP3 DUP2 ADD SWAP3 PUSH1 0x1 ADD PUSH2 0xF21 JUMP JUMPDEST DUP4 SLOAD DUP6 MSTORE SWAP1 SWAP4 ADD SWAP3 PUSH1 0x1 SWAP3 DUP4 ADD SWAP3 ADD PUSH2 0xEF1 JUMP JUMPDEST CALLVALUE PUSH2 0x18A JUMPI PUSH1 0x60 CALLDATASIZE PUSH1 0x3 NOT ADD SLT PUSH2 0x18A JUMPI PUSH1 0x4 CALLDATALOAD PUSH1 0x24 DUP1 CALLDATALOAD SWAP1 PUSH1 0x44 CALLDATALOAD SWAP1 PUSH2 0xF80 PUSH2 0x1525 JUMP JUMPDEST DUP4 PUSH1 0x0 MSTORE PUSH1 0x20 SWAP3 PUSH1 0x2 DUP5 MSTORE PUSH1 0x40 PUSH1 0x0 KECCAK256 SWAP4 PUSH1 0x6 DUP6 ADD SWAP3 PUSH1 0xFF DUP5 SLOAD AND PUSH1 0x4 DUP2 LT ISZERO PUSH2 0x12A7 JUMPI PUSH1 0x2 SUB PUSH2 0x126E JUMPI PUSH2 0xFB5 DUP6 DUP5 PUSH2 0x16DC JUMP JUMPDEST SWAP6 PUSH1 0x4 DUP2 ADD SWAP6 DUP7 SLOAD SWAP8 PUSH2 0xFCE PUSH1 0x5 DUP5 ADD SWAP10 DUP11 SLOAD SWAP1 PUSH2 0x16E9 JUMP JUMPDEST SUB PUSH2 0x121E JUMPI DUP1 ISZERO DUP1 ISZERO PUSH2 0x1126 JUMPI JUMPDEST POP POP DUP4 ISZERO SWAP3 DUP4 ISZERO PUSH2 0x1022 JUMPI JUMPDEST POP POP POP POP POP PUSH1 0x1 PUSH1 0xFF NOT DUP3 SLOAD AND OR SWAP1 SSTORE SLOAD SWAP1 SSTORE PUSH32 0x9285BD636DDA01BEF18996AA38303BB742F6C67A6941646DDDB17630CB492C2E PUSH1 0x0 DUP1 LOG2 STOP JUMPDEST PUSH1 0x3 DUP3 ADD SLOAD PUSH1 0x1 PUSH1 0x1 PUSH1 0xA0 SHL SUB SWAP4 SWAP1 DUP5 AND DUP1 PUSH2 0x106B JUMPI POP POP POP PUSH1 0x0 SWAP4 DUP5 SWAP4 DUP5 SWAP4 PUSH1 0x1 DUP6 SWAP5 ADD SLOAD AND SWAP1 DUP4 SWAP1 PUSH2 0x1062 JUMPI JUMPDEST CALL ISZERO PUSH2 0x25B JUMPI JUMPDEST DUP5 DUP1 DUP1 DUP1 DUP1 PUSH2 0xFE8 JUMP JUMPDEST POP PUSH2 0x8FC PUSH2 0x1051 JUMP JUMPDEST PUSH1 0x1 SWAP4 SWAP1 SWAP4 ADD SLOAD PUSH1 0x40 MLOAD PUSH4 0xA9059CBB PUSH1 0xE0 SHL DUP2 MSTORE SWAP5 AND PUSH1 0x1 PUSH1 0x1 PUSH1 0xA0 SHL SUB AND PUSH1 0x4 DUP6 ADD MSTORE PUSH1 0x24 DUP5 ADD SWAP6 SWAP1 SWAP6 MSTORE SWAP4 SWAP3 POP DUP4 SWAP1 DUP3 SWAP1 DUP2 PUSH1 0x0 DUP2 PUSH1 0x44 DUP2 ADD SUB SWAP3 GAS CALL SWAP1 DUP2 ISZERO PUSH2 0x25B JUMPI PUSH1 0x0 SWAP2 PUSH2 0x1109 JUMPI JUMPDEST POP ISZERO PUSH2 0x10C6 JUMPI POP POP PUSH2 0x1058 JUMP JUMPDEST SWAP1 PUSH1 0x1E PUSH1 0x64 SWAP3 PUSH1 0x40 MLOAD SWAP3 PUSH3 0x461BCD PUSH1 0xE5 SHL DUP5 MSTORE PUSH1 0x4 DUP5 ADD MSTORE DUP3 ADD MSTORE PUSH32 0x546F6B656E207472616E7366657220746F207061796572206661696C65640000 PUSH1 0x44 DUP3 ADD MSTORE REVERT JUMPDEST PUSH2 0x1120 SWAP2 POP DUP4 RETURNDATASIZE DUP6 GT PUSH2 0x324 JUMPI PUSH2 0x316 DUP2 DUP4 PUSH2 0x13CC JUMP JUMPDEST DUP8 PUSH2 0x10B9 JUMP JUMPDEST PUSH1 0x3 DUP4 ADD SLOAD PUSH1 0x1 PUSH1 0x1 PUSH1 0xA0 SHL SUB SWAP1 DUP7 SWAP1 DUP3 AND DUP1 PUSH2 0x116C JUMPI POP POP PUSH1 0x0 DUP1 SWAP4 DUP2 SWAP4 DUP3 SWAP4 PUSH1 0x2 DUP9 ADD SLOAD AND SWAP1 DUP4 SWAP1 PUSH2 0x1163 JUMPI JUMPDEST CALL ISZERO PUSH2 0x25B JUMPI JUMPDEST DUP9 DUP1 PUSH2 0xFDC JUMP JUMPDEST POP PUSH2 0x8FC PUSH2 0x1155 JUMP JUMPDEST PUSH1 0x2 DUP7 ADD SLOAD PUSH1 0x40 MLOAD PUSH4 0xA9059CBB PUSH1 0xE0 SHL DUP2 MSTORE SWAP4 AND PUSH1 0x1 PUSH1 0x1 PUSH1 0xA0 SHL SUB AND PUSH1 0x4 DUP5 ADD MSTORE PUSH1 0x24 DUP4 ADD SWAP5 SWAP1 SWAP5 MSTORE SWAP1 SWAP3 SWAP1 SWAP2 POP DUP3 SWAP1 DUP2 PUSH1 0x0 DUP2 PUSH1 0x44 DUP2 ADD SUB SWAP3 GAS CALL SWAP1 DUP2 ISZERO PUSH2 0x25B JUMPI PUSH1 0x0 SWAP2 PUSH2 0x1201 JUMPI JUMPDEST POP PUSH2 0x115C JUMPI PUSH1 0x40 MLOAD PUSH3 0x461BCD PUSH1 0xE5 SHL DUP2 MSTORE PUSH1 0x4 DUP2 ADD DUP5 SWAP1 MSTORE PUSH1 0x1E DUP2 DUP5 ADD MSTORE PUSH32 0x546F6B656E207472616E7366657220746F207061796565206661696C65640000 PUSH1 0x44 DUP3 ADD MSTORE PUSH1 0x64 SWAP1 REVERT JUMPDEST PUSH2 0x1218 SWAP2 POP DUP5 RETURNDATASIZE DUP7 GT PUSH2 0x324 JUMPI PUSH2 0x316 DUP2 DUP4 PUSH2 0x13CC JUMP JUMPDEST DUP10 PUSH2 0x11B8 JUMP JUMPDEST PUSH1 0x40 MLOAD PUSH3 0x461BCD PUSH1 0xE5 SHL DUP2 MSTORE PUSH1 0x4 DUP2 ADD DUP6 SWAP1 MSTORE PUSH1 0x23 DUP2 DUP6 ADD MSTORE PUSH32 0x416D6F756E747320646F6E2774206D617463682072656D61696E696E67206675 PUSH1 0x44 DUP3 ADD MSTORE PUSH3 0x6E6473 PUSH1 0xE8 SHL PUSH1 0x64 DUP3 ADD MSTORE PUSH1 0x84 SWAP1 REVERT JUMPDEST SWAP1 PUSH1 0x13 PUSH1 0x64 SWAP3 PUSH1 0x40 MLOAD SWAP3 PUSH3 0x461BCD PUSH1 0xE5 SHL DUP5 MSTORE PUSH1 0x4 DUP5 ADD MSTORE DUP3 ADD MSTORE PUSH19 0x115CD8DC9BDDC81B9BDD08191A5CDC1D5D1959 PUSH1 0x6A SHL PUSH1 0x44 DUP3 ADD MSTORE REVERT JUMPDEST POP PUSH4 0x4E487B71 PUSH1 0xE0 SHL PUSH1 0x0 SWAP1 DUP2 MSTORE PUSH1 0x21 PUSH1 0x4 MSTORE REVERT JUMPDEST CALLVALUE PUSH2 0x18A JUMPI PUSH1 0x20 CALLDATASIZE PUSH1 0x3 NOT ADD SLT PUSH2 0x18A JUMPI PUSH1 0x4 CALLDATALOAD PUSH1 0x0 MSTORE PUSH1 0x2 PUSH1 0x20 MSTORE PUSH1 0x40 PUSH1 0x0 KECCAK256 DUP1 SLOAD PUSH2 0xE29 PUSH1 0x1 DUP1 PUSH1 0xA0 SHL SUB DUP1 PUSH1 0x1 DUP6 ADD SLOAD AND SWAP4 DUP2 PUSH1 0x2 DUP3 ADD SLOAD AND SWAP2 PUSH1 0x3 DUP3 ADD SLOAD AND PUSH2 0x1358 PUSH1 0x4 DUP4 ADD SLOAD PUSH1 0x5 DUP5 ADD SLOAD PUSH1 0xFF PUSH1 0x6 DUP7 ADD SLOAD AND SWAP2 PUSH1 0x7 DUP7 ADD SLOAD SWAP5 PUSH2 0x132C PUSH1 0x9 PUSH1 0x8 DUP10 ADD SLOAD SWAP9 ADD PUSH2 0x13EE JUMP JUMPDEST SWAP8 PUSH1 0x40 MLOAD SWAP12 DUP13 SWAP12 DUP13 MSTORE PUSH1 0x20 DUP13 ADD MSTORE PUSH1 0x40 DUP12 ADD MSTORE PUSH1 0x60 DUP11 ADD MSTORE PUSH1 0x80 DUP10 ADD MSTORE PUSH1 0xA0 DUP9 ADD MSTORE PUSH1 0xC0 DUP8 ADD SWAP1 PUSH2 0x1494 JUMP JUMPDEST PUSH1 0xE0 DUP6 ADD MSTORE PUSH2 0x100 DUP5 ADD MSTORE PUSH2 0x140 DUP1 PUSH2 0x120 DUP6 ADD MSTORE DUP4 ADD SWAP1 PUSH2 0x14A1 JUMP JUMPDEST SWAP1 PUSH1 0x1 DUP3 DUP2 SHR SWAP3 AND DUP1 ISZERO PUSH2 0x13A5 JUMPI JUMPDEST PUSH1 0x20 DUP4 LT EQ PUSH2 0x138F JUMPI JUMP JUMPDEST PUSH4 0x4E487B71 PUSH1 0xE0 SHL PUSH1 0x0 MSTORE PUSH1 0x22 PUSH1 0x4 MSTORE PUSH1 0x24 PUSH1 0x0 REVERT JUMPDEST SWAP2 PUSH1 0x7F AND SWAP2 PUSH2 0x1384 JUMP JUMPDEST PUSH2 0x140 DUP2 ADD SWAP1 DUP2 LT PUSH8 0xFFFFFFFFFFFFFFFF DUP3 GT OR PUSH2 0x9C6 JUMPI PUSH1 0x40 MSTORE JUMP JUMPDEST SWAP1 PUSH1 0x1F DUP1 NOT SWAP2 ADD AND DUP2 ADD SWAP1 DUP2 LT PUSH8 0xFFFFFFFFFFFFFFFF DUP3 GT OR PUSH2 0x9C6 JUMPI PUSH1 0x40 MSTORE JUMP JUMPDEST SWAP1 PUSH1 0x40 MLOAD SWAP2 DUP3 PUSH1 0x0 DUP3 SLOAD SWAP3 PUSH2 0x1402 DUP5 PUSH2 0x1375 JUMP JUMPDEST SWAP1 DUP2 DUP5 MSTORE PUSH1 0x1 SWAP5 DUP6 DUP2 AND SWAP1 DUP2 PUSH1 0x0 EQ PUSH2 0x1471 JUMPI POP PUSH1 0x1 EQ PUSH2 0x142E JUMPI JUMPDEST POP POP PUSH2 0x142C SWAP3 POP SUB DUP4 PUSH2 0x13CC JUMP JUMPDEST JUMP JUMPDEST SWAP1 SWAP4 SWAP2 POP PUSH1 0x0 MSTORE PUSH1 0x20 SWAP1 DUP2 PUSH1 0x0 KECCAK256 SWAP4 PUSH1 0x0 SWAP2 JUMPDEST DUP2 DUP4 LT PUSH2 0x1459 JUMPI POP POP PUSH2 0x142C SWAP4 POP DUP3 ADD ADD CODESIZE DUP1 PUSH2 0x141E JUMP JUMPDEST DUP6 SLOAD DUP9 DUP5 ADD DUP6 ADD MSTORE SWAP5 DUP6 ADD SWAP5 DUP8 SWAP5 POP SWAP2 DUP4 ADD SWAP2 PUSH2 0x1441 JUMP JUMPDEST SWAP2 POP POP PUSH2 0x142C SWAP5 POP PUSH1 0x20 SWAP3 POP PUSH1 0xFF NOT AND DUP3 DUP5 ADD MSTORE ISZERO ISZERO PUSH1 0x5 SHL DUP3 ADD ADD CODESIZE DUP1 PUSH2 0x141E JUMP JUMPDEST SWAP1 PUSH1 0x4 DUP3 LT ISZERO PUSH2 0x37B JUMPI MSTORE JUMP JUMPDEST SWAP2 SWAP1 DUP3 MLOAD SWAP3 DUP4 DUP3 MSTORE PUSH1 0x0 JUMPDEST DUP5 DUP2 LT PUSH2 0x14CD JUMPI POP POP DUP3 PUSH1 0x0 PUSH1 0x20 DUP1 SWAP5 SWAP6 DUP5 ADD ADD MSTORE PUSH1 0x1F DUP1 NOT SWAP2 ADD AND ADD ADD SWAP1 JUMP JUMPDEST PUSH1 0x20 DUP2 DUP4 ADD DUP2 ADD MLOAD DUP5 DUP4 ADD DUP3 ADD MSTORE ADD PUSH2 0x14AC JUMP JUMPDEST PUSH1 0x4 CALLDATALOAD SWAP1 PUSH1 0x1 PUSH1 0x1 PUSH1 0xA0 SHL SUB DUP3 AND DUP3 SUB PUSH2 0x18A JUMPI JUMP JUMPDEST DUP1 SLOAD DUP3 LT ISZERO PUSH2 0x150F JUMPI PUSH1 0x0 MSTORE PUSH1 0x20 PUSH1 0x0 KECCAK256 ADD SWAP1 PUSH1 0x0 SWAP1 JUMP JUMPDEST PUSH4 0x4E487B71 PUSH1 0xE0 SHL PUSH1 0x0 MSTORE PUSH1 0x32 PUSH1 0x4 MSTORE PUSH1 0x24 PUSH1 0x0 REVERT JUMPDEST PUSH1 0x0 SLOAD PUSH1 0x1 PUSH1 0x1 PUSH1 0xA0 SHL SUB AND CALLER SUB PUSH2 0x1539 JUMPI JUMP JUMPDEST PUSH1 0x64 PUSH1 0x40 MLOAD PUSH3 0x461BCD PUSH1 0xE5 SHL DUP2 MSTORE PUSH1 0x20 PUSH1 0x4 DUP3 ADD MSTORE PUSH1 0x20 PUSH1 0x24 DUP3 ADD MSTORE PUSH32 0x4F776E61626C653A2063616C6C6572206973206E6F7420746865206F776E6572 PUSH1 0x44 DUP3 ADD MSTORE REVERT JUMPDEST ISZERO PUSH2 0x1584 JUMPI JUMP JUMPDEST PUSH1 0x40 MLOAD PUSH3 0x461BCD PUSH1 0xE5 SHL DUP2 MSTORE PUSH1 0x20 PUSH1 0x4 DUP3 ADD MSTORE PUSH1 0x1D PUSH1 0x24 DUP3 ADD MSTORE PUSH32 0x416D6F756E74206D7573742062652067726561746572207468616E2030000000 PUSH1 0x44 DUP3 ADD MSTORE PUSH1 0x64 SWAP1 REVERT JUMPDEST SWAP1 DUP2 PUSH1 0x20 SWAP2 SUB SLT PUSH2 0x18A JUMPI MLOAD DUP1 ISZERO ISZERO DUP2 SUB PUSH2 0x18A JUMPI SWAP1 JUMP JUMPDEST ISZERO PUSH2 0x15E8 JUMPI JUMP JUMPDEST PUSH1 0x40 MLOAD PUSH3 0x461BCD PUSH1 0xE5 SHL DUP2 MSTORE PUSH1 0x20 PUSH1 0x4 DUP3 ADD MSTORE PUSH1 0x15 PUSH1 0x24 DUP3 ADD MSTORE PUSH21 0x151BDAD95B881D1C985B9CD9995C8819985A5B1959 PUSH1 0x5A SHL PUSH1 0x44 DUP3 ADD MSTORE PUSH1 0x64 SWAP1 REVERT JUMPDEST DUP1 SLOAD PUSH9 0x10000000000000000 DUP2 LT ISZERO PUSH2 0x9C6 JUMPI PUSH2 0x1647 SWAP2 PUSH1 0x1 DUP3 ADD DUP2 SSTORE PUSH2 0x14F7 JUMP JUMPDEST DUP2 SWAP3 SWAP2 SLOAD SWAP1 PUSH1 0x3 SHL SWAP2 DUP3 SHL SWAP2 PUSH1 0x0 NOT SWAP1 SHL NOT AND OR SWAP1 SSTORE JUMP JUMPDEST ISZERO PUSH2 0x1666 JUMPI JUMP JUMPDEST PUSH1 0x40 MLOAD PUSH3 0x461BCD PUSH1 0xE5 SHL DUP2 MSTORE PUSH1 0x20 PUSH1 0x4 DUP3 ADD MSTORE PUSH1 0xE PUSH1 0x24 DUP3 ADD MSTORE PUSH14 0x139BDD08185D5D1A1BDC9A5E9959 PUSH1 0x92 SHL PUSH1 0x44 DUP3 ADD MSTORE PUSH1 0x64 SWAP1 REVERT JUMPDEST ISZERO PUSH2 0x16A3 JUMPI JUMP JUMPDEST PUSH1 0x40 MLOAD PUSH3 0x461BCD PUSH1 0xE5 SHL DUP2 MSTORE PUSH1 0x20 PUSH1 0x4 DUP3 ADD MSTORE PUSH1 0x11 PUSH1 0x24 DUP3 ADD MSTORE PUSH17 0x457363726F77206E6F7420616374697665 PUSH1 0x78 SHL PUSH1 0x44 DUP3 ADD MSTORE PUSH1 0x64 SWAP1 REVERT JUMPDEST SWAP2 SWAP1 DUP3 ADD DUP1 SWAP3 GT PUSH2 0xA88 JUMPI JUMP JUMPDEST SWAP2 SWAP1 DUP3 SUB SWAP2 DUP3 GT PUSH2 0xA88 JUMPI JUMP INVALID LOG2 PUSH5 0x6970667358 0x22 SLT KECCAK256 0xC TIMESTAMP SMOD 0xF8 GASLIMIT 0x4D BALANCE CREATE ADD DUP1 SELFDESTRUCT STATICCALL KECCAK256 0xB5 DUP7 REVERT 0xC4 0xD9 0xB0 0xBA STATICCALL LOG3 ORIGIN DUP15 0xD8 0x1F LOG3 0x2A 0xA6 0xC3 0xE3 CODESIZE PUSH5 0x736F6C6343 STOP ADDMOD EQ STOP CALLER "},"methodIdentifiers":{"cancelEscrow(uint256)":"e0182436","createEscrow(address,address,uint256,uint256,string)":"d27dc2db","disputeTimeWindow()":"7e4dcc06","escrows(uint256)":"012f52ee","getEscrow(uint256)":"7d19e596","getUserEscrows(address)":"5ccea85e","nextEscrowId()":"89cb29dd","owner()":"8da5cb5b","raiseDispute(uint256)":"a5c1674e","releaseFunds(uint256,uint256)":"df7843ae","renounceOwnership()":"715018a6","resolveDispute(uint256,uint256,uint256)":"3fabe74f","setDisputeTimeWindow(uint256)":"708831e4","transferOwnership(address)":"f2fde38b","userEscrows(address,uint256)":"7f944dd0"}}}}}