{"contracts/InvoiceNFT.sol":{"InvoiceNFT":{"abi":[{"inputs":[],"stateMutability":"nonpayable","type":"constructor"},{"anonymous":false,"inputs":[{"indexed":true,"internalType":"address","name":"owner","type":"address"},{"indexed":true,"internalType":"address","name":"approved","type":"address"},{"indexed":true,"internalType":"uint256","name":"tokenId","type":"uint256"}],"name":"Approval","type":"event"},{"anonymous":false,"inputs":[{"indexed":true,"internalType":"address","name":"owner","type":"address"},{"indexed":true,"internalType":"address","name":"operator","type":"address"},{"indexed":false,"internalType":"bool","name":"approved","type":"bool"}],"name":"ApprovalForAll","type":"event"},{"anonymous":false,"inputs":[{"indexed":false,"internalType":"uint256","name":"_fromTokenId","type":"uint256"},{"indexed":false,"internalType":"uint256","name":"_toTokenId","type":"uint256"}],"name":"BatchMetadataUpdate","type":"event"},{"anonymous":false,"inputs":[{"indexed":false,"internalType":"uint256","name":"_tokenId","type":"uint256"}],"name":"MetadataUpdate","type":"event"},{"anonymous":false,"inputs":[{"indexed":true,"internalType":"address","name":"previousOwner","type":"address"},{"indexed":true,"internalType":"address","name":"newOwner","type":"address"}],"name":"OwnershipTransferred","type":"event"},{"anonymous":false,"inputs":[{"indexed":true,"internalType":"uint256","name":"tokenId","type":"uint256"},{"indexed":true,"internalType":"uint256","name":"invoiceId","type":"uint256"},{"indexed":true,"internalType":"address","name":"issuer","type":"address"},{"indexed":false,"internalType":"address","name":"client","type":"address"},{"indexed":false,"internalType":"uint256","name":"amount","type":"uint256"}],"name":"ReceiptMinted","type":"event"},{"anonymous":false,"inputs":[{"indexed":true,"internalType":"address","name":"from","type":"address"},{"indexed":true,"internalType":"address","name":"to","type":"address"},{"indexed":true,"internalType":"uint256","name":"tokenId","type":"uint256"}],"name":"Transfer","type":"event"},{"inputs":[{"internalType":"address","name":"","type":"address"},{"internalType":"uint256","name":"","type":"uint256"}],"name":"approve","outputs":[],"stateMutability":"pure","type":"function"},{"inputs":[{"internalType":"address","name":"owner","type":"address"}],"name":"balanceOf","outputs":[{"internalType":"uint256","name":"","type":"uint256"}],"stateMutability":"view","type":"function"},{"inputs":[{"internalType":"uint256","name":"tokenId","type":"uint256"}],"name":"getApproved","outputs":[{"internalType":"address","name":"","type":"address"}],"stateMutability":"view","type":"function"},{"inputs":[{"internalType":"uint256","name":"_tokenId","type":"uint256"}],"name":"getReceiptData","outputs":[{"components":[{"internalType":"uint256","name":"invoiceId","type":"uint256"},{"internalType":"address","name":"issuer","type":"address"},{"internalType":"address","name":"client","type":"address"},{"internalType":"uint256","name":"amount","type":"uint256"},{"internalType":"uint256","name":"paidDate","type":"uint256"},{"internalType":"string","name":"description","type":"string"},{"internalType":"bool","name":"exists","type":"bool"}],"internalType":"struct InvoiceNFT.InvoiceReceipt","name":"","type":"tuple"}],"stateMutability":"view","type":"function"},{"inputs":[{"internalType":"address","name":"_user","type":"address"}],"name":"getUserReceipts","outputs":[{"internalType":"uint256[]","name":"","type":"uint256[]"}],"stateMutability":"view","type":"function"},{"inputs":[{"internalType":"uint256","name":"","type":"uint256"}],"name":"invoiceToTokenId","outputs":[{"internalType":"uint256","name":"","type":"uint256"}],"stateMutability":"view","type":"function"},{"inputs":[{"internalType":"address","name":"owner","type":"address"},{"internalType":"address","name":"operator","type":"address"}],"name":"isApprovedForAll","outputs":[{"internalType":"bool","name":"","type":"bool"}],"stateMutability":"view","type":"function"},{"inputs":[{"internalType":"uint256","name":"_invoiceId","type":"uint256"},{"internalType":"address","name":"_issuer","type":"address"},{"internalType":"address","name":"_client","type":"address"},{"internalType":"uint256","name":"_amount","type":"uint256"},{"internalType":"string","name":"_description","type":"string"}],"name":"mintReceipt","outputs":[{"internalType":"uint256","name":"","type":"uint256"}],"stateMutability":"nonpayable","type":"function"},{"inputs":[],"name":"name","outputs":[{"internalType":"string","name":"","type":"string"}],"stateMutability":"view","type":"function"},{"inputs":[],"name":"owner","outputs":[{"internalType":"address","name":"","type":"address"}],"stateMutability":"view","type":"function"},{"inputs":[{"internalType":"uint256","name":"tokenId","type":"uint256"}],"name":"ownerOf","outputs":[{"internalType":"address","name":"","type":"address"}],"stateMutability":"view","type":"function"},{"inputs":[{"internalType":"uint256","name":"_invoiceId","type":"uint256"}],"name":"receiptExists","outputs":[{"internalType":"bool","name":"","type":"bool"}],"stateMutability":"view","type":"function"},{"inputs":[],"name":"renounceOwnership","outputs":[],"stateMutability":"nonpayable","type":"function"},{"inputs":[{"internalType":"address","name":"","type":"address"},{"internalType":"address","name":"","type":"address"},{"internalType":"uint256","name":"","type":"uint256"}],"name":"safeTransferFrom","outputs":[],"stateMutability":"pure","type":"function"},{"inputs":[{"internalType":"address","name":"","type":"address"},{"internalType":"address","name":"","type":"address"},{"internalType":"uint256","name":"","type":"uint256"},{"internalType":"bytes","name":"","type":"bytes"}],"name":"safeTransferFrom","outputs":[],"stateMutability":"pure","type":"function"},{"inputs":[{"internalType":"address","name":"","type":"address"},{"internalType":"bool","name":"","type":"bool"}],"name":"setApprovalForAll","outputs":[],"stateMutability":"pure","type":"function"},{"inputs":[{"internalType":"bytes4","name":"interfaceId","type":"bytes4"}],"name":"supportsInterface","outputs":[{"internalType":"bool","name":"","type":"bool"}],"stateMutability":"view","type":"function"},{"inputs":[],"name":"symbol","outputs":[{"internalType":"string","name":"","type":"string"}],"stateMutability":"view","type":"function"},{"inputs":[{"internalType":"uint256","name":"","type":"uint256"}],"name":"tokenIdToReceipt","outputs":[{"internalType":"uint256","name":"invoiceId","type":"uint256"},{"internalType":"address","name":"issuer","type":"address"},{"internalType":"address","name":"client","type":"address"},{"internalType":"uint256","name":"amount","type":"uint256"},{"internalType":"uint256","name":"paidDate","type":"uint256"},{"internalType":"string","name":"description","type":"string"},{"internalType":"bool","name":"exists","type":"bool"}],"stateMutability":"view","type":"function"},{"inputs":[{"internalType":"uint256","name":"tokenId","type":"uint256"}],"name":"tokenURI","outputs":[{"internalType":"string","name":"","type":"string"}],"stateMutability":"view","type":"function"},{"inputs":[{"internalType":"address","name":"","type":"address"},{"internalType":"address","name":"","type":"address"},{"internalType":"uint256","name":"","type":"uint256"}],"name":"transferFrom","outputs":[],"stateMutability":"pure","type":"function"},{"inputs":[{"internalType":"address","name":"newOwner","type":"address"}],"name":"transferOwnership","outputs":[],"stateMutability":"nonpayable","type":"function"},{"inputs":[{"internalType":"address","name":"","type":"address"},{"internalType":"uint256","name":"","type":"uint256"}],"name":"userReceipts","outputs":[{"internalType":"uint256","name":"","type":"uint256"}],"stateMutability":"view","type":"function"}],"evm":{"bytecode":{"linkReferences":{},"object":"6080346200036a576001600160401b039060408181018381118382101762000354578152601582526020917f467265796120496e766f6963652052656365697074000000000000000000000083820152815193828501858110828211176200035457835260038552622324a960e91b84860152815181811162000354576000948554916001948584811c9416801562000349575b8385101462000335578190601f94858111620002e2575b5083908583116001146200027e57899262000272575b5050600019600383901b1c191690851b1786555b86519283116200025e5783548481811c9116801562000253575b828210146200023f57828111620001f7575b50809183116001146200019057508495829394959262000184575b5050600019600383901b1c191690821b1790555b60078054336001600160a01b03198216811790925591519290916001600160a01b0316907f8be0079c531659141344cd1fd0a4f28419497f9722a3daafe3b4186f6b6457e09080a3612aeb9081620003708239f35b0151905038806200011b565b90601f198316968487528287209287905b898210620001df575050838596979810620001c5575b505050811b0190556200012f565b015160001960f88460031b161c19169055388080620001b7565b808785968294968601518155019501930190620001a1565b8487528187208380860160051c82019284871062000235575b0160051c019085905b8281106200022957505062000100565b88815501859062000219565b9250819262000210565b634e487b7160e01b87526022600452602487fd5b90607f1690620000ee565b634e487b7160e01b86526041600452602486fd5b015190503880620000c0565b898052848a208894509190601f1984168b5b87828210620002cb5750508411620002b1575b505050811b018655620000d4565b015160001960f88460031b161c19169055388080620002a3565b8385015186558b9790950194938401930162000290565b9091508880528389208580850160051c8201928686106200032b575b918991869594930160051c01915b8281106200031c575050620000aa565b8b81558594508991016200030c565b92508192620002fe565b634e487b7160e01b88526022600452602488fd5b93607f169362000093565b634e487b7160e01b600052604160045260246000fd5b600080fdfe608080604052600436101561001357600080fd5b60003560e01c90816301ffc9a714611f415750806306fdde0314611e9e578063081812fc14611e47578063095ea7b314611dd057806323b872dd14611d715780633d18f65214611da25780633fc8abfb14611d7657806342842e0e14611d715780635b982fbc14611cdb5780635c6b8fcb146108135780636352211e146107d457806370a082311461073d578063715018a6146106e05780638da5cb5b146106b757806395d89b41146105d85780639e19bb5914610524578063a039cddf146103e5578063a22cb46514610363578063a843c5fe1461030b578063b88d4fde146102b1578063c87b56dd1461023b578063e985e9c5146101e55763f2fde38b1461011c57600080fd5b346101e05760203660031901126101e05761013561200e565b61013d612245565b6001600160a01b0390811690811561018c57600754826001600160601b0360a01b821617600755167f8be0079c531659141344cd1fd0a4f28419497f9722a3daafe3b4186f6b6457e0600080a3005b60405162461bcd60e51b815260206004820152602660248201527f4f776e61626c653a206e6577206f776e657220697320746865207a65726f206160448201526564647265737360d01b6064820152608490fd5b600080fd5b346101e05760403660031901126101e0576101fe61200e565b610206612024565b9060018060a01b03809116600052600560205260406000209116600052602052602060ff604060002054166040519015158152f35b346101e05760203660031901126101e057600435600081815260026020526040902054610272906001600160a01b0316151561229d565b60005260066020526102ad61028a604060002061211e565b6000604051610298816120c4565b52604051918291602083526020830190611fe9565b0390f35b346101e05760803660031901126101e0576102ca61200e565b506102d3612024565b5060643567ffffffffffffffff81116101e057366023820112156101e0576103059036906024816004013591016121e0565b50612802565b346101e05760403660031901126101e05761032461200e565b6001600160a01b03166000908152600b60205260409020805460243591908210156101e05760209161035591612217565b90546040519160031b1c8152f35b346101e05760403660031901126101e05761037c61200e565b50602435801515036101e05760405162461bcd60e51b815260206004820152602f60248201527f496e766f6963654e46543a20536f756c626f756e6420746f6b656e732063616e60448201526e1b9bdd08189948185c1c1c9bdd9959608a1b6064820152608490fd5b346101e0576020806003193601126101e057600435600060c060405161040a816120a8565b8281528285820152826040820152826060820152826080820152606060a0820152015261045461044f82600052600260205260018060a01b0360406000205416151590565b6124e0565b600052600a815260406000206040519061046d826120a8565b8054825260018101546001600160a01b0390811684840190815260028301548216604085019081526003840154606086019081526004850154608087019081529294610517949093928160ff60066104c76005890161211e565b9760a08c019889520154169760c08a0198151589526040519a8b9a818c5251908b015251166040890152511660608701525160808601525160a08501525160e060c0850152610100840190611fe9565b9051151560e08301520390f35b346101e0576020806003193601126101e0576001600160a01b0361054661200e565b16600052600b8152604060002060405190818382549182815201908192600052846000209060005b868282106105c4578686610584828803836120fc565b604051928392818401908285525180915260408401929160005b8281106105ad57505050500390f35b83518552869550938101939281019260010161059e565b83548552909301926001928301920161056e565b346101e05760003660031901126101e057604051600060018054906105fc8261206e565b808552918181169081156106905750600114610637575b6102ad84610623818603826120fc565b604051918291602083526020830190611fe9565b600081815292507fb10e2d527612073b26eecdfd717e6a320cf44b4afac2b0732d9fcbe2b7fa0cf65b82841061067857505050810160200161062382610613565b80546020858701810191909152909301928101610660565b60ff191660208087019190915292151560051b850190920192506106239150839050610613565b346101e05760003660031901126101e0576007546040516001600160a01b039091168152602090f35b346101e05760003660031901126101e0576106f9612245565b600780546001600160a01b031981169091556000906001600160a01b03167f8be0079c531659141344cd1fd0a4f28419497f9722a3daafe3b4186f6b6457e08280a3005b346101e05760203660031901126101e0576001600160a01b0361075e61200e565b16801561077d5760005260036020526020604060002054604051908152f35b60405162461bcd60e51b815260206004820152602960248201527f4552433732313a2061646472657373207a65726f206973206e6f7420612076616044820152683634b21037bbb732b960b91b6064820152608490fd5b346101e05760203660031901126101e0576004356000526002602052602060018060a01b036040600020541661080b81151561229d565b604051908152f35b346101e05760a03660031901126101e05761082c612024565b6044356001600160a01b03811690036101e05760843567ffffffffffffffff81116101e057366023820112156101e0576108709036906024816004013591016121e0565b610878612245565b6004356000526009602052604060002054611c86576008549060018201600855604051906108a5826120a8565b600435825260018060a01b038416602083015260018060a01b036044351660408301526064356060830152608082019042825260a08301908152600160c084015283600052600a602052604060002091835183556001830160018060a01b036020860151166001600160601b0360a01b8254161790556002830160018060a01b036040860151166001600160601b0360a01b825416179055606084015160038401555160048301555180519067ffffffffffffffff8211611aec5761096d600584015461206e565b601f8111611c3f575b50602090601f8311600114611bca57918060c09492600694600092611bbf575b50508160011b916000199060031b1c19161760058201555b01910151151560ff8019835416911617905560043560005260096020528060406000205560018060a01b038216600052600b6020526109f18160406000206122e9565b60018060a01b0360443516600052600b602052610a128160406000206122e9565b604051610a1e816120c4565b600081526044356001600160a01b031615611b7b57600082815260026020526040902054610aee9190610a5d906001600160a01b031615155b15612376565b600083815260026020526040902054610a80906001600160a01b03161515610a57565b6044356001600160a01b03166000818152600360209081526040808320805460010190558683526002909152812080546001600160a01b031916831790558491907fddf252ad1be2c89b69c2b068fc378daa952ba7f163c4a11628f55a4df523b3ef8180a4826044356123c2565b15611b5e57600081815260026020526040902054610b16906001600160a01b031615156124e0565b80600052600a6020526118e9604060002060ff600660405192610b38846120a8565b8054845260018101546001600160a01b03908116602086015260028201541660408501526003810154606085015260048101546080850152610b7c6005820161211e565b60a0850152015416151560c08201526115376101a6610b9b83516126bf565b85600052600a60205261153c604060002060ff600660405192610bbd846120a8565b8054845260018101546001600160a01b03908116602086015260028201541660408501526003810154606085015260048101546080850152610c016005820161211e565b60a0850152015416151560c08201526115376107fd610c2083516126bf565b92610c38670de0b6b3a76400006060830151046126bf565b93610c56610c5160018060a01b03602085015116612882565b6129fd565b94610c7b60a0610c73610c51600180841b03604088015116612882565b940151612a60565b916040519687947f3c7376672077696474683d2234303022206865696768743d223630302220786d60208701527f6c6e733d22687474703a2f2f7777772e77332e6f72672f323030302f737667226040870152601f60f91b93846060880152651e3232b3399f60d11b60618801527f3c6c696e6561724772616469656e742069643d226267222078313d223025222060678801527f79313d223025222078323d2231303025222079323d2231303025223e0000000060878801527f3c73746f70206f66667365743d22302522207374796c653d2273746f702d636f60a38801527f6c6f723a233165323933623b73746f702d6f7061636974793a3122202f3e000060c38801527f3c73746f70206f66667365743d223130302522207374796c653d2273746f702d60e18801527f636f6c6f723a233337333061333b73746f702d6f7061636974793a3122202f3e610101880152701e17b634b732b0b923b930b234b2b73a1f60791b610121880152661e17b232b3399f60c91b6101328801527f3c726563742077696474683d2234303022206865696768743d223630302220666101398801527f696c6c3d2275726c2823626729222072783d223230222f3e00000000000000006101598801527f3c7465787420783d223230302220793d2236302220666f6e742d66616d696c796101718801527f3d22417269616c2c2073616e732d73657269662220666f6e742d73697a653d22806101918901527f32342220666f6e742d7765696768743d22626f6c642220746578742d616e63686101b18901527f6f723d226d6964646c65222066696c6c3d2223666666666666223e46524559416101d189015287661e17ba32bc3a1f60c91b8095816101f18401527f3c7465787420783d223230302220793d2239302220666f6e742d66616d696c796101f8840152836102188401527f31342220746578742d616e63686f723d226d6964646c65222066696c6c3d22236102388401527f393461336238223e496e766f69636520526563656970743c2f746578743e00006102588401527f3c7265637420783d2234302220793d22313230222077696474683d2233323022610276840152817f206865696768743d2232222066696c6c3d2223343735353639222f3e0000000098896102968601527f3c7465787420783d2236302220793d223136302220666f6e742d66616d696c796102b2860152856102d28601527f31362220666f6e742d7765696768743d22626f6c64222066696c6c3d222366666102f28601526e66666666223e496e766f696365202360881b61031286015261104b8151809260206103218099019101611fc6565b8c01938401527f3c7465787420783d2236302220793d223230302220666f6e742d66616d696c79610328840152836103488401527f3134222066696c6c3d2223393461336238223e416d6f756e7420506169643c2f6103688401526810299e17ba32bc3a1f60b91b643a32bc3a1f60d91b93846103888201527f3c7465787420783d2236302220793d223232302220666f6e742d66616d696c7961038d820152856103ad8201527f32302220666f6e742d7765696768743d22626f6c64222066696c6c3d222331306103cd82015265311c9c18911f60d11b6103ed820152865190611140826103f39960208b85019101611fc6565b01958601527f3c7465787420783d2236302220793d223237302220666f6e742d66616d696c796103fc8601528361041c8601527f3134222066696c6c3d2223393461336238223e46726f6d3c2f746578743e000061043c8601527f3c7465787420783d2236302220793d223239302220666f6e742d66616d696c7961045a8601528361047a8601528172189911103334b6361e9111b33333333333111f60691b958661049a8201528251906111ff826104ad9560208785019101611fc6565b01918201527f3c7465787420783d2236302220793d223333302220666f6e742d66616d696c796104b4820152836104d48201527f3134222066696c6c3d2223393461336238223e546f3c2f746578743e000000006104f48201527f3c7465787420783d2236302220793d223335302220666f6e742d66616d696c7961051082015283610530820152846105508201528551906112a5826105639860208a85019101611fc6565b01948501527f3c7465787420783d2236302220793d223339302220666f6e742d66616d696c7961056a8501528161058a8501527f3134222066696c6c3d2223393461336238223e4465736372697074696f6e3c2f6105aa8501526105ca8401527f3c7465787420783d2236302220793d223431302220666f6e742d66616d696c796105cf8401526105ef83015261060f82015284519061134f826106229760208985019101611fc6565b01938401527f3c7265637420783d2234302220793d22343530222077696474683d22333230226106298401526106498301527f3c7465787420783d223230302220793d223439302220666f6e742d66616d696c6106658301527f793d22417269616c2c2073616e732d73657269662220666f6e742d73697a653d90816106858401527f2231322220746578742d616e63686f723d226d6964646c65222066696c6c3d226106a58401527f23393461336238223e536f756c626f756e6420526563656970743c2f746578746106c58401526106e58301527f3c7465787420783d223230302220793d223531302220666f6e742d66616d696c6106e6830152806107068301527f2231302220746578742d616e63686f723d226d6964646c65222066696c6c3d2290816107268401527f23363437343862223e4e6f6e2d7472616e7366657261626c652070726f6f66206107468401527037b3103830bcb6b2b73a1e17ba32bc3a1f60791b6107668401527f3c7465787420783d223230302220793d223535302220666f6e742d66616d696c6107778401526107978301526107b78201527f23363437343862223e536f6e696320426c6f636b636861696e3c2f746578743e6107d7820152651e17b9bb339f60d11b6107f7820152036107dd8101845201826120fc565b612555565b9360405190611592603a8360208101987f646174613a696d6167652f7376672b786d6c3b6261736536342c0000000000008a526115828151809260208686019101611fc6565b810103601a8101855201836120fc565b61159c81516126bf565b906115b4670de0b6b3a76400006060830151046126bf565b6115c160808301516126bf565b926115ee6115da60018060a01b03602086015116612882565b6040909401516001600160a01b0316612882565b94604051998a977f7b226e616d65223a2022467265796120496e766f69636520526563656970742060208a0152602360f81b60408a015261163981518092602060418d019101611fc6565b61088b60f21b6041918a019182018190527f226465736372697074696f6e223a2022536f756c626f756e642072656365697060438301527f7420666f7220636f6d706c6574656420696e766f696365207061796d656e74206063830152721bdb88119c995e58481c1b185d199bdc9b488b606a1b6083830152691134b6b0b3b2911d101160b11b60968301529251916116d890839060a0840190611fc6565b019060a08201526e2261747472696275746573223a205b60881b60a28201527f7b2274726169745f74797065223a2022496e766f696365204944222c2022766160b182015266363ab2911d101160c91b60d182015261174182518093602060d885019101611fc6565b019062089f4b60ea1b938480928160d88601527f7b2274726169745f74797065223a2022416d6f756e74222c202276616c75652260db860152621d101160e91b948560fb82015261179c82518093602060fe85019101611fc6565b01640814c89f4b60da1b60fe8201527f7b2274726169745f74797065223a2022506169642044617465222c202276616c610103820152653ab2911d101160d11b6101238201528251906117f9826101299560208785019101611fc6565b01918201527f7b2274726169745f74797065223a2022497373756572222c202276616c75652261012c8201528261014c8201528351906118438261014f9660208885019101611fc6565b01928301527f7b2274726169745f74797065223a2022436c69656e74222c202276616c75652261015283015261017282015282519061188c826101759560208785019101611fc6565b01918201527f7b2274726169745f74797065223a2022536f756c626f756e64222c202276616c6101788201526b7565223a202274727565227d60a01b610198820152615d7d60f01b6101a4820152036101868101845201826120fc565b9161193d603d60405180957f646174613a6170706c69636174696f6e2f6a736f6e3b6261736536342c000000602083015261192d8151809260208686019101611fc6565b810103601d8101865201846120fc565b6000828152600260205260409020546001600160a01b031615611b02578160005260066020526040600020835167ffffffffffffffff8111611aec57611983825461206e565b601f8111611aa4575b50806020958690601f8311600114611a4057600092611a35575b50508160011b916000199060031b1c19161790555b7ff8e1a15aba9398e019f0b49df1a4fde98ee17ae345cb5f6b5e2c27f5033e8ce783604051848152a1604080516044356001600160a01b03908116825260643586830152909216916004359184917fb6f259b6ce6dc898b0d9bdbca40ab35d5ac9a54da9f7a6df1036bb81398fb4839190a4604051908152f35b0151905086806119a6565b60008581528881209350601f198516905b818110611a8d5750908460019594939210611a74575b505050811b0190556119bb565b015160001960f88460031b161c19169055868080611a67565b929389600181928786015181550195019301611a51565b826000526020600020601f830160051c81019160208410611ae2575b601f0160051c01905b818110611ad6575061198c565b60008155600101611ac9565b9091508190611ac0565b634e487b7160e01b600052604160045260246000fd5b60405162461bcd60e51b815260206004820152602e60248201527f45524337323155524953746f726167653a2055524920736574206f66206e6f6e60448201526d32bc34b9ba32b73a103a37b5b2b760911b6064820152608490fd5b60405162461bcd60e51b815280611b7760048201612323565b0390fd5b606460405162461bcd60e51b815260206004820152602060248201527f4552433732313a206d696e7420746f20746865207a65726f20616464726573736044820152fd5b015190508880610996565b906005840160005260206000209160005b601f1985168110611c2757509260c0949260019260069583601f19811610611c0e575b505050811b0160058201556109ae565b015160001960f88460031b161c19169055888080611bfe565b91926020600181928685015181550194019201611bdb565b600584016000526020600020601f840160051c810160208510611c7f575b601f830160051c82018110611c73575050610976565b60008155600101611c5d565b5080611c5d565b60405162461bcd60e51b815260206004820152602760248201527f5265636569707420616c72656164792065786973747320666f72207468697320604482015266696e766f69636560c81b6064820152608490fd5b346101e05760203660031901126101e057600435600052600a6020526040600020805460018060a01b0391611d65836001830154169360028301541691600381015460048201549060ff6006611d336005860161211e565b94015416946040519788978852602088015260408701526060860152608085015260e060a085015260e0840190611fe9565b90151560c08301520390f35b61203a565b346101e05760203660031901126101e05760043560005260096020526020604060002054604051908152f35b346101e05760203660031901126101e057600435600052600960205260206040600020541515604051908152f35b346101e05760403660031901126101e057611de961200e565b5060405162461bcd60e51b815260206004820152602f60248201527f496e766f6963654e46543a20536f756c626f756e6420746f6b656e732063616e60448201526e1b9bdd08189948185c1c1c9bdd9959608a1b6064820152608490fd5b346101e05760203660031901126101e057600435600081815260026020526040902054611e7e906001600160a01b0316151561229d565b6000526004602052602060018060a01b0360406000205416604051908152f35b346101e05760003660031901126101e05760405160008054611ebf8161206e565b808452906001908181169081156106905750600114611ee8576102ad84610623818603826120fc565b600080805292507f290decd9548b62a8d60345a988386fc84ba6bc95484008f6362f93160ef3e5635b828410611f2957505050810160200161062382610613565b80546020858701810191909152909301928101611f11565b346101e05760203660031901126101e0576004359063ffffffff60e01b82168092036101e057602091632483248360e11b8114908115611f83575b5015158152f35b6380ac58cd60e01b811491508115611fb5575b8115611fa4575b5083611f7c565b6301ffc9a760e01b14905083611f9d565b635b5e139f60e01b81149150611f96565b60005b838110611fd95750506000910152565b8181015183820152602001611fc9565b9060209161200281518092818552858086019101611fc6565b601f01601f1916010190565b600435906001600160a01b03821682036101e057565b602435906001600160a01b03821682036101e057565b346101e05760603660031901126101e0576001600160a01b03600435818116036101e0576024359081161461280257600080fd5b90600182811c9216801561209e575b602083101461208857565b634e487b7160e01b600052602260045260246000fd5b91607f169161207d565b60e0810190811067ffffffffffffffff821117611aec57604052565b6020810190811067ffffffffffffffff821117611aec57604052565b6060810190811067ffffffffffffffff821117611aec57604052565b90601f8019910116810190811067ffffffffffffffff821117611aec57604052565b90604051918260008254926121328461206e565b9081845260019485811690816000146121a1575060011461215e575b505061215c925003836120fc565b565b9093915060005260209081600020936000915b81831061218957505061215c9350820101388061214e565b85548884018501529485019487945091830191612171565b91505061215c94506020925060ff191682840152151560051b820101388061214e565b67ffffffffffffffff8111611aec57601f01601f191660200190565b9291926121ec826121c4565b916121fa60405193846120fc565b8294818452818301116101e0578281602093846000960137010152565b805482101561222f5760005260206000200190600090565b634e487b7160e01b600052603260045260246000fd5b6007546001600160a01b0316330361225957565b606460405162461bcd60e51b815260206004820152602060248201527f4f776e61626c653a2063616c6c6572206973206e6f7420746865206f776e65726044820152fd5b156122a457565b60405162461bcd60e51b815260206004820152601860248201527f4552433732313a20696e76616c696420746f6b656e20494400000000000000006044820152606490fd5b805468010000000000000000811015611aec5761230b91600182018155612217565b819291549060031b91821b91600019901b1916179055565b60809060208152603260208201527f4552433732313a207472616e7366657220746f206e6f6e20455243373231526560408201527131b2b4bb32b91034b6b83632b6b2b73a32b960711b60608201520190565b1561237d57565b60405162461bcd60e51b815260206004820152601c60248201527f4552433732313a20746f6b656e20616c7265616479206d696e746564000000006044820152606490fd5b91929091803b156124d75761240f936040519081630a85bd0160e11b9384825233600483015260009687602484015260448301526080606483015281878160209a8b966084830190611fe9565b03926001600160a01b03165af1849181612493575b50612482575050503d60001461247a573d61243e816121c4565b9061244c60405192836120fc565b81528091833d92013e5b805191826124775760405162461bcd60e51b815280611b7760048201612323565b01fd5b506060612456565b6001600160e01b0319161492509050565b9091508581813d83116124d0575b6124ab81836120fc565b810103126124cc57516001600160e01b0319811681036124cc579038612424565b8480fd5b503d6124a1565b50915050600190565b156124e757565b60405162461bcd60e51b8152602060048201526014602482015273151bdad95b88191bd95cc81b9bdd08195e1a5cdd60621b6044820152606490fd5b9061252d826121c4565b61253a60405191826120fc565b828152809261254b601f19916121c4565b0190602036910137565b8051156126ab5760405190612569826120e0565b604082527f4142434445464748494a4b4c4d4e4f505152535455565758595a61626364656660208301527f6768696a6b6c6d6e6f707172737475767778797a303132333435363738392b2f60408301528051600291828201809211612695576003918290046001600160fe1b0381168103612695576125eb908495941b612523565b936020850193829183518401906020820192835194600085525b83811061264457505050505251068060011461263157600214612626575090565b603d90600019015390565b50603d9081600019820153600119015390565b87600491999293949901918251600190603f9082828260121c16880101518453828282600c1c16880101518385015382828260061c1688010151888501531685010151898201530197929190612605565b634e487b7160e01b600052601160045260246000fd5b506040516126b8816120c4565b6000815290565b806000917a184f03e93ff9f4daa797ed6e38ed64bf6a1f010000000000000000808210156127f4575b506d04ee2d6d415b85acef8100000000808310156127e5575b50662386f26fc10000808310156127d6575b506305f5e100808310156127c7575b50612710808310156127b8575b5060648210156127a8575b600a8092101561279e575b600190816021612756828701612523565b95860101905b612768575b5050505090565b600019019083906f181899199a1a9b1b9c1cb0b131b232b360811b8282061a8353049182156127995791908261275c565b612761565b9160010191612745565b919060646002910491019161273a565b6004919392049101913861272f565b60089193920491019138612722565b60109193920491019138612713565b60209193920491019138612701565b6040935081049150386126e8565b60405162461bcd60e51b815260206004820152603260248201527f496e766f6963654e46543a20536f756c626f756e6420746f6b656e732063616e6044820152711b9bdd081899481d1c985b9cd9995c9c995960721b6064820152608490fd5b60001981146126955760010190565b90815181101561222f570160200190565b6040519061288f826120e0565b602882526020820190604036833760005b601481106128e457505060226128d1926128e19260405194859261060f60f31b602085015251809285850190611fc6565b81010360028101845201826120fc565b90565b60139080820391821161269557600382901b916001600160fd1b038116036126955760ff8083116126955760019283811b156129a5576001600160a01b038516901c60f0811682821603918211612695576129479060f41b600f60f81b166129bb565b82841b916001600160ff1b03841684036126955761297f9160001a61296c848a612871565b5360f81b6001600160f81b0319166129bb565b9281018091116126955761299a6129a09360001a9187612871565b53612862565b6128a0565b634e487b7160e01b600052601260045260246000fd5b60f81c600a8110156129e25760300160ff81116126955760f81b6001600160f81b03191690565b60570160ff81116126955760f81b6001600160f81b03191690565b8051156126ab5760148151808211612a58575b50612a1a81612523565b91600090815b838110612a2e575050505090565b612a53906001600160f81b0319612a458285612871565b5116841a61299a8288612871565b612a20565b905038612a10565b8051156126ab57601e8151808211612aad575b50612a7d81612523565b91600090815b838110612a91575050505090565b612aa8906001600160f81b0319612a458285612871565b612a83565b905038612a7356fea264697066735822122095695387aeaf491d18a8f08007eff5bf3eca1f4450268cb33d77e8c3b0b6013464736f6c63430008140033","opcodes":"PUSH1 0x80 CALLVALUE PUSH3 0x36A JUMPI PUSH1 0x1 PUSH1 0x1 PUSH1 0x40 SHL SUB SWAP1 PUSH1 0x40 DUP2 DUP2 ADD DUP4 DUP2 GT DUP4 DUP3 LT OR PUSH3 0x354 JUMPI DUP2 MSTORE PUSH1 0x15 DUP3 MSTORE PUSH1 0x20 SWAP2 PUSH32 0x467265796120496E766F69636520526563656970740000000000000000000000 DUP4 DUP3 ADD MSTORE DUP2 MLOAD SWAP4 DUP3 DUP6 ADD DUP6 DUP2 LT DUP3 DUP3 GT OR PUSH3 0x354 JUMPI DUP4 MSTORE PUSH1 0x3 DUP6 MSTORE PUSH3 0x2324A9 PUSH1 0xE9 SHL DUP5 DUP7 ADD MSTORE DUP2 MLOAD DUP2 DUP2 GT PUSH3 0x354 JUMPI PUSH1 0x0 SWAP5 DUP6 SLOAD SWAP2 PUSH1 0x1 SWAP5 DUP6 DUP5 DUP2 SHR SWAP5 AND DUP1 ISZERO PUSH3 0x349 JUMPI JUMPDEST DUP4 DUP6 LT EQ PUSH3 0x335 JUMPI DUP2 SWAP1 PUSH1 0x1F SWAP5 DUP6 DUP2 GT PUSH3 0x2E2 JUMPI JUMPDEST POP DUP4 SWAP1 DUP6 DUP4 GT PUSH1 0x1 EQ PUSH3 0x27E JUMPI DUP10 SWAP3 PUSH3 0x272 JUMPI JUMPDEST POP POP PUSH1 0x0 NOT PUSH1 0x3 DUP4 SWAP1 SHL SHR NOT AND SWAP1 DUP6 SHL OR DUP7 SSTORE JUMPDEST DUP7 MLOAD SWAP3 DUP4 GT PUSH3 0x25E JUMPI DUP4 SLOAD DUP5 DUP2 DUP2 SHR SWAP2 AND DUP1 ISZERO PUSH3 0x253 JUMPI JUMPDEST DUP3 DUP3 LT EQ PUSH3 0x23F JUMPI DUP3 DUP2 GT PUSH3 0x1F7 JUMPI JUMPDEST POP DUP1 SWAP2 DUP4 GT PUSH1 0x1 EQ PUSH3 0x190 JUMPI POP DUP5 SWAP6 DUP3 SWAP4 SWAP5 SWAP6 SWAP3 PUSH3 0x184 JUMPI JUMPDEST POP POP PUSH1 0x0 NOT PUSH1 0x3 DUP4 SWAP1 SHL SHR NOT AND SWAP1 DUP3 SHL OR SWAP1 SSTORE JUMPDEST PUSH1 0x7 DUP1 SLOAD CALLER PUSH1 0x1 PUSH1 0x1 PUSH1 0xA0 SHL SUB NOT DUP3 AND DUP2 OR SWAP1 SWAP3 SSTORE SWAP2 MLOAD SWAP3 SWAP1 SWAP2 PUSH1 0x1 PUSH1 0x1 PUSH1 0xA0 SHL SUB AND SWAP1 PUSH32 0x8BE0079C531659141344CD1FD0A4F28419497F9722A3DAAFE3B4186F6B6457E0 SWAP1 DUP1 LOG3 PUSH2 0x2AEB SWAP1 DUP2 PUSH3 0x370 DUP3 CODECOPY RETURN JUMPDEST ADD MLOAD SWAP1 POP CODESIZE DUP1 PUSH3 0x11B JUMP JUMPDEST SWAP1 PUSH1 0x1F NOT DUP4 AND SWAP7 DUP5 DUP8 MSTORE DUP3 DUP8 KECCAK256 SWAP3 DUP8 SWAP1 JUMPDEST DUP10 DUP3 LT PUSH3 0x1DF JUMPI POP POP DUP4 DUP6 SWAP7 SWAP8 SWAP9 LT PUSH3 0x1C5 JUMPI JUMPDEST POP POP POP DUP2 SHL ADD SWAP1 SSTORE PUSH3 0x12F JUMP JUMPDEST ADD MLOAD PUSH1 0x0 NOT PUSH1 0xF8 DUP5 PUSH1 0x3 SHL AND SHR NOT AND SWAP1 SSTORE CODESIZE DUP1 DUP1 PUSH3 0x1B7 JUMP JUMPDEST DUP1 DUP8 DUP6 SWAP7 DUP3 SWAP5 SWAP7 DUP7 ADD MLOAD DUP2 SSTORE ADD SWAP6 ADD SWAP4 ADD SWAP1 PUSH3 0x1A1 JUMP JUMPDEST DUP5 DUP8 MSTORE DUP2 DUP8 KECCAK256 DUP4 DUP1 DUP7 ADD PUSH1 0x5 SHR DUP3 ADD SWAP3 DUP5 DUP8 LT PUSH3 0x235 JUMPI JUMPDEST ADD PUSH1 0x5 SHR ADD SWAP1 DUP6 SWAP1 JUMPDEST DUP3 DUP2 LT PUSH3 0x229 JUMPI POP POP PUSH3 0x100 JUMP JUMPDEST DUP9 DUP2 SSTORE ADD DUP6 SWAP1 PUSH3 0x219 JUMP JUMPDEST SWAP3 POP DUP2 SWAP3 PUSH3 0x210 JUMP JUMPDEST PUSH4 0x4E487B71 PUSH1 0xE0 SHL DUP8 MSTORE PUSH1 0x22 PUSH1 0x4 MSTORE PUSH1 0x24 DUP8 REVERT JUMPDEST SWAP1 PUSH1 0x7F AND SWAP1 PUSH3 0xEE JUMP JUMPDEST PUSH4 0x4E487B71 PUSH1 0xE0 SHL DUP7 MSTORE PUSH1 0x41 PUSH1 0x4 MSTORE PUSH1 0x24 DUP7 REVERT JUMPDEST ADD MLOAD SWAP1 POP CODESIZE DUP1 PUSH3 0xC0 JUMP JUMPDEST DUP10 DUP1 MSTORE DUP5 DUP11 KECCAK256 DUP9 SWAP5 POP SWAP2 SWAP1 PUSH1 0x1F NOT DUP5 AND DUP12 JUMPDEST DUP8 DUP3 DUP3 LT PUSH3 0x2CB JUMPI POP POP DUP5 GT PUSH3 0x2B1 JUMPI JUMPDEST POP POP POP DUP2 SHL ADD DUP7 SSTORE PUSH3 0xD4 JUMP JUMPDEST ADD MLOAD PUSH1 0x0 NOT PUSH1 0xF8 DUP5 PUSH1 0x3 SHL AND SHR NOT AND SWAP1 SSTORE CODESIZE DUP1 DUP1 PUSH3 0x2A3 JUMP JUMPDEST DUP4 DUP6 ADD MLOAD DUP7 SSTORE DUP12 SWAP8 SWAP1 SWAP6 ADD SWAP5 SWAP4 DUP5 ADD SWAP4 ADD PUSH3 0x290 JUMP JUMPDEST SWAP1 SWAP2 POP DUP9 DUP1 MSTORE DUP4 DUP10 KECCAK256 DUP6 DUP1 DUP6 ADD PUSH1 0x5 SHR DUP3 ADD SWAP3 DUP7 DUP7 LT PUSH3 0x32B JUMPI JUMPDEST SWAP2 DUP10 SWAP2 DUP7 SWAP6 SWAP5 SWAP4 ADD PUSH1 0x5 SHR ADD SWAP2 JUMPDEST DUP3 DUP2 LT PUSH3 0x31C JUMPI POP POP PUSH3 0xAA JUMP JUMPDEST DUP12 DUP2 SSTORE DUP6 SWAP5 POP DUP10 SWAP2 ADD PUSH3 0x30C JUMP JUMPDEST SWAP3 POP DUP2 SWAP3 PUSH3 0x2FE JUMP JUMPDEST PUSH4 0x4E487B71 PUSH1 0xE0 SHL DUP9 MSTORE PUSH1 0x22 PUSH1 0x4 MSTORE PUSH1 0x24 DUP9 REVERT JUMPDEST SWAP4 PUSH1 0x7F AND SWAP4 PUSH3 0x93 JUMP JUMPDEST PUSH4 0x4E487B71 PUSH1 0xE0 SHL PUSH1 0x0 MSTORE PUSH1 0x41 PUSH1 0x4 MSTORE PUSH1 0x24 PUSH1 0x0 REVERT JUMPDEST PUSH1 0x0 DUP1 REVERT INVALID PUSH1 0x80 DUP1 PUSH1 0x40 MSTORE PUSH1 0x4 CALLDATASIZE LT ISZERO PUSH2 0x13 JUMPI PUSH1 0x0 DUP1 REVERT JUMPDEST PUSH1 0x0 CALLDATALOAD PUSH1 0xE0 SHR SWAP1 DUP2 PUSH4 0x1FFC9A7 EQ PUSH2 0x1F41 JUMPI POP DUP1 PUSH4 0x6FDDE03 EQ PUSH2 0x1E9E JUMPI DUP1 PUSH4 0x81812FC EQ PUSH2 0x1E47 JUMPI DUP1 PUSH4 0x95EA7B3 EQ PUSH2 0x1DD0 JUMPI DUP1 PUSH4 0x23B872DD EQ PUSH2 0x1D71 JUMPI DUP1 PUSH4 0x3D18F652 EQ PUSH2 0x1DA2 JUMPI DUP1 PUSH4 0x3FC8ABFB EQ PUSH2 0x1D76 JUMPI DUP1 PUSH4 0x42842E0E EQ PUSH2 0x1D71 JUMPI DUP1 PUSH4 0x5B982FBC EQ PUSH2 0x1CDB JUMPI DUP1 PUSH4 0x5C6B8FCB EQ PUSH2 0x813 JUMPI DUP1 PUSH4 0x6352211E EQ PUSH2 0x7D4 JUMPI DUP1 PUSH4 0x70A08231 EQ PUSH2 0x73D JUMPI DUP1 PUSH4 0x715018A6 EQ PUSH2 0x6E0 JUMPI DUP1 PUSH4 0x8DA5CB5B EQ PUSH2 0x6B7 JUMPI DUP1 PUSH4 0x95D89B41 EQ PUSH2 0x5D8 JUMPI DUP1 PUSH4 0x9E19BB59 EQ PUSH2 0x524 JUMPI DUP1 PUSH4 0xA039CDDF EQ PUSH2 0x3E5 JUMPI DUP1 PUSH4 0xA22CB465 EQ PUSH2 0x363 JUMPI DUP1 PUSH4 0xA843C5FE EQ PUSH2 0x30B JUMPI DUP1 PUSH4 0xB88D4FDE EQ PUSH2 0x2B1 JUMPI DUP1 PUSH4 0xC87B56DD EQ PUSH2 0x23B JUMPI DUP1 PUSH4 0xE985E9C5 EQ PUSH2 0x1E5 JUMPI PUSH4 0xF2FDE38B EQ PUSH2 0x11C JUMPI PUSH1 0x0 DUP1 REVERT JUMPDEST CALLVALUE PUSH2 0x1E0 JUMPI PUSH1 0x20 CALLDATASIZE PUSH1 0x3 NOT ADD SLT PUSH2 0x1E0 JUMPI PUSH2 0x135 PUSH2 0x200E JUMP JUMPDEST PUSH2 0x13D PUSH2 0x2245 JUMP JUMPDEST PUSH1 0x1 PUSH1 0x1 PUSH1 0xA0 SHL SUB SWAP1 DUP2 AND SWAP1 DUP2 ISZERO PUSH2 0x18C JUMPI PUSH1 0x7 SLOAD DUP3 PUSH1 0x1 PUSH1 0x1 PUSH1 0x60 SHL SUB PUSH1 0xA0 SHL DUP3 AND OR PUSH1 0x7 SSTORE AND PUSH32 0x8BE0079C531659141344CD1FD0A4F28419497F9722A3DAAFE3B4186F6B6457E0 PUSH1 0x0 DUP1 LOG3 STOP JUMPDEST PUSH1 0x40 MLOAD PUSH3 0x461BCD PUSH1 0xE5 SHL DUP2 MSTORE PUSH1 0x20 PUSH1 0x4 DUP3 ADD MSTORE PUSH1 0x26 PUSH1 0x24 DUP3 ADD MSTORE PUSH32 0x4F776E61626C653A206E6577206F776E657220697320746865207A65726F2061 PUSH1 0x44 DUP3 ADD MSTORE PUSH6 0x646472657373 PUSH1 0xD0 SHL PUSH1 0x64 DUP3 ADD MSTORE PUSH1 0x84 SWAP1 REVERT JUMPDEST PUSH1 0x0 DUP1 REVERT JUMPDEST CALLVALUE PUSH2 0x1E0 JUMPI PUSH1 0x40 CALLDATASIZE PUSH1 0x3 NOT ADD SLT PUSH2 0x1E0 JUMPI PUSH2 0x1FE PUSH2 0x200E JUMP JUMPDEST PUSH2 0x206 PUSH2 0x2024 JUMP JUMPDEST SWAP1 PUSH1 0x1 DUP1 PUSH1 0xA0 SHL SUB DUP1 SWAP2 AND PUSH1 0x0 MSTORE PUSH1 0x5 PUSH1 0x20 MSTORE PUSH1 0x40 PUSH1 0x0 KECCAK256 SWAP2 AND PUSH1 0x0 MSTORE PUSH1 0x20 MSTORE PUSH1 0x20 PUSH1 0xFF PUSH1 0x40 PUSH1 0x0 KECCAK256 SLOAD AND PUSH1 0x40 MLOAD SWAP1 ISZERO ISZERO DUP2 MSTORE RETURN JUMPDEST CALLVALUE PUSH2 0x1E0 JUMPI PUSH1 0x20 CALLDATASIZE PUSH1 0x3 NOT ADD SLT PUSH2 0x1E0 JUMPI PUSH1 0x4 CALLDATALOAD PUSH1 0x0 DUP2 DUP2 MSTORE PUSH1 0x2 PUSH1 0x20 MSTORE PUSH1 0x40 SWAP1 KECCAK256 SLOAD PUSH2 0x272 SWAP1 PUSH1 0x1 PUSH1 0x1 PUSH1 0xA0 SHL SUB AND ISZERO ISZERO PUSH2 0x229D JUMP JUMPDEST PUSH1 0x0 MSTORE PUSH1 0x6 PUSH1 0x20 MSTORE PUSH2 0x2AD PUSH2 0x28A PUSH1 0x40 PUSH1 0x0 KECCAK256 PUSH2 0x211E JUMP JUMPDEST PUSH1 0x0 PUSH1 0x40 MLOAD PUSH2 0x298 DUP2 PUSH2 0x20C4 JUMP JUMPDEST MSTORE PUSH1 0x40 MLOAD SWAP2 DUP3 SWAP2 PUSH1 0x20 DUP4 MSTORE PUSH1 0x20 DUP4 ADD SWAP1 PUSH2 0x1FE9 JUMP JUMPDEST SUB SWAP1 RETURN JUMPDEST CALLVALUE PUSH2 0x1E0 JUMPI PUSH1 0x80 CALLDATASIZE PUSH1 0x3 NOT ADD SLT PUSH2 0x1E0 JUMPI PUSH2 0x2CA PUSH2 0x200E JUMP JUMPDEST POP PUSH2 0x2D3 PUSH2 0x2024 JUMP JUMPDEST POP PUSH1 0x64 CALLDATALOAD PUSH8 0xFFFFFFFFFFFFFFFF DUP2 GT PUSH2 0x1E0 JUMPI CALLDATASIZE PUSH1 0x23 DUP3 ADD SLT ISZERO PUSH2 0x1E0 JUMPI PUSH2 0x305 SWAP1 CALLDATASIZE SWAP1 PUSH1 0x24 DUP2 PUSH1 0x4 ADD CALLDATALOAD SWAP2 ADD PUSH2 0x21E0 JUMP JUMPDEST POP PUSH2 0x2802 JUMP JUMPDEST CALLVALUE PUSH2 0x1E0 JUMPI PUSH1 0x40 CALLDATASIZE PUSH1 0x3 NOT ADD SLT PUSH2 0x1E0 JUMPI PUSH2 0x324 PUSH2 0x200E JUMP JUMPDEST PUSH1 0x1 PUSH1 0x1 PUSH1 0xA0 SHL SUB AND PUSH1 0x0 SWAP1 DUP2 MSTORE PUSH1 0xB PUSH1 0x20 MSTORE PUSH1 0x40 SWAP1 KECCAK256 DUP1 SLOAD PUSH1 0x24 CALLDATALOAD SWAP2 SWAP1 DUP3 LT ISZERO PUSH2 0x1E0 JUMPI PUSH1 0x20 SWAP2 PUSH2 0x355 SWAP2 PUSH2 0x2217 JUMP JUMPDEST SWAP1 SLOAD PUSH1 0x40 MLOAD SWAP2 PUSH1 0x3 SHL SHR DUP2 MSTORE RETURN JUMPDEST CALLVALUE PUSH2 0x1E0 JUMPI PUSH1 0x40 CALLDATASIZE PUSH1 0x3 NOT ADD SLT PUSH2 0x1E0 JUMPI PUSH2 0x37C PUSH2 0x200E JUMP JUMPDEST POP PUSH1 0x24 CALLDATALOAD DUP1 ISZERO ISZERO SUB PUSH2 0x1E0 JUMPI PUSH1 0x40 MLOAD PUSH3 0x461BCD PUSH1 0xE5 SHL DUP2 MSTORE PUSH1 0x20 PUSH1 0x4 DUP3 ADD MSTORE PUSH1 0x2F PUSH1 0x24 DUP3 ADD MSTORE PUSH32 0x496E766F6963654E46543A20536F756C626F756E6420746F6B656E732063616E PUSH1 0x44 DUP3 ADD MSTORE PUSH15 0x1B9BDD08189948185C1C1C9BDD9959 PUSH1 0x8A SHL PUSH1 0x64 DUP3 ADD MSTORE PUSH1 0x84 SWAP1 REVERT JUMPDEST CALLVALUE PUSH2 0x1E0 JUMPI PUSH1 0x20 DUP1 PUSH1 0x3 NOT CALLDATASIZE ADD SLT PUSH2 0x1E0 JUMPI PUSH1 0x4 CALLDATALOAD PUSH1 0x0 PUSH1 0xC0 PUSH1 0x40 MLOAD PUSH2 0x40A DUP2 PUSH2 0x20A8 JUMP JUMPDEST DUP3 DUP2 MSTORE DUP3 DUP6 DUP3 ADD MSTORE DUP3 PUSH1 0x40 DUP3 ADD MSTORE DUP3 PUSH1 0x60 DUP3 ADD MSTORE DUP3 PUSH1 0x80 DUP3 ADD MSTORE PUSH1 0x60 PUSH1 0xA0 DUP3 ADD MSTORE ADD MSTORE PUSH2 0x454 PUSH2 0x44F DUP3 PUSH1 0x0 MSTORE PUSH1 0x2 PUSH1 0x20 MSTORE PUSH1 0x1 DUP1 PUSH1 0xA0 SHL SUB PUSH1 0x40 PUSH1 0x0 KECCAK256 SLOAD AND ISZERO ISZERO SWAP1 JUMP JUMPDEST PUSH2 0x24E0 JUMP JUMPDEST PUSH1 0x0 MSTORE PUSH1 0xA DUP2 MSTORE PUSH1 0x40 PUSH1 0x0 KECCAK256 PUSH1 0x40 MLOAD SWAP1 PUSH2 0x46D DUP3 PUSH2 0x20A8 JUMP JUMPDEST DUP1 SLOAD DUP3 MSTORE PUSH1 0x1 DUP2 ADD SLOAD PUSH1 0x1 PUSH1 0x1 PUSH1 0xA0 SHL SUB SWAP1 DUP2 AND DUP5 DUP5 ADD SWAP1 DUP2 MSTORE PUSH1 0x2 DUP4 ADD SLOAD DUP3 AND PUSH1 0x40 DUP6 ADD SWAP1 DUP2 MSTORE PUSH1 0x3 DUP5 ADD SLOAD PUSH1 0x60 DUP7 ADD SWAP1 DUP2 MSTORE PUSH1 0x4 DUP6 ADD SLOAD PUSH1 0x80 DUP8 ADD SWAP1 DUP2 MSTORE SWAP3 SWAP5 PUSH2 0x517 SWAP5 SWAP1 SWAP4 SWAP3 DUP2 PUSH1 0xFF PUSH1 0x6 PUSH2 0x4C7 PUSH1 0x5 DUP10 ADD PUSH2 0x211E JUMP JUMPDEST SWAP8 PUSH1 0xA0 DUP13 ADD SWAP9 DUP10 MSTORE ADD SLOAD AND SWAP8 PUSH1 0xC0 DUP11 ADD SWAP9 ISZERO ISZERO DUP10 MSTORE PUSH1 0x40 MLOAD SWAP11 DUP12 SWAP11 DUP2 DUP13 MSTORE MLOAD SWAP1 DUP12 ADD MSTORE MLOAD AND PUSH1 0x40 DUP10 ADD MSTORE MLOAD AND PUSH1 0x60 DUP8 ADD MSTORE MLOAD PUSH1 0x80 DUP7 ADD MSTORE MLOAD PUSH1 0xA0 DUP6 ADD MSTORE MLOAD PUSH1 0xE0 PUSH1 0xC0 DUP6 ADD MSTORE PUSH2 0x100 DUP5 ADD SWAP1 PUSH2 0x1FE9 JUMP JUMPDEST SWAP1 MLOAD ISZERO ISZERO PUSH1 0xE0 DUP4 ADD MSTORE SUB SWAP1 RETURN JUMPDEST CALLVALUE PUSH2 0x1E0 JUMPI PUSH1 0x20 DUP1 PUSH1 0x3 NOT CALLDATASIZE ADD SLT PUSH2 0x1E0 JUMPI PUSH1 0x1 PUSH1 0x1 PUSH1 0xA0 SHL SUB PUSH2 0x546 PUSH2 0x200E JUMP JUMPDEST AND PUSH1 0x0 MSTORE PUSH1 0xB DUP2 MSTORE PUSH1 0x40 PUSH1 0x0 KECCAK256 PUSH1 0x40 MLOAD SWAP1 DUP2 DUP4 DUP3 SLOAD SWAP2 DUP3 DUP2 MSTORE ADD SWAP1 DUP2 SWAP3 PUSH1 0x0 MSTORE DUP5 PUSH1 0x0 KECCAK256 SWAP1 PUSH1 0x0 JUMPDEST DUP7 DUP3 DUP3 LT PUSH2 0x5C4 JUMPI DUP7 DUP7 PUSH2 0x584 DUP3 DUP9 SUB DUP4 PUSH2 0x20FC JUMP JUMPDEST PUSH1 0x40 MLOAD SWAP3 DUP4 SWAP3 DUP2 DUP5 ADD SWAP1 DUP3 DUP6 MSTORE MLOAD DUP1 SWAP2 MSTORE PUSH1 0x40 DUP5 ADD SWAP3 SWAP2 PUSH1 0x0 JUMPDEST DUP3 DUP2 LT PUSH2 0x5AD JUMPI POP POP POP POP SUB SWAP1 RETURN JUMPDEST DUP4 MLOAD DUP6 MSTORE DUP7 SWAP6 POP SWAP4 DUP2 ADD SWAP4 SWAP3 DUP2 ADD SWAP3 PUSH1 0x1 ADD PUSH2 0x59E JUMP JUMPDEST DUP4 SLOAD DUP6 MSTORE SWAP1 SWAP4 ADD SWAP3 PUSH1 0x1 SWAP3 DUP4 ADD SWAP3 ADD PUSH2 0x56E JUMP JUMPDEST CALLVALUE PUSH2 0x1E0 JUMPI PUSH1 0x0 CALLDATASIZE PUSH1 0x3 NOT ADD SLT PUSH2 0x1E0 JUMPI PUSH1 0x40 MLOAD PUSH1 0x0 PUSH1 0x1 DUP1 SLOAD SWAP1 PUSH2 0x5FC DUP3 PUSH2 0x206E JUMP JUMPDEST DUP1 DUP6 MSTORE SWAP2 DUP2 DUP2 AND SWAP1 DUP2 ISZERO PUSH2 0x690 JUMPI POP PUSH1 0x1 EQ PUSH2 0x637 JUMPI JUMPDEST PUSH2 0x2AD DUP5 PUSH2 0x623 DUP2 DUP7 SUB DUP3 PUSH2 0x20FC JUMP JUMPDEST PUSH1 0x40 MLOAD SWAP2 DUP3 SWAP2 PUSH1 0x20 DUP4 MSTORE PUSH1 0x20 DUP4 ADD SWAP1 PUSH2 0x1FE9 JUMP JUMPDEST PUSH1 0x0 DUP2 DUP2 MSTORE SWAP3 POP PUSH32 0xB10E2D527612073B26EECDFD717E6A320CF44B4AFAC2B0732D9FCBE2B7FA0CF6 JUMPDEST DUP3 DUP5 LT PUSH2 0x678 JUMPI POP POP POP DUP2 ADD PUSH1 0x20 ADD PUSH2 0x623 DUP3 PUSH2 0x613 JUMP JUMPDEST DUP1 SLOAD PUSH1 0x20 DUP6 DUP8 ADD DUP2 ADD SWAP2 SWAP1 SWAP2 MSTORE SWAP1 SWAP4 ADD SWAP3 DUP2 ADD PUSH2 0x660 JUMP JUMPDEST PUSH1 0xFF NOT AND PUSH1 0x20 DUP1 DUP8 ADD SWAP2 SWAP1 SWAP2 MSTORE SWAP3 ISZERO ISZERO PUSH1 0x5 SHL DUP6 ADD SWAP1 SWAP3 ADD SWAP3 POP PUSH2 0x623 SWAP2 POP DUP4 SWAP1 POP PUSH2 0x613 JUMP JUMPDEST CALLVALUE PUSH2 0x1E0 JUMPI PUSH1 0x0 CALLDATASIZE PUSH1 0x3 NOT ADD SLT PUSH2 0x1E0 JUMPI PUSH1 0x7 SLOAD PUSH1 0x40 MLOAD PUSH1 0x1 PUSH1 0x1 PUSH1 0xA0 SHL SUB SWAP1 SWAP2 AND DUP2 MSTORE PUSH1 0x20 SWAP1 RETURN JUMPDEST CALLVALUE PUSH2 0x1E0 JUMPI PUSH1 0x0 CALLDATASIZE PUSH1 0x3 NOT ADD SLT PUSH2 0x1E0 JUMPI PUSH2 0x6F9 PUSH2 0x2245 JUMP JUMPDEST PUSH1 0x7 DUP1 SLOAD PUSH1 0x1 PUSH1 0x1 PUSH1 0xA0 SHL SUB NOT DUP2 AND SWAP1 SWAP2 SSTORE PUSH1 0x0 SWAP1 PUSH1 0x1 PUSH1 0x1 PUSH1 0xA0 SHL SUB AND PUSH32 0x8BE0079C531659141344CD1FD0A4F28419497F9722A3DAAFE3B4186F6B6457E0 DUP3 DUP1 LOG3 STOP JUMPDEST CALLVALUE PUSH2 0x1E0 JUMPI PUSH1 0x20 CALLDATASIZE PUSH1 0x3 NOT ADD SLT PUSH2 0x1E0 JUMPI PUSH1 0x1 PUSH1 0x1 PUSH1 0xA0 SHL SUB PUSH2 0x75E PUSH2 0x200E JUMP JUMPDEST AND DUP1 ISZERO PUSH2 0x77D JUMPI PUSH1 0x0 MSTORE PUSH1 0x3 PUSH1 0x20 MSTORE PUSH1 0x20 PUSH1 0x40 PUSH1 0x0 KECCAK256 SLOAD PUSH1 0x40 MLOAD SWAP1 DUP2 MSTORE RETURN JUMPDEST PUSH1 0x40 MLOAD PUSH3 0x461BCD PUSH1 0xE5 SHL DUP2 MSTORE PUSH1 0x20 PUSH1 0x4 DUP3 ADD MSTORE PUSH1 0x29 PUSH1 0x24 DUP3 ADD MSTORE PUSH32 0x4552433732313A2061646472657373207A65726F206973206E6F742061207661 PUSH1 0x44 DUP3 ADD MSTORE PUSH9 0x3634B21037BBB732B9 PUSH1 0xB9 SHL PUSH1 0x64 DUP3 ADD MSTORE PUSH1 0x84 SWAP1 REVERT JUMPDEST CALLVALUE PUSH2 0x1E0 JUMPI PUSH1 0x20 CALLDATASIZE PUSH1 0x3 NOT ADD SLT PUSH2 0x1E0 JUMPI PUSH1 0x4 CALLDATALOAD PUSH1 0x0 MSTORE PUSH1 0x2 PUSH1 0x20 MSTORE PUSH1 0x20 PUSH1 0x1 DUP1 PUSH1 0xA0 SHL SUB PUSH1 0x40 PUSH1 0x0 KECCAK256 SLOAD AND PUSH2 0x80B DUP2 ISZERO ISZERO PUSH2 0x229D JUMP JUMPDEST PUSH1 0x40 MLOAD SWAP1 DUP2 MSTORE RETURN JUMPDEST CALLVALUE PUSH2 0x1E0 JUMPI PUSH1 0xA0 CALLDATASIZE PUSH1 0x3 NOT ADD SLT PUSH2 0x1E0 JUMPI PUSH2 0x82C PUSH2 0x2024 JUMP JUMPDEST PUSH1 0x44 CALLDATALOAD PUSH1 0x1 PUSH1 0x1 PUSH1 0xA0 SHL SUB DUP2 AND SWAP1 SUB PUSH2 0x1E0 JUMPI PUSH1 0x84 CALLDATALOAD PUSH8 0xFFFFFFFFFFFFFFFF DUP2 GT PUSH2 0x1E0 JUMPI CALLDATASIZE PUSH1 0x23 DUP3 ADD SLT ISZERO PUSH2 0x1E0 JUMPI PUSH2 0x870 SWAP1 CALLDATASIZE SWAP1 PUSH1 0x24 DUP2 PUSH1 0x4 ADD CALLDATALOAD SWAP2 ADD PUSH2 0x21E0 JUMP JUMPDEST PUSH2 0x878 PUSH2 0x2245 JUMP JUMPDEST PUSH1 0x4 CALLDATALOAD PUSH1 0x0 MSTORE PUSH1 0x9 PUSH1 0x20 MSTORE PUSH1 0x40 PUSH1 0x0 KECCAK256 SLOAD PUSH2 0x1C86 JUMPI PUSH1 0x8 SLOAD SWAP1 PUSH1 0x1 DUP3 ADD PUSH1 0x8 SSTORE PUSH1 0x40 MLOAD SWAP1 PUSH2 0x8A5 DUP3 PUSH2 0x20A8 JUMP JUMPDEST PUSH1 0x4 CALLDATALOAD DUP3 MSTORE PUSH1 0x1 DUP1 PUSH1 0xA0 SHL SUB DUP5 AND PUSH1 0x20 DUP4 ADD MSTORE PUSH1 0x1 DUP1 PUSH1 0xA0 SHL SUB PUSH1 0x44 CALLDATALOAD AND PUSH1 0x40 DUP4 ADD MSTORE PUSH1 0x64 CALLDATALOAD PUSH1 0x60 DUP4 ADD MSTORE PUSH1 0x80 DUP3 ADD SWAP1 TIMESTAMP DUP3 MSTORE PUSH1 0xA0 DUP4 ADD SWAP1 DUP2 MSTORE PUSH1 0x1 PUSH1 0xC0 DUP5 ADD MSTORE DUP4 PUSH1 0x0 MSTORE PUSH1 0xA PUSH1 0x20 MSTORE PUSH1 0x40 PUSH1 0x0 KECCAK256 SWAP2 DUP4 MLOAD DUP4 SSTORE PUSH1 0x1 DUP4 ADD PUSH1 0x1 DUP1 PUSH1 0xA0 SHL SUB PUSH1 0x20 DUP7 ADD MLOAD AND PUSH1 0x1 PUSH1 0x1 PUSH1 0x60 SHL SUB PUSH1 0xA0 SHL DUP3 SLOAD AND OR SWAP1 SSTORE PUSH1 0x2 DUP4 ADD PUSH1 0x1 DUP1 PUSH1 0xA0 SHL SUB PUSH1 0x40 DUP7 ADD MLOAD AND PUSH1 0x1 PUSH1 0x1 PUSH1 0x60 SHL SUB PUSH1 0xA0 SHL DUP3 SLOAD AND OR SWAP1 SSTORE PUSH1 0x60 DUP5 ADD MLOAD PUSH1 0x3 DUP5 ADD SSTORE MLOAD PUSH1 0x4 DUP4 ADD SSTORE MLOAD DUP1 MLOAD SWAP1 PUSH8 0xFFFFFFFFFFFFFFFF DUP3 GT PUSH2 0x1AEC JUMPI PUSH2 0x96D PUSH1 0x5 DUP5 ADD SLOAD PUSH2 0x206E JUMP JUMPDEST PUSH1 0x1F DUP2 GT PUSH2 0x1C3F JUMPI JUMPDEST POP PUSH1 0x20 SWAP1 PUSH1 0x1F DUP4 GT PUSH1 0x1 EQ PUSH2 0x1BCA JUMPI SWAP2 DUP1 PUSH1 0xC0 SWAP5 SWAP3 PUSH1 0x6 SWAP5 PUSH1 0x0 SWAP3 PUSH2 0x1BBF JUMPI JUMPDEST POP POP DUP2 PUSH1 0x1 SHL SWAP2 PUSH1 0x0 NOT SWAP1 PUSH1 0x3 SHL SHR NOT AND OR PUSH1 0x5 DUP3 ADD SSTORE JUMPDEST ADD SWAP2 ADD MLOAD ISZERO ISZERO PUSH1 0xFF DUP1 NOT DUP4 SLOAD AND SWAP2 AND OR SWAP1 SSTORE PUSH1 0x4 CALLDATALOAD PUSH1 0x0 MSTORE PUSH1 0x9 PUSH1 0x20 MSTORE DUP1 PUSH1 0x40 PUSH1 0x0 KECCAK256 SSTORE PUSH1 0x1 DUP1 PUSH1 0xA0 SHL SUB DUP3 AND PUSH1 0x0 MSTORE PUSH1 0xB PUSH1 0x20 MSTORE PUSH2 0x9F1 DUP2 PUSH1 0x40 PUSH1 0x0 KECCAK256 PUSH2 0x22E9 JUMP JUMPDEST PUSH1 0x1 DUP1 PUSH1 0xA0 SHL SUB PUSH1 0x44 CALLDATALOAD AND PUSH1 0x0 MSTORE PUSH1 0xB PUSH1 0x20 MSTORE PUSH2 0xA12 DUP2 PUSH1 0x40 PUSH1 0x0 KECCAK256 PUSH2 0x22E9 JUMP JUMPDEST PUSH1 0x40 MLOAD PUSH2 0xA1E DUP2 PUSH2 0x20C4 JUMP JUMPDEST PUSH1 0x0 DUP2 MSTORE PUSH1 0x44 CALLDATALOAD PUSH1 0x1 PUSH1 0x1 PUSH1 0xA0 SHL SUB AND ISZERO PUSH2 0x1B7B JUMPI PUSH1 0x0 DUP3 DUP2 MSTORE PUSH1 0x2 PUSH1 0x20 MSTORE PUSH1 0x40 SWAP1 KECCAK256 SLOAD PUSH2 0xAEE SWAP2 SWAP1 PUSH2 0xA5D SWAP1 PUSH1 0x1 PUSH1 0x1 PUSH1 0xA0 SHL SUB AND ISZERO ISZERO JUMPDEST ISZERO PUSH2 0x2376 JUMP JUMPDEST PUSH1 0x0 DUP4 DUP2 MSTORE PUSH1 0x2 PUSH1 0x20 MSTORE PUSH1 0x40 SWAP1 KECCAK256 SLOAD PUSH2 0xA80 SWAP1 PUSH1 0x1 PUSH1 0x1 PUSH1 0xA0 SHL SUB AND ISZERO ISZERO PUSH2 0xA57 JUMP JUMPDEST PUSH1 0x44 CALLDATALOAD PUSH1 0x1 PUSH1 0x1 PUSH1 0xA0 SHL SUB AND PUSH1 0x0 DUP2 DUP2 MSTORE PUSH1 0x3 PUSH1 0x20 SWAP1 DUP2 MSTORE PUSH1 0x40 DUP1 DUP4 KECCAK256 DUP1 SLOAD PUSH1 0x1 ADD SWAP1 SSTORE DUP7 DUP4 MSTORE PUSH1 0x2 SWAP1 SWAP2 MSTORE DUP2 KECCAK256 DUP1 SLOAD PUSH1 0x1 PUSH1 0x1 PUSH1 0xA0 SHL SUB NOT AND DUP4 OR SWAP1 SSTORE DUP5 SWAP2 SWAP1 PUSH32 0xDDF252AD1BE2C89B69C2B068FC378DAA952BA7F163C4A11628F55A4DF523B3EF DUP2 DUP1 LOG4 DUP3 PUSH1 0x44 CALLDATALOAD PUSH2 0x23C2 JUMP JUMPDEST ISZERO PUSH2 0x1B5E JUMPI PUSH1 0x0 DUP2 DUP2 MSTORE PUSH1 0x2 PUSH1 0x20 MSTORE PUSH1 0x40 SWAP1 KECCAK256 SLOAD PUSH2 0xB16 SWAP1 PUSH1 0x1 PUSH1 0x1 PUSH1 0xA0 SHL SUB AND ISZERO ISZERO PUSH2 0x24E0 JUMP JUMPDEST DUP1 PUSH1 0x0 MSTORE PUSH1 0xA PUSH1 0x20 MSTORE PUSH2 0x18E9 PUSH1 0x40 PUSH1 0x0 KECCAK256 PUSH1 0xFF PUSH1 0x6 PUSH1 0x40 MLOAD SWAP3 PUSH2 0xB38 DUP5 PUSH2 0x20A8 JUMP JUMPDEST DUP1 SLOAD DUP5 MSTORE PUSH1 0x1 DUP2 ADD SLOAD PUSH1 0x1 PUSH1 0x1 PUSH1 0xA0 SHL SUB SWAP1 DUP2 AND PUSH1 0x20 DUP7 ADD MSTORE PUSH1 0x2 DUP3 ADD SLOAD AND PUSH1 0x40 DUP6 ADD MSTORE PUSH1 0x3 DUP2 ADD SLOAD PUSH1 0x60 DUP6 ADD MSTORE PUSH1 0x4 DUP2 ADD SLOAD PUSH1 0x80 DUP6 ADD MSTORE PUSH2 0xB7C PUSH1 0x5 DUP3 ADD PUSH2 0x211E JUMP JUMPDEST PUSH1 0xA0 DUP6 ADD MSTORE ADD SLOAD AND ISZERO ISZERO PUSH1 0xC0 DUP3 ADD MSTORE PUSH2 0x1537 PUSH2 0x1A6 PUSH2 0xB9B DUP4 MLOAD PUSH2 0x26BF JUMP JUMPDEST DUP6 PUSH1 0x0 MSTORE PUSH1 0xA PUSH1 0x20 MSTORE PUSH2 0x153C PUSH1 0x40 PUSH1 0x0 KECCAK256 PUSH1 0xFF PUSH1 0x6 PUSH1 0x40 MLOAD SWAP3 PUSH2 0xBBD DUP5 PUSH2 0x20A8 JUMP JUMPDEST DUP1 SLOAD DUP5 MSTORE PUSH1 0x1 DUP2 ADD SLOAD PUSH1 0x1 PUSH1 0x1 PUSH1 0xA0 SHL SUB SWAP1 DUP2 AND PUSH1 0x20 DUP7 ADD MSTORE PUSH1 0x2 DUP3 ADD SLOAD AND PUSH1 0x40 DUP6 ADD MSTORE PUSH1 0x3 DUP2 ADD SLOAD PUSH1 0x60 DUP6 ADD MSTORE PUSH1 0x4 DUP2 ADD SLOAD PUSH1 0x80 DUP6 ADD MSTORE PUSH2 0xC01 PUSH1 0x5 DUP3 ADD PUSH2 0x211E JUMP JUMPDEST PUSH1 0xA0 DUP6 ADD MSTORE ADD SLOAD AND ISZERO ISZERO PUSH1 0xC0 DUP3 ADD MSTORE PUSH2 0x1537 PUSH2 0x7FD PUSH2 0xC20 DUP4 MLOAD PUSH2 0x26BF JUMP JUMPDEST SWAP3 PUSH2 0xC38 PUSH8 0xDE0B6B3A7640000 PUSH1 0x60 DUP4 ADD MLOAD DIV PUSH2 0x26BF JUMP JUMPDEST SWAP4 PUSH2 0xC56 PUSH2 0xC51 PUSH1 0x1 DUP1 PUSH1 0xA0 SHL SUB PUSH1 0x20 DUP6 ADD MLOAD AND PUSH2 0x2882 JUMP JUMPDEST PUSH2 0x29FD JUMP JUMPDEST SWAP5 PUSH2 0xC7B PUSH1 0xA0 PUSH2 0xC73 PUSH2 0xC51 PUSH1 0x1 DUP1 DUP5 SHL SUB PUSH1 0x40 DUP9 ADD MLOAD AND PUSH2 0x2882 JUMP JUMPDEST SWAP5 ADD MLOAD PUSH2 0x2A60 JUMP JUMPDEST SWAP2 PUSH1 0x40 MLOAD SWAP7 DUP8 SWAP5 PUSH32 0x3C7376672077696474683D2234303022206865696768743D223630302220786D PUSH1 0x20 DUP8 ADD MSTORE PUSH32 0x6C6E733D22687474703A2F2F7777772E77332E6F72672F323030302F73766722 PUSH1 0x40 DUP8 ADD MSTORE PUSH1 0x1F PUSH1 0xF9 SHL SWAP4 DUP5 PUSH1 0x60 DUP9 ADD MSTORE PUSH6 0x1E3232B3399F PUSH1 0xD1 SHL PUSH1 0x61 DUP9 ADD MSTORE PUSH32 0x3C6C696E6561724772616469656E742069643D226267222078313D2230252220 PUSH1 0x67 DUP9 ADD MSTORE PUSH32 0x79313D223025222078323D2231303025222079323D2231303025223E00000000 PUSH1 0x87 DUP9 ADD MSTORE PUSH32 0x3C73746F70206F66667365743D22302522207374796C653D2273746F702D636F PUSH1 0xA3 DUP9 ADD MSTORE PUSH32 0x6C6F723A233165323933623B73746F702D6F7061636974793A3122202F3E0000 PUSH1 0xC3 DUP9 ADD MSTORE PUSH32 0x3C73746F70206F66667365743D223130302522207374796C653D2273746F702D PUSH1 0xE1 DUP9 ADD MSTORE PUSH32 0x636F6C6F723A233337333061333B73746F702D6F7061636974793A3122202F3E PUSH2 0x101 DUP9 ADD MSTORE PUSH17 0x1E17B634B732B0B923B930B234B2B73A1F PUSH1 0x79 SHL PUSH2 0x121 DUP9 ADD MSTORE PUSH7 0x1E17B232B3399F PUSH1 0xC9 SHL PUSH2 0x132 DUP9 ADD MSTORE PUSH32 0x3C726563742077696474683D2234303022206865696768743D22363030222066 PUSH2 0x139 DUP9 ADD MSTORE PUSH32 0x696C6C3D2275726C2823626729222072783D223230222F3E0000000000000000 PUSH2 0x159 DUP9 ADD MSTORE PUSH32 0x3C7465787420783D223230302220793D2236302220666F6E742D66616D696C79 PUSH2 0x171 DUP9 ADD MSTORE PUSH32 0x3D22417269616C2C2073616E732D73657269662220666F6E742D73697A653D22 DUP1 PUSH2 0x191 DUP10 ADD MSTORE PUSH32 0x32342220666F6E742D7765696768743D22626F6C642220746578742D616E6368 PUSH2 0x1B1 DUP10 ADD MSTORE PUSH32 0x6F723D226D6964646C65222066696C6C3D2223666666666666223E4652455941 PUSH2 0x1D1 DUP10 ADD MSTORE DUP8 PUSH7 0x1E17BA32BC3A1F PUSH1 0xC9 SHL DUP1 SWAP6 DUP2 PUSH2 0x1F1 DUP5 ADD MSTORE PUSH32 0x3C7465787420783D223230302220793D2239302220666F6E742D66616D696C79 PUSH2 0x1F8 DUP5 ADD MSTORE DUP4 PUSH2 0x218 DUP5 ADD MSTORE PUSH32 0x31342220746578742D616E63686F723D226D6964646C65222066696C6C3D2223 PUSH2 0x238 DUP5 ADD MSTORE PUSH32 0x393461336238223E496E766F69636520526563656970743C2F746578743E0000 PUSH2 0x258 DUP5 ADD MSTORE PUSH32 0x3C7265637420783D2234302220793D22313230222077696474683D2233323022 PUSH2 0x276 DUP5 ADD MSTORE DUP2 PUSH32 0x206865696768743D2232222066696C6C3D2223343735353639222F3E00000000 SWAP9 DUP10 PUSH2 0x296 DUP7 ADD MSTORE PUSH32 0x3C7465787420783D2236302220793D223136302220666F6E742D66616D696C79 PUSH2 0x2B2 DUP7 ADD MSTORE DUP6 PUSH2 0x2D2 DUP7 ADD MSTORE PUSH32 0x31362220666F6E742D7765696768743D22626F6C64222066696C6C3D22236666 PUSH2 0x2F2 DUP7 ADD MSTORE PUSH15 0x66666666223E496E766F6963652023 PUSH1 0x88 SHL PUSH2 0x312 DUP7 ADD MSTORE PUSH2 0x104B DUP2 MLOAD DUP1 SWAP3 PUSH1 0x20 PUSH2 0x321 DUP1 SWAP10 ADD SWAP2 ADD PUSH2 0x1FC6 JUMP JUMPDEST DUP13 ADD SWAP4 DUP5 ADD MSTORE PUSH32 0x3C7465787420783D2236302220793D223230302220666F6E742D66616D696C79 PUSH2 0x328 DUP5 ADD MSTORE DUP4 PUSH2 0x348 DUP5 ADD MSTORE PUSH32 0x3134222066696C6C3D2223393461336238223E416D6F756E7420506169643C2F PUSH2 0x368 DUP5 ADD MSTORE PUSH9 0x10299E17BA32BC3A1F PUSH1 0xB9 SHL PUSH5 0x3A32BC3A1F PUSH1 0xD9 SHL SWAP4 DUP5 PUSH2 0x388 DUP3 ADD MSTORE PUSH32 0x3C7465787420783D2236302220793D223232302220666F6E742D66616D696C79 PUSH2 0x38D DUP3 ADD MSTORE DUP6 PUSH2 0x3AD DUP3 ADD MSTORE PUSH32 0x32302220666F6E742D7765696768743D22626F6C64222066696C6C3D22233130 PUSH2 0x3CD DUP3 ADD MSTORE PUSH6 0x311C9C18911F PUSH1 0xD1 SHL PUSH2 0x3ED DUP3 ADD MSTORE DUP7 MLOAD SWAP1 PUSH2 0x1140 DUP3 PUSH2 0x3F3 SWAP10 PUSH1 0x20 DUP12 DUP6 ADD SWAP2 ADD PUSH2 0x1FC6 JUMP JUMPDEST ADD SWAP6 DUP7 ADD MSTORE PUSH32 0x3C7465787420783D2236302220793D223237302220666F6E742D66616D696C79 PUSH2 0x3FC DUP7 ADD MSTORE DUP4 PUSH2 0x41C DUP7 ADD MSTORE PUSH32 0x3134222066696C6C3D2223393461336238223E46726F6D3C2F746578743E0000 PUSH2 0x43C DUP7 ADD MSTORE PUSH32 0x3C7465787420783D2236302220793D223239302220666F6E742D66616D696C79 PUSH2 0x45A DUP7 ADD MSTORE DUP4 PUSH2 0x47A DUP7 ADD MSTORE DUP2 PUSH19 0x189911103334B6361E9111B33333333333111F PUSH1 0x69 SHL SWAP6 DUP7 PUSH2 0x49A DUP3 ADD MSTORE DUP3 MLOAD SWAP1 PUSH2 0x11FF DUP3 PUSH2 0x4AD SWAP6 PUSH1 0x20 DUP8 DUP6 ADD SWAP2 ADD PUSH2 0x1FC6 JUMP JUMPDEST ADD SWAP2 DUP3 ADD MSTORE PUSH32 0x3C7465787420783D2236302220793D223333302220666F6E742D66616D696C79 PUSH2 0x4B4 DUP3 ADD MSTORE DUP4 PUSH2 0x4D4 DUP3 ADD MSTORE PUSH32 0x3134222066696C6C3D2223393461336238223E546F3C2F746578743E00000000 PUSH2 0x4F4 DUP3 ADD MSTORE PUSH32 0x3C7465787420783D2236302220793D223335302220666F6E742D66616D696C79 PUSH2 0x510 DUP3 ADD MSTORE DUP4 PUSH2 0x530 DUP3 ADD MSTORE DUP5 PUSH2 0x550 DUP3 ADD MSTORE DUP6 MLOAD SWAP1 PUSH2 0x12A5 DUP3 PUSH2 0x563 SWAP9 PUSH1 0x20 DUP11 DUP6 ADD SWAP2 ADD PUSH2 0x1FC6 JUMP JUMPDEST ADD SWAP5 DUP6 ADD MSTORE PUSH32 0x3C7465787420783D2236302220793D223339302220666F6E742D66616D696C79 PUSH2 0x56A DUP6 ADD MSTORE DUP2 PUSH2 0x58A DUP6 ADD MSTORE PUSH32 0x3134222066696C6C3D2223393461336238223E4465736372697074696F6E3C2F PUSH2 0x5AA DUP6 ADD MSTORE PUSH2 0x5CA DUP5 ADD MSTORE PUSH32 0x3C7465787420783D2236302220793D223431302220666F6E742D66616D696C79 PUSH2 0x5CF DUP5 ADD MSTORE PUSH2 0x5EF DUP4 ADD MSTORE PUSH2 0x60F DUP3 ADD MSTORE DUP5 MLOAD SWAP1 PUSH2 0x134F DUP3 PUSH2 0x622 SWAP8 PUSH1 0x20 DUP10 DUP6 ADD SWAP2 ADD PUSH2 0x1FC6 JUMP JUMPDEST ADD SWAP4 DUP5 ADD MSTORE PUSH32 0x3C7265637420783D2234302220793D22343530222077696474683D2233323022 PUSH2 0x629 DUP5 ADD MSTORE PUSH2 0x649 DUP4 ADD MSTORE PUSH32 0x3C7465787420783D223230302220793D223439302220666F6E742D66616D696C PUSH2 0x665 DUP4 ADD MSTORE PUSH32 0x793D22417269616C2C2073616E732D73657269662220666F6E742D73697A653D SWAP1 DUP2 PUSH2 0x685 DUP5 ADD MSTORE PUSH32 0x2231322220746578742D616E63686F723D226D6964646C65222066696C6C3D22 PUSH2 0x6A5 DUP5 ADD MSTORE PUSH32 0x23393461336238223E536F756C626F756E6420526563656970743C2F74657874 PUSH2 0x6C5 DUP5 ADD MSTORE PUSH2 0x6E5 DUP4 ADD MSTORE PUSH32 0x3C7465787420783D223230302220793D223531302220666F6E742D66616D696C PUSH2 0x6E6 DUP4 ADD MSTORE DUP1 PUSH2 0x706 DUP4 ADD MSTORE PUSH32 0x2231302220746578742D616E63686F723D226D6964646C65222066696C6C3D22 SWAP1 DUP2 PUSH2 0x726 DUP5 ADD MSTORE PUSH32 0x23363437343862223E4E6F6E2D7472616E7366657261626C652070726F6F6620 PUSH2 0x746 DUP5 ADD MSTORE PUSH17 0x37B3103830BCB6B2B73A1E17BA32BC3A1F PUSH1 0x79 SHL PUSH2 0x766 DUP5 ADD MSTORE PUSH32 0x3C7465787420783D223230302220793D223535302220666F6E742D66616D696C PUSH2 0x777 DUP5 ADD MSTORE PUSH2 0x797 DUP4 ADD MSTORE PUSH2 0x7B7 DUP3 ADD MSTORE PUSH32 0x23363437343862223E536F6E696320426C6F636B636861696E3C2F746578743E PUSH2 0x7D7 DUP3 ADD MSTORE PUSH6 0x1E17B9BB339F PUSH1 0xD1 SHL PUSH2 0x7F7 DUP3 ADD MSTORE SUB PUSH2 0x7DD DUP2 ADD DUP5 MSTORE ADD DUP3 PUSH2 0x20FC JUMP JUMPDEST PUSH2 0x2555 JUMP JUMPDEST SWAP4 PUSH1 0x40 MLOAD SWAP1 PUSH2 0x1592 PUSH1 0x3A DUP4 PUSH1 0x20 DUP2 ADD SWAP9 PUSH32 0x646174613A696D6167652F7376672B786D6C3B6261736536342C000000000000 DUP11 MSTORE PUSH2 0x1582 DUP2 MLOAD DUP1 SWAP3 PUSH1 0x20 DUP7 DUP7 ADD SWAP2 ADD PUSH2 0x1FC6 JUMP JUMPDEST DUP2 ADD SUB PUSH1 0x1A DUP2 ADD DUP6 MSTORE ADD DUP4 PUSH2 0x20FC JUMP JUMPDEST PUSH2 0x159C DUP2 MLOAD PUSH2 0x26BF JUMP JUMPDEST SWAP1 PUSH2 0x15B4 PUSH8 0xDE0B6B3A7640000 PUSH1 0x60 DUP4 ADD MLOAD DIV PUSH2 0x26BF JUMP JUMPDEST PUSH2 0x15C1 PUSH1 0x80 DUP4 ADD MLOAD PUSH2 0x26BF JUMP JUMPDEST SWAP3 PUSH2 0x15EE PUSH2 0x15DA PUSH1 0x1 DUP1 PUSH1 0xA0 SHL SUB PUSH1 0x20 DUP7 ADD MLOAD AND PUSH2 0x2882 JUMP JUMPDEST PUSH1 0x40 SWAP1 SWAP5 ADD MLOAD PUSH1 0x1 PUSH1 0x1 PUSH1 0xA0 SHL SUB AND PUSH2 0x2882 JUMP JUMPDEST SWAP5 PUSH1 0x40 MLOAD SWAP10 DUP11 SWAP8 PUSH32 0x7B226E616D65223A2022467265796120496E766F696365205265636569707420 PUSH1 0x20 DUP11 ADD MSTORE PUSH1 0x23 PUSH1 0xF8 SHL PUSH1 0x40 DUP11 ADD MSTORE PUSH2 0x1639 DUP2 MLOAD DUP1 SWAP3 PUSH1 0x20 PUSH1 0x41 DUP14 ADD SWAP2 ADD PUSH2 0x1FC6 JUMP JUMPDEST PUSH2 0x88B PUSH1 0xF2 SHL PUSH1 0x41 SWAP2 DUP11 ADD SWAP2 DUP3 ADD DUP2 SWAP1 MSTORE PUSH32 0x226465736372697074696F6E223A2022536F756C626F756E6420726563656970 PUSH1 0x43 DUP4 ADD MSTORE PUSH32 0x7420666F7220636F6D706C6574656420696E766F696365207061796D656E7420 PUSH1 0x63 DUP4 ADD MSTORE PUSH19 0x1BDB88119C995E58481C1B185D199BDC9B488B PUSH1 0x6A SHL PUSH1 0x83 DUP4 ADD MSTORE PUSH10 0x1134B6B0B3B2911D1011 PUSH1 0xB1 SHL PUSH1 0x96 DUP4 ADD MSTORE SWAP3 MLOAD SWAP2 PUSH2 0x16D8 SWAP1 DUP4 SWAP1 PUSH1 0xA0 DUP5 ADD SWAP1 PUSH2 0x1FC6 JUMP JUMPDEST ADD SWAP1 PUSH1 0xA0 DUP3 ADD MSTORE PUSH15 0x2261747472696275746573223A205B PUSH1 0x88 SHL PUSH1 0xA2 DUP3 ADD MSTORE PUSH32 0x7B2274726169745F74797065223A2022496E766F696365204944222C20227661 PUSH1 0xB1 DUP3 ADD MSTORE PUSH7 0x363AB2911D1011 PUSH1 0xC9 SHL PUSH1 0xD1 DUP3 ADD MSTORE PUSH2 0x1741 DUP3 MLOAD DUP1 SWAP4 PUSH1 0x20 PUSH1 0xD8 DUP6 ADD SWAP2 ADD PUSH2 0x1FC6 JUMP JUMPDEST ADD SWAP1 PUSH3 0x89F4B PUSH1 0xEA SHL SWAP4 DUP5 DUP1 SWAP3 DUP2 PUSH1 0xD8 DUP7 ADD MSTORE PUSH32 0x7B2274726169745F74797065223A2022416D6F756E74222C202276616C756522 PUSH1 0xDB DUP7 ADD MSTORE PUSH3 0x1D1011 PUSH1 0xE9 SHL SWAP5 DUP6 PUSH1 0xFB DUP3 ADD MSTORE PUSH2 0x179C DUP3 MLOAD DUP1 SWAP4 PUSH1 0x20 PUSH1 0xFE DUP6 ADD SWAP2 ADD PUSH2 0x1FC6 JUMP JUMPDEST ADD PUSH5 0x814C89F4B PUSH1 0xDA SHL PUSH1 0xFE DUP3 ADD MSTORE PUSH32 0x7B2274726169745F74797065223A2022506169642044617465222C202276616C PUSH2 0x103 DUP3 ADD MSTORE PUSH6 0x3AB2911D1011 PUSH1 0xD1 SHL PUSH2 0x123 DUP3 ADD MSTORE DUP3 MLOAD SWAP1 PUSH2 0x17F9 DUP3 PUSH2 0x129 SWAP6 PUSH1 0x20 DUP8 DUP6 ADD SWAP2 ADD PUSH2 0x1FC6 JUMP JUMPDEST ADD SWAP2 DUP3 ADD MSTORE PUSH32 0x7B2274726169745F74797065223A2022497373756572222C202276616C756522 PUSH2 0x12C DUP3 ADD MSTORE DUP3 PUSH2 0x14C DUP3 ADD MSTORE DUP4 MLOAD SWAP1 PUSH2 0x1843 DUP3 PUSH2 0x14F SWAP7 PUSH1 0x20 DUP9 DUP6 ADD SWAP2 ADD PUSH2 0x1FC6 JUMP JUMPDEST ADD SWAP3 DUP4 ADD MSTORE PUSH32 0x7B2274726169745F74797065223A2022436C69656E74222C202276616C756522 PUSH2 0x152 DUP4 ADD MSTORE PUSH2 0x172 DUP3 ADD MSTORE DUP3 MLOAD SWAP1 PUSH2 0x188C DUP3 PUSH2 0x175 SWAP6 PUSH1 0x20 DUP8 DUP6 ADD SWAP2 ADD PUSH2 0x1FC6 JUMP JUMPDEST ADD SWAP2 DUP3 ADD MSTORE PUSH32 0x7B2274726169745F74797065223A2022536F756C626F756E64222C202276616C PUSH2 0x178 DUP3 ADD MSTORE PUSH12 0x7565223A202274727565227D PUSH1 0xA0 SHL PUSH2 0x198 DUP3 ADD MSTORE PUSH2 0x5D7D PUSH1 0xF0 SHL PUSH2 0x1A4 DUP3 ADD MSTORE SUB PUSH2 0x186 DUP2 ADD DUP5 MSTORE ADD DUP3 PUSH2 0x20FC JUMP JUMPDEST SWAP2 PUSH2 0x193D PUSH1 0x3D PUSH1 0x40 MLOAD DUP1 SWAP6 PUSH32 0x646174613A6170706C69636174696F6E2F6A736F6E3B6261736536342C000000 PUSH1 0x20 DUP4 ADD MSTORE PUSH2 0x192D DUP2 MLOAD DUP1 SWAP3 PUSH1 0x20 DUP7 DUP7 ADD SWAP2 ADD PUSH2 0x1FC6 JUMP JUMPDEST DUP2 ADD SUB PUSH1 0x1D DUP2 ADD DUP7 MSTORE ADD DUP5 PUSH2 0x20FC JUMP JUMPDEST PUSH1 0x0 DUP3 DUP2 MSTORE PUSH1 0x2 PUSH1 0x20 MSTORE PUSH1 0x40 SWAP1 KECCAK256 SLOAD PUSH1 0x1 PUSH1 0x1 PUSH1 0xA0 SHL SUB AND ISZERO PUSH2 0x1B02 JUMPI DUP2 PUSH1 0x0 MSTORE PUSH1 0x6 PUSH1 0x20 MSTORE PUSH1 0x40 PUSH1 0x0 KECCAK256 DUP4 MLOAD PUSH8 0xFFFFFFFFFFFFFFFF DUP2 GT PUSH2 0x1AEC JUMPI PUSH2 0x1983 DUP3 SLOAD PUSH2 0x206E JUMP JUMPDEST PUSH1 0x1F DUP2 GT PUSH2 0x1AA4 JUMPI JUMPDEST POP DUP1 PUSH1 0x20 SWAP6 DUP7 SWAP1 PUSH1 0x1F DUP4 GT PUSH1 0x1 EQ PUSH2 0x1A40 JUMPI PUSH1 0x0 SWAP3 PUSH2 0x1A35 JUMPI JUMPDEST POP POP DUP2 PUSH1 0x1 SHL SWAP2 PUSH1 0x0 NOT SWAP1 PUSH1 0x3 SHL SHR NOT AND OR SWAP1 SSTORE JUMPDEST PUSH32 0xF8E1A15ABA9398E019F0B49DF1A4FDE98EE17AE345CB5F6B5E2C27F5033E8CE7 DUP4 PUSH1 0x40 MLOAD DUP5 DUP2 MSTORE LOG1 PUSH1 0x40 DUP1 MLOAD PUSH1 0x44 CALLDATALOAD PUSH1 0x1 PUSH1 0x1 PUSH1 0xA0 SHL SUB SWAP1 DUP2 AND DUP3 MSTORE PUSH1 0x64 CALLDATALOAD DUP7 DUP4 ADD MSTORE SWAP1 SWAP3 AND SWAP2 PUSH1 0x4 CALLDATALOAD SWAP2 DUP5 SWAP2 PUSH32 0xB6F259B6CE6DC898B0D9BDBCA40AB35D5AC9A54DA9F7A6DF1036BB81398FB483 SWAP2 SWAP1 LOG4 PUSH1 0x40 MLOAD SWAP1 DUP2 MSTORE RETURN JUMPDEST ADD MLOAD SWAP1 POP DUP7 DUP1 PUSH2 0x19A6 JUMP JUMPDEST PUSH1 0x0 DUP6 DUP2 MSTORE DUP9 DUP2 KECCAK256 SWAP4 POP PUSH1 0x1F NOT DUP6 AND SWAP1 JUMPDEST DUP2 DUP2 LT PUSH2 0x1A8D JUMPI POP SWAP1 DUP5 PUSH1 0x1 SWAP6 SWAP5 SWAP4 SWAP3 LT PUSH2 0x1A74 JUMPI JUMPDEST POP POP POP DUP2 SHL ADD SWAP1 SSTORE PUSH2 0x19BB JUMP JUMPDEST ADD MLOAD PUSH1 0x0 NOT PUSH1 0xF8 DUP5 PUSH1 0x3 SHL AND SHR NOT AND SWAP1 SSTORE DUP7 DUP1 DUP1 PUSH2 0x1A67 JUMP JUMPDEST SWAP3 SWAP4 DUP10 PUSH1 0x1 DUP2 SWAP3 DUP8 DUP7 ADD MLOAD DUP2 SSTORE ADD SWAP6 ADD SWAP4 ADD PUSH2 0x1A51 JUMP JUMPDEST DUP3 PUSH1 0x0 MSTORE PUSH1 0x20 PUSH1 0x0 KECCAK256 PUSH1 0x1F DUP4 ADD PUSH1 0x5 SHR DUP2 ADD SWAP2 PUSH1 0x20 DUP5 LT PUSH2 0x1AE2 JUMPI JUMPDEST PUSH1 0x1F ADD PUSH1 0x5 SHR ADD SWAP1 JUMPDEST DUP2 DUP2 LT PUSH2 0x1AD6 JUMPI POP PUSH2 0x198C JUMP JUMPDEST PUSH1 0x0 DUP2 SSTORE PUSH1 0x1 ADD PUSH2 0x1AC9 JUMP JUMPDEST SWAP1 SWAP2 POP DUP2 SWAP1 PUSH2 0x1AC0 JUMP JUMPDEST PUSH4 0x4E487B71 PUSH1 0xE0 SHL PUSH1 0x0 MSTORE PUSH1 0x41 PUSH1 0x4 MSTORE PUSH1 0x24 PUSH1 0x0 REVERT JUMPDEST PUSH1 0x40 MLOAD PUSH3 0x461BCD PUSH1 0xE5 SHL DUP2 MSTORE PUSH1 0x20 PUSH1 0x4 DUP3 ADD MSTORE PUSH1 0x2E PUSH1 0x24 DUP3 ADD MSTORE PUSH32 0x45524337323155524953746F726167653A2055524920736574206F66206E6F6E PUSH1 0x44 DUP3 ADD MSTORE PUSH14 0x32BC34B9BA32B73A103A37B5B2B7 PUSH1 0x91 SHL PUSH1 0x64 DUP3 ADD MSTORE PUSH1 0x84 SWAP1 REVERT JUMPDEST PUSH1 0x40 MLOAD PUSH3 0x461BCD PUSH1 0xE5 SHL DUP2 MSTORE DUP1 PUSH2 0x1B77 PUSH1 0x4 DUP3 ADD PUSH2 0x2323 JUMP JUMPDEST SUB SWAP1 REVERT JUMPDEST PUSH1 0x64 PUSH1 0x40 MLOAD PUSH3 0x461BCD PUSH1 0xE5 SHL DUP2 MSTORE PUSH1 0x20 PUSH1 0x4 DUP3 ADD MSTORE PUSH1 0x20 PUSH1 0x24 DUP3 ADD MSTORE PUSH32 0x4552433732313A206D696E7420746F20746865207A65726F2061646472657373 PUSH1 0x44 DUP3 ADD MSTORE REVERT JUMPDEST ADD MLOAD SWAP1 POP DUP9 DUP1 PUSH2 0x996 JUMP JUMPDEST SWAP1 PUSH1 0x5 DUP5 ADD PUSH1 0x0 MSTORE PUSH1 0x20 PUSH1 0x0 KECCAK256 SWAP2 PUSH1 0x0 JUMPDEST PUSH1 0x1F NOT DUP6 AND DUP2 LT PUSH2 0x1C27 JUMPI POP SWAP3 PUSH1 0xC0 SWAP5 SWAP3 PUSH1 0x1 SWAP3 PUSH1 0x6 SWAP6 DUP4 PUSH1 0x1F NOT DUP2 AND LT PUSH2 0x1C0E JUMPI JUMPDEST POP POP POP DUP2 SHL ADD PUSH1 0x5 DUP3 ADD SSTORE PUSH2 0x9AE JUMP JUMPDEST ADD MLOAD PUSH1 0x0 NOT PUSH1 0xF8 DUP5 PUSH1 0x3 SHL AND SHR NOT AND SWAP1 SSTORE DUP9 DUP1 DUP1 PUSH2 0x1BFE JUMP JUMPDEST SWAP2 SWAP3 PUSH1 0x20 PUSH1 0x1 DUP2 SWAP3 DUP7 DUP6 ADD MLOAD DUP2 SSTORE ADD SWAP5 ADD SWAP3 ADD PUSH2 0x1BDB JUMP JUMPDEST PUSH1 0x5 DUP5 ADD PUSH1 0x0 MSTORE PUSH1 0x20 PUSH1 0x0 KECCAK256 PUSH1 0x1F DUP5 ADD PUSH1 0x5 SHR DUP2 ADD PUSH1 0x20 DUP6 LT PUSH2 0x1C7F JUMPI JUMPDEST PUSH1 0x1F DUP4 ADD PUSH1 0x5 SHR DUP3 ADD DUP2 LT PUSH2 0x1C73 JUMPI POP POP PUSH2 0x976 JUMP JUMPDEST PUSH1 0x0 DUP2 SSTORE PUSH1 0x1 ADD PUSH2 0x1C5D JUMP JUMPDEST POP DUP1 PUSH2 0x1C5D JUMP JUMPDEST PUSH1 0x40 MLOAD PUSH3 0x461BCD PUSH1 0xE5 SHL DUP2 MSTORE PUSH1 0x20 PUSH1 0x4 DUP3 ADD MSTORE PUSH1 0x27 PUSH1 0x24 DUP3 ADD MSTORE PUSH32 0x5265636569707420616C72656164792065786973747320666F72207468697320 PUSH1 0x44 DUP3 ADD MSTORE PUSH7 0x696E766F696365 PUSH1 0xC8 SHL PUSH1 0x64 DUP3 ADD MSTORE PUSH1 0x84 SWAP1 REVERT JUMPDEST CALLVALUE PUSH2 0x1E0 JUMPI PUSH1 0x20 CALLDATASIZE PUSH1 0x3 NOT ADD SLT PUSH2 0x1E0 JUMPI PUSH1 0x4 CALLDATALOAD PUSH1 0x0 MSTORE PUSH1 0xA PUSH1 0x20 MSTORE PUSH1 0x40 PUSH1 0x0 KECCAK256 DUP1 SLOAD PUSH1 0x1 DUP1 PUSH1 0xA0 SHL SUB SWAP2 PUSH2 0x1D65 DUP4 PUSH1 0x1 DUP4 ADD SLOAD AND SWAP4 PUSH1 0x2 DUP4 ADD SLOAD AND SWAP2 PUSH1 0x3 DUP2 ADD SLOAD PUSH1 0x4 DUP3 ADD SLOAD SWAP1 PUSH1 0xFF PUSH1 0x6 PUSH2 0x1D33 PUSH1 0x5 DUP7 ADD PUSH2 0x211E JUMP JUMPDEST SWAP5 ADD SLOAD AND SWAP5 PUSH1 0x40 MLOAD SWAP8 DUP9 SWAP8 DUP9 MSTORE PUSH1 0x20 DUP9 ADD MSTORE PUSH1 0x40 DUP8 ADD MSTORE PUSH1 0x60 DUP7 ADD MSTORE PUSH1 0x80 DUP6 ADD MSTORE PUSH1 0xE0 PUSH1 0xA0 DUP6 ADD MSTORE PUSH1 0xE0 DUP5 ADD SWAP1 PUSH2 0x1FE9 JUMP JUMPDEST SWAP1 ISZERO ISZERO PUSH1 0xC0 DUP4 ADD MSTORE SUB SWAP1 RETURN JUMPDEST PUSH2 0x203A JUMP JUMPDEST CALLVALUE PUSH2 0x1E0 JUMPI PUSH1 0x20 CALLDATASIZE PUSH1 0x3 NOT ADD SLT PUSH2 0x1E0 JUMPI PUSH1 0x4 CALLDATALOAD PUSH1 0x0 MSTORE PUSH1 0x9 PUSH1 0x20 MSTORE PUSH1 0x20 PUSH1 0x40 PUSH1 0x0 KECCAK256 SLOAD PUSH1 0x40 MLOAD SWAP1 DUP2 MSTORE RETURN JUMPDEST CALLVALUE PUSH2 0x1E0 JUMPI PUSH1 0x20 CALLDATASIZE PUSH1 0x3 NOT ADD SLT PUSH2 0x1E0 JUMPI PUSH1 0x4 CALLDATALOAD PUSH1 0x0 MSTORE PUSH1 0x9 PUSH1 0x20 MSTORE PUSH1 0x20 PUSH1 0x40 PUSH1 0x0 KECCAK256 SLOAD ISZERO ISZERO PUSH1 0x40 MLOAD SWAP1 DUP2 MSTORE RETURN JUMPDEST CALLVALUE PUSH2 0x1E0 JUMPI PUSH1 0x40 CALLDATASIZE PUSH1 0x3 NOT ADD SLT PUSH2 0x1E0 JUMPI PUSH2 0x1DE9 PUSH2 0x200E JUMP JUMPDEST POP PUSH1 0x40 MLOAD PUSH3 0x461BCD PUSH1 0xE5 SHL DUP2 MSTORE PUSH1 0x20 PUSH1 0x4 DUP3 ADD MSTORE PUSH1 0x2F PUSH1 0x24 DUP3 ADD MSTORE PUSH32 0x496E766F6963654E46543A20536F756C626F756E6420746F6B656E732063616E PUSH1 0x44 DUP3 ADD MSTORE PUSH15 0x1B9BDD08189948185C1C1C9BDD9959 PUSH1 0x8A SHL PUSH1 0x64 DUP3 ADD MSTORE PUSH1 0x84 SWAP1 REVERT JUMPDEST CALLVALUE PUSH2 0x1E0 JUMPI PUSH1 0x20 CALLDATASIZE PUSH1 0x3 NOT ADD SLT PUSH2 0x1E0 JUMPI PUSH1 0x4 CALLDATALOAD PUSH1 0x0 DUP2 DUP2 MSTORE PUSH1 0x2 PUSH1 0x20 MSTORE PUSH1 0x40 SWAP1 KECCAK256 SLOAD PUSH2 0x1E7E SWAP1 PUSH1 0x1 PUSH1 0x1 PUSH1 0xA0 SHL SUB AND ISZERO ISZERO PUSH2 0x229D JUMP JUMPDEST PUSH1 0x0 MSTORE PUSH1 0x4 PUSH1 0x20 MSTORE PUSH1 0x20 PUSH1 0x1 DUP1 PUSH1 0xA0 SHL SUB PUSH1 0x40 PUSH1 0x0 KECCAK256 SLOAD AND PUSH1 0x40 MLOAD SWAP1 DUP2 MSTORE RETURN JUMPDEST CALLVALUE PUSH2 0x1E0 JUMPI PUSH1 0x0 CALLDATASIZE PUSH1 0x3 NOT ADD SLT PUSH2 0x1E0 JUMPI PUSH1 0x40 MLOAD PUSH1 0x0 DUP1 SLOAD PUSH2 0x1EBF DUP2 PUSH2 0x206E JUMP JUMPDEST DUP1 DUP5 MSTORE SWAP1 PUSH1 0x1 SWAP1 DUP2 DUP2 AND SWAP1 DUP2 ISZERO PUSH2 0x690 JUMPI POP PUSH1 0x1 EQ PUSH2 0x1EE8 JUMPI PUSH2 0x2AD DUP5 PUSH2 0x623 DUP2 DUP7 SUB DUP3 PUSH2 0x20FC JUMP JUMPDEST PUSH1 0x0 DUP1 DUP1 MSTORE SWAP3 POP PUSH32 0x290DECD9548B62A8D60345A988386FC84BA6BC95484008F6362F93160EF3E563 JUMPDEST DUP3 DUP5 LT PUSH2 0x1F29 JUMPI POP POP POP DUP2 ADD PUSH1 0x20 ADD PUSH2 0x623 DUP3 PUSH2 0x613 JUMP JUMPDEST DUP1 SLOAD PUSH1 0x20 DUP6 DUP8 ADD DUP2 ADD SWAP2 SWAP1 SWAP2 MSTORE SWAP1 SWAP4 ADD SWAP3 DUP2 ADD PUSH2 0x1F11 JUMP JUMPDEST CALLVALUE PUSH2 0x1E0 JUMPI PUSH1 0x20 CALLDATASIZE PUSH1 0x3 NOT ADD SLT PUSH2 0x1E0 JUMPI PUSH1 0x4 CALLDATALOAD SWAP1 PUSH4 0xFFFFFFFF PUSH1 0xE0 SHL DUP3 AND DUP1 SWAP3 SUB PUSH2 0x1E0 JUMPI PUSH1 0x20 SWAP2 PUSH4 0x24832483 PUSH1 0xE1 SHL DUP2 EQ SWAP1 DUP2 ISZERO PUSH2 0x1F83 JUMPI JUMPDEST POP ISZERO ISZERO DUP2 MSTORE RETURN JUMPDEST PUSH4 0x80AC58CD PUSH1 0xE0 SHL DUP2 EQ SWAP2 POP DUP2 ISZERO PUSH2 0x1FB5 JUMPI JUMPDEST DUP2 ISZERO PUSH2 0x1FA4 JUMPI JUMPDEST POP DUP4 PUSH2 0x1F7C JUMP JUMPDEST PUSH4 0x1FFC9A7 PUSH1 0xE0 SHL EQ SWAP1 POP DUP4 PUSH2 0x1F9D JUMP JUMPDEST PUSH4 0x5B5E139F PUSH1 0xE0 SHL DUP2 EQ SWAP2 POP PUSH2 0x1F96 JUMP JUMPDEST PUSH1 0x0 JUMPDEST DUP4 DUP2 LT PUSH2 0x1FD9 JUMPI POP POP PUSH1 0x0 SWAP2 ADD MSTORE JUMP JUMPDEST DUP2 DUP2 ADD MLOAD DUP4 DUP3 ADD MSTORE PUSH1 0x20 ADD PUSH2 0x1FC9 JUMP JUMPDEST SWAP1 PUSH1 0x20 SWAP2 PUSH2 0x2002 DUP2 MLOAD DUP1 SWAP3 DUP2 DUP6 MSTORE DUP6 DUP1 DUP7 ADD SWAP2 ADD PUSH2 0x1FC6 JUMP JUMPDEST PUSH1 0x1F ADD PUSH1 0x1F NOT AND ADD ADD SWAP1 JUMP JUMPDEST PUSH1 0x4 CALLDATALOAD SWAP1 PUSH1 0x1 PUSH1 0x1 PUSH1 0xA0 SHL SUB DUP3 AND DUP3 SUB PUSH2 0x1E0 JUMPI JUMP JUMPDEST PUSH1 0x24 CALLDATALOAD SWAP1 PUSH1 0x1 PUSH1 0x1 PUSH1 0xA0 SHL SUB DUP3 AND DUP3 SUB PUSH2 0x1E0 JUMPI JUMP JUMPDEST CALLVALUE PUSH2 0x1E0 JUMPI PUSH1 0x60 CALLDATASIZE PUSH1 0x3 NOT ADD SLT PUSH2 0x1E0 JUMPI PUSH1 0x1 PUSH1 0x1 PUSH1 0xA0 SHL SUB PUSH1 0x4 CALLDATALOAD DUP2 DUP2 AND SUB PUSH2 0x1E0 JUMPI PUSH1 0x24 CALLDATALOAD SWAP1 DUP2 AND EQ PUSH2 0x2802 JUMPI PUSH1 0x0 DUP1 REVERT JUMPDEST SWAP1 PUSH1 0x1 DUP3 DUP2 SHR SWAP3 AND DUP1 ISZERO PUSH2 0x209E JUMPI JUMPDEST PUSH1 0x20 DUP4 LT EQ PUSH2 0x2088 JUMPI JUMP JUMPDEST PUSH4 0x4E487B71 PUSH1 0xE0 SHL PUSH1 0x0 MSTORE PUSH1 0x22 PUSH1 0x4 MSTORE PUSH1 0x24 PUSH1 0x0 REVERT JUMPDEST SWAP2 PUSH1 0x7F AND SWAP2 PUSH2 0x207D JUMP JUMPDEST PUSH1 0xE0 DUP2 ADD SWAP1 DUP2 LT PUSH8 0xFFFFFFFFFFFFFFFF DUP3 GT OR PUSH2 0x1AEC JUMPI PUSH1 0x40 MSTORE JUMP JUMPDEST PUSH1 0x20 DUP2 ADD SWAP1 DUP2 LT PUSH8 0xFFFFFFFFFFFFFFFF DUP3 GT OR PUSH2 0x1AEC JUMPI PUSH1 0x40 MSTORE JUMP JUMPDEST PUSH1 0x60 DUP2 ADD SWAP1 DUP2 LT PUSH8 0xFFFFFFFFFFFFFFFF DUP3 GT OR PUSH2 0x1AEC JUMPI PUSH1 0x40 MSTORE JUMP JUMPDEST SWAP1 PUSH1 0x1F DUP1 NOT SWAP2 ADD AND DUP2 ADD SWAP1 DUP2 LT PUSH8 0xFFFFFFFFFFFFFFFF DUP3 GT OR PUSH2 0x1AEC JUMPI PUSH1 0x40 MSTORE JUMP JUMPDEST SWAP1 PUSH1 0x40 MLOAD SWAP2 DUP3 PUSH1 0x0 DUP3 SLOAD SWAP3 PUSH2 0x2132 DUP5 PUSH2 0x206E JUMP JUMPDEST SWAP1 DUP2 DUP5 MSTORE PUSH1 0x1 SWAP5 DUP6 DUP2 AND SWAP1 DUP2 PUSH1 0x0 EQ PUSH2 0x21A1 JUMPI POP PUSH1 0x1 EQ PUSH2 0x215E JUMPI JUMPDEST POP POP PUSH2 0x215C SWAP3 POP SUB DUP4 PUSH2 0x20FC JUMP JUMPDEST JUMP JUMPDEST SWAP1 SWAP4 SWAP2 POP PUSH1 0x0 MSTORE PUSH1 0x20 SWAP1 DUP2 PUSH1 0x0 KECCAK256 SWAP4 PUSH1 0x0 SWAP2 JUMPDEST DUP2 DUP4 LT PUSH2 0x2189 JUMPI POP POP PUSH2 0x215C SWAP4 POP DUP3 ADD ADD CODESIZE DUP1 PUSH2 0x214E JUMP JUMPDEST DUP6 SLOAD DUP9 DUP5 ADD DUP6 ADD MSTORE SWAP5 DUP6 ADD SWAP5 DUP8 SWAP5 POP SWAP2 DUP4 ADD SWAP2 PUSH2 0x2171 JUMP JUMPDEST SWAP2 POP POP PUSH2 0x215C SWAP5 POP PUSH1 0x20 SWAP3 POP PUSH1 0xFF NOT AND DUP3 DUP5 ADD MSTORE ISZERO ISZERO PUSH1 0x5 SHL DUP3 ADD ADD CODESIZE DUP1 PUSH2 0x214E JUMP JUMPDEST PUSH8 0xFFFFFFFFFFFFFFFF DUP2 GT PUSH2 0x1AEC JUMPI PUSH1 0x1F ADD PUSH1 0x1F NOT AND PUSH1 0x20 ADD SWAP1 JUMP JUMPDEST SWAP3 SWAP2 SWAP3 PUSH2 0x21EC DUP3 PUSH2 0x21C4 JUMP JUMPDEST SWAP2 PUSH2 0x21FA PUSH1 0x40 MLOAD SWAP4 DUP5 PUSH2 0x20FC JUMP JUMPDEST DUP3 SWAP5 DUP2 DUP5 MSTORE DUP2 DUP4 ADD GT PUSH2 0x1E0 JUMPI DUP3 DUP2 PUSH1 0x20 SWAP4 DUP5 PUSH1 0x0 SWAP7 ADD CALLDATACOPY ADD ADD MSTORE JUMP JUMPDEST DUP1 SLOAD DUP3 LT ISZERO PUSH2 0x222F JUMPI PUSH1 0x0 MSTORE PUSH1 0x20 PUSH1 0x0 KECCAK256 ADD SWAP1 PUSH1 0x0 SWAP1 JUMP JUMPDEST PUSH4 0x4E487B71 PUSH1 0xE0 SHL PUSH1 0x0 MSTORE PUSH1 0x32 PUSH1 0x4 MSTORE PUSH1 0x24 PUSH1 0x0 REVERT JUMPDEST PUSH1 0x7 SLOAD PUSH1 0x1 PUSH1 0x1 PUSH1 0xA0 SHL SUB AND CALLER SUB PUSH2 0x2259 JUMPI JUMP JUMPDEST PUSH1 0x64 PUSH1 0x40 MLOAD PUSH3 0x461BCD PUSH1 0xE5 SHL DUP2 MSTORE PUSH1 0x20 PUSH1 0x4 DUP3 ADD MSTORE PUSH1 0x20 PUSH1 0x24 DUP3 ADD MSTORE PUSH32 0x4F776E61626C653A2063616C6C6572206973206E6F7420746865206F776E6572 PUSH1 0x44 DUP3 ADD MSTORE REVERT JUMPDEST ISZERO PUSH2 0x22A4 JUMPI JUMP JUMPDEST PUSH1 0x40 MLOAD PUSH3 0x461BCD PUSH1 0xE5 SHL DUP2 MSTORE PUSH1 0x20 PUSH1 0x4 DUP3 ADD MSTORE PUSH1 0x18 PUSH1 0x24 DUP3 ADD MSTORE PUSH32 0x4552433732313A20696E76616C696420746F6B656E2049440000000000000000 PUSH1 0x44 DUP3 ADD MSTORE PUSH1 0x64 SWAP1 REVERT JUMPDEST DUP1 SLOAD PUSH9 0x10000000000000000 DUP2 LT ISZERO PUSH2 0x1AEC JUMPI PUSH2 0x230B SWAP2 PUSH1 0x1 DUP3 ADD DUP2 SSTORE PUSH2 0x2217 JUMP JUMPDEST DUP2 SWAP3 SWAP2 SLOAD SWAP1 PUSH1 0x3 SHL SWAP2 DUP3 SHL SWAP2 PUSH1 0x0 NOT SWAP1 SHL NOT AND OR SWAP1 SSTORE JUMP JUMPDEST PUSH1 0x80 SWAP1 PUSH1 0x20 DUP2 MSTORE PUSH1 0x32 PUSH1 0x20 DUP3 ADD MSTORE PUSH32 0x4552433732313A207472616E7366657220746F206E6F6E204552433732315265 PUSH1 0x40 DUP3 ADD MSTORE PUSH18 0x31B2B4BB32B91034B6B83632B6B2B73A32B9 PUSH1 0x71 SHL PUSH1 0x60 DUP3 ADD MSTORE ADD SWAP1 JUMP JUMPDEST ISZERO PUSH2 0x237D JUMPI JUMP JUMPDEST PUSH1 0x40 MLOAD PUSH3 0x461BCD PUSH1 0xE5 SHL DUP2 MSTORE PUSH1 0x20 PUSH1 0x4 DUP3 ADD MSTORE PUSH1 0x1C PUSH1 0x24 DUP3 ADD MSTORE PUSH32 0x4552433732313A20746F6B656E20616C7265616479206D696E74656400000000 PUSH1 0x44 DUP3 ADD MSTORE PUSH1 0x64 SWAP1 REVERT JUMPDEST SWAP2 SWAP3 SWAP1 SWAP2 DUP1 EXTCODESIZE ISZERO PUSH2 0x24D7 JUMPI PUSH2 0x240F SWAP4 PUSH1 0x40 MLOAD SWAP1 DUP2 PUSH4 0xA85BD01 PUSH1 0xE1 SHL SWAP4 DUP5 DUP3 MSTORE CALLER PUSH1 0x4 DUP4 ADD MSTORE PUSH1 0x0 SWAP7 DUP8 PUSH1 0x24 DUP5 ADD MSTORE PUSH1 0x44 DUP4 ADD MSTORE PUSH1 0x80 PUSH1 0x64 DUP4 ADD MSTORE DUP2 DUP8 DUP2 PUSH1 0x20 SWAP11 DUP12 SWAP7 PUSH1 0x84 DUP4 ADD SWAP1 PUSH2 0x1FE9 JUMP JUMPDEST SUB SWAP3 PUSH1 0x1 PUSH1 0x1 PUSH1 0xA0 SHL SUB AND GAS CALL DUP5 SWAP2 DUP2 PUSH2 0x2493 JUMPI JUMPDEST POP PUSH2 0x2482 JUMPI POP POP POP RETURNDATASIZE PUSH1 0x0 EQ PUSH2 0x247A JUMPI RETURNDATASIZE PUSH2 0x243E DUP2 PUSH2 0x21C4 JUMP JUMPDEST SWAP1 PUSH2 0x244C PUSH1 0x40 MLOAD SWAP3 DUP4 PUSH2 0x20FC JUMP JUMPDEST DUP2 MSTORE DUP1 SWAP2 DUP4 RETURNDATASIZE SWAP3 ADD RETURNDATACOPY JUMPDEST DUP1 MLOAD SWAP2 DUP3 PUSH2 0x2477 JUMPI PUSH1 0x40 MLOAD PUSH3 0x461BCD PUSH1 0xE5 SHL DUP2 MSTORE DUP1 PUSH2 0x1B77 PUSH1 0x4 DUP3 ADD PUSH2 0x2323 JUMP JUMPDEST ADD REVERT JUMPDEST POP PUSH1 0x60 PUSH2 0x2456 JUMP JUMPDEST PUSH1 0x1 PUSH1 0x1 PUSH1 0xE0 SHL SUB NOT AND EQ SWAP3 POP SWAP1 POP JUMP JUMPDEST SWAP1 SWAP2 POP DUP6 DUP2 DUP2 RETURNDATASIZE DUP4 GT PUSH2 0x24D0 JUMPI JUMPDEST PUSH2 0x24AB DUP2 DUP4 PUSH2 0x20FC JUMP JUMPDEST DUP2 ADD SUB SLT PUSH2 0x24CC JUMPI MLOAD PUSH1 0x1 PUSH1 0x1 PUSH1 0xE0 SHL SUB NOT DUP2 AND DUP2 SUB PUSH2 0x24CC JUMPI SWAP1 CODESIZE PUSH2 0x2424 JUMP JUMPDEST DUP5 DUP1 REVERT JUMPDEST POP RETURNDATASIZE PUSH2 0x24A1 JUMP JUMPDEST POP SWAP2 POP POP PUSH1 0x1 SWAP1 JUMP JUMPDEST ISZERO PUSH2 0x24E7 JUMPI JUMP JUMPDEST PUSH1 0x40 MLOAD PUSH3 0x461BCD PUSH1 0xE5 SHL DUP2 MSTORE PUSH1 0x20 PUSH1 0x4 DUP3 ADD MSTORE PUSH1 0x14 PUSH1 0x24 DUP3 ADD MSTORE PUSH20 0x151BDAD95B88191BD95CC81B9BDD08195E1A5CDD PUSH1 0x62 SHL PUSH1 0x44 DUP3 ADD MSTORE PUSH1 0x64 SWAP1 REVERT JUMPDEST SWAP1 PUSH2 0x252D DUP3 PUSH2 0x21C4 JUMP JUMPDEST PUSH2 0x253A PUSH1 0x40 MLOAD SWAP2 DUP3 PUSH2 0x20FC JUMP JUMPDEST DUP3 DUP2 MSTORE DUP1 SWAP3 PUSH2 0x254B PUSH1 0x1F NOT SWAP2 PUSH2 0x21C4 JUMP JUMPDEST ADD SWAP1 PUSH1 0x20 CALLDATASIZE SWAP2 ADD CALLDATACOPY JUMP JUMPDEST DUP1 MLOAD ISZERO PUSH2 0x26AB JUMPI PUSH1 0x40 MLOAD SWAP1 PUSH2 0x2569 DUP3 PUSH2 0x20E0 JUMP JUMPDEST PUSH1 0x40 DUP3 MSTORE PUSH32 0x4142434445464748494A4B4C4D4E4F505152535455565758595A616263646566 PUSH1 0x20 DUP4 ADD MSTORE PUSH32 0x6768696A6B6C6D6E6F707172737475767778797A303132333435363738392B2F PUSH1 0x40 DUP4 ADD MSTORE DUP1 MLOAD PUSH1 0x2 SWAP2 DUP3 DUP3 ADD DUP1 SWAP3 GT PUSH2 0x2695 JUMPI PUSH1 0x3 SWAP2 DUP3 SWAP1 DIV PUSH1 0x1 PUSH1 0x1 PUSH1 0xFE SHL SUB DUP2 AND DUP2 SUB PUSH2 0x2695 JUMPI PUSH2 0x25EB SWAP1 DUP5 SWAP6 SWAP5 SHL PUSH2 0x2523 JUMP JUMPDEST SWAP4 PUSH1 0x20 DUP6 ADD SWAP4 DUP3 SWAP2 DUP4 MLOAD DUP5 ADD SWAP1 PUSH1 0x20 DUP3 ADD SWAP3 DUP4 MLOAD SWAP5 PUSH1 0x0 DUP6 MSTORE JUMPDEST DUP4 DUP2 LT PUSH2 0x2644 JUMPI POP POP POP POP MSTORE MLOAD MOD DUP1 PUSH1 0x1 EQ PUSH2 0x2631 JUMPI PUSH1 0x2 EQ PUSH2 0x2626 JUMPI POP SWAP1 JUMP JUMPDEST PUSH1 0x3D SWAP1 PUSH1 0x0 NOT ADD MSTORE8 SWAP1 JUMP JUMPDEST POP PUSH1 0x3D SWAP1 DUP2 PUSH1 0x0 NOT DUP3 ADD MSTORE8 PUSH1 0x1 NOT ADD MSTORE8 SWAP1 JUMP JUMPDEST DUP8 PUSH1 0x4 SWAP2 SWAP10 SWAP3 SWAP4 SWAP5 SWAP10 ADD SWAP2 DUP3 MLOAD PUSH1 0x1 SWAP1 PUSH1 0x3F SWAP1 DUP3 DUP3 DUP3 PUSH1 0x12 SHR AND DUP9 ADD ADD MLOAD DUP5 MSTORE8 DUP3 DUP3 DUP3 PUSH1 0xC SHR AND DUP9 ADD ADD MLOAD DUP4 DUP6 ADD MSTORE8 DUP3 DUP3 DUP3 PUSH1 0x6 SHR AND DUP9 ADD ADD MLOAD DUP9 DUP6 ADD MSTORE8 AND DUP6 ADD ADD MLOAD DUP10 DUP3 ADD MSTORE8 ADD SWAP8 SWAP3 SWAP2 SWAP1 PUSH2 0x2605 JUMP JUMPDEST PUSH4 0x4E487B71 PUSH1 0xE0 SHL PUSH1 0x0 MSTORE PUSH1 0x11 PUSH1 0x4 MSTORE PUSH1 0x24 PUSH1 0x0 REVERT JUMPDEST POP PUSH1 0x40 MLOAD PUSH2 0x26B8 DUP2 PUSH2 0x20C4 JUMP JUMPDEST PUSH1 0x0 DUP2 MSTORE SWAP1 JUMP JUMPDEST DUP1 PUSH1 0x0 SWAP2 PUSH27 0x184F03E93FF9F4DAA797ED6E38ED64BF6A1F010000000000000000 DUP1 DUP3 LT ISZERO PUSH2 0x27F4 JUMPI JUMPDEST POP PUSH14 0x4EE2D6D415B85ACEF8100000000 DUP1 DUP4 LT ISZERO PUSH2 0x27E5 JUMPI JUMPDEST POP PUSH7 0x2386F26FC10000 DUP1 DUP4 LT ISZERO PUSH2 0x27D6 JUMPI JUMPDEST POP PUSH4 0x5F5E100 DUP1 DUP4 LT ISZERO PUSH2 0x27C7 JUMPI JUMPDEST POP PUSH2 0x2710 DUP1 DUP4 LT ISZERO PUSH2 0x27B8 JUMPI JUMPDEST POP PUSH1 0x64 DUP3 LT ISZERO PUSH2 0x27A8 JUMPI JUMPDEST PUSH1 0xA DUP1 SWAP3 LT ISZERO PUSH2 0x279E JUMPI JUMPDEST PUSH1 0x1 SWAP1 DUP2 PUSH1 0x21 PUSH2 0x2756 DUP3 DUP8 ADD PUSH2 0x2523 JUMP JUMPDEST SWAP6 DUP7 ADD ADD SWAP1 JUMPDEST PUSH2 0x2768 JUMPI JUMPDEST POP POP POP POP SWAP1 JUMP JUMPDEST PUSH1 0x0 NOT ADD SWAP1 DUP4 SWAP1 PUSH16 0x181899199A1A9B1B9C1CB0B131B232B3 PUSH1 0x81 SHL DUP3 DUP3 MOD BYTE DUP4 MSTORE8 DIV SWAP2 DUP3 ISZERO PUSH2 0x2799 JUMPI SWAP2 SWAP1 DUP3 PUSH2 0x275C JUMP JUMPDEST PUSH2 0x2761 JUMP JUMPDEST SWAP2 PUSH1 0x1 ADD SWAP2 PUSH2 0x2745 JUMP JUMPDEST SWAP2 SWAP1 PUSH1 0x64 PUSH1 0x2 SWAP2 DIV SWAP2 ADD SWAP2 PUSH2 0x273A JUMP JUMPDEST PUSH1 0x4 SWAP2 SWAP4 SWAP3 DIV SWAP2 ADD SWAP2 CODESIZE PUSH2 0x272F JUMP JUMPDEST PUSH1 0x8 SWAP2 SWAP4 SWAP3 DIV SWAP2 ADD SWAP2 CODESIZE PUSH2 0x2722 JUMP JUMPDEST PUSH1 0x10 SWAP2 SWAP4 SWAP3 DIV SWAP2 ADD SWAP2 CODESIZE PUSH2 0x2713 JUMP JUMPDEST PUSH1 0x20 SWAP2 SWAP4 SWAP3 DIV SWAP2 ADD SWAP2 CODESIZE PUSH2 0x2701 JUMP JUMPDEST PUSH1 0x40 SWAP4 POP DUP2 DIV SWAP2 POP CODESIZE PUSH2 0x26E8 JUMP JUMPDEST PUSH1 0x40 MLOAD PUSH3 0x461BCD PUSH1 0xE5 SHL DUP2 MSTORE PUSH1 0x20 PUSH1 0x4 DUP3 ADD MSTORE PUSH1 0x32 PUSH1 0x24 DUP3 ADD MSTORE PUSH32 0x496E766F6963654E46543A20536F756C626F756E6420746F6B656E732063616E PUSH1 0x44 DUP3 ADD MSTORE PUSH18 0x1B9BDD081899481D1C985B9CD9995C9C9959 PUSH1 0x72 SHL PUSH1 0x64 DUP3 ADD MSTORE PUSH1 0x84 SWAP1 REVERT JUMPDEST PUSH1 0x0 NOT DUP2 EQ PUSH2 0x2695 JUMPI PUSH1 0x1 ADD SWAP1 JUMP JUMPDEST SWAP1 DUP2 MLOAD DUP2 LT ISZERO PUSH2 0x222F JUMPI ADD PUSH1 0x20 ADD SWAP1 JUMP JUMPDEST PUSH1 0x40 MLOAD SWAP1 PUSH2 0x288F DUP3 PUSH2 0x20E0 JUMP JUMPDEST PUSH1 0x28 DUP3 MSTORE PUSH1 0x20 DUP3 ADD SWAP1 PUSH1 0x40 CALLDATASIZE DUP4 CALLDATACOPY PUSH1 0x0 JUMPDEST PUSH1 0x14 DUP2 LT PUSH2 0x28E4 JUMPI POP POP PUSH1 0x22 PUSH2 0x28D1 SWAP3 PUSH2 0x28E1 SWAP3 PUSH1 0x40 MLOAD SWAP5 DUP6 SWAP3 PUSH2 0x60F PUSH1 0xF3 SHL PUSH1 0x20 DUP6 ADD MSTORE MLOAD DUP1 SWAP3 DUP6 DUP6 ADD SWAP1 PUSH2 0x1FC6 JUMP JUMPDEST DUP2 ADD SUB PUSH1 0x2 DUP2 ADD DUP5 MSTORE ADD DUP3 PUSH2 0x20FC JUMP JUMPDEST SWAP1 JUMP JUMPDEST PUSH1 0x13 SWAP1 DUP1 DUP3 SUB SWAP2 DUP3 GT PUSH2 0x2695 JUMPI PUSH1 0x3 DUP3 SWAP1 SHL SWAP2 PUSH1 0x1 PUSH1 0x1 PUSH1 0xFD SHL SUB DUP2 AND SUB PUSH2 0x2695 JUMPI PUSH1 0xFF DUP1 DUP4 GT PUSH2 0x2695 JUMPI PUSH1 0x1 SWAP3 DUP4 DUP2 SHL ISZERO PUSH2 0x29A5 JUMPI PUSH1 0x1 PUSH1 0x1 PUSH1 0xA0 SHL SUB DUP6 AND SWAP1 SHR PUSH1 0xF0 DUP2 AND DUP3 DUP3 AND SUB SWAP2 DUP3 GT PUSH2 0x2695 JUMPI PUSH2 0x2947 SWAP1 PUSH1 0xF4 SHL PUSH1 0xF PUSH1 0xF8 SHL AND PUSH2 0x29BB JUMP JUMPDEST DUP3 DUP5 SHL SWAP2 PUSH1 0x1 PUSH1 0x1 PUSH1 0xFF SHL SUB DUP5 AND DUP5 SUB PUSH2 0x2695 JUMPI PUSH2 0x297F SWAP2 PUSH1 0x0 BYTE PUSH2 0x296C DUP5 DUP11 PUSH2 0x2871 JUMP JUMPDEST MSTORE8 PUSH1 0xF8 SHL PUSH1 0x1 PUSH1 0x1 PUSH1 0xF8 SHL SUB NOT AND PUSH2 0x29BB JUMP JUMPDEST SWAP3 DUP2 ADD DUP1 SWAP2 GT PUSH2 0x2695 JUMPI PUSH2 0x299A PUSH2 0x29A0 SWAP4 PUSH1 0x0 BYTE SWAP2 DUP8 PUSH2 0x2871 JUMP JUMPDEST MSTORE8 PUSH2 0x2862 JUMP JUMPDEST PUSH2 0x28A0 JUMP JUMPDEST PUSH4 0x4E487B71 PUSH1 0xE0 SHL PUSH1 0x0 MSTORE PUSH1 0x12 PUSH1 0x4 MSTORE PUSH1 0x24 PUSH1 0x0 REVERT JUMPDEST PUSH1 0xF8 SHR PUSH1 0xA DUP2 LT ISZERO PUSH2 0x29E2 JUMPI PUSH1 0x30 ADD PUSH1 0xFF DUP2 GT PUSH2 0x2695 JUMPI PUSH1 0xF8 SHL PUSH1 0x1 PUSH1 0x1 PUSH1 0xF8 SHL SUB NOT AND SWAP1 JUMP JUMPDEST PUSH1 0x57 ADD PUSH1 0xFF DUP2 GT PUSH2 0x2695 JUMPI PUSH1 0xF8 SHL PUSH1 0x1 PUSH1 0x1 PUSH1 0xF8 SHL SUB NOT AND SWAP1 JUMP JUMPDEST DUP1 MLOAD ISZERO PUSH2 0x26AB JUMPI PUSH1 0x14 DUP2 MLOAD DUP1 DUP3 GT PUSH2 0x2A58 JUMPI JUMPDEST POP PUSH2 0x2A1A DUP2 PUSH2 0x2523 JUMP JUMPDEST SWAP2 PUSH1 0x0 SWAP1 DUP2 JUMPDEST DUP4 DUP2 LT PUSH2 0x2A2E JUMPI POP POP POP POP SWAP1 JUMP JUMPDEST PUSH2 0x2A53 SWAP1 PUSH1 0x1 PUSH1 0x1 PUSH1 0xF8 SHL SUB NOT PUSH2 0x2A45 DUP3 DUP6 PUSH2 0x2871 JUMP JUMPDEST MLOAD AND DUP5 BYTE PUSH2 0x299A DUP3 DUP9 PUSH2 0x2871 JUMP JUMPDEST PUSH2 0x2A20 JUMP JUMPDEST SWAP1 POP CODESIZE PUSH2 0x2A10 JUMP JUMPDEST DUP1 MLOAD ISZERO PUSH2 0x26AB JUMPI PUSH1 0x1E DUP2 MLOAD DUP1 DUP3 GT PUSH2 0x2AAD JUMPI JUMPDEST POP PUSH2 0x2A7D DUP2 PUSH2 0x2523 JUMP JUMPDEST SWAP2 PUSH1 0x0 SWAP1 DUP2 JUMPDEST DUP4 DUP2 LT PUSH2 0x2A91 JUMPI POP POP POP POP SWAP1 JUMP JUMPDEST PUSH2 0x2AA8 SWAP1 PUSH1 0x1 PUSH1 0x1 PUSH1 0xF8 SHL SUB NOT PUSH2 0x2A45 DUP3 DUP6 PUSH2 0x2871 JUMP JUMPDEST PUSH2 0x2A83 JUMP JUMPDEST SWAP1 POP CODESIZE PUSH2 0x2A73 JUMP INVALID LOG2 PUSH5 0x6970667358 0x22 SLT KECCAK256 SWAP6 PUSH10 0x5387AEAF491D18A8F080 SMOD 0xEF CREATE2 0xBF RETURNDATACOPY 0xCA 0x1F PREVRANDAO POP 0x26 DUP13 0xB3 RETURNDATASIZE PUSH24 0xE8C3B0B6013464736F6C6343000814003300000000000000 "},"methodIdentifiers":{"approve(address,uint256)":"095ea7b3","balanceOf(address)":"70a08231","getApproved(uint256)":"081812fc","getReceiptData(uint256)":"a039cddf","getUserReceipts(address)":"9e19bb59","invoiceToTokenId(uint256)":"3fc8abfb","isApprovedForAll(address,address)":"e985e9c5","mintReceipt(uint256,address,address,uint256,string)":"5c6b8fcb","name()":"06fdde03","owner()":"8da5cb5b","ownerOf(uint256)":"6352211e","receiptExists(uint256)":"3d18f652","renounceOwnership()":"715018a6","safeTransferFrom(address,address,uint256)":"42842e0e","safeTransferFrom(address,address,uint256,bytes)":"b88d4fde","setApprovalForAll(address,bool)":"a22cb465","supportsInterface(bytes4)":"01ffc9a7","symbol()":"95d89b41","tokenIdToReceipt(uint256)":"5b982fbc","tokenURI(uint256)":"c87b56dd","transferFrom(address,address,uint256)":"23b872dd","transferOwnership(address)":"f2fde38b","userReceipts(address,uint256)":"a843c5fe"}}}}}