{"contracts/InvoiceManager.sol":{"InvoiceManager":{"abi":[{"inputs":[],"stateMutability":"nonpayable","type":"constructor"},{"anonymous":false,"inputs":[{"indexed":true,"internalType":"uint256","name":"invoiceId","type":"uint256"},{"indexed":true,"internalType":"address","name":"raiser","type":"address"}],"name":"DisputeRaised","type":"event"},{"anonymous":false,"inputs":[{"indexed":true,"internalType":"uint256","name":"invoiceId","type":"uint256"},{"indexed":false,"internalType":"uint256","name":"amount","type":"uint256"}],"name":"EscrowActivated","type":"event"},{"anonymous":false,"inputs":[{"indexed":true,"internalType":"uint256","name":"invoiceId","type":"uint256"}],"name":"InvoiceCancelled","type":"event"},{"anonymous":false,"inputs":[{"indexed":true,"internalType":"uint256","name":"invoiceId","type":"uint256"},{"indexed":true,"internalType":"address","name":"issuer","type":"address"},{"indexed":true,"internalType":"address","name":"client","type":"address"},{"indexed":false,"internalType":"uint256","name":"amount","type":"uint256"},{"indexed":false,"internalType":"uint256","name":"dueDate","type":"uint256"},{"indexed":false,"internalType":"string","name":"description","type":"string"}],"name":"InvoiceCreated","type":"event"},{"anonymous":false,"inputs":[{"indexed":true,"internalType":"uint256","name":"invoiceId","type":"uint256"},{"indexed":true,"internalType":"address","name":"payer","type":"address"},{"indexed":false,"internalType":"uint256","name":"amount","type":"uint256"}],"name":"InvoicePaid","type":"event"},{"anonymous":false,"inputs":[{"indexed":true,"internalType":"uint256","name":"invoiceId","type":"uint256"},{"indexed":false,"internalType":"uint256","name":"milestoneIndex","type":"uint256"}],"name":"MilestoneCompleted","type":"event"},{"anonymous":false,"inputs":[{"indexed":true,"internalType":"uint256","name":"invoiceId","type":"uint256"},{"indexed":false,"internalType":"uint256","name":"milestoneIndex","type":"uint256"},{"indexed":false,"internalType":"uint256","name":"amount","type":"uint256"}],"name":"MilestoneReleased","type":"event"},{"anonymous":false,"inputs":[{"indexed":true,"internalType":"address","name":"previousOwner","type":"address"},{"indexed":true,"internalType":"address","name":"newOwner","type":"address"}],"name":"OwnershipTransferred","type":"event"},{"anonymous":false,"inputs":[{"indexed":true,"internalType":"uint256","name":"invoiceId","type":"uint256"},{"indexed":true,"internalType":"uint256","name":"tokenId","type":"uint256"},{"indexed":true,"internalType":"address","name":"client","type":"address"}],"name":"ReceiptMinted","type":"event"},{"inputs":[{"internalType":"uint256","name":"invoiceId","type":"uint256"},{"components":[{"internalType":"uint256","name":"amount","type":"uint256"},{"internalType":"string","name":"description","type":"string"},{"internalType":"bool","name":"isCompleted","type":"bool"},{"internalType":"bool","name":"isReleased","type":"bool"}],"internalType":"struct InvoiceManager.Milestone[]","name":"milestones","type":"tuple[]"}],"name":"addMilestones","outputs":[],"stateMutability":"nonpayable","type":"function"},{"inputs":[{"internalType":"uint256","name":"invoiceId","type":"uint256"}],"name":"cancelInvoice","outputs":[],"stateMutability":"nonpayable","type":"function"},{"inputs":[{"internalType":"address","name":"","type":"address"},{"internalType":"uint256","name":"","type":"uint256"}],"name":"clientInvoices","outputs":[{"internalType":"uint256","name":"","type":"uint256"}],"stateMutability":"view","type":"function"},{"inputs":[{"internalType":"uint256","name":"invoiceId","type":"uint256"},{"internalType":"uint256","name":"milestoneIndex","type":"uint256"}],"name":"completeMilestone","outputs":[],"stateMutability":"nonpayable","type":"function"},{"inputs":[{"internalType":"address","name":"client","type":"address"},{"internalType":"address","name":"tokenAddress","type":"address"},{"internalType":"uint256","name":"amount","type":"uint256"},{"internalType":"uint256","name":"dueDate","type":"uint256"},{"internalType":"string","name":"description","type":"string"},{"internalType":"bool","name":"useEscrow","type":"bool"}],"name":"createInvoice","outputs":[{"internalType":"uint256","name":"invoiceId","type":"uint256"}],"stateMutability":"nonpayable","type":"function"},{"inputs":[{"internalType":"address","name":"tokenAddress","type":"address"}],"name":"emergencyWithdraw","outputs":[],"stateMutability":"nonpayable","type":"function"},{"inputs":[{"internalType":"uint256","name":"","type":"uint256"}],"name":"escrowInvoices","outputs":[{"internalType":"uint256","name":"invoiceId","type":"uint256"},{"internalType":"bool","name":"isActive","type":"bool"},{"internalType":"uint256","name":"totalAmount","type":"uint256"},{"internalType":"uint256","name":"releasedAmount","type":"uint256"}],"stateMutability":"view","type":"function"},{"inputs":[],"name":"feeRecipient","outputs":[{"internalType":"address","name":"","type":"address"}],"stateMutability":"view","type":"function"},{"inputs":[{"internalType":"address","name":"client","type":"address"}],"name":"getClientInvoices","outputs":[{"internalType":"uint256[]","name":"","type":"uint256[]"}],"stateMutability":"view","type":"function"},{"inputs":[{"internalType":"uint256","name":"invoiceId","type":"uint256"}],"name":"getInvoice","outputs":[{"components":[{"internalType":"uint256","name":"id","type":"uint256"},{"internalType":"address","name":"issuer","type":"address"},{"internalType":"address","name":"client","type":"address"},{"internalType":"address","name":"tokenAddress","type":"address"},{"internalType":"uint256","name":"amount","type":"uint256"},{"internalType":"uint256","name":"amountPaid","type":"uint256"},{"internalType":"uint256","name":"dueDate","type":"uint256"},{"internalType":"string","name":"description","type":"string"},{"internalType":"enum InvoiceManager.InvoiceStatus","name":"status","type":"uint8"},{"internalType":"bool","name":"useEscrow","type":"bool"},{"internalType":"uint256","name":"createdAt","type":"uint256"}],"internalType":"struct InvoiceManager.Invoice","name":"","type":"tuple"}],"stateMutability":"view","type":"function"},{"inputs":[{"internalType":"uint256","name":"invoiceId","type":"uint256"}],"name":"getInvoiceMilestones","outputs":[{"components":[{"internalType":"uint256","name":"amount","type":"uint256"},{"internalType":"string","name":"description","type":"string"},{"internalType":"bool","name":"isCompleted","type":"bool"},{"internalType":"bool","name":"isReleased","type":"bool"}],"internalType":"struct InvoiceManager.Milestone[]","name":"","type":"tuple[]"}],"stateMutability":"view","type":"function"},{"inputs":[{"internalType":"address","name":"user","type":"address"}],"name":"getUserInvoices","outputs":[{"internalType":"uint256[]","name":"","type":"uint256[]"}],"stateMutability":"view","type":"function"},{"inputs":[{"internalType":"uint256","name":"","type":"uint256"},{"internalType":"uint256","name":"","type":"uint256"}],"name":"invoiceMilestones","outputs":[{"internalType":"uint256","name":"amount","type":"uint256"},{"internalType":"string","name":"description","type":"string"},{"internalType":"bool","name":"isCompleted","type":"bool"},{"internalType":"bool","name":"isReleased","type":"bool"}],"stateMutability":"view","type":"function"},{"inputs":[],"name":"invoiceNFT","outputs":[{"internalType":"contract IInvoiceNFT","name":"","type":"address"}],"stateMutability":"view","type":"function"},{"inputs":[{"internalType":"uint256","name":"","type":"uint256"}],"name":"invoices","outputs":[{"internalType":"uint256","name":"id","type":"uint256"},{"internalType":"address","name":"issuer","type":"address"},{"internalType":"address","name":"client","type":"address"},{"internalType":"address","name":"tokenAddress","type":"address"},{"internalType":"uint256","name":"amount","type":"uint256"},{"internalType":"uint256","name":"amountPaid","type":"uint256"},{"internalType":"uint256","name":"dueDate","type":"uint256"},{"internalType":"string","name":"description","type":"string"},{"internalType":"enum InvoiceManager.InvoiceStatus","name":"status","type":"uint8"},{"internalType":"bool","name":"useEscrow","type":"bool"},{"internalType":"uint256","name":"createdAt","type":"uint256"}],"stateMutability":"view","type":"function"},{"inputs":[],"name":"nextInvoiceId","outputs":[{"internalType":"uint256","name":"","type":"uint256"}],"stateMutability":"view","type":"function"},{"inputs":[],"name":"owner","outputs":[{"internalType":"address","name":"","type":"address"}],"stateMutability":"view","type":"function"},{"inputs":[{"internalType":"uint256","name":"invoiceId","type":"uint256"}],"name":"payInvoice","outputs":[],"stateMutability":"payable","type":"function"},{"inputs":[],"name":"platformFeePercentage","outputs":[{"internalType":"uint256","name":"","type":"uint256"}],"stateMutability":"view","type":"function"},{"inputs":[{"internalType":"uint256","name":"invoiceId","type":"uint256"}],"name":"raiseDispute","outputs":[],"stateMutability":"nonpayable","type":"function"},{"inputs":[{"internalType":"uint256","name":"invoiceId","type":"uint256"},{"internalType":"uint256","name":"milestoneIndex","type":"uint256"}],"name":"releaseMilestone","outputs":[],"stateMutability":"nonpayable","type":"function"},{"inputs":[],"name":"renounceOwnership","outputs":[],"stateMutability":"nonpayable","type":"function"},{"inputs":[{"internalType":"address","name":"newFeeRecipient","type":"address"}],"name":"setFeeRecipient","outputs":[],"stateMutability":"nonpayable","type":"function"},{"inputs":[{"internalType":"address","name":"nftContractAddress","type":"address"}],"name":"setInvoiceNFT","outputs":[],"stateMutability":"nonpayable","type":"function"},{"inputs":[{"internalType":"uint256","name":"newFeePercentage","type":"uint256"}],"name":"setPlatformFee","outputs":[],"stateMutability":"nonpayable","type":"function"},{"inputs":[{"internalType":"address","name":"newOwner","type":"address"}],"name":"transferOwnership","outputs":[],"stateMutability":"nonpayable","type":"function"},{"inputs":[{"internalType":"address","name":"","type":"address"},{"internalType":"uint256","name":"","type":"uint256"}],"name":"userInvoices","outputs":[{"internalType":"uint256","name":"","type":"uint256"}],"stateMutability":"view","type":"function"}],"evm":{"bytecode":{"linkReferences":{},"object":"608080604052346100745760008054336001600160a01b0319808316821784559290916001600160a01b0316907f8be0079c531659141344cd1fd0a4f28419497f9722a3daafe3b4186f6b6457e09080a360018055600160075560fa60085533906009541617600955612585908161007a8239f35b600080fdfe6080604052600436101561001257600080fd5b60003560e01c80630ad6b0a5146120a557806312e8e2c31461203e578063192b7f4114611b635780631cb9b2aa14611aeb578063221604a2146119ac57806324d3b3e2146119245780633a23cc0a1461175157806346904840146117285780634bb6f06d146116ff5780634e6d1405146116245780636ff1c9bc1461150d5780636ff2a953146114ef578063715018a6146114965780637637e393146114435780638da5cb5b1461141a578063a5310eab14611038578063a5c1674e14610f69578063aa12aa6214610edf578063ac60a6cd14610935578063cdd78cfc14610917578063d5e57ad5146108bf578063da9c273d146107aa578063dbaf091014610458578063e74b981b146103d3578063f2fde38b1461030f578063f326206b146101d75763f939f4961461014557600080fd5b346101d25760203660031901126101d25761015e6120ef565b61016661237e565b6001600160a01b0316801561018d576001600160601b0360a01b600a541617600a55600080f35b60405162461bcd60e51b815260206004820152601c60248201527f496e76616c6964204e465420636f6e74726163742061646472657373000000006044820152606490fd5b600080fd5b346101d2576101e53661234c565b908060005260206002815260018060a01b036001604060002001541633036102bf57816000526004815261021f6040600020548410612503565b81600052600481526002610237846040600020612362565b50019283549360ff851661027a5760017f1b7218c0ac23ea9cbe4df603d2b340fbf469a115b73ea3d11460727f445d6be1949560ff1916179055604051908152a2005b60405162461bcd60e51b815260048101849052601b60248201527f4d696c6573746f6e6520616c726561647920636f6d706c6574656400000000006044820152606490fd5b6084906040519062461bcd60e51b82526004820152602360248201527f4f6e6c79206973737565722063616e20636f6d706c657465206d696c6573746f6044820152626e657360e81b6064820152fd5b346101d25760203660031901126101d2576103286120ef565b61033061237e565b6001600160a01b0390811690811561037f57600054826001600160601b0360a01b821617600055167f8be0079c531659141344cd1fd0a4f28419497f9722a3daafe3b4186f6b6457e0600080a3005b60405162461bcd60e51b815260206004820152602660248201527f4f776e61626c653a206e6577206f776e657220697320746865207a65726f206160448201526564647265737360d01b6064820152608490fd5b346101d25760203660031901126101d2576103ec6120ef565b6103f461237e565b6001600160a01b0316801561041b576001600160601b0360a01b6009541617600955600080f35b60405162461bcd60e51b8152602060048201526015602482015274125b9d985b1a5908199959481c9958da5c1a595b9d605a1b6044820152606490fd5b346101d2576104663661234c565b816000526020906002825260406000209060018060a01b039182600282015416330361075a5784600052600484526104a46040600020548310612503565b84600052600484526104ba826040600020612362565b509260028401805460ff8116156107155760ff8160081c166106d0576101009061ff001916179055856000526003855260406000206105006003865492019182546124f6565b905583549161051f61271061051760085486612455565b048094612430565b908260038201541680156000146105b65750600080809385600183950154168282156105ad575bf1156105985760008080938193600954168282156105a4575bf115610598577fd33fcd27cbfb73a2d9058c968b560ccb306500bf536133802048489ecc7355e9926040925b54908351928352820152a2005b6040513d6000823e3d90fd5b506108fc61055f565b506108fc610546565b6001919091015460405163a9059cbb60e01b8082529185166001600160a01b031660048201526024810193909352929693919284846044816000865af180156105985761064098610612600092889784916106b3575b50612468565b600954604051938452166001600160a01b031660048301526024820193909352968792839182906044820190565b03925af1928315610598576106816040947fd33fcd27cbfb73a2d9058c968b560ccb306500bf536133802048489ecc7355e996600091610686575b506124b4565b61058b565b6106a69150843d86116106ac575b61069e8183612156565b81019061243d565b8861067b565b503d610694565b6106ca9150883d8a116106ac5761069e8183612156565b8d61060c565b60405162461bcd60e51b815260048101889052601a60248201527f4d696c6573746f6e6520616c72656164792072656c65617365640000000000006044820152606490fd5b60405162461bcd60e51b815260048101889052601760248201527f4d696c6573746f6e65206e6f7420636f6d706c657465640000000000000000006044820152606490fd5b60405162461bcd60e51b815260048101859052602260248201527f4f6e6c7920636c69656e742063616e2072656c65617365206d696c6573746f6e604482015261657360f01b6064820152608490fd5b346101d25760203660031901126101d257600435600081815260026020526040902060018101546001600160a01b0316330361088157600801805460ff8116600481101561086b576108265760ff191660021790557f2e9842040508f80e6420769a8673529eb3af5b952f53af83d9c9d3432da78046600080a2005b60405162461bcd60e51b815260206004820152601a60248201527f43616e6e6f742063616e63656c207061696420696e766f6963650000000000006044820152606490fd5b634e487b7160e01b600052602160045260246000fd5b60405162461bcd60e51b815260206004820152601660248201527513db9b1e481a5cdcdd595c8818d85b8818d85b98d95b60521b6044820152606490fd5b346101d25760403660031901126101d2576108d86120ef565b6001600160a01b03166000908152600660205260409020805460243591908210156101d25760209161090991612105565b90546040519160031b1c8152f35b346101d25760003660031901126101d2576020600854604051908152f35b6020806003193601126101d257600435906001916002835414610e9a576002835580600052600282526040600020805415610e5c57600881019260ff845416600481101561086b57610e22576002820180546001600160a01b039081163303610de75760048401938454946109b06005830196875490612430565b97836003840154168015600014610c285750883410610bec57888a60ff835460081c1615610b86575b503411610b53575b6109ec8988546124f6565b8097558960ff19825416179055548095101580610b46575b610a3c575b5050507fa6abfda59e12fa300d17e1aa76bd3233eaf23ee4feb4b02b6516ad1d60be840091506040519384523393a38055005b839082600a5416838a83015416600089610a9087895416956040519b8c9788968795635c6b8fcb60e01b8752600487015260248601526044850152606484015260a06084840152600760a48401910161229e565b03925af19182600093610af7575b7fa6abfda59e12fa300d17e1aa76bd3233eaf23ee4feb4b02b6516ad1d60be8400955015610a0957541690847fddbf9d9b2b8ec52d81ebdd4358971424e6dcfd1343b0f03b2dceb9c85c168e35600080a4858080610a09565b92508385813d8311610b3f575b610b0e8183612156565b810103126101d2577fa6abfda59e12fa300d17e1aa76bd3233eaf23ee4feb4b02b6516ad1d60be8400945192610a9e565b503d610b04565b5081600a54161515610a04565b6000808080610b628d34612430565b818115610b7d575b3390f16109e1576040513d6000823e3d90fd5b506108fc610b6a565b60008080809389610ba7612710610b9f6008548a612455565b048098612430565b918a015416828215610be3575bf115610598576000808080938860095416828215610bda575bf11561059857888a6109d9565b506108fc610bcd565b506108fc610bb4565b60405162461bcd60e51b8152600481018790526014602482015273125b9cdd59999a58da595b9d081c185e5b595b9d60621b6044820152606490fd5b6040516323b872dd60e01b8152336004820152306024820152604481018b905287816064816000865af190811561059857600091610dca575b5015610d8d578a8a60ff845460081c1615610c7f575b5050506109e1565b610cd8928988610c9f612710610c9760085487612455565b048095612430565b9489015460405163a9059cbb60e01b808252929091166001600160a01b0316600482015260248101959095529394859081906044820190565b03816000855af192831561059857610cfc8b94610d3096600091610d705750612468565b60095460405191825289166001600160a01b0316600482015260248101929092529092839190829060009082906044820190565b03925af1801561059857610d4b91600091610d5357506124b4565b8a8a8a610c77565b610d6a9150883d8a116106ac5761069e8183612156565b8c61067b565b610d879150863d88116106ac5761069e8183612156565b3861060c565b60405162461bcd60e51b8152600481018890526015602482015274151bdad95b881d1c985b9cd9995c8819985a5b1959605a1b6044820152606490fd5b610de19150883d8a116106ac5761069e8183612156565b8c610c61565b60405162461bcd60e51b81526004810184905260136024820152724f6e6c7920636c69656e742063616e2070617960681b6044820152606490fd5b6064906040519062461bcd60e51b825260048201526013602482015272496e766f696365206e6f742070617961626c6560681b6044820152fd5b60405162461bcd60e51b8152600481018490526016602482015275125b9d9bda58d948191bd95cc81b9bdd08195e1a5cdd60521b6044820152606490fd5b60405162461bcd60e51b815260048101839052601f60248201527f5265656e7472616e637947756172643a207265656e7472616e742063616c6c006044820152606490fd5b346101d257610eed3661234c565b90600052600460205260406000209081548110156101d257610f0e91612362565b508054600260405192610f2f84610f28816001850161229e565b0385612156565b015460ff610f4f6040519485948552608060208601526080850190612217565b918181161515604085015260081c16151560608301520390f35b346101d25760203660031901126101d25760043560008181526002602052604090206001810154336001600160a01b0391821614918215611027575b505015610ff1578060005260026020526008604060002001600360ff1982541617905533907f84a477df8a28a4276ca6dee4458a06c3015f30c477d9c949ede4e13ff8a552b4600080a3005b60405162461bcd60e51b815260206004820152600e60248201526d139bdd08185d5d1a1bdc9a5e995960921b6044820152606490fd5b600291925001541633148280610fa5565b346101d25760403660031901126101d25760243567ffffffffffffffff81116101d257366023820112156101d257806004013561107481612334565b916110826040519384612156565b8183526024602084019260051b820101903682116101d25760248101925b82841061138b5760043560009081526002602052604090206001015485906001600160a01b0316330361134657600435600052600260205260ff60086040600020015460081c16156113015760005b81518110156112ff576004356000526004602052604060002082518210156112e95760208260051b84010151908054600160401b8110156112bd5761113991600182018155612362565b6112d35781518155602082015180519067ffffffffffffffff82116112bd576111656001840154612264565b601f8111611276575b50602090601f83116001146111f9576111e493836111e99796946060946002946000926111ee575b50508160011b916000199060031b1c19161760018201555b01916111cc60408201511515849060ff801983541691151516179055565b0151815461ff00191690151560081b61ff0016179055565b6123d6565b6110ef565b015190508a80611196565b906001840160005260206000209160005b601f198516811061125e5750936001846060946002946111e4986111e99b9a98601f19811610611245575b505050811b0160018201556111ae565b015160001960f88460031b161c191690558a8080611235565b9192602060018192868501518155019401920161120a565b600184016000526020600020601f840160051c8101602085106112b6575b601f830160051c820181106112aa57505061116e565b60008155600101611294565b5080611294565b634e487b7160e01b600052604160045260246000fd5b634e487b7160e01b600052600060045260246000fd5b634e487b7160e01b600052603260045260246000fd5b005b60405162461bcd60e51b815260206004820152601760248201527f496e766f696365206d7573742075736520657363726f770000000000000000006044820152606490fd5b60405162461bcd60e51b815260206004820152601e60248201527f4f6e6c79206973737565722063616e20616464206d696c6573746f6e657300006044820152606490fd5b833567ffffffffffffffff81116101d257820190608060231983360301126101d257604051906113ba8261213a565b6024830135825260448301359167ffffffffffffffff83116101d25761140a60846020956113ef879660243691840101612178565b868501526113ff606482016121cf565b6040850152016121cf565b60608201528152019301926110a0565b346101d25760003660031901126101d2576000546040516001600160a01b039091168152602090f35b346101d25760203660031901126101d25760043560005260036020526080604060002080549060ff6001820154169060036002820154910154916040519384521515602084015260408301526060820152f35b346101d25760003660031901126101d2576114af61237e565b600080546001600160a01b0319811682556001600160a01b03167f8be0079c531659141344cd1fd0a4f28419497f9722a3daafe3b4186f6b6457e08280a3005b346101d25760003660031901126101d2576020600754604051908152f35b346101d2576020806003193601126101d2576115276120ef565b9061153061237e565b6001600160a01b0391821680611566575050600080808093815416479082821561155d575bf11561059857005b506108fc611555565b909160005416604051906370a0823160e01b82523060048301528382602481865afa9081156105985784926000926115f1575b5060405163a9059cbb60e01b81526001600160a01b039091166004820152602481019190915291829081600081604481015b03925af18015610598576115db57005b816112ff92903d106106ac5761069e8183612156565b8381949293503d831161161d575b6116098183612156565b810103126101d257905183916115cb611599565b503d6115ff565b346101d25760203660031901126101d25760043560005260026020526040600020805460018060a01b0391826001820154169260ff6116d8826002850154169260038501541660048501546005860154600687015491604051936116968561168f8160078d0161229e565b0386612156565b600960088a0154990154976040519b8c9b8c5260208c015260408b015260608a0152608089015260a088015260c08701526101608060e0880152860190612217565b926116e96101008601838316612257565b60081c1615156101208401526101408301520390f35b346101d25760003660031901126101d257600a546040516001600160a01b039091168152602090f35b346101d25760003660031901126101d2576009546040516001600160a01b039091168152602090f35b346101d25760203660031901126101d25760006101406040516117738161211d565b8281528260208201528260408201528260608201528260808201528260a08201528260c0820152606060e08201528261010082015282610120820152015260043560005260026020526040600020604051906117ce8261211d565b8054825260018101546001600160a01b039081166020840152600282015481166040808501919091526003830154909116606084015260048201546080840152600582015460a0840152600682015460c08401525161183b81611834816007860161229e565b0382612156565b60e0830152600881015490600460ff8316101561086b5760ff82816009941661010086015260081c16151561012084015201546101408201526040518091602082528051602083015260018060a01b03602082015116604083015260018060a01b03604082015116606083015260018060a01b036060820151166080830152608081015160a083015260a081015160c083015260c081015160e083015260e08101516101406118f96101609283610100870152610180860190612217565b9261190e610100820151610120870190612257565b6101208101511515828601520151908301520390f35b346101d2576020806003193601126101d2576001600160a01b036119466120ef565b1660005260058152604060002090604051908181845491828152019360005281600020916000905b828210611995576119918561198581890382612156565b604051918291826121dc565b0390f35b83548652948501946001938401939091019061196e565b346101d2576020806003193601126101d257600435600052600481526040600020908154916119da83612334565b926119e86040519485612156565b8084528284018092600052836000206000915b838310611a8d5750505050604051918083019381845251809452604083019360408160051b85010192916000955b828710611a365785850386f35b909192938280600192603f1989820301855287519081518152611a658383015160808086850152830190612217565b9160408101511515604083015260608091015115159101529601920196019592919092611a29565b600386600192604099989951611aa28161213a565b85548152604051611ab98161183481898b0161229e565b83820152600286015460ff908181161515604084015260081c16151560608201528152019201920191909594956119fb565b346101d2576020806003193601126101d2576001600160a01b03611b0d6120ef565b1660005260068152604060002090604051908181845491828152019360005281600020916000905b828210611b4c576119918561198581890382612156565b835486529485019460019384019390910190611b35565b346101d25760c03660031901126101d257611b7c6120ef565b602435906001600160a01b03821682036101d25760843567ffffffffffffffff81116101d257611bb0903690600401612178565b9060a435151560a435036101d2576001600160a01b038116156120005760443515611fbb57426064351115611f765760075491611bec836123d6565b60075560405193611bfc8561211d565b83855233602086015260018060a01b038316604086015260018060a01b031660608501526044356080850152600060a085015260643560c08501528060e0850152600061010085015260a4351515610120850152426101408501528260005260026020526040600020845181556001810160018060a01b03602087015116906001600160601b0360a01b91828254161790556002820160018060a01b0360408801511682825416179055600382019060018060a01b03606088015116908254161790556080850151600482015560a0850151600582015560c0850151600682015560e085015180519067ffffffffffffffff82116112bd578190611d036007850154612264565b601f8111611f23575b50602090601f8311600114611eb657600092611eab575b50508160011b916000199060031b1c19161760078201555b61010085015160088201600482101561086b57805461012088015161ff0090151560081b1660ff9390931661ffff199091161791909117905560209460099061014001519101553360005260058452611d988360406000206123fb565b60018060a01b03821660005260068452611db68360406000206123fb565b60a435611e1b575b827fc42cc137a7bf06606c7b59fc43c02dd34f7a86e23e35de7139fedca54b8616d0604051936044358552606435878601526060604086015260018060a01b03169380611e1033956060830190612217565b0390a4604051908152f35b604051611e278161213a565b838152600385820160018152604083016044358152611e7060608501926000845288600052848a52604060002095518655511515600186019060ff801983541691151516179055565b51600284015551910155827fe3c2e3e893e063a23ddc6faab3e3c024f0524199c4af658eef25bb4eb35e390d856040516044358152a2611dbe565b015190508780611d23565b600785016000908152602081209350601f198516905b818110611f0b5750908460019594939210611ef2575b505050811b016007820155611d3b565b015160001960f88460031b161c19169055878080611ee2565b92936020600181928786015181550195019301611ecc565b909150600784016000526020600020601f840160051c810160208510611f6f575b90849392915b601f830160051c82018110611f60575050611d0c565b60008155859450600101611f4a565b5080611f44565b60405162461bcd60e51b815260206004820152601e60248201527f4475652064617465206d75737420626520696e207468652066757475726500006044820152606490fd5b60405162461bcd60e51b815260206004820152601d60248201527f416d6f756e74206d7573742062652067726561746572207468616e20300000006044820152606490fd5b60405162461bcd60e51b8152602060048201526016602482015275496e76616c696420636c69656e74206164647265737360501b6044820152606490fd5b346101d25760203660031901126101d25760043561205a61237e565b6103e8811161206857600855005b60405162461bcd60e51b81526020600482015260156024820152744665652063616e6e6f74206578636565642031302560581b6044820152606490fd5b346101d25760403660031901126101d2576120be6120ef565b6001600160a01b03166000908152600560205260409020805460243591908210156101d25760209161090991612105565b600435906001600160a01b03821682036101d257565b80548210156112e95760005260206000200190600090565b610160810190811067ffffffffffffffff8211176112bd57604052565b6080810190811067ffffffffffffffff8211176112bd57604052565b90601f8019910116810190811067ffffffffffffffff8211176112bd57604052565b81601f820112156101d25780359067ffffffffffffffff82116112bd57604051926121ad601f8401601f191660200185612156565b828452602083830101116101d257816000926020809301838601378301015290565b359081151582036101d257565b6020908160408183019282815285518094520193019160005b828110612203575050505090565b8351855293810193928101926001016121f5565b919082519283825260005b848110612243575050826000602080949584010152601f8019910116010190565b602081830181015184830182015201612222565b90600482101561086b5752565b90600182811c92168015612294575b602083101461227e57565b634e487b7160e01b600052602260045260246000fd5b91607f1691612273565b90600092918054916122af83612264565b91828252600193848116908160001461231157506001146122d1575b50505050565b90919394506000526020928360002092846000945b8386106122fd5750505050010190388080806122cb565b8054858701830152940193859082016122e6565b9294505050602093945060ff191683830152151560051b010190388080806122cb565b67ffffffffffffffff81116112bd5760051b60200190565b60409060031901126101d2576004359060243590565b80548210156112e9576000526003602060002091020190600090565b6000546001600160a01b0316330361239257565b606460405162461bcd60e51b815260206004820152602060248201527f4f776e61626c653a2063616c6c6572206973206e6f7420746865206f776e65726044820152fd5b60001981146123e55760010190565b634e487b7160e01b600052601160045260246000fd5b8054600160401b8110156112bd5761241891600182018155612105565b819291549060031b91821b91600019901b1916179055565b919082039182116123e557565b908160209103126101d2575180151581036101d25790565b818102929181159184041417156123e557565b1561246f57565b60405162461bcd60e51b815260206004820152601960248201527f5472616e7366657220746f20697373756572206661696c6564000000000000006044820152606490fd5b156124bb57565b60405162461bcd60e51b8152602060048201526013602482015272119959481d1c985b9cd9995c8819985a5b1959606a1b6044820152606490fd5b919082018092116123e557565b1561250a57565b60405162461bcd60e51b815260206004820152601760248201527f496e76616c6964206d696c6573746f6e6520696e6465780000000000000000006044820152606490fdfea2646970667358221220ff34554db971e7af78bccc4f2c7c74b7816c1fa8ee5783dbc6841d6d2850b6ef64736f6c63430008140033","opcodes":"PUSH1 0x80 DUP1 PUSH1 0x40 MSTORE CALLVALUE PUSH2 0x74 JUMPI PUSH1 0x0 DUP1 SLOAD CALLER PUSH1 0x1 PUSH1 0x1 PUSH1 0xA0 SHL SUB NOT DUP1 DUP4 AND DUP3 OR DUP5 SSTORE SWAP3 SWAP1 SWAP2 PUSH1 0x1 PUSH1 0x1 PUSH1 0xA0 SHL SUB AND SWAP1 PUSH32 0x8BE0079C531659141344CD1FD0A4F28419497F9722A3DAAFE3B4186F6B6457E0 SWAP1 DUP1 LOG3 PUSH1 0x1 DUP1 SSTORE PUSH1 0x1 PUSH1 0x7 SSTORE PUSH1 0xFA PUSH1 0x8 SSTORE CALLER SWAP1 PUSH1 0x9 SLOAD AND OR PUSH1 0x9 SSTORE PUSH2 0x2585 SWAP1 DUP2 PUSH2 0x7A DUP3 CODECOPY RETURN JUMPDEST PUSH1 0x0 DUP1 REVERT INVALID PUSH1 0x80 PUSH1 0x40 MSTORE PUSH1 0x4 CALLDATASIZE LT ISZERO PUSH2 0x12 JUMPI PUSH1 0x0 DUP1 REVERT JUMPDEST PUSH1 0x0 CALLDATALOAD PUSH1 0xE0 SHR DUP1 PUSH4 0xAD6B0A5 EQ PUSH2 0x20A5 JUMPI DUP1 PUSH4 0x12E8E2C3 EQ PUSH2 0x203E JUMPI DUP1 PUSH4 0x192B7F41 EQ PUSH2 0x1B63 JUMPI DUP1 PUSH4 0x1CB9B2AA EQ PUSH2 0x1AEB JUMPI DUP1 PUSH4 0x221604A2 EQ PUSH2 0x19AC JUMPI DUP1 PUSH4 0x24D3B3E2 EQ PUSH2 0x1924 JUMPI DUP1 PUSH4 0x3A23CC0A EQ PUSH2 0x1751 JUMPI DUP1 PUSH4 0x46904840 EQ PUSH2 0x1728 JUMPI DUP1 PUSH4 0x4BB6F06D EQ PUSH2 0x16FF JUMPI DUP1 PUSH4 0x4E6D1405 EQ PUSH2 0x1624 JUMPI DUP1 PUSH4 0x6FF1C9BC EQ PUSH2 0x150D JUMPI DUP1 PUSH4 0x6FF2A953 EQ PUSH2 0x14EF JUMPI DUP1 PUSH4 0x715018A6 EQ PUSH2 0x1496 JUMPI DUP1 PUSH4 0x7637E393 EQ PUSH2 0x1443 JUMPI DUP1 PUSH4 0x8DA5CB5B EQ PUSH2 0x141A JUMPI DUP1 PUSH4 0xA5310EAB EQ PUSH2 0x1038 JUMPI DUP1 PUSH4 0xA5C1674E EQ PUSH2 0xF69 JUMPI DUP1 PUSH4 0xAA12AA62 EQ PUSH2 0xEDF JUMPI DUP1 PUSH4 0xAC60A6CD EQ PUSH2 0x935 JUMPI DUP1 PUSH4 0xCDD78CFC EQ PUSH2 0x917 JUMPI DUP1 PUSH4 0xD5E57AD5 EQ PUSH2 0x8BF JUMPI DUP1 PUSH4 0xDA9C273D EQ PUSH2 0x7AA JUMPI DUP1 PUSH4 0xDBAF0910 EQ PUSH2 0x458 JUMPI DUP1 PUSH4 0xE74B981B EQ PUSH2 0x3D3 JUMPI DUP1 PUSH4 0xF2FDE38B EQ PUSH2 0x30F JUMPI DUP1 PUSH4 0xF326206B EQ PUSH2 0x1D7 JUMPI PUSH4 0xF939F496 EQ PUSH2 0x145 JUMPI PUSH1 0x0 DUP1 REVERT JUMPDEST CALLVALUE PUSH2 0x1D2 JUMPI PUSH1 0x20 CALLDATASIZE PUSH1 0x3 NOT ADD SLT PUSH2 0x1D2 JUMPI PUSH2 0x15E PUSH2 0x20EF JUMP JUMPDEST PUSH2 0x166 PUSH2 0x237E JUMP JUMPDEST PUSH1 0x1 PUSH1 0x1 PUSH1 0xA0 SHL SUB AND DUP1 ISZERO PUSH2 0x18D JUMPI PUSH1 0x1 PUSH1 0x1 PUSH1 0x60 SHL SUB PUSH1 0xA0 SHL PUSH1 0xA SLOAD AND OR PUSH1 0xA SSTORE PUSH1 0x0 DUP1 RETURN JUMPDEST PUSH1 0x40 MLOAD PUSH3 0x461BCD PUSH1 0xE5 SHL DUP2 MSTORE PUSH1 0x20 PUSH1 0x4 DUP3 ADD MSTORE PUSH1 0x1C PUSH1 0x24 DUP3 ADD MSTORE PUSH32 0x496E76616C6964204E465420636F6E7472616374206164647265737300000000 PUSH1 0x44 DUP3 ADD MSTORE PUSH1 0x64 SWAP1 REVERT JUMPDEST PUSH1 0x0 DUP1 REVERT JUMPDEST CALLVALUE PUSH2 0x1D2 JUMPI PUSH2 0x1E5 CALLDATASIZE PUSH2 0x234C JUMP JUMPDEST SWAP1 DUP1 PUSH1 0x0 MSTORE PUSH1 0x20 PUSH1 0x2 DUP2 MSTORE PUSH1 0x1 DUP1 PUSH1 0xA0 SHL SUB PUSH1 0x1 PUSH1 0x40 PUSH1 0x0 KECCAK256 ADD SLOAD AND CALLER SUB PUSH2 0x2BF JUMPI DUP2 PUSH1 0x0 MSTORE PUSH1 0x4 DUP2 MSTORE PUSH2 0x21F PUSH1 0x40 PUSH1 0x0 KECCAK256 SLOAD DUP5 LT PUSH2 0x2503 JUMP JUMPDEST DUP2 PUSH1 0x0 MSTORE PUSH1 0x4 DUP2 MSTORE PUSH1 0x2 PUSH2 0x237 DUP5 PUSH1 0x40 PUSH1 0x0 KECCAK256 PUSH2 0x2362 JUMP JUMPDEST POP ADD SWAP3 DUP4 SLOAD SWAP4 PUSH1 0xFF DUP6 AND PUSH2 0x27A JUMPI PUSH1 0x1 PUSH32 0x1B7218C0AC23EA9CBE4DF603D2B340FBF469A115B73EA3D11460727F445D6BE1 SWAP5 SWAP6 PUSH1 0xFF NOT AND OR SWAP1 SSTORE PUSH1 0x40 MLOAD SWAP1 DUP2 MSTORE LOG2 STOP JUMPDEST PUSH1 0x40 MLOAD PUSH3 0x461BCD PUSH1 0xE5 SHL DUP2 MSTORE PUSH1 0x4 DUP2 ADD DUP5 SWAP1 MSTORE PUSH1 0x1B PUSH1 0x24 DUP3 ADD MSTORE PUSH32 0x4D696C6573746F6E6520616C726561647920636F6D706C657465640000000000 PUSH1 0x44 DUP3 ADD MSTORE PUSH1 0x64 SWAP1 REVERT JUMPDEST PUSH1 0x84 SWAP1 PUSH1 0x40 MLOAD SWAP1 PUSH3 0x461BCD PUSH1 0xE5 SHL DUP3 MSTORE PUSH1 0x4 DUP3 ADD MSTORE PUSH1 0x23 PUSH1 0x24 DUP3 ADD MSTORE PUSH32 0x4F6E6C79206973737565722063616E20636F6D706C657465206D696C6573746F PUSH1 0x44 DUP3 ADD MSTORE PUSH3 0x6E6573 PUSH1 0xE8 SHL PUSH1 0x64 DUP3 ADD MSTORE REVERT JUMPDEST CALLVALUE PUSH2 0x1D2 JUMPI PUSH1 0x20 CALLDATASIZE PUSH1 0x3 NOT ADD SLT PUSH2 0x1D2 JUMPI PUSH2 0x328 PUSH2 0x20EF JUMP JUMPDEST PUSH2 0x330 PUSH2 0x237E JUMP JUMPDEST PUSH1 0x1 PUSH1 0x1 PUSH1 0xA0 SHL SUB SWAP1 DUP2 AND SWAP1 DUP2 ISZERO PUSH2 0x37F JUMPI PUSH1 0x0 SLOAD DUP3 PUSH1 0x1 PUSH1 0x1 PUSH1 0x60 SHL SUB PUSH1 0xA0 SHL DUP3 AND OR PUSH1 0x0 SSTORE AND PUSH32 0x8BE0079C531659141344CD1FD0A4F28419497F9722A3DAAFE3B4186F6B6457E0 PUSH1 0x0 DUP1 LOG3 STOP JUMPDEST PUSH1 0x40 MLOAD PUSH3 0x461BCD PUSH1 0xE5 SHL DUP2 MSTORE PUSH1 0x20 PUSH1 0x4 DUP3 ADD MSTORE PUSH1 0x26 PUSH1 0x24 DUP3 ADD MSTORE PUSH32 0x4F776E61626C653A206E6577206F776E657220697320746865207A65726F2061 PUSH1 0x44 DUP3 ADD MSTORE PUSH6 0x646472657373 PUSH1 0xD0 SHL PUSH1 0x64 DUP3 ADD MSTORE PUSH1 0x84 SWAP1 REVERT JUMPDEST CALLVALUE PUSH2 0x1D2 JUMPI PUSH1 0x20 CALLDATASIZE PUSH1 0x3 NOT ADD SLT PUSH2 0x1D2 JUMPI PUSH2 0x3EC PUSH2 0x20EF JUMP JUMPDEST PUSH2 0x3F4 PUSH2 0x237E JUMP JUMPDEST PUSH1 0x1 PUSH1 0x1 PUSH1 0xA0 SHL SUB AND DUP1 ISZERO PUSH2 0x41B JUMPI PUSH1 0x1 PUSH1 0x1 PUSH1 0x60 SHL SUB PUSH1 0xA0 SHL PUSH1 0x9 SLOAD AND OR PUSH1 0x9 SSTORE PUSH1 0x0 DUP1 RETURN JUMPDEST PUSH1 0x40 MLOAD PUSH3 0x461BCD PUSH1 0xE5 SHL DUP2 MSTORE PUSH1 0x20 PUSH1 0x4 DUP3 ADD MSTORE PUSH1 0x15 PUSH1 0x24 DUP3 ADD MSTORE PUSH21 0x125B9D985B1A5908199959481C9958DA5C1A595B9D PUSH1 0x5A SHL PUSH1 0x44 DUP3 ADD MSTORE PUSH1 0x64 SWAP1 REVERT JUMPDEST CALLVALUE PUSH2 0x1D2 JUMPI PUSH2 0x466 CALLDATASIZE PUSH2 0x234C JUMP JUMPDEST DUP2 PUSH1 0x0 MSTORE PUSH1 0x20 SWAP1 PUSH1 0x2 DUP3 MSTORE PUSH1 0x40 PUSH1 0x0 KECCAK256 SWAP1 PUSH1 0x1 DUP1 PUSH1 0xA0 SHL SUB SWAP2 DUP3 PUSH1 0x2 DUP3 ADD SLOAD AND CALLER SUB PUSH2 0x75A JUMPI DUP5 PUSH1 0x0 MSTORE PUSH1 0x4 DUP5 MSTORE PUSH2 0x4A4 PUSH1 0x40 PUSH1 0x0 KECCAK256 SLOAD DUP4 LT PUSH2 0x2503 JUMP JUMPDEST DUP5 PUSH1 0x0 MSTORE PUSH1 0x4 DUP5 MSTORE PUSH2 0x4BA DUP3 PUSH1 0x40 PUSH1 0x0 KECCAK256 PUSH2 0x2362 JUMP JUMPDEST POP SWAP3 PUSH1 0x2 DUP5 ADD DUP1 SLOAD PUSH1 0xFF DUP2 AND ISZERO PUSH2 0x715 JUMPI PUSH1 0xFF DUP2 PUSH1 0x8 SHR AND PUSH2 0x6D0 JUMPI PUSH2 0x100 SWAP1 PUSH2 0xFF00 NOT AND OR SWAP1 SSTORE DUP6 PUSH1 0x0 MSTORE PUSH1 0x3 DUP6 MSTORE PUSH1 0x40 PUSH1 0x0 KECCAK256 PUSH2 0x500 PUSH1 0x3 DUP7 SLOAD SWAP3 ADD SWAP2 DUP3 SLOAD PUSH2 0x24F6 JUMP JUMPDEST SWAP1 SSTORE DUP4 SLOAD SWAP2 PUSH2 0x51F PUSH2 0x2710 PUSH2 0x517 PUSH1 0x8 SLOAD DUP7 PUSH2 0x2455 JUMP JUMPDEST DIV DUP1 SWAP5 PUSH2 0x2430 JUMP JUMPDEST SWAP1 DUP3 PUSH1 0x3 DUP3 ADD SLOAD AND DUP1 ISZERO PUSH1 0x0 EQ PUSH2 0x5B6 JUMPI POP PUSH1 0x0 DUP1 DUP1 SWAP4 DUP6 PUSH1 0x1 DUP4 SWAP6 ADD SLOAD AND DUP3 DUP3 ISZERO PUSH2 0x5AD JUMPI JUMPDEST CALL ISZERO PUSH2 0x598 JUMPI PUSH1 0x0 DUP1 DUP1 SWAP4 DUP2 SWAP4 PUSH1 0x9 SLOAD AND DUP3 DUP3 ISZERO PUSH2 0x5A4 JUMPI JUMPDEST CALL ISZERO PUSH2 0x598 JUMPI PUSH32 0xD33FCD27CBFB73A2D9058C968B560CCB306500BF536133802048489ECC7355E9 SWAP3 PUSH1 0x40 SWAP3 JUMPDEST SLOAD SWAP1 DUP4 MLOAD SWAP3 DUP4 MSTORE DUP3 ADD MSTORE LOG2 STOP JUMPDEST PUSH1 0x40 MLOAD RETURNDATASIZE PUSH1 0x0 DUP3 RETURNDATACOPY RETURNDATASIZE SWAP1 REVERT JUMPDEST POP PUSH2 0x8FC PUSH2 0x55F JUMP JUMPDEST POP PUSH2 0x8FC PUSH2 0x546 JUMP JUMPDEST PUSH1 0x1 SWAP2 SWAP1 SWAP2 ADD SLOAD PUSH1 0x40 MLOAD PUSH4 0xA9059CBB PUSH1 0xE0 SHL DUP1 DUP3 MSTORE SWAP2 DUP6 AND PUSH1 0x1 PUSH1 0x1 PUSH1 0xA0 SHL SUB AND PUSH1 0x4 DUP3 ADD MSTORE PUSH1 0x24 DUP2 ADD SWAP4 SWAP1 SWAP4 MSTORE SWAP3 SWAP7 SWAP4 SWAP2 SWAP3 DUP5 DUP5 PUSH1 0x44 DUP2 PUSH1 0x0 DUP7 GAS CALL DUP1 ISZERO PUSH2 0x598 JUMPI PUSH2 0x640 SWAP9 PUSH2 0x612 PUSH1 0x0 SWAP3 DUP9 SWAP8 DUP5 SWAP2 PUSH2 0x6B3 JUMPI JUMPDEST POP PUSH2 0x2468 JUMP JUMPDEST PUSH1 0x9 SLOAD PUSH1 0x40 MLOAD SWAP4 DUP5 MSTORE AND PUSH1 0x1 PUSH1 0x1 PUSH1 0xA0 SHL SUB AND PUSH1 0x4 DUP4 ADD MSTORE PUSH1 0x24 DUP3 ADD SWAP4 SWAP1 SWAP4 MSTORE SWAP7 DUP8 SWAP3 DUP4 SWAP2 DUP3 SWAP1 PUSH1 0x44 DUP3 ADD SWAP1 JUMP JUMPDEST SUB SWAP3 GAS CALL SWAP3 DUP4 ISZERO PUSH2 0x598 JUMPI PUSH2 0x681 PUSH1 0x40 SWAP5 PUSH32 0xD33FCD27CBFB73A2D9058C968B560CCB306500BF536133802048489ECC7355E9 SWAP7 PUSH1 0x0 SWAP2 PUSH2 0x686 JUMPI JUMPDEST POP PUSH2 0x24B4 JUMP JUMPDEST PUSH2 0x58B JUMP JUMPDEST PUSH2 0x6A6 SWAP2 POP DUP5 RETURNDATASIZE DUP7 GT PUSH2 0x6AC JUMPI JUMPDEST PUSH2 0x69E DUP2 DUP4 PUSH2 0x2156 JUMP JUMPDEST DUP2 ADD SWAP1 PUSH2 0x243D JUMP JUMPDEST DUP9 PUSH2 0x67B JUMP JUMPDEST POP RETURNDATASIZE PUSH2 0x694 JUMP JUMPDEST PUSH2 0x6CA SWAP2 POP DUP9 RETURNDATASIZE DUP11 GT PUSH2 0x6AC JUMPI PUSH2 0x69E DUP2 DUP4 PUSH2 0x2156 JUMP JUMPDEST DUP14 PUSH2 0x60C JUMP JUMPDEST PUSH1 0x40 MLOAD PUSH3 0x461BCD PUSH1 0xE5 SHL DUP2 MSTORE PUSH1 0x4 DUP2 ADD DUP9 SWAP1 MSTORE PUSH1 0x1A PUSH1 0x24 DUP3 ADD MSTORE PUSH32 0x4D696C6573746F6E6520616C72656164792072656C6561736564000000000000 PUSH1 0x44 DUP3 ADD MSTORE PUSH1 0x64 SWAP1 REVERT JUMPDEST PUSH1 0x40 MLOAD PUSH3 0x461BCD PUSH1 0xE5 SHL DUP2 MSTORE PUSH1 0x4 DUP2 ADD DUP9 SWAP1 MSTORE PUSH1 0x17 PUSH1 0x24 DUP3 ADD MSTORE PUSH32 0x4D696C6573746F6E65206E6F7420636F6D706C65746564000000000000000000 PUSH1 0x44 DUP3 ADD MSTORE PUSH1 0x64 SWAP1 REVERT JUMPDEST PUSH1 0x40 MLOAD PUSH3 0x461BCD PUSH1 0xE5 SHL DUP2 MSTORE PUSH1 0x4 DUP2 ADD DUP6 SWAP1 MSTORE PUSH1 0x22 PUSH1 0x24 DUP3 ADD MSTORE PUSH32 0x4F6E6C7920636C69656E742063616E2072656C65617365206D696C6573746F6E PUSH1 0x44 DUP3 ADD MSTORE PUSH2 0x6573 PUSH1 0xF0 SHL PUSH1 0x64 DUP3 ADD MSTORE PUSH1 0x84 SWAP1 REVERT JUMPDEST CALLVALUE PUSH2 0x1D2 JUMPI PUSH1 0x20 CALLDATASIZE PUSH1 0x3 NOT ADD SLT PUSH2 0x1D2 JUMPI PUSH1 0x4 CALLDATALOAD PUSH1 0x0 DUP2 DUP2 MSTORE PUSH1 0x2 PUSH1 0x20 MSTORE PUSH1 0x40 SWAP1 KECCAK256 PUSH1 0x1 DUP2 ADD SLOAD PUSH1 0x1 PUSH1 0x1 PUSH1 0xA0 SHL SUB AND CALLER SUB PUSH2 0x881 JUMPI PUSH1 0x8 ADD DUP1 SLOAD PUSH1 0xFF DUP2 AND PUSH1 0x4 DUP2 LT ISZERO PUSH2 0x86B JUMPI PUSH2 0x826 JUMPI PUSH1 0xFF NOT AND PUSH1 0x2 OR SWAP1 SSTORE PUSH32 0x2E9842040508F80E6420769A8673529EB3AF5B952F53AF83D9C9D3432DA78046 PUSH1 0x0 DUP1 LOG2 STOP JUMPDEST PUSH1 0x40 MLOAD PUSH3 0x461BCD PUSH1 0xE5 SHL DUP2 MSTORE PUSH1 0x20 PUSH1 0x4 DUP3 ADD MSTORE PUSH1 0x1A PUSH1 0x24 DUP3 ADD MSTORE PUSH32 0x43616E6E6F742063616E63656C207061696420696E766F696365000000000000 PUSH1 0x44 DUP3 ADD MSTORE PUSH1 0x64 SWAP1 REVERT JUMPDEST PUSH4 0x4E487B71 PUSH1 0xE0 SHL PUSH1 0x0 MSTORE PUSH1 0x21 PUSH1 0x4 MSTORE PUSH1 0x24 PUSH1 0x0 REVERT JUMPDEST PUSH1 0x40 MLOAD PUSH3 0x461BCD PUSH1 0xE5 SHL DUP2 MSTORE PUSH1 0x20 PUSH1 0x4 DUP3 ADD MSTORE PUSH1 0x16 PUSH1 0x24 DUP3 ADD MSTORE PUSH22 0x13DB9B1E481A5CDCDD595C8818D85B8818D85B98D95B PUSH1 0x52 SHL PUSH1 0x44 DUP3 ADD MSTORE PUSH1 0x64 SWAP1 REVERT JUMPDEST CALLVALUE PUSH2 0x1D2 JUMPI PUSH1 0x40 CALLDATASIZE PUSH1 0x3 NOT ADD SLT PUSH2 0x1D2 JUMPI PUSH2 0x8D8 PUSH2 0x20EF JUMP JUMPDEST PUSH1 0x1 PUSH1 0x1 PUSH1 0xA0 SHL SUB AND PUSH1 0x0 SWAP1 DUP2 MSTORE PUSH1 0x6 PUSH1 0x20 MSTORE PUSH1 0x40 SWAP1 KECCAK256 DUP1 SLOAD PUSH1 0x24 CALLDATALOAD SWAP2 SWAP1 DUP3 LT ISZERO PUSH2 0x1D2 JUMPI PUSH1 0x20 SWAP2 PUSH2 0x909 SWAP2 PUSH2 0x2105 JUMP JUMPDEST SWAP1 SLOAD PUSH1 0x40 MLOAD SWAP2 PUSH1 0x3 SHL SHR DUP2 MSTORE RETURN JUMPDEST CALLVALUE PUSH2 0x1D2 JUMPI PUSH1 0x0 CALLDATASIZE PUSH1 0x3 NOT ADD SLT PUSH2 0x1D2 JUMPI PUSH1 0x20 PUSH1 0x8 SLOAD PUSH1 0x40 MLOAD SWAP1 DUP2 MSTORE RETURN JUMPDEST PUSH1 0x20 DUP1 PUSH1 0x3 NOT CALLDATASIZE ADD SLT PUSH2 0x1D2 JUMPI PUSH1 0x4 CALLDATALOAD SWAP1 PUSH1 0x1 SWAP2 PUSH1 0x2 DUP4 SLOAD EQ PUSH2 0xE9A JUMPI PUSH1 0x2 DUP4 SSTORE DUP1 PUSH1 0x0 MSTORE PUSH1 0x2 DUP3 MSTORE PUSH1 0x40 PUSH1 0x0 KECCAK256 DUP1 SLOAD ISZERO PUSH2 0xE5C JUMPI PUSH1 0x8 DUP2 ADD SWAP3 PUSH1 0xFF DUP5 SLOAD AND PUSH1 0x4 DUP2 LT ISZERO PUSH2 0x86B JUMPI PUSH2 0xE22 JUMPI PUSH1 0x2 DUP3 ADD DUP1 SLOAD PUSH1 0x1 PUSH1 0x1 PUSH1 0xA0 SHL SUB SWAP1 DUP2 AND CALLER SUB PUSH2 0xDE7 JUMPI PUSH1 0x4 DUP5 ADD SWAP4 DUP5 SLOAD SWAP5 PUSH2 0x9B0 PUSH1 0x5 DUP4 ADD SWAP7 DUP8 SLOAD SWAP1 PUSH2 0x2430 JUMP JUMPDEST SWAP8 DUP4 PUSH1 0x3 DUP5 ADD SLOAD AND DUP1 ISZERO PUSH1 0x0 EQ PUSH2 0xC28 JUMPI POP DUP9 CALLVALUE LT PUSH2 0xBEC JUMPI DUP9 DUP11 PUSH1 0xFF DUP4 SLOAD PUSH1 0x8 SHR AND ISZERO PUSH2 0xB86 JUMPI JUMPDEST POP CALLVALUE GT PUSH2 0xB53 JUMPI JUMPDEST PUSH2 0x9EC DUP10 DUP9 SLOAD PUSH2 0x24F6 JUMP JUMPDEST DUP1 SWAP8 SSTORE DUP10 PUSH1 0xFF NOT DUP3 SLOAD AND OR SWAP1 SSTORE SLOAD DUP1 SWAP6 LT ISZERO DUP1 PUSH2 0xB46 JUMPI JUMPDEST PUSH2 0xA3C JUMPI JUMPDEST POP POP POP PUSH32 0xA6ABFDA59E12FA300D17E1AA76BD3233EAF23EE4FEB4B02B6516AD1D60BE8400 SWAP2 POP PUSH1 0x40 MLOAD SWAP4 DUP5 MSTORE CALLER SWAP4 LOG3 DUP1 SSTORE STOP JUMPDEST DUP4 SWAP1 DUP3 PUSH1 0xA SLOAD AND DUP4 DUP11 DUP4 ADD SLOAD AND PUSH1 0x0 DUP10 PUSH2 0xA90 DUP8 DUP10 SLOAD AND SWAP6 PUSH1 0x40 MLOAD SWAP12 DUP13 SWAP8 DUP9 SWAP7 DUP8 SWAP6 PUSH4 0x5C6B8FCB PUSH1 0xE0 SHL DUP8 MSTORE PUSH1 0x4 DUP8 ADD MSTORE PUSH1 0x24 DUP7 ADD MSTORE PUSH1 0x44 DUP6 ADD MSTORE PUSH1 0x64 DUP5 ADD MSTORE PUSH1 0xA0 PUSH1 0x84 DUP5 ADD MSTORE PUSH1 0x7 PUSH1 0xA4 DUP5 ADD SWAP2 ADD PUSH2 0x229E JUMP JUMPDEST SUB SWAP3 GAS CALL SWAP2 DUP3 PUSH1 0x0 SWAP4 PUSH2 0xAF7 JUMPI JUMPDEST PUSH32 0xA6ABFDA59E12FA300D17E1AA76BD3233EAF23EE4FEB4B02B6516AD1D60BE8400 SWAP6 POP ISZERO PUSH2 0xA09 JUMPI SLOAD AND SWAP1 DUP5 PUSH32 0xDDBF9D9B2B8EC52D81EBDD4358971424E6DCFD1343B0F03B2DCEB9C85C168E35 PUSH1 0x0 DUP1 LOG4 DUP6 DUP1 DUP1 PUSH2 0xA09 JUMP JUMPDEST SWAP3 POP DUP4 DUP6 DUP2 RETURNDATASIZE DUP4 GT PUSH2 0xB3F JUMPI JUMPDEST PUSH2 0xB0E DUP2 DUP4 PUSH2 0x2156 JUMP JUMPDEST DUP2 ADD SUB SLT PUSH2 0x1D2 JUMPI PUSH32 0xA6ABFDA59E12FA300D17E1AA76BD3233EAF23EE4FEB4B02B6516AD1D60BE8400 SWAP5 MLOAD SWAP3 PUSH2 0xA9E JUMP JUMPDEST POP RETURNDATASIZE PUSH2 0xB04 JUMP JUMPDEST POP DUP2 PUSH1 0xA SLOAD AND ISZERO ISZERO PUSH2 0xA04 JUMP JUMPDEST PUSH1 0x0 DUP1 DUP1 DUP1 PUSH2 0xB62 DUP14 CALLVALUE PUSH2 0x2430 JUMP JUMPDEST DUP2 DUP2 ISZERO PUSH2 0xB7D JUMPI JUMPDEST CALLER SWAP1 CALL PUSH2 0x9E1 JUMPI PUSH1 0x40 MLOAD RETURNDATASIZE PUSH1 0x0 DUP3 RETURNDATACOPY RETURNDATASIZE SWAP1 REVERT JUMPDEST POP PUSH2 0x8FC PUSH2 0xB6A JUMP JUMPDEST PUSH1 0x0 DUP1 DUP1 DUP1 SWAP4 DUP10 PUSH2 0xBA7 PUSH2 0x2710 PUSH2 0xB9F PUSH1 0x8 SLOAD DUP11 PUSH2 0x2455 JUMP JUMPDEST DIV DUP1 SWAP9 PUSH2 0x2430 JUMP JUMPDEST SWAP2 DUP11 ADD SLOAD AND DUP3 DUP3 ISZERO PUSH2 0xBE3 JUMPI JUMPDEST CALL ISZERO PUSH2 0x598 JUMPI PUSH1 0x0 DUP1 DUP1 DUP1 SWAP4 DUP9 PUSH1 0x9 SLOAD AND DUP3 DUP3 ISZERO PUSH2 0xBDA JUMPI JUMPDEST CALL ISZERO PUSH2 0x598 JUMPI DUP9 DUP11 PUSH2 0x9D9 JUMP JUMPDEST POP PUSH2 0x8FC PUSH2 0xBCD JUMP JUMPDEST POP PUSH2 0x8FC PUSH2 0xBB4 JUMP JUMPDEST PUSH1 0x40 MLOAD PUSH3 0x461BCD PUSH1 0xE5 SHL DUP2 MSTORE PUSH1 0x4 DUP2 ADD DUP8 SWAP1 MSTORE PUSH1 0x14 PUSH1 0x24 DUP3 ADD MSTORE PUSH20 0x125B9CDD59999A58DA595B9D081C185E5B595B9D PUSH1 0x62 SHL PUSH1 0x44 DUP3 ADD MSTORE PUSH1 0x64 SWAP1 REVERT JUMPDEST PUSH1 0x40 MLOAD PUSH4 0x23B872DD PUSH1 0xE0 SHL DUP2 MSTORE CALLER PUSH1 0x4 DUP3 ADD MSTORE ADDRESS PUSH1 0x24 DUP3 ADD MSTORE PUSH1 0x44 DUP2 ADD DUP12 SWAP1 MSTORE DUP8 DUP2 PUSH1 0x64 DUP2 PUSH1 0x0 DUP7 GAS CALL SWAP1 DUP2 ISZERO PUSH2 0x598 JUMPI PUSH1 0x0 SWAP2 PUSH2 0xDCA JUMPI JUMPDEST POP ISZERO PUSH2 0xD8D JUMPI DUP11 DUP11 PUSH1 0xFF DUP5 SLOAD PUSH1 0x8 SHR AND ISZERO PUSH2 0xC7F JUMPI JUMPDEST POP POP POP PUSH2 0x9E1 JUMP JUMPDEST PUSH2 0xCD8 SWAP3 DUP10 DUP9 PUSH2 0xC9F PUSH2 0x2710 PUSH2 0xC97 PUSH1 0x8 SLOAD DUP8 PUSH2 0x2455 JUMP JUMPDEST DIV DUP1 SWAP6 PUSH2 0x2430 JUMP JUMPDEST SWAP5 DUP10 ADD SLOAD PUSH1 0x40 MLOAD PUSH4 0xA9059CBB PUSH1 0xE0 SHL DUP1 DUP3 MSTORE SWAP3 SWAP1 SWAP2 AND PUSH1 0x1 PUSH1 0x1 PUSH1 0xA0 SHL SUB AND PUSH1 0x4 DUP3 ADD MSTORE PUSH1 0x24 DUP2 ADD SWAP6 SWAP1 SWAP6 MSTORE SWAP4 SWAP5 DUP6 SWAP1 DUP2 SWAP1 PUSH1 0x44 DUP3 ADD SWAP1 JUMP JUMPDEST SUB DUP2 PUSH1 0x0 DUP6 GAS CALL SWAP3 DUP4 ISZERO PUSH2 0x598 JUMPI PUSH2 0xCFC DUP12 SWAP5 PUSH2 0xD30 SWAP7 PUSH1 0x0 SWAP2 PUSH2 0xD70 JUMPI POP PUSH2 0x2468 JUMP JUMPDEST PUSH1 0x9 SLOAD PUSH1 0x40 MLOAD SWAP2 DUP3 MSTORE DUP10 AND PUSH1 0x1 PUSH1 0x1 PUSH1 0xA0 SHL SUB AND PUSH1 0x4 DUP3 ADD MSTORE PUSH1 0x24 DUP2 ADD SWAP3 SWAP1 SWAP3 MSTORE SWAP1 SWAP3 DUP4 SWAP2 SWAP1 DUP3 SWAP1 PUSH1 0x0 SWAP1 DUP3 SWAP1 PUSH1 0x44 DUP3 ADD SWAP1 JUMP JUMPDEST SUB SWAP3 GAS CALL DUP1 ISZERO PUSH2 0x598 JUMPI PUSH2 0xD4B SWAP2 PUSH1 0x0 SWAP2 PUSH2 0xD53 JUMPI POP PUSH2 0x24B4 JUMP JUMPDEST DUP11 DUP11 DUP11 PUSH2 0xC77 JUMP JUMPDEST PUSH2 0xD6A SWAP2 POP DUP9 RETURNDATASIZE DUP11 GT PUSH2 0x6AC JUMPI PUSH2 0x69E DUP2 DUP4 PUSH2 0x2156 JUMP JUMPDEST DUP13 PUSH2 0x67B JUMP JUMPDEST PUSH2 0xD87 SWAP2 POP DUP7 RETURNDATASIZE DUP9 GT PUSH2 0x6AC JUMPI PUSH2 0x69E DUP2 DUP4 PUSH2 0x2156 JUMP JUMPDEST CODESIZE PUSH2 0x60C JUMP JUMPDEST PUSH1 0x40 MLOAD PUSH3 0x461BCD PUSH1 0xE5 SHL DUP2 MSTORE PUSH1 0x4 DUP2 ADD DUP9 SWAP1 MSTORE PUSH1 0x15 PUSH1 0x24 DUP3 ADD MSTORE PUSH21 0x151BDAD95B881D1C985B9CD9995C8819985A5B1959 PUSH1 0x5A SHL PUSH1 0x44 DUP3 ADD MSTORE PUSH1 0x64 SWAP1 REVERT JUMPDEST PUSH2 0xDE1 SWAP2 POP DUP9 RETURNDATASIZE DUP11 GT PUSH2 0x6AC JUMPI PUSH2 0x69E DUP2 DUP4 PUSH2 0x2156 JUMP JUMPDEST DUP13 PUSH2 0xC61 JUMP JUMPDEST PUSH1 0x40 MLOAD PUSH3 0x461BCD PUSH1 0xE5 SHL DUP2 MSTORE PUSH1 0x4 DUP2 ADD DUP5 SWAP1 MSTORE PUSH1 0x13 PUSH1 0x24 DUP3 ADD MSTORE PUSH19 0x4F6E6C7920636C69656E742063616E20706179 PUSH1 0x68 SHL PUSH1 0x44 DUP3 ADD MSTORE PUSH1 0x64 SWAP1 REVERT JUMPDEST PUSH1 0x64 SWAP1 PUSH1 0x40 MLOAD SWAP1 PUSH3 0x461BCD PUSH1 0xE5 SHL DUP3 MSTORE PUSH1 0x4 DUP3 ADD MSTORE PUSH1 0x13 PUSH1 0x24 DUP3 ADD MSTORE PUSH19 0x496E766F696365206E6F742070617961626C65 PUSH1 0x68 SHL PUSH1 0x44 DUP3 ADD MSTORE REVERT JUMPDEST PUSH1 0x40 MLOAD PUSH3 0x461BCD PUSH1 0xE5 SHL DUP2 MSTORE PUSH1 0x4 DUP2 ADD DUP5 SWAP1 MSTORE PUSH1 0x16 PUSH1 0x24 DUP3 ADD MSTORE PUSH22 0x125B9D9BDA58D948191BD95CC81B9BDD08195E1A5CDD PUSH1 0x52 SHL PUSH1 0x44 DUP3 ADD MSTORE PUSH1 0x64 SWAP1 REVERT JUMPDEST PUSH1 0x40 MLOAD PUSH3 0x461BCD PUSH1 0xE5 SHL DUP2 MSTORE PUSH1 0x4 DUP2 ADD DUP4 SWAP1 MSTORE PUSH1 0x1F PUSH1 0x24 DUP3 ADD MSTORE PUSH32 0x5265656E7472616E637947756172643A207265656E7472616E742063616C6C00 PUSH1 0x44 DUP3 ADD MSTORE PUSH1 0x64 SWAP1 REVERT JUMPDEST CALLVALUE PUSH2 0x1D2 JUMPI PUSH2 0xEED CALLDATASIZE PUSH2 0x234C JUMP JUMPDEST SWAP1 PUSH1 0x0 MSTORE PUSH1 0x4 PUSH1 0x20 MSTORE PUSH1 0x40 PUSH1 0x0 KECCAK256 SWAP1 DUP2 SLOAD DUP2 LT ISZERO PUSH2 0x1D2 JUMPI PUSH2 0xF0E SWAP2 PUSH2 0x2362 JUMP JUMPDEST POP DUP1 SLOAD PUSH1 0x2 PUSH1 0x40 MLOAD SWAP3 PUSH2 0xF2F DUP5 PUSH2 0xF28 DUP2 PUSH1 0x1 DUP6 ADD PUSH2 0x229E JUMP JUMPDEST SUB DUP6 PUSH2 0x2156 JUMP JUMPDEST ADD SLOAD PUSH1 0xFF PUSH2 0xF4F PUSH1 0x40 MLOAD SWAP5 DUP6 SWAP5 DUP6 MSTORE PUSH1 0x80 PUSH1 0x20 DUP7 ADD MSTORE PUSH1 0x80 DUP6 ADD SWAP1 PUSH2 0x2217 JUMP JUMPDEST SWAP2 DUP2 DUP2 AND ISZERO ISZERO PUSH1 0x40 DUP6 ADD MSTORE PUSH1 0x8 SHR AND ISZERO ISZERO PUSH1 0x60 DUP4 ADD MSTORE SUB SWAP1 RETURN JUMPDEST CALLVALUE PUSH2 0x1D2 JUMPI PUSH1 0x20 CALLDATASIZE PUSH1 0x3 NOT ADD SLT PUSH2 0x1D2 JUMPI PUSH1 0x4 CALLDATALOAD PUSH1 0x0 DUP2 DUP2 MSTORE PUSH1 0x2 PUSH1 0x20 MSTORE PUSH1 0x40 SWAP1 KECCAK256 PUSH1 0x1 DUP2 ADD SLOAD CALLER PUSH1 0x1 PUSH1 0x1 PUSH1 0xA0 SHL SUB SWAP2 DUP3 AND EQ SWAP2 DUP3 ISZERO PUSH2 0x1027 JUMPI JUMPDEST POP POP ISZERO PUSH2 0xFF1 JUMPI DUP1 PUSH1 0x0 MSTORE PUSH1 0x2 PUSH1 0x20 MSTORE PUSH1 0x8 PUSH1 0x40 PUSH1 0x0 KECCAK256 ADD PUSH1 0x3 PUSH1 0xFF NOT DUP3 SLOAD AND OR SWAP1 SSTORE CALLER SWAP1 PUSH32 0x84A477DF8A28A4276CA6DEE4458A06C3015F30C477D9C949EDE4E13FF8A552B4 PUSH1 0x0 DUP1 LOG3 STOP JUMPDEST PUSH1 0x40 MLOAD PUSH3 0x461BCD PUSH1 0xE5 SHL DUP2 MSTORE PUSH1 0x20 PUSH1 0x4 DUP3 ADD MSTORE PUSH1 0xE PUSH1 0x24 DUP3 ADD MSTORE PUSH14 0x139BDD08185D5D1A1BDC9A5E9959 PUSH1 0x92 SHL PUSH1 0x44 DUP3 ADD MSTORE PUSH1 0x64 SWAP1 REVERT JUMPDEST PUSH1 0x2 SWAP2 SWAP3 POP ADD SLOAD AND CALLER EQ DUP3 DUP1 PUSH2 0xFA5 JUMP JUMPDEST CALLVALUE PUSH2 0x1D2 JUMPI PUSH1 0x40 CALLDATASIZE PUSH1 0x3 NOT ADD SLT PUSH2 0x1D2 JUMPI PUSH1 0x24 CALLDATALOAD PUSH8 0xFFFFFFFFFFFFFFFF DUP2 GT PUSH2 0x1D2 JUMPI CALLDATASIZE PUSH1 0x23 DUP3 ADD SLT ISZERO PUSH2 0x1D2 JUMPI DUP1 PUSH1 0x4 ADD CALLDATALOAD PUSH2 0x1074 DUP2 PUSH2 0x2334 JUMP JUMPDEST SWAP2 PUSH2 0x1082 PUSH1 0x40 MLOAD SWAP4 DUP5 PUSH2 0x2156 JUMP JUMPDEST DUP2 DUP4 MSTORE PUSH1 0x24 PUSH1 0x20 DUP5 ADD SWAP3 PUSH1 0x5 SHL DUP3 ADD ADD SWAP1 CALLDATASIZE DUP3 GT PUSH2 0x1D2 JUMPI PUSH1 0x24 DUP2 ADD SWAP3 JUMPDEST DUP3 DUP5 LT PUSH2 0x138B JUMPI PUSH1 0x4 CALLDATALOAD PUSH1 0x0 SWAP1 DUP2 MSTORE PUSH1 0x2 PUSH1 0x20 MSTORE PUSH1 0x40 SWAP1 KECCAK256 PUSH1 0x1 ADD SLOAD DUP6 SWAP1 PUSH1 0x1 PUSH1 0x1 PUSH1 0xA0 SHL SUB AND CALLER SUB PUSH2 0x1346 JUMPI PUSH1 0x4 CALLDATALOAD PUSH1 0x0 MSTORE PUSH1 0x2 PUSH1 0x20 MSTORE PUSH1 0xFF PUSH1 0x8 PUSH1 0x40 PUSH1 0x0 KECCAK256 ADD SLOAD PUSH1 0x8 SHR AND ISZERO PUSH2 0x1301 JUMPI PUSH1 0x0 JUMPDEST DUP2 MLOAD DUP2 LT ISZERO PUSH2 0x12FF JUMPI PUSH1 0x4 CALLDATALOAD PUSH1 0x0 MSTORE PUSH1 0x4 PUSH1 0x20 MSTORE PUSH1 0x40 PUSH1 0x0 KECCAK256 DUP3 MLOAD DUP3 LT ISZERO PUSH2 0x12E9 JUMPI PUSH1 0x20 DUP3 PUSH1 0x5 SHL DUP5 ADD ADD MLOAD SWAP1 DUP1 SLOAD PUSH1 0x1 PUSH1 0x40 SHL DUP2 LT ISZERO PUSH2 0x12BD JUMPI PUSH2 0x1139 SWAP2 PUSH1 0x1 DUP3 ADD DUP2 SSTORE PUSH2 0x2362 JUMP JUMPDEST PUSH2 0x12D3 JUMPI DUP2 MLOAD DUP2 SSTORE PUSH1 0x20 DUP3 ADD MLOAD DUP1 MLOAD SWAP1 PUSH8 0xFFFFFFFFFFFFFFFF DUP3 GT PUSH2 0x12BD JUMPI PUSH2 0x1165 PUSH1 0x1 DUP5 ADD SLOAD PUSH2 0x2264 JUMP JUMPDEST PUSH1 0x1F DUP2 GT PUSH2 0x1276 JUMPI JUMPDEST POP PUSH1 0x20 SWAP1 PUSH1 0x1F DUP4 GT PUSH1 0x1 EQ PUSH2 0x11F9 JUMPI PUSH2 0x11E4 SWAP4 DUP4 PUSH2 0x11E9 SWAP8 SWAP7 SWAP5 PUSH1 0x60 SWAP5 PUSH1 0x2 SWAP5 PUSH1 0x0 SWAP3 PUSH2 0x11EE JUMPI JUMPDEST POP POP DUP2 PUSH1 0x1 SHL SWAP2 PUSH1 0x0 NOT SWAP1 PUSH1 0x3 SHL SHR NOT AND OR PUSH1 0x1 DUP3 ADD SSTORE JUMPDEST ADD SWAP2 PUSH2 0x11CC PUSH1 0x40 DUP3 ADD MLOAD ISZERO ISZERO DUP5 SWAP1 PUSH1 0xFF DUP1 NOT DUP4 SLOAD AND SWAP2 ISZERO ISZERO AND OR SWAP1 SSTORE JUMP JUMPDEST ADD MLOAD DUP2 SLOAD PUSH2 0xFF00 NOT AND SWAP1 ISZERO ISZERO PUSH1 0x8 SHL PUSH2 0xFF00 AND OR SWAP1 SSTORE JUMP JUMPDEST PUSH2 0x23D6 JUMP JUMPDEST PUSH2 0x10EF JUMP JUMPDEST ADD MLOAD SWAP1 POP DUP11 DUP1 PUSH2 0x1196 JUMP JUMPDEST SWAP1 PUSH1 0x1 DUP5 ADD PUSH1 0x0 MSTORE PUSH1 0x20 PUSH1 0x0 KECCAK256 SWAP2 PUSH1 0x0 JUMPDEST PUSH1 0x1F NOT DUP6 AND DUP2 LT PUSH2 0x125E JUMPI POP SWAP4 PUSH1 0x1 DUP5 PUSH1 0x60 SWAP5 PUSH1 0x2 SWAP5 PUSH2 0x11E4 SWAP9 PUSH2 0x11E9 SWAP12 SWAP11 SWAP9 PUSH1 0x1F NOT DUP2 AND LT PUSH2 0x1245 JUMPI JUMPDEST POP POP POP DUP2 SHL ADD PUSH1 0x1 DUP3 ADD SSTORE PUSH2 0x11AE JUMP JUMPDEST ADD MLOAD PUSH1 0x0 NOT PUSH1 0xF8 DUP5 PUSH1 0x3 SHL AND SHR NOT AND SWAP1 SSTORE DUP11 DUP1 DUP1 PUSH2 0x1235 JUMP JUMPDEST SWAP2 SWAP3 PUSH1 0x20 PUSH1 0x1 DUP2 SWAP3 DUP7 DUP6 ADD MLOAD DUP2 SSTORE ADD SWAP5 ADD SWAP3 ADD PUSH2 0x120A JUMP JUMPDEST PUSH1 0x1 DUP5 ADD PUSH1 0x0 MSTORE PUSH1 0x20 PUSH1 0x0 KECCAK256 PUSH1 0x1F DUP5 ADD PUSH1 0x5 SHR DUP2 ADD PUSH1 0x20 DUP6 LT PUSH2 0x12B6 JUMPI JUMPDEST PUSH1 0x1F DUP4 ADD PUSH1 0x5 SHR DUP3 ADD DUP2 LT PUSH2 0x12AA JUMPI POP POP PUSH2 0x116E JUMP JUMPDEST PUSH1 0x0 DUP2 SSTORE PUSH1 0x1 ADD PUSH2 0x1294 JUMP JUMPDEST POP DUP1 PUSH2 0x1294 JUMP JUMPDEST PUSH4 0x4E487B71 PUSH1 0xE0 SHL PUSH1 0x0 MSTORE PUSH1 0x41 PUSH1 0x4 MSTORE PUSH1 0x24 PUSH1 0x0 REVERT JUMPDEST PUSH4 0x4E487B71 PUSH1 0xE0 SHL PUSH1 0x0 MSTORE PUSH1 0x0 PUSH1 0x4 MSTORE PUSH1 0x24 PUSH1 0x0 REVERT JUMPDEST PUSH4 0x4E487B71 PUSH1 0xE0 SHL PUSH1 0x0 MSTORE PUSH1 0x32 PUSH1 0x4 MSTORE PUSH1 0x24 PUSH1 0x0 REVERT JUMPDEST STOP JUMPDEST PUSH1 0x40 MLOAD PUSH3 0x461BCD PUSH1 0xE5 SHL DUP2 MSTORE PUSH1 0x20 PUSH1 0x4 DUP3 ADD MSTORE PUSH1 0x17 PUSH1 0x24 DUP3 ADD MSTORE PUSH32 0x496E766F696365206D7573742075736520657363726F77000000000000000000 PUSH1 0x44 DUP3 ADD MSTORE PUSH1 0x64 SWAP1 REVERT JUMPDEST PUSH1 0x40 MLOAD PUSH3 0x461BCD PUSH1 0xE5 SHL DUP2 MSTORE PUSH1 0x20 PUSH1 0x4 DUP3 ADD MSTORE PUSH1 0x1E PUSH1 0x24 DUP3 ADD MSTORE PUSH32 0x4F6E6C79206973737565722063616E20616464206D696C6573746F6E65730000 PUSH1 0x44 DUP3 ADD MSTORE PUSH1 0x64 SWAP1 REVERT JUMPDEST DUP4 CALLDATALOAD PUSH8 0xFFFFFFFFFFFFFFFF DUP2 GT PUSH2 0x1D2 JUMPI DUP3 ADD SWAP1 PUSH1 0x80 PUSH1 0x23 NOT DUP4 CALLDATASIZE SUB ADD SLT PUSH2 0x1D2 JUMPI PUSH1 0x40 MLOAD SWAP1 PUSH2 0x13BA DUP3 PUSH2 0x213A JUMP JUMPDEST PUSH1 0x24 DUP4 ADD CALLDATALOAD DUP3 MSTORE PUSH1 0x44 DUP4 ADD CALLDATALOAD SWAP2 PUSH8 0xFFFFFFFFFFFFFFFF DUP4 GT PUSH2 0x1D2 JUMPI PUSH2 0x140A PUSH1 0x84 PUSH1 0x20 SWAP6 PUSH2 0x13EF DUP8 SWAP7 PUSH1 0x24 CALLDATASIZE SWAP2 DUP5 ADD ADD PUSH2 0x2178 JUMP JUMPDEST DUP7 DUP6 ADD MSTORE PUSH2 0x13FF PUSH1 0x64 DUP3 ADD PUSH2 0x21CF JUMP JUMPDEST PUSH1 0x40 DUP6 ADD MSTORE ADD PUSH2 0x21CF JUMP JUMPDEST PUSH1 0x60 DUP3 ADD MSTORE DUP2 MSTORE ADD SWAP4 ADD SWAP3 PUSH2 0x10A0 JUMP JUMPDEST CALLVALUE PUSH2 0x1D2 JUMPI PUSH1 0x0 CALLDATASIZE PUSH1 0x3 NOT ADD SLT PUSH2 0x1D2 JUMPI PUSH1 0x0 SLOAD PUSH1 0x40 MLOAD PUSH1 0x1 PUSH1 0x1 PUSH1 0xA0 SHL SUB SWAP1 SWAP2 AND DUP2 MSTORE PUSH1 0x20 SWAP1 RETURN JUMPDEST CALLVALUE PUSH2 0x1D2 JUMPI PUSH1 0x20 CALLDATASIZE PUSH1 0x3 NOT ADD SLT PUSH2 0x1D2 JUMPI PUSH1 0x4 CALLDATALOAD PUSH1 0x0 MSTORE PUSH1 0x3 PUSH1 0x20 MSTORE PUSH1 0x80 PUSH1 0x40 PUSH1 0x0 KECCAK256 DUP1 SLOAD SWAP1 PUSH1 0xFF PUSH1 0x1 DUP3 ADD SLOAD AND SWAP1 PUSH1 0x3 PUSH1 0x2 DUP3 ADD SLOAD SWAP2 ADD SLOAD SWAP2 PUSH1 0x40 MLOAD SWAP4 DUP5 MSTORE ISZERO ISZERO PUSH1 0x20 DUP5 ADD MSTORE PUSH1 0x40 DUP4 ADD MSTORE PUSH1 0x60 DUP3 ADD MSTORE RETURN JUMPDEST CALLVALUE PUSH2 0x1D2 JUMPI PUSH1 0x0 CALLDATASIZE PUSH1 0x3 NOT ADD SLT PUSH2 0x1D2 JUMPI PUSH2 0x14AF PUSH2 0x237E JUMP JUMPDEST PUSH1 0x0 DUP1 SLOAD PUSH1 0x1 PUSH1 0x1 PUSH1 0xA0 SHL SUB NOT DUP2 AND DUP3 SSTORE PUSH1 0x1 PUSH1 0x1 PUSH1 0xA0 SHL SUB AND PUSH32 0x8BE0079C531659141344CD1FD0A4F28419497F9722A3DAAFE3B4186F6B6457E0 DUP3 DUP1 LOG3 STOP JUMPDEST CALLVALUE PUSH2 0x1D2 JUMPI PUSH1 0x0 CALLDATASIZE PUSH1 0x3 NOT ADD SLT PUSH2 0x1D2 JUMPI PUSH1 0x20 PUSH1 0x7 SLOAD PUSH1 0x40 MLOAD SWAP1 DUP2 MSTORE RETURN JUMPDEST CALLVALUE PUSH2 0x1D2 JUMPI PUSH1 0x20 DUP1 PUSH1 0x3 NOT CALLDATASIZE ADD SLT PUSH2 0x1D2 JUMPI PUSH2 0x1527 PUSH2 0x20EF JUMP JUMPDEST SWAP1 PUSH2 0x1530 PUSH2 0x237E JUMP JUMPDEST PUSH1 0x1 PUSH1 0x1 PUSH1 0xA0 SHL SUB SWAP2 DUP3 AND DUP1 PUSH2 0x1566 JUMPI POP POP PUSH1 0x0 DUP1 DUP1 DUP1 SWAP4 DUP2 SLOAD AND SELFBALANCE SWAP1 DUP3 DUP3 ISZERO PUSH2 0x155D JUMPI JUMPDEST CALL ISZERO PUSH2 0x598 JUMPI STOP JUMPDEST POP PUSH2 0x8FC PUSH2 0x1555 JUMP JUMPDEST SWAP1 SWAP2 PUSH1 0x0 SLOAD AND PUSH1 0x40 MLOAD SWAP1 PUSH4 0x70A08231 PUSH1 0xE0 SHL DUP3 MSTORE ADDRESS PUSH1 0x4 DUP4 ADD MSTORE DUP4 DUP3 PUSH1 0x24 DUP2 DUP7 GAS STATICCALL SWAP1 DUP2 ISZERO PUSH2 0x598 JUMPI DUP5 SWAP3 PUSH1 0x0 SWAP3 PUSH2 0x15F1 JUMPI JUMPDEST POP PUSH1 0x40 MLOAD PUSH4 0xA9059CBB PUSH1 0xE0 SHL DUP2 MSTORE PUSH1 0x1 PUSH1 0x1 PUSH1 0xA0 SHL SUB SWAP1 SWAP2 AND PUSH1 0x4 DUP3 ADD MSTORE PUSH1 0x24 DUP2 ADD SWAP2 SWAP1 SWAP2 MSTORE SWAP2 DUP3 SWAP1 DUP2 PUSH1 0x0 DUP2 PUSH1 0x44 DUP2 ADD JUMPDEST SUB SWAP3 GAS CALL DUP1 ISZERO PUSH2 0x598 JUMPI PUSH2 0x15DB JUMPI STOP JUMPDEST DUP2 PUSH2 0x12FF SWAP3 SWAP1 RETURNDATASIZE LT PUSH2 0x6AC JUMPI PUSH2 0x69E DUP2 DUP4 PUSH2 0x2156 JUMP JUMPDEST DUP4 DUP2 SWAP5 SWAP3 SWAP4 POP RETURNDATASIZE DUP4 GT PUSH2 0x161D JUMPI JUMPDEST PUSH2 0x1609 DUP2 DUP4 PUSH2 0x2156 JUMP JUMPDEST DUP2 ADD SUB SLT PUSH2 0x1D2 JUMPI SWAP1 MLOAD DUP4 SWAP2 PUSH2 0x15CB PUSH2 0x1599 JUMP JUMPDEST POP RETURNDATASIZE PUSH2 0x15FF JUMP JUMPDEST CALLVALUE PUSH2 0x1D2 JUMPI PUSH1 0x20 CALLDATASIZE PUSH1 0x3 NOT ADD SLT PUSH2 0x1D2 JUMPI PUSH1 0x4 CALLDATALOAD PUSH1 0x0 MSTORE PUSH1 0x2 PUSH1 0x20 MSTORE PUSH1 0x40 PUSH1 0x0 KECCAK256 DUP1 SLOAD PUSH1 0x1 DUP1 PUSH1 0xA0 SHL SUB SWAP2 DUP3 PUSH1 0x1 DUP3 ADD SLOAD AND SWAP3 PUSH1 0xFF PUSH2 0x16D8 DUP3 PUSH1 0x2 DUP6 ADD SLOAD AND SWAP3 PUSH1 0x3 DUP6 ADD SLOAD AND PUSH1 0x4 DUP6 ADD SLOAD PUSH1 0x5 DUP7 ADD SLOAD PUSH1 0x6 DUP8 ADD SLOAD SWAP2 PUSH1 0x40 MLOAD SWAP4 PUSH2 0x1696 DUP6 PUSH2 0x168F DUP2 PUSH1 0x7 DUP14 ADD PUSH2 0x229E JUMP JUMPDEST SUB DUP7 PUSH2 0x2156 JUMP JUMPDEST PUSH1 0x9 PUSH1 0x8 DUP11 ADD SLOAD SWAP10 ADD SLOAD SWAP8 PUSH1 0x40 MLOAD SWAP12 DUP13 SWAP12 DUP13 MSTORE PUSH1 0x20 DUP13 ADD MSTORE PUSH1 0x40 DUP12 ADD MSTORE PUSH1 0x60 DUP11 ADD MSTORE PUSH1 0x80 DUP10 ADD MSTORE PUSH1 0xA0 DUP9 ADD MSTORE PUSH1 0xC0 DUP8 ADD MSTORE PUSH2 0x160 DUP1 PUSH1 0xE0 DUP9 ADD MSTORE DUP7 ADD SWAP1 PUSH2 0x2217 JUMP JUMPDEST SWAP3 PUSH2 0x16E9 PUSH2 0x100 DUP7 ADD DUP4 DUP4 AND PUSH2 0x2257 JUMP JUMPDEST PUSH1 0x8 SHR AND ISZERO ISZERO PUSH2 0x120 DUP5 ADD MSTORE PUSH2 0x140 DUP4 ADD MSTORE SUB SWAP1 RETURN JUMPDEST CALLVALUE PUSH2 0x1D2 JUMPI PUSH1 0x0 CALLDATASIZE PUSH1 0x3 NOT ADD SLT PUSH2 0x1D2 JUMPI PUSH1 0xA SLOAD PUSH1 0x40 MLOAD PUSH1 0x1 PUSH1 0x1 PUSH1 0xA0 SHL SUB SWAP1 SWAP2 AND DUP2 MSTORE PUSH1 0x20 SWAP1 RETURN JUMPDEST CALLVALUE PUSH2 0x1D2 JUMPI PUSH1 0x0 CALLDATASIZE PUSH1 0x3 NOT ADD SLT PUSH2 0x1D2 JUMPI PUSH1 0x9 SLOAD PUSH1 0x40 MLOAD PUSH1 0x1 PUSH1 0x1 PUSH1 0xA0 SHL SUB SWAP1 SWAP2 AND DUP2 MSTORE PUSH1 0x20 SWAP1 RETURN JUMPDEST CALLVALUE PUSH2 0x1D2 JUMPI PUSH1 0x20 CALLDATASIZE PUSH1 0x3 NOT ADD SLT PUSH2 0x1D2 JUMPI PUSH1 0x0 PUSH2 0x140 PUSH1 0x40 MLOAD PUSH2 0x1773 DUP2 PUSH2 0x211D JUMP JUMPDEST DUP3 DUP2 MSTORE DUP3 PUSH1 0x20 DUP3 ADD MSTORE DUP3 PUSH1 0x40 DUP3 ADD MSTORE DUP3 PUSH1 0x60 DUP3 ADD MSTORE DUP3 PUSH1 0x80 DUP3 ADD MSTORE DUP3 PUSH1 0xA0 DUP3 ADD MSTORE DUP3 PUSH1 0xC0 DUP3 ADD MSTORE PUSH1 0x60 PUSH1 0xE0 DUP3 ADD MSTORE DUP3 PUSH2 0x100 DUP3 ADD MSTORE DUP3 PUSH2 0x120 DUP3 ADD MSTORE ADD MSTORE PUSH1 0x4 CALLDATALOAD PUSH1 0x0 MSTORE PUSH1 0x2 PUSH1 0x20 MSTORE PUSH1 0x40 PUSH1 0x0 KECCAK256 PUSH1 0x40 MLOAD SWAP1 PUSH2 0x17CE DUP3 PUSH2 0x211D JUMP JUMPDEST DUP1 SLOAD DUP3 MSTORE PUSH1 0x1 DUP2 ADD SLOAD PUSH1 0x1 PUSH1 0x1 PUSH1 0xA0 SHL SUB SWAP1 DUP2 AND PUSH1 0x20 DUP5 ADD MSTORE PUSH1 0x2 DUP3 ADD SLOAD DUP2 AND PUSH1 0x40 DUP1 DUP6 ADD SWAP2 SWAP1 SWAP2 MSTORE PUSH1 0x3 DUP4 ADD SLOAD SWAP1 SWAP2 AND PUSH1 0x60 DUP5 ADD MSTORE PUSH1 0x4 DUP3 ADD SLOAD PUSH1 0x80 DUP5 ADD MSTORE PUSH1 0x5 DUP3 ADD SLOAD PUSH1 0xA0 DUP5 ADD MSTORE PUSH1 0x6 DUP3 ADD SLOAD PUSH1 0xC0 DUP5 ADD MSTORE MLOAD PUSH2 0x183B DUP2 PUSH2 0x1834 DUP2 PUSH1 0x7 DUP7 ADD PUSH2 0x229E JUMP JUMPDEST SUB DUP3 PUSH2 0x2156 JUMP JUMPDEST PUSH1 0xE0 DUP4 ADD MSTORE PUSH1 0x8 DUP2 ADD SLOAD SWAP1 PUSH1 0x4 PUSH1 0xFF DUP4 AND LT ISZERO PUSH2 0x86B JUMPI PUSH1 0xFF DUP3 DUP2 PUSH1 0x9 SWAP5 AND PUSH2 0x100 DUP7 ADD MSTORE PUSH1 0x8 SHR AND ISZERO ISZERO PUSH2 0x120 DUP5 ADD MSTORE ADD SLOAD PUSH2 0x140 DUP3 ADD MSTORE PUSH1 0x40 MLOAD DUP1 SWAP2 PUSH1 0x20 DUP3 MSTORE DUP1 MLOAD PUSH1 0x20 DUP4 ADD MSTORE PUSH1 0x1 DUP1 PUSH1 0xA0 SHL SUB PUSH1 0x20 DUP3 ADD MLOAD AND PUSH1 0x40 DUP4 ADD MSTORE PUSH1 0x1 DUP1 PUSH1 0xA0 SHL SUB PUSH1 0x40 DUP3 ADD MLOAD AND PUSH1 0x60 DUP4 ADD MSTORE PUSH1 0x1 DUP1 PUSH1 0xA0 SHL SUB PUSH1 0x60 DUP3 ADD MLOAD AND PUSH1 0x80 DUP4 ADD MSTORE PUSH1 0x80 DUP2 ADD MLOAD PUSH1 0xA0 DUP4 ADD MSTORE PUSH1 0xA0 DUP2 ADD MLOAD PUSH1 0xC0 DUP4 ADD MSTORE PUSH1 0xC0 DUP2 ADD MLOAD PUSH1 0xE0 DUP4 ADD MSTORE PUSH1 0xE0 DUP2 ADD MLOAD PUSH2 0x140 PUSH2 0x18F9 PUSH2 0x160 SWAP3 DUP4 PUSH2 0x100 DUP8 ADD MSTORE PUSH2 0x180 DUP7 ADD SWAP1 PUSH2 0x2217 JUMP JUMPDEST SWAP3 PUSH2 0x190E PUSH2 0x100 DUP3 ADD MLOAD PUSH2 0x120 DUP8 ADD SWAP1 PUSH2 0x2257 JUMP JUMPDEST PUSH2 0x120 DUP2 ADD MLOAD ISZERO ISZERO DUP3 DUP7 ADD MSTORE ADD MLOAD SWAP1 DUP4 ADD MSTORE SUB SWAP1 RETURN JUMPDEST CALLVALUE PUSH2 0x1D2 JUMPI PUSH1 0x20 DUP1 PUSH1 0x3 NOT CALLDATASIZE ADD SLT PUSH2 0x1D2 JUMPI PUSH1 0x1 PUSH1 0x1 PUSH1 0xA0 SHL SUB PUSH2 0x1946 PUSH2 0x20EF JUMP JUMPDEST AND PUSH1 0x0 MSTORE PUSH1 0x5 DUP2 MSTORE PUSH1 0x40 PUSH1 0x0 KECCAK256 SWAP1 PUSH1 0x40 MLOAD SWAP1 DUP2 DUP2 DUP5 SLOAD SWAP2 DUP3 DUP2 MSTORE ADD SWAP4 PUSH1 0x0 MSTORE DUP2 PUSH1 0x0 KECCAK256 SWAP2 PUSH1 0x0 SWAP1 JUMPDEST DUP3 DUP3 LT PUSH2 0x1995 JUMPI PUSH2 0x1991 DUP6 PUSH2 0x1985 DUP2 DUP10 SUB DUP3 PUSH2 0x2156 JUMP JUMPDEST PUSH1 0x40 MLOAD SWAP2 DUP3 SWAP2 DUP3 PUSH2 0x21DC JUMP JUMPDEST SUB SWAP1 RETURN JUMPDEST DUP4 SLOAD DUP7 MSTORE SWAP5 DUP6 ADD SWAP5 PUSH1 0x1 SWAP4 DUP5 ADD SWAP4 SWAP1 SWAP2 ADD SWAP1 PUSH2 0x196E JUMP JUMPDEST CALLVALUE PUSH2 0x1D2 JUMPI PUSH1 0x20 DUP1 PUSH1 0x3 NOT CALLDATASIZE ADD SLT PUSH2 0x1D2 JUMPI PUSH1 0x4 CALLDATALOAD PUSH1 0x0 MSTORE PUSH1 0x4 DUP2 MSTORE PUSH1 0x40 PUSH1 0x0 KECCAK256 SWAP1 DUP2 SLOAD SWAP2 PUSH2 0x19DA DUP4 PUSH2 0x2334 JUMP JUMPDEST SWAP3 PUSH2 0x19E8 PUSH1 0x40 MLOAD SWAP5 DUP6 PUSH2 0x2156 JUMP JUMPDEST DUP1 DUP5 MSTORE DUP3 DUP5 ADD DUP1 SWAP3 PUSH1 0x0 MSTORE DUP4 PUSH1 0x0 KECCAK256 PUSH1 0x0 SWAP2 JUMPDEST DUP4 DUP4 LT PUSH2 0x1A8D JUMPI POP POP POP POP PUSH1 0x40 MLOAD SWAP2 DUP1 DUP4 ADD SWAP4 DUP2 DUP5 MSTORE MLOAD DUP1 SWAP5 MSTORE PUSH1 0x40 DUP4 ADD SWAP4 PUSH1 0x40 DUP2 PUSH1 0x5 SHL DUP6 ADD ADD SWAP3 SWAP2 PUSH1 0x0 SWAP6 JUMPDEST DUP3 DUP8 LT PUSH2 0x1A36 JUMPI DUP6 DUP6 SUB DUP7 RETURN JUMPDEST SWAP1 SWAP2 SWAP3 SWAP4 DUP3 DUP1 PUSH1 0x1 SWAP3 PUSH1 0x3F NOT DUP10 DUP3 SUB ADD DUP6 MSTORE DUP8 MLOAD SWAP1 DUP2 MLOAD DUP2 MSTORE PUSH2 0x1A65 DUP4 DUP4 ADD MLOAD PUSH1 0x80 DUP1 DUP7 DUP6 ADD MSTORE DUP4 ADD SWAP1 PUSH2 0x2217 JUMP JUMPDEST SWAP2 PUSH1 0x40 DUP2 ADD MLOAD ISZERO ISZERO PUSH1 0x40 DUP4 ADD MSTORE PUSH1 0x60 DUP1 SWAP2 ADD MLOAD ISZERO ISZERO SWAP2 ADD MSTORE SWAP7 ADD SWAP3 ADD SWAP7 ADD SWAP6 SWAP3 SWAP2 SWAP1 SWAP3 PUSH2 0x1A29 JUMP JUMPDEST PUSH1 0x3 DUP7 PUSH1 0x1 SWAP3 PUSH1 0x40 SWAP10 SWAP9 SWAP10 MLOAD PUSH2 0x1AA2 DUP2 PUSH2 0x213A JUMP JUMPDEST DUP6 SLOAD DUP2 MSTORE PUSH1 0x40 MLOAD PUSH2 0x1AB9 DUP2 PUSH2 0x1834 DUP2 DUP10 DUP12 ADD PUSH2 0x229E JUMP JUMPDEST DUP4 DUP3 ADD MSTORE PUSH1 0x2 DUP7 ADD SLOAD PUSH1 0xFF SWAP1 DUP2 DUP2 AND ISZERO ISZERO PUSH1 0x40 DUP5 ADD MSTORE PUSH1 0x8 SHR AND ISZERO ISZERO PUSH1 0x60 DUP3 ADD MSTORE DUP2 MSTORE ADD SWAP3 ADD SWAP3 ADD SWAP2 SWAP1 SWAP6 SWAP5 SWAP6 PUSH2 0x19FB JUMP JUMPDEST CALLVALUE PUSH2 0x1D2 JUMPI PUSH1 0x20 DUP1 PUSH1 0x3 NOT CALLDATASIZE ADD SLT PUSH2 0x1D2 JUMPI PUSH1 0x1 PUSH1 0x1 PUSH1 0xA0 SHL SUB PUSH2 0x1B0D PUSH2 0x20EF JUMP JUMPDEST AND PUSH1 0x0 MSTORE PUSH1 0x6 DUP2 MSTORE PUSH1 0x40 PUSH1 0x0 KECCAK256 SWAP1 PUSH1 0x40 MLOAD SWAP1 DUP2 DUP2 DUP5 SLOAD SWAP2 DUP3 DUP2 MSTORE ADD SWAP4 PUSH1 0x0 MSTORE DUP2 PUSH1 0x0 KECCAK256 SWAP2 PUSH1 0x0 SWAP1 JUMPDEST DUP3 DUP3 LT PUSH2 0x1B4C JUMPI PUSH2 0x1991 DUP6 PUSH2 0x1985 DUP2 DUP10 SUB DUP3 PUSH2 0x2156 JUMP JUMPDEST DUP4 SLOAD DUP7 MSTORE SWAP5 DUP6 ADD SWAP5 PUSH1 0x1 SWAP4 DUP5 ADD SWAP4 SWAP1 SWAP2 ADD SWAP1 PUSH2 0x1B35 JUMP JUMPDEST CALLVALUE PUSH2 0x1D2 JUMPI PUSH1 0xC0 CALLDATASIZE PUSH1 0x3 NOT ADD SLT PUSH2 0x1D2 JUMPI PUSH2 0x1B7C PUSH2 0x20EF JUMP JUMPDEST PUSH1 0x24 CALLDATALOAD SWAP1 PUSH1 0x1 PUSH1 0x1 PUSH1 0xA0 SHL SUB DUP3 AND DUP3 SUB PUSH2 0x1D2 JUMPI PUSH1 0x84 CALLDATALOAD PUSH8 0xFFFFFFFFFFFFFFFF DUP2 GT PUSH2 0x1D2 JUMPI PUSH2 0x1BB0 SWAP1 CALLDATASIZE SWAP1 PUSH1 0x4 ADD PUSH2 0x2178 JUMP JUMPDEST SWAP1 PUSH1 0xA4 CALLDATALOAD ISZERO ISZERO PUSH1 0xA4 CALLDATALOAD SUB PUSH2 0x1D2 JUMPI PUSH1 0x1 PUSH1 0x1 PUSH1 0xA0 SHL SUB DUP2 AND ISZERO PUSH2 0x2000 JUMPI PUSH1 0x44 CALLDATALOAD ISZERO PUSH2 0x1FBB JUMPI TIMESTAMP PUSH1 0x64 CALLDATALOAD GT ISZERO PUSH2 0x1F76 JUMPI PUSH1 0x7 SLOAD SWAP2 PUSH2 0x1BEC DUP4 PUSH2 0x23D6 JUMP JUMPDEST PUSH1 0x7 SSTORE PUSH1 0x40 MLOAD SWAP4 PUSH2 0x1BFC DUP6 PUSH2 0x211D JUMP JUMPDEST DUP4 DUP6 MSTORE CALLER PUSH1 0x20 DUP7 ADD MSTORE PUSH1 0x1 DUP1 PUSH1 0xA0 SHL SUB DUP4 AND PUSH1 0x40 DUP7 ADD MSTORE PUSH1 0x1 DUP1 PUSH1 0xA0 SHL SUB AND PUSH1 0x60 DUP6 ADD MSTORE PUSH1 0x44 CALLDATALOAD PUSH1 0x80 DUP6 ADD MSTORE PUSH1 0x0 PUSH1 0xA0 DUP6 ADD MSTORE PUSH1 0x64 CALLDATALOAD PUSH1 0xC0 DUP6 ADD MSTORE DUP1 PUSH1 0xE0 DUP6 ADD MSTORE PUSH1 0x0 PUSH2 0x100 DUP6 ADD MSTORE PUSH1 0xA4 CALLDATALOAD ISZERO ISZERO PUSH2 0x120 DUP6 ADD MSTORE TIMESTAMP PUSH2 0x140 DUP6 ADD MSTORE DUP3 PUSH1 0x0 MSTORE PUSH1 0x2 PUSH1 0x20 MSTORE PUSH1 0x40 PUSH1 0x0 KECCAK256 DUP5 MLOAD DUP2 SSTORE PUSH1 0x1 DUP2 ADD PUSH1 0x1 DUP1 PUSH1 0xA0 SHL SUB PUSH1 0x20 DUP8 ADD MLOAD AND SWAP1 PUSH1 0x1 PUSH1 0x1 PUSH1 0x60 SHL SUB PUSH1 0xA0 SHL SWAP2 DUP3 DUP3 SLOAD AND OR SWAP1 SSTORE PUSH1 0x2 DUP3 ADD PUSH1 0x1 DUP1 PUSH1 0xA0 SHL SUB PUSH1 0x40 DUP9 ADD MLOAD AND DUP3 DUP3 SLOAD AND OR SWAP1 SSTORE PUSH1 0x3 DUP3 ADD SWAP1 PUSH1 0x1 DUP1 PUSH1 0xA0 SHL SUB PUSH1 0x60 DUP9 ADD MLOAD AND SWAP1 DUP3 SLOAD AND OR SWAP1 SSTORE PUSH1 0x80 DUP6 ADD MLOAD PUSH1 0x4 DUP3 ADD SSTORE PUSH1 0xA0 DUP6 ADD MLOAD PUSH1 0x5 DUP3 ADD SSTORE PUSH1 0xC0 DUP6 ADD MLOAD PUSH1 0x6 DUP3 ADD SSTORE PUSH1 0xE0 DUP6 ADD MLOAD DUP1 MLOAD SWAP1 PUSH8 0xFFFFFFFFFFFFFFFF DUP3 GT PUSH2 0x12BD JUMPI DUP2 SWAP1 PUSH2 0x1D03 PUSH1 0x7 DUP6 ADD SLOAD PUSH2 0x2264 JUMP JUMPDEST PUSH1 0x1F DUP2 GT PUSH2 0x1F23 JUMPI JUMPDEST POP PUSH1 0x20 SWAP1 PUSH1 0x1F DUP4 GT PUSH1 0x1 EQ PUSH2 0x1EB6 JUMPI PUSH1 0x0 SWAP3 PUSH2 0x1EAB JUMPI JUMPDEST POP POP DUP2 PUSH1 0x1 SHL SWAP2 PUSH1 0x0 NOT SWAP1 PUSH1 0x3 SHL SHR NOT AND OR PUSH1 0x7 DUP3 ADD SSTORE JUMPDEST PUSH2 0x100 DUP6 ADD MLOAD PUSH1 0x8 DUP3 ADD PUSH1 0x4 DUP3 LT ISZERO PUSH2 0x86B JUMPI DUP1 SLOAD PUSH2 0x120 DUP9 ADD MLOAD PUSH2 0xFF00 SWAP1 ISZERO ISZERO PUSH1 0x8 SHL AND PUSH1 0xFF SWAP4 SWAP1 SWAP4 AND PUSH2 0xFFFF NOT SWAP1 SWAP2 AND OR SWAP2 SWAP1 SWAP2 OR SWAP1 SSTORE PUSH1 0x20 SWAP5 PUSH1 0x9 SWAP1 PUSH2 0x140 ADD MLOAD SWAP2 ADD SSTORE CALLER PUSH1 0x0 MSTORE PUSH1 0x5 DUP5 MSTORE PUSH2 0x1D98 DUP4 PUSH1 0x40 PUSH1 0x0 KECCAK256 PUSH2 0x23FB JUMP JUMPDEST PUSH1 0x1 DUP1 PUSH1 0xA0 SHL SUB DUP3 AND PUSH1 0x0 MSTORE PUSH1 0x6 DUP5 MSTORE PUSH2 0x1DB6 DUP4 PUSH1 0x40 PUSH1 0x0 KECCAK256 PUSH2 0x23FB JUMP JUMPDEST PUSH1 0xA4 CALLDATALOAD PUSH2 0x1E1B JUMPI JUMPDEST DUP3 PUSH32 0xC42CC137A7BF06606C7B59FC43C02DD34F7A86E23E35DE7139FEDCA54B8616D0 PUSH1 0x40 MLOAD SWAP4 PUSH1 0x44 CALLDATALOAD DUP6 MSTORE PUSH1 0x64 CALLDATALOAD DUP8 DUP7 ADD MSTORE PUSH1 0x60 PUSH1 0x40 DUP7 ADD MSTORE PUSH1 0x1 DUP1 PUSH1 0xA0 SHL SUB AND SWAP4 DUP1 PUSH2 0x1E10 CALLER SWAP6 PUSH1 0x60 DUP4 ADD SWAP1 PUSH2 0x2217 JUMP JUMPDEST SUB SWAP1 LOG4 PUSH1 0x40 MLOAD SWAP1 DUP2 MSTORE RETURN JUMPDEST PUSH1 0x40 MLOAD PUSH2 0x1E27 DUP2 PUSH2 0x213A JUMP JUMPDEST DUP4 DUP2 MSTORE PUSH1 0x3 DUP6 DUP3 ADD PUSH1 0x1 DUP2 MSTORE PUSH1 0x40 DUP4 ADD PUSH1 0x44 CALLDATALOAD DUP2 MSTORE PUSH2 0x1E70 PUSH1 0x60 DUP6 ADD SWAP3 PUSH1 0x0 DUP5 MSTORE DUP9 PUSH1 0x0 MSTORE DUP5 DUP11 MSTORE PUSH1 0x40 PUSH1 0x0 KECCAK256 SWAP6 MLOAD DUP7 SSTORE MLOAD ISZERO ISZERO PUSH1 0x1 DUP7 ADD SWAP1 PUSH1 0xFF DUP1 NOT DUP4 SLOAD AND SWAP2 ISZERO ISZERO AND OR SWAP1 SSTORE JUMP JUMPDEST MLOAD PUSH1 0x2 DUP5 ADD SSTORE MLOAD SWAP2 ADD SSTORE DUP3 PUSH32 0xE3C2E3E893E063A23DDC6FAAB3E3C024F0524199C4AF658EEF25BB4EB35E390D DUP6 PUSH1 0x40 MLOAD PUSH1 0x44 CALLDATALOAD DUP2 MSTORE LOG2 PUSH2 0x1DBE JUMP JUMPDEST ADD MLOAD SWAP1 POP DUP8 DUP1 PUSH2 0x1D23 JUMP JUMPDEST PUSH1 0x7 DUP6 ADD PUSH1 0x0 SWAP1 DUP2 MSTORE PUSH1 0x20 DUP2 KECCAK256 SWAP4 POP PUSH1 0x1F NOT DUP6 AND SWAP1 JUMPDEST DUP2 DUP2 LT PUSH2 0x1F0B JUMPI POP SWAP1 DUP5 PUSH1 0x1 SWAP6 SWAP5 SWAP4 SWAP3 LT PUSH2 0x1EF2 JUMPI JUMPDEST POP POP POP DUP2 SHL ADD PUSH1 0x7 DUP3 ADD SSTORE PUSH2 0x1D3B JUMP JUMPDEST ADD MLOAD PUSH1 0x0 NOT PUSH1 0xF8 DUP5 PUSH1 0x3 SHL AND SHR NOT AND SWAP1 SSTORE DUP8 DUP1 DUP1 PUSH2 0x1EE2 JUMP JUMPDEST SWAP3 SWAP4 PUSH1 0x20 PUSH1 0x1 DUP2 SWAP3 DUP8 DUP7 ADD MLOAD DUP2 SSTORE ADD SWAP6 ADD SWAP4 ADD PUSH2 0x1ECC JUMP JUMPDEST SWAP1 SWAP2 POP PUSH1 0x7 DUP5 ADD PUSH1 0x0 MSTORE PUSH1 0x20 PUSH1 0x0 KECCAK256 PUSH1 0x1F DUP5 ADD PUSH1 0x5 SHR DUP2 ADD PUSH1 0x20 DUP6 LT PUSH2 0x1F6F JUMPI JUMPDEST SWAP1 DUP5 SWAP4 SWAP3 SWAP2 JUMPDEST PUSH1 0x1F DUP4 ADD PUSH1 0x5 SHR DUP3 ADD DUP2 LT PUSH2 0x1F60 JUMPI POP POP PUSH2 0x1D0C JUMP JUMPDEST PUSH1 0x0 DUP2 SSTORE DUP6 SWAP5 POP PUSH1 0x1 ADD PUSH2 0x1F4A JUMP JUMPDEST POP DUP1 PUSH2 0x1F44 JUMP JUMPDEST PUSH1 0x40 MLOAD PUSH3 0x461BCD PUSH1 0xE5 SHL DUP2 MSTORE PUSH1 0x20 PUSH1 0x4 DUP3 ADD MSTORE PUSH1 0x1E PUSH1 0x24 DUP3 ADD MSTORE PUSH32 0x4475652064617465206D75737420626520696E20746865206675747572650000 PUSH1 0x44 DUP3 ADD MSTORE PUSH1 0x64 SWAP1 REVERT JUMPDEST PUSH1 0x40 MLOAD PUSH3 0x461BCD PUSH1 0xE5 SHL DUP2 MSTORE PUSH1 0x20 PUSH1 0x4 DUP3 ADD MSTORE PUSH1 0x1D PUSH1 0x24 DUP3 ADD MSTORE PUSH32 0x416D6F756E74206D7573742062652067726561746572207468616E2030000000 PUSH1 0x44 DUP3 ADD MSTORE PUSH1 0x64 SWAP1 REVERT JUMPDEST PUSH1 0x40 MLOAD PUSH3 0x461BCD PUSH1 0xE5 SHL DUP2 MSTORE PUSH1 0x20 PUSH1 0x4 DUP3 ADD MSTORE PUSH1 0x16 PUSH1 0x24 DUP3 ADD MSTORE PUSH22 0x496E76616C696420636C69656E742061646472657373 PUSH1 0x50 SHL PUSH1 0x44 DUP3 ADD MSTORE PUSH1 0x64 SWAP1 REVERT JUMPDEST CALLVALUE PUSH2 0x1D2 JUMPI PUSH1 0x20 CALLDATASIZE PUSH1 0x3 NOT ADD SLT PUSH2 0x1D2 JUMPI PUSH1 0x4 CALLDATALOAD PUSH2 0x205A PUSH2 0x237E JUMP JUMPDEST PUSH2 0x3E8 DUP2 GT PUSH2 0x2068 JUMPI PUSH1 0x8 SSTORE STOP JUMPDEST PUSH1 0x40 MLOAD PUSH3 0x461BCD PUSH1 0xE5 SHL DUP2 MSTORE PUSH1 0x20 PUSH1 0x4 DUP3 ADD MSTORE PUSH1 0x15 PUSH1 0x24 DUP3 ADD MSTORE PUSH21 0x4665652063616E6E6F742065786365656420313025 PUSH1 0x58 SHL PUSH1 0x44 DUP3 ADD MSTORE PUSH1 0x64 SWAP1 REVERT JUMPDEST CALLVALUE PUSH2 0x1D2 JUMPI PUSH1 0x40 CALLDATASIZE PUSH1 0x3 NOT ADD SLT PUSH2 0x1D2 JUMPI PUSH2 0x20BE PUSH2 0x20EF JUMP JUMPDEST PUSH1 0x1 PUSH1 0x1 PUSH1 0xA0 SHL SUB AND PUSH1 0x0 SWAP1 DUP2 MSTORE PUSH1 0x5 PUSH1 0x20 MSTORE PUSH1 0x40 SWAP1 KECCAK256 DUP1 SLOAD PUSH1 0x24 CALLDATALOAD SWAP2 SWAP1 DUP3 LT ISZERO PUSH2 0x1D2 JUMPI PUSH1 0x20 SWAP2 PUSH2 0x909 SWAP2 PUSH2 0x2105 JUMP JUMPDEST PUSH1 0x4 CALLDATALOAD SWAP1 PUSH1 0x1 PUSH1 0x1 PUSH1 0xA0 SHL SUB DUP3 AND DUP3 SUB PUSH2 0x1D2 JUMPI JUMP JUMPDEST DUP1 SLOAD DUP3 LT ISZERO PUSH2 0x12E9 JUMPI PUSH1 0x0 MSTORE PUSH1 0x20 PUSH1 0x0 KECCAK256 ADD SWAP1 PUSH1 0x0 SWAP1 JUMP JUMPDEST PUSH2 0x160 DUP2 ADD SWAP1 DUP2 LT PUSH8 0xFFFFFFFFFFFFFFFF DUP3 GT OR PUSH2 0x12BD JUMPI PUSH1 0x40 MSTORE JUMP JUMPDEST PUSH1 0x80 DUP2 ADD SWAP1 DUP2 LT PUSH8 0xFFFFFFFFFFFFFFFF DUP3 GT OR PUSH2 0x12BD JUMPI PUSH1 0x40 MSTORE JUMP JUMPDEST SWAP1 PUSH1 0x1F DUP1 NOT SWAP2 ADD AND DUP2 ADD SWAP1 DUP2 LT PUSH8 0xFFFFFFFFFFFFFFFF DUP3 GT OR PUSH2 0x12BD JUMPI PUSH1 0x40 MSTORE JUMP JUMPDEST DUP2 PUSH1 0x1F DUP3 ADD SLT ISZERO PUSH2 0x1D2 JUMPI DUP1 CALLDATALOAD SWAP1 PUSH8 0xFFFFFFFFFFFFFFFF DUP3 GT PUSH2 0x12BD JUMPI PUSH1 0x40 MLOAD SWAP3 PUSH2 0x21AD PUSH1 0x1F DUP5 ADD PUSH1 0x1F NOT AND PUSH1 0x20 ADD DUP6 PUSH2 0x2156 JUMP JUMPDEST DUP3 DUP5 MSTORE PUSH1 0x20 DUP4 DUP4 ADD ADD GT PUSH2 0x1D2 JUMPI DUP2 PUSH1 0x0 SWAP3 PUSH1 0x20 DUP1 SWAP4 ADD DUP4 DUP7 ADD CALLDATACOPY DUP4 ADD ADD MSTORE SWAP1 JUMP JUMPDEST CALLDATALOAD SWAP1 DUP2 ISZERO ISZERO DUP3 SUB PUSH2 0x1D2 JUMPI JUMP JUMPDEST PUSH1 0x20 SWAP1 DUP2 PUSH1 0x40 DUP2 DUP4 ADD SWAP3 DUP3 DUP2 MSTORE DUP6 MLOAD DUP1 SWAP5 MSTORE ADD SWAP4 ADD SWAP2 PUSH1 0x0 JUMPDEST DUP3 DUP2 LT PUSH2 0x2203 JUMPI POP POP POP POP SWAP1 JUMP JUMPDEST DUP4 MLOAD DUP6 MSTORE SWAP4 DUP2 ADD SWAP4 SWAP3 DUP2 ADD SWAP3 PUSH1 0x1 ADD PUSH2 0x21F5 JUMP JUMPDEST SWAP2 SWAP1 DUP3 MLOAD SWAP3 DUP4 DUP3 MSTORE PUSH1 0x0 JUMPDEST DUP5 DUP2 LT PUSH2 0x2243 JUMPI POP POP DUP3 PUSH1 0x0 PUSH1 0x20 DUP1 SWAP5 SWAP6 DUP5 ADD ADD MSTORE PUSH1 0x1F DUP1 NOT SWAP2 ADD AND ADD ADD SWAP1 JUMP JUMPDEST PUSH1 0x20 DUP2 DUP4 ADD DUP2 ADD MLOAD DUP5 DUP4 ADD DUP3 ADD MSTORE ADD PUSH2 0x2222 JUMP JUMPDEST SWAP1 PUSH1 0x4 DUP3 LT ISZERO PUSH2 0x86B JUMPI MSTORE JUMP JUMPDEST SWAP1 PUSH1 0x1 DUP3 DUP2 SHR SWAP3 AND DUP1 ISZERO PUSH2 0x2294 JUMPI JUMPDEST PUSH1 0x20 DUP4 LT EQ PUSH2 0x227E JUMPI JUMP JUMPDEST PUSH4 0x4E487B71 PUSH1 0xE0 SHL PUSH1 0x0 MSTORE PUSH1 0x22 PUSH1 0x4 MSTORE PUSH1 0x24 PUSH1 0x0 REVERT JUMPDEST SWAP2 PUSH1 0x7F AND SWAP2 PUSH2 0x2273 JUMP JUMPDEST SWAP1 PUSH1 0x0 SWAP3 SWAP2 DUP1 SLOAD SWAP2 PUSH2 0x22AF DUP4 PUSH2 0x2264 JUMP JUMPDEST SWAP2 DUP3 DUP3 MSTORE PUSH1 0x1 SWAP4 DUP5 DUP2 AND SWAP1 DUP2 PUSH1 0x0 EQ PUSH2 0x2311 JUMPI POP PUSH1 0x1 EQ PUSH2 0x22D1 JUMPI JUMPDEST POP POP POP POP JUMP JUMPDEST SWAP1 SWAP2 SWAP4 SWAP5 POP PUSH1 0x0 MSTORE PUSH1 0x20 SWAP3 DUP4 PUSH1 0x0 KECCAK256 SWAP3 DUP5 PUSH1 0x0 SWAP5 JUMPDEST DUP4 DUP7 LT PUSH2 0x22FD JUMPI POP POP POP POP ADD ADD SWAP1 CODESIZE DUP1 DUP1 DUP1 PUSH2 0x22CB JUMP JUMPDEST DUP1 SLOAD DUP6 DUP8 ADD DUP4 ADD MSTORE SWAP5 ADD SWAP4 DUP6 SWAP1 DUP3 ADD PUSH2 0x22E6 JUMP JUMPDEST SWAP3 SWAP5 POP POP POP PUSH1 0x20 SWAP4 SWAP5 POP PUSH1 0xFF NOT AND DUP4 DUP4 ADD MSTORE ISZERO ISZERO PUSH1 0x5 SHL ADD ADD SWAP1 CODESIZE DUP1 DUP1 DUP1 PUSH2 0x22CB JUMP JUMPDEST PUSH8 0xFFFFFFFFFFFFFFFF DUP2 GT PUSH2 0x12BD JUMPI PUSH1 0x5 SHL PUSH1 0x20 ADD SWAP1 JUMP JUMPDEST PUSH1 0x40 SWAP1 PUSH1 0x3 NOT ADD SLT PUSH2 0x1D2 JUMPI PUSH1 0x4 CALLDATALOAD SWAP1 PUSH1 0x24 CALLDATALOAD SWAP1 JUMP JUMPDEST DUP1 SLOAD DUP3 LT ISZERO PUSH2 0x12E9 JUMPI PUSH1 0x0 MSTORE PUSH1 0x3 PUSH1 0x20 PUSH1 0x0 KECCAK256 SWAP2 MUL ADD SWAP1 PUSH1 0x0 SWAP1 JUMP JUMPDEST PUSH1 0x0 SLOAD PUSH1 0x1 PUSH1 0x1 PUSH1 0xA0 SHL SUB AND CALLER SUB PUSH2 0x2392 JUMPI JUMP JUMPDEST PUSH1 0x64 PUSH1 0x40 MLOAD PUSH3 0x461BCD PUSH1 0xE5 SHL DUP2 MSTORE PUSH1 0x20 PUSH1 0x4 DUP3 ADD MSTORE PUSH1 0x20 PUSH1 0x24 DUP3 ADD MSTORE PUSH32 0x4F776E61626C653A2063616C6C6572206973206E6F7420746865206F776E6572 PUSH1 0x44 DUP3 ADD MSTORE REVERT JUMPDEST PUSH1 0x0 NOT DUP2 EQ PUSH2 0x23E5 JUMPI PUSH1 0x1 ADD SWAP1 JUMP JUMPDEST PUSH4 0x4E487B71 PUSH1 0xE0 SHL PUSH1 0x0 MSTORE PUSH1 0x11 PUSH1 0x4 MSTORE PUSH1 0x24 PUSH1 0x0 REVERT JUMPDEST DUP1 SLOAD PUSH1 0x1 PUSH1 0x40 SHL DUP2 LT ISZERO PUSH2 0x12BD JUMPI PUSH2 0x2418 SWAP2 PUSH1 0x1 DUP3 ADD DUP2 SSTORE PUSH2 0x2105 JUMP JUMPDEST DUP2 SWAP3 SWAP2 SLOAD SWAP1 PUSH1 0x3 SHL SWAP2 DUP3 SHL SWAP2 PUSH1 0x0 NOT SWAP1 SHL NOT AND OR SWAP1 SSTORE JUMP JUMPDEST SWAP2 SWAP1 DUP3 SUB SWAP2 DUP3 GT PUSH2 0x23E5 JUMPI JUMP JUMPDEST SWAP1 DUP2 PUSH1 0x20 SWAP2 SUB SLT PUSH2 0x1D2 JUMPI MLOAD DUP1 ISZERO ISZERO DUP2 SUB PUSH2 0x1D2 JUMPI SWAP1 JUMP JUMPDEST DUP2 DUP2 MUL SWAP3 SWAP2 DUP2 ISZERO SWAP2 DUP5 DIV EQ OR ISZERO PUSH2 0x23E5 JUMPI JUMP JUMPDEST ISZERO PUSH2 0x246F JUMPI JUMP JUMPDEST PUSH1 0x40 MLOAD PUSH3 0x461BCD PUSH1 0xE5 SHL DUP2 MSTORE PUSH1 0x20 PUSH1 0x4 DUP3 ADD MSTORE PUSH1 0x19 PUSH1 0x24 DUP3 ADD MSTORE PUSH32 0x5472616E7366657220746F20697373756572206661696C656400000000000000 PUSH1 0x44 DUP3 ADD MSTORE PUSH1 0x64 SWAP1 REVERT JUMPDEST ISZERO PUSH2 0x24BB JUMPI JUMP JUMPDEST PUSH1 0x40 MLOAD PUSH3 0x461BCD PUSH1 0xE5 SHL DUP2 MSTORE PUSH1 0x20 PUSH1 0x4 DUP3 ADD MSTORE PUSH1 0x13 PUSH1 0x24 DUP3 ADD MSTORE PUSH19 0x119959481D1C985B9CD9995C8819985A5B1959 PUSH1 0x6A SHL PUSH1 0x44 DUP3 ADD MSTORE PUSH1 0x64 SWAP1 REVERT JUMPDEST SWAP2 SWAP1 DUP3 ADD DUP1 SWAP3 GT PUSH2 0x23E5 JUMPI JUMP JUMPDEST ISZERO PUSH2 0x250A JUMPI JUMP JUMPDEST PUSH1 0x40 MLOAD PUSH3 0x461BCD PUSH1 0xE5 SHL DUP2 MSTORE PUSH1 0x20 PUSH1 0x4 DUP3 ADD MSTORE PUSH1 0x17 PUSH1 0x24 DUP3 ADD MSTORE PUSH32 0x496E76616C6964206D696C6573746F6E6520696E646578000000000000000000 PUSH1 0x44 DUP3 ADD MSTORE PUSH1 0x64 SWAP1 REVERT INVALID LOG2 PUSH5 0x6970667358 0x22 SLT KECCAK256 SELFDESTRUCT CALLVALUE SSTORE 0x4D 0xB9 PUSH18 0xE7AF78BCCC4F2C7C74B7816C1FA8EE5783DB 0xC6 DUP5 SAR PUSH14 0x2850B6EF64736F6C634300081400 CALLER "},"methodIdentifiers":{"addMilestones(uint256,(uint256,string,bool,bool)[])":"a5310eab","cancelInvoice(uint256)":"da9c273d","clientInvoices(address,uint256)":"d5e57ad5","completeMilestone(uint256,uint256)":"f326206b","createInvoice(address,address,uint256,uint256,string,bool)":"192b7f41","emergencyWithdraw(address)":"6ff1c9bc","escrowInvoices(uint256)":"7637e393","feeRecipient()":"46904840","getClientInvoices(address)":"1cb9b2aa","getInvoice(uint256)":"3a23cc0a","getInvoiceMilestones(uint256)":"221604a2","getUserInvoices(address)":"24d3b3e2","invoiceMilestones(uint256,uint256)":"aa12aa62","invoiceNFT()":"4bb6f06d","invoices(uint256)":"4e6d1405","nextInvoiceId()":"6ff2a953","owner()":"8da5cb5b","payInvoice(uint256)":"ac60a6cd","platformFeePercentage()":"cdd78cfc","raiseDispute(uint256)":"a5c1674e","releaseMilestone(uint256,uint256)":"dbaf0910","renounceOwnership()":"715018a6","setFeeRecipient(address)":"e74b981b","setInvoiceNFT(address)":"f939f496","setPlatformFee(uint256)":"12e8e2c3","transferOwnership(address)":"f2fde38b","userInvoices(address,uint256)":"0ad6b0a5"}}}}}