{
  "_format": "hh-sol-artifact-1",
  "contractName": "InvoiceNFT",
  "sourceName": "contracts/InvoiceNFT.sol",
  "abi": [
    {
      "inputs": [],
      "stateMutability": "nonpayable",
      "type": "constructor"
    },
    {
      "anonymous": false,
      "inputs": [
        {
          "indexed": true,
          "internalType": "address",
          "name": "owner",
          "type": "address"
        },
        {
          "indexed": true,
          "internalType": "address",
          "name": "approved",
          "type": "address"
        },
        {
          "indexed": true,
          "internalType": "uint256",
          "name": "tokenId",
          "type": "uint256"
        }
      ],
      "name": "Approval",
      "type": "event"
    },
    {
      "anonymous": false,
      "inputs": [
        {
          "indexed": true,
          "internalType": "address",
          "name": "owner",
          "type": "address"
        },
        {
          "indexed": true,
          "internalType": "address",
          "name": "operator",
          "type": "address"
        },
        {
          "indexed": false,
          "internalType": "bool",
          "name": "approved",
          "type": "bool"
        }
      ],
      "name": "ApprovalForAll",
      "type": "event"
    },
    {
      "anonymous": false,
      "inputs": [
        {
          "indexed": false,
          "internalType": "uint256",
          "name": "_fromTokenId",
          "type": "uint256"
        },
        {
          "indexed": false,
          "internalType": "uint256",
          "name": "_toTokenId",
          "type": "uint256"
        }
      ],
      "name": "BatchMetadataUpdate",
      "type": "event"
    },
    {
      "anonymous": false,
      "inputs": [
        {
          "indexed": false,
          "internalType": "uint256",
          "name": "_tokenId",
          "type": "uint256"
        }
      ],
      "name": "MetadataUpdate",
      "type": "event"
    },
    {
      "anonymous": false,
      "inputs": [
        {
          "indexed": true,
          "internalType": "address",
          "name": "previousOwner",
          "type": "address"
        },
        {
          "indexed": true,
          "internalType": "address",
          "name": "newOwner",
          "type": "address"
        }
      ],
      "name": "OwnershipTransferred",
      "type": "event"
    },
    {
      "anonymous": false,
      "inputs": [
        {
          "indexed": true,
          "internalType": "uint256",
          "name": "tokenId",
          "type": "uint256"
        },
        {
          "indexed": true,
          "internalType": "uint256",
          "name": "invoiceId",
          "type": "uint256"
        },
        {
          "indexed": true,
          "internalType": "address",
          "name": "issuer",
          "type": "address"
        },
        {
          "indexed": false,
          "internalType": "address",
          "name": "client",
          "type": "address"
        },
        {
          "indexed": false,
          "internalType": "uint256",
          "name": "amount",
          "type": "uint256"
        }
      ],
      "name": "ReceiptMinted",
      "type": "event"
    },
    {
      "anonymous": false,
      "inputs": [
        {
          "indexed": true,
          "internalType": "address",
          "name": "from",
          "type": "address"
        },
        {
          "indexed": true,
          "internalType": "address",
          "name": "to",
          "type": "address"
        },
        {
          "indexed": true,
          "internalType": "uint256",
          "name": "tokenId",
          "type": "uint256"
        }
      ],
      "name": "Transfer",
      "type": "event"
    },
    {
      "inputs": [
        {
          "internalType": "address",
          "name": "",
          "type": "address"
        },
        {
          "internalType": "uint256",
          "name": "",
          "type": "uint256"
        }
      ],
      "name": "approve",
      "outputs": [],
      "stateMutability": "pure",
      "type": "function"
    },
    {
      "inputs": [
        {
          "internalType": "address",
          "name": "owner",
          "type": "address"
        }
      ],
      "name": "balanceOf",
      "outputs": [
        {
          "internalType": "uint256",
          "name": "",
          "type": "uint256"
        }
      ],
      "stateMutability": "view",
      "type": "function"
    },
    {
      "inputs": [
        {
          "internalType": "uint256",
          "name": "tokenId",
          "type": "uint256"
        }
      ],
      "name": "getApproved",
      "outputs": [
        {
          "internalType": "address",
          "name": "",
          "type": "address"
        }
      ],
      "stateMutability": "view",
      "type": "function"
    },
    {
      "inputs": [
        {
          "internalType": "uint256",
          "name": "_tokenId",
          "type": "uint256"
        }
      ],
      "name": "getReceiptData",
      "outputs": [
        {
          "components": [
            {
              "internalType": "uint256",
              "name": "invoiceId",
              "type": "uint256"
            },
            {
              "internalType": "address",
              "name": "issuer",
              "type": "address"
            },
            {
              "internalType": "address",
              "name": "client",
              "type": "address"
            },
            {
              "internalType": "uint256",
              "name": "amount",
              "type": "uint256"
            },
            {
              "internalType": "uint256",
              "name": "paidDate",
              "type": "uint256"
            },
            {
              "internalType": "string",
              "name": "description",
              "type": "string"
            },
            {
              "internalType": "bool",
              "name": "exists",
              "type": "bool"
            }
          ],
          "internalType": "struct InvoiceNFT.InvoiceReceipt",
          "name": "",
          "type": "tuple"
        }
      ],
      "stateMutability": "view",
      "type": "function"
    },
    {
      "inputs": [
        {
          "internalType": "address",
          "name": "_user",
          "type": "address"
        }
      ],
      "name": "getUserReceipts",
      "outputs": [
        {
          "internalType": "uint256[]",
          "name": "",
          "type": "uint256[]"
        }
      ],
      "stateMutability": "view",
      "type": "function"
    },
    {
      "inputs": [
        {
          "internalType": "uint256",
          "name": "",
          "type": "uint256"
        }
      ],
      "name": "invoiceToTokenId",
      "outputs": [
        {
          "internalType": "uint256",
          "name": "",
          "type": "uint256"
        }
      ],
      "stateMutability": "view",
      "type": "function"
    },
    {
      "inputs": [
        {
          "internalType": "address",
          "name": "owner",
          "type": "address"
        },
        {
          "internalType": "address",
          "name": "operator",
          "type": "address"
        }
      ],
      "name": "isApprovedForAll",
      "outputs": [
        {
          "internalType": "bool",
          "name": "",
          "type": "bool"
        }
      ],
      "stateMutability": "view",
      "type": "function"
    },
    {
      "inputs": [
        {
          "internalType": "uint256",
          "name": "_invoiceId",
          "type": "uint256"
        },
        {
          "internalType": "address",
          "name": "_issuer",
          "type": "address"
        },
        {
          "internalType": "address",
          "name": "_client",
          "type": "address"
        },
        {
          "internalType": "uint256",
          "name": "_amount",
          "type": "uint256"
        },
        {
          "internalType": "string",
          "name": "_description",
          "type": "string"
        }
      ],
      "name": "mintReceipt",
      "outputs": [
        {
          "internalType": "uint256",
          "name": "",
          "type": "uint256"
        }
      ],
      "stateMutability": "nonpayable",
      "type": "function"
    },
    {
      "inputs": [],
      "name": "name",
      "outputs": [
        {
          "internalType": "string",
          "name": "",
          "type": "string"
        }
      ],
      "stateMutability": "view",
      "type": "function"
    },
    {
      "inputs": [],
      "name": "owner",
      "outputs": [
        {
          "internalType": "address",
          "name": "",
          "type": "address"
        }
      ],
      "stateMutability": "view",
      "type": "function"
    },
    {
      "inputs": [
        {
          "internalType": "uint256",
          "name": "tokenId",
          "type": "uint256"
        }
      ],
      "name": "ownerOf",
      "outputs": [
        {
          "internalType": "address",
          "name": "",
          "type": "address"
        }
      ],
      "stateMutability": "view",
      "type": "function"
    },
    {
      "inputs": [
        {
          "internalType": "uint256",
          "name": "_invoiceId",
          "type": "uint256"
        }
      ],
      "name": "receiptExists",
      "outputs": [
        {
          "internalType": "bool",
          "name": "",
          "type": "bool"
        }
      ],
      "stateMutability": "view",
      "type": "function"
    },
    {
      "inputs": [],
      "name": "renounceOwnership",
      "outputs": [],
      "stateMutability": "nonpayable",
      "type": "function"
    },
    {
      "inputs": [
        {
          "internalType": "address",
          "name": "",
          "type": "address"
        },
        {
          "internalType": "address",
          "name": "",
          "type": "address"
        },
        {
          "internalType": "uint256",
          "name": "",
          "type": "uint256"
        }
      ],
      "name": "safeTransferFrom",
      "outputs": [],
      "stateMutability": "pure",
      "type": "function"
    },
    {
      "inputs": [
        {
          "internalType": "address",
          "name": "",
          "type": "address"
        },
        {
          "internalType": "address",
          "name": "",
          "type": "address"
        },
        {
          "internalType": "uint256",
          "name": "",
          "type": "uint256"
        },
        {
          "internalType": "bytes",
          "name": "",
          "type": "bytes"
        }
      ],
      "name": "safeTransferFrom",
      "outputs": [],
      "stateMutability": "pure",
      "type": "function"
    },
    {
      "inputs": [
        {
          "internalType": "address",
          "name": "",
          "type": "address"
        },
        {
          "internalType": "bool",
          "name": "",
          "type": "bool"
        }
      ],
      "name": "setApprovalForAll",
      "outputs": [],
      "stateMutability": "pure",
      "type": "function"
    },
    {
      "inputs": [
        {
          "internalType": "bytes4",
          "name": "interfaceId",
          "type": "bytes4"
        }
      ],
      "name": "supportsInterface",
      "outputs": [
        {
          "internalType": "bool",
          "name": "",
          "type": "bool"
        }
      ],
      "stateMutability": "view",
      "type": "function"
    },
    {
      "inputs": [],
      "name": "symbol",
      "outputs": [
        {
          "internalType": "string",
          "name": "",
          "type": "string"
        }
      ],
      "stateMutability": "view",
      "type": "function"
    },
    {
      "inputs": [
        {
          "internalType": "uint256",
          "name": "",
          "type": "uint256"
        }
      ],
      "name": "tokenIdToReceipt",
      "outputs": [
        {
          "internalType": "uint256",
          "name": "invoiceId",
          "type": "uint256"
        },
        {
          "internalType": "address",
          "name": "issuer",
          "type": "address"
        },
        {
          "internalType": "address",
          "name": "client",
          "type": "address"
        },
        {
          "internalType": "uint256",
          "name": "amount",
          "type": "uint256"
        },
        {
          "internalType": "uint256",
          "name": "paidDate",
          "type": "uint256"
        },
        {
          "internalType": "string",
          "name": "description",
          "type": "string"
        },
        {
          "internalType": "bool",
          "name": "exists",
          "type": "bool"
        }
      ],
      "stateMutability": "view",
      "type": "function"
    },
    {
      "inputs": [
        {
          "internalType": "uint256",
          "name": "tokenId",
          "type": "uint256"
        }
      ],
      "name": "tokenURI",
      "outputs": [
        {
          "internalType": "string",
          "name": "",
          "type": "string"
        }
      ],
      "stateMutability": "view",
      "type": "function"
    },
    {
      "inputs": [
        {
          "internalType": "address",
          "name": "",
          "type": "address"
        },
        {
          "internalType": "address",
          "name": "",
          "type": "address"
        },
        {
          "internalType": "uint256",
          "name": "",
          "type": "uint256"
        }
      ],
      "name": "transferFrom",
      "outputs": [],
      "stateMutability": "pure",
      "type": "function"
    },
    {
      "inputs": [
        {
          "internalType": "address",
          "name": "newOwner",
          "type": "address"
        }
      ],
      "name": "transferOwnership",
      "outputs": [],
      "stateMutability": "nonpayable",
      "type": "function"
    },
    {
      "inputs": [
        {
          "internalType": "address",
          "name": "",
          "type": "address"
        },
        {
          "internalType": "uint256",
          "name": "",
          "type": "uint256"
        }
      ],
      "name": "userReceipts",
      "outputs": [
        {
          "internalType": "uint256",
          "name": "",
          "type": "uint256"
        }
      ],
      "stateMutability": "view",
      "type": "function"
    }
  ],
  "bytecode": "0x6080346200036a576001600160401b039060408181018381118382101762000354578152601582526020917f467265796120496e766f6963652052656365697074000000000000000000000083820152815193828501858110828211176200035457835260038552622324a960e91b84860152815181811162000354576000948554916001948584811c9416801562000349575b8385101462000335578190601f94858111620002e2575b5083908583116001146200027e57899262000272575b5050600019600383901b1c191690851b1786555b86519283116200025e5783548481811c9116801562000253575b828210146200023f57828111620001f7575b50809183116001146200019057508495829394959262000184575b5050600019600383901b1c191690821b1790555b60078054336001600160a01b03198216811790925591519290916001600160a01b0316907f8be0079c531659141344cd1fd0a4f28419497f9722a3daafe3b4186f6b6457e09080a3612aeb9081620003708239f35b0151905038806200011b565b90601f198316968487528287209287905b898210620001df575050838596979810620001c5575b505050811b0190556200012f565b015160001960f88460031b161c19169055388080620001b7565b808785968294968601518155019501930190620001a1565b8487528187208380860160051c82019284871062000235575b0160051c019085905b8281106200022957505062000100565b88815501859062000219565b9250819262000210565b634e487b7160e01b87526022600452602487fd5b90607f1690620000ee565b634e487b7160e01b86526041600452602486fd5b015190503880620000c0565b898052848a208894509190601f1984168b5b87828210620002cb5750508411620002b1575b505050811b018655620000d4565b015160001960f88460031b161c19169055388080620002a3565b8385015186558b9790950194938401930162000290565b9091508880528389208580850160051c8201928686106200032b575b918991869594930160051c01915b8281106200031c575050620000aa565b8b81558594508991016200030c565b92508192620002fe565b634e487b7160e01b88526022600452602488fd5b93607f169362000093565b634e487b7160e01b600052604160045260246000fd5b600080fdfe608080604052600436101561001357600080fd5b60003560e01c90816301ffc9a714611f415750806306fdde0314611e9e578063081812fc14611e47578063095ea7b314611dd057806323b872dd14611d715780633d18f65214611da25780633fc8abfb14611d7657806342842e0e14611d715780635b982fbc14611cdb5780635c6b8fcb146108135780636352211e146107d457806370a082311461073d578063715018a6146106e05780638da5cb5b146106b757806395d89b41146105d85780639e19bb5914610524578063a039cddf146103e5578063a22cb46514610363578063a843c5fe1461030b578063b88d4fde146102b1578063c87b56dd1461023b578063e985e9c5146101e55763f2fde38b1461011c57600080fd5b346101e05760203660031901126101e05761013561200e565b61013d612245565b6001600160a01b0390811690811561018c57600754826001600160601b0360a01b821617600755167f8be0079c531659141344cd1fd0a4f28419497f9722a3daafe3b4186f6b6457e0600080a3005b60405162461bcd60e51b815260206004820152602660248201527f4f776e61626c653a206e6577206f776e657220697320746865207a65726f206160448201526564647265737360d01b6064820152608490fd5b600080fd5b346101e05760403660031901126101e0576101fe61200e565b610206612024565b9060018060a01b03809116600052600560205260406000209116600052602052602060ff604060002054166040519015158152f35b346101e05760203660031901126101e057600435600081815260026020526040902054610272906001600160a01b0316151561229d565b60005260066020526102ad61028a604060002061211e565b6000604051610298816120c4565b52604051918291602083526020830190611fe9565b0390f35b346101e05760803660031901126101e0576102ca61200e565b506102d3612024565b5060643567ffffffffffffffff81116101e057366023820112156101e0576103059036906024816004013591016121e0565b50612802565b346101e05760403660031901126101e05761032461200e565b6001600160a01b03166000908152600b60205260409020805460243591908210156101e05760209161035591612217565b90546040519160031b1c8152f35b346101e05760403660031901126101e05761037c61200e565b50602435801515036101e05760405162461bcd60e51b815260206004820152602f60248201527f496e766f6963654e46543a20536f756c626f756e6420746f6b656e732063616e60448201526e1b9bdd08189948185c1c1c9bdd9959608a1b6064820152608490fd5b346101e0576020806003193601126101e057600435600060c060405161040a816120a8565b8281528285820152826040820152826060820152826080820152606060a0820152015261045461044f82600052600260205260018060a01b0360406000205416151590565b6124e0565b600052600a815260406000206040519061046d826120a8565b8054825260018101546001600160a01b0390811684840190815260028301548216604085019081526003840154606086019081526004850154608087019081529294610517949093928160ff60066104c76005890161211e565b9760a08c019889520154169760c08a0198151589526040519a8b9a818c5251908b015251166040890152511660608701525160808601525160a08501525160e060c0850152610100840190611fe9565b9051151560e08301520390f35b346101e0576020806003193601126101e0576001600160a01b0361054661200e565b16600052600b8152604060002060405190818382549182815201908192600052846000209060005b868282106105c4578686610584828803836120fc565b604051928392818401908285525180915260408401929160005b8281106105ad57505050500390f35b83518552869550938101939281019260010161059e565b83548552909301926001928301920161056e565b346101e05760003660031901126101e057604051600060018054906105fc8261206e565b808552918181169081156106905750600114610637575b6102ad84610623818603826120fc565b604051918291602083526020830190611fe9565b600081815292507fb10e2d527612073b26eecdfd717e6a320cf44b4afac2b0732d9fcbe2b7fa0cf65b82841061067857505050810160200161062382610613565b80546020858701810191909152909301928101610660565b60ff191660208087019190915292151560051b850190920192506106239150839050610613565b346101e05760003660031901126101e0576007546040516001600160a01b039091168152602090f35b346101e05760003660031901126101e0576106f9612245565b600780546001600160a01b031981169091556000906001600160a01b03167f8be0079c531659141344cd1fd0a4f28419497f9722a3daafe3b4186f6b6457e08280a3005b346101e05760203660031901126101e0576001600160a01b0361075e61200e565b16801561077d5760005260036020526020604060002054604051908152f35b60405162461bcd60e51b815260206004820152602960248201527f4552433732313a2061646472657373207a65726f206973206e6f7420612076616044820152683634b21037bbb732b960b91b6064820152608490fd5b346101e05760203660031901126101e0576004356000526002602052602060018060a01b036040600020541661080b81151561229d565b604051908152f35b346101e05760a03660031901126101e05761082c612024565b6044356001600160a01b03811690036101e05760843567ffffffffffffffff81116101e057366023820112156101e0576108709036906024816004013591016121e0565b610878612245565b6004356000526009602052604060002054611c86576008549060018201600855604051906108a5826120a8565b600435825260018060a01b038416602083015260018060a01b036044351660408301526064356060830152608082019042825260a08301908152600160c084015283600052600a602052604060002091835183556001830160018060a01b036020860151166001600160601b0360a01b8254161790556002830160018060a01b036040860151166001600160601b0360a01b825416179055606084015160038401555160048301555180519067ffffffffffffffff8211611aec5761096d600584015461206e565b601f8111611c3f575b50602090601f8311600114611bca57918060c09492600694600092611bbf575b50508160011b916000199060031b1c19161760058201555b01910151151560ff8019835416911617905560043560005260096020528060406000205560018060a01b038216600052600b6020526109f18160406000206122e9565b60018060a01b0360443516600052600b602052610a128160406000206122e9565b604051610a1e816120c4565b600081526044356001600160a01b031615611b7b57600082815260026020526040902054610aee9190610a5d906001600160a01b031615155b15612376565b600083815260026020526040902054610a80906001600160a01b03161515610a57565b6044356001600160a01b03166000818152600360209081526040808320805460010190558683526002909152812080546001600160a01b031916831790558491907fddf252ad1be2c89b69c2b068fc378daa952ba7f163c4a11628f55a4df523b3ef8180a4826044356123c2565b15611b5e57600081815260026020526040902054610b16906001600160a01b031615156124e0565b80600052600a6020526118e9604060002060ff600660405192610b38846120a8565b8054845260018101546001600160a01b03908116602086015260028201541660408501526003810154606085015260048101546080850152610b7c6005820161211e565b60a0850152015416151560c08201526115376101a6610b9b83516126bf565b85600052600a60205261153c604060002060ff600660405192610bbd846120a8565b8054845260018101546001600160a01b03908116602086015260028201541660408501526003810154606085015260048101546080850152610c016005820161211e565b60a0850152015416151560c08201526115376107fd610c2083516126bf565b92610c38670de0b6b3a76400006060830151046126bf565b93610c56610c5160018060a01b03602085015116612882565b6129fd565b94610c7b60a0610c73610c51600180841b03604088015116612882565b940151612a60565b916040519687947f3c7376672077696474683d2234303022206865696768743d223630302220786d60208701527f6c6e733d22687474703a2f2f7777772e77332e6f72672f323030302f737667226040870152601f60f91b93846060880152651e3232b3399f60d11b60618801527f3c6c696e6561724772616469656e742069643d226267222078313d223025222060678801527f79313d223025222078323d2231303025222079323d2231303025223e0000000060878801527f3c73746f70206f66667365743d22302522207374796c653d2273746f702d636f60a38801527f6c6f723a233165323933623b73746f702d6f7061636974793a3122202f3e000060c38801527f3c73746f70206f66667365743d223130302522207374796c653d2273746f702d60e18801527f636f6c6f723a233337333061333b73746f702d6f7061636974793a3122202f3e610101880152701e17b634b732b0b923b930b234b2b73a1f60791b610121880152661e17b232b3399f60c91b6101328801527f3c726563742077696474683d2234303022206865696768743d223630302220666101398801527f696c6c3d2275726c2823626729222072783d223230222f3e00000000000000006101598801527f3c7465787420783d223230302220793d2236302220666f6e742d66616d696c796101718801527f3d22417269616c2c2073616e732d73657269662220666f6e742d73697a653d22806101918901527f32342220666f6e742d7765696768743d22626f6c642220746578742d616e63686101b18901527f6f723d226d6964646c65222066696c6c3d2223666666666666223e46524559416101d189015287661e17ba32bc3a1f60c91b8095816101f18401527f3c7465787420783d223230302220793d2239302220666f6e742d66616d696c796101f8840152836102188401527f31342220746578742d616e63686f723d226d6964646c65222066696c6c3d22236102388401527f393461336238223e496e766f69636520526563656970743c2f746578743e00006102588401527f3c7265637420783d2234302220793d22313230222077696474683d2233323022610276840152817f206865696768743d2232222066696c6c3d2223343735353639222f3e0000000098896102968601527f3c7465787420783d2236302220793d223136302220666f6e742d66616d696c796102b2860152856102d28601527f31362220666f6e742d7765696768743d22626f6c64222066696c6c3d222366666102f28601526e66666666223e496e766f696365202360881b61031286015261104b8151809260206103218099019101611fc6565b8c01938401527f3c7465787420783d2236302220793d223230302220666f6e742d66616d696c79610328840152836103488401527f3134222066696c6c3d2223393461336238223e416d6f756e7420506169643c2f6103688401526810299e17ba32bc3a1f60b91b643a32bc3a1f60d91b93846103888201527f3c7465787420783d2236302220793d223232302220666f6e742d66616d696c7961038d820152856103ad8201527f32302220666f6e742d7765696768743d22626f6c64222066696c6c3d222331306103cd82015265311c9c18911f60d11b6103ed820152865190611140826103f39960208b85019101611fc6565b01958601527f3c7465787420783d2236302220793d223237302220666f6e742d66616d696c796103fc8601528361041c8601527f3134222066696c6c3d2223393461336238223e46726f6d3c2f746578743e000061043c8601527f3c7465787420783d2236302220793d223239302220666f6e742d66616d696c7961045a8601528361047a8601528172189911103334b6361e9111b33333333333111f60691b958661049a8201528251906111ff826104ad9560208785019101611fc6565b01918201527f3c7465787420783d2236302220793d223333302220666f6e742d66616d696c796104b4820152836104d48201527f3134222066696c6c3d2223393461336238223e546f3c2f746578743e000000006104f48201527f3c7465787420783d2236302220793d223335302220666f6e742d66616d696c7961051082015283610530820152846105508201528551906112a5826105639860208a85019101611fc6565b01948501527f3c7465787420783d2236302220793d223339302220666f6e742d66616d696c7961056a8501528161058a8501527f3134222066696c6c3d2223393461336238223e4465736372697074696f6e3c2f6105aa8501526105ca8401527f3c7465787420783d2236302220793d223431302220666f6e742d66616d696c796105cf8401526105ef83015261060f82015284519061134f826106229760208985019101611fc6565b01938401527f3c7265637420783d2234302220793d22343530222077696474683d22333230226106298401526106498301527f3c7465787420783d223230302220793d223439302220666f6e742d66616d696c6106658301527f793d22417269616c2c2073616e732d73657269662220666f6e742d73697a653d90816106858401527f2231322220746578742d616e63686f723d226d6964646c65222066696c6c3d226106a58401527f23393461336238223e536f756c626f756e6420526563656970743c2f746578746106c58401526106e58301527f3c7465787420783d223230302220793d223531302220666f6e742d66616d696c6106e6830152806107068301527f2231302220746578742d616e63686f723d226d6964646c65222066696c6c3d2290816107268401527f23363437343862223e4e6f6e2d7472616e7366657261626c652070726f6f66206107468401527037b3103830bcb6b2b73a1e17ba32bc3a1f60791b6107668401527f3c7465787420783d223230302220793d223535302220666f6e742d66616d696c6107778401526107978301526107b78201527f23363437343862223e536f6e696320426c6f636b636861696e3c2f746578743e6107d7820152651e17b9bb339f60d11b6107f7820152036107dd8101845201826120fc565b612555565b9360405190611592603a8360208101987f646174613a696d6167652f7376672b786d6c3b6261736536342c0000000000008a526115828151809260208686019101611fc6565b810103601a8101855201836120fc565b61159c81516126bf565b906115b4670de0b6b3a76400006060830151046126bf565b6115c160808301516126bf565b926115ee6115da60018060a01b03602086015116612882565b6040909401516001600160a01b0316612882565b94604051998a977f7b226e616d65223a2022467265796120496e766f69636520526563656970742060208a0152602360f81b60408a015261163981518092602060418d019101611fc6565b61088b60f21b6041918a019182018190527f226465736372697074696f6e223a2022536f756c626f756e642072656365697060438301527f7420666f7220636f6d706c6574656420696e766f696365207061796d656e74206063830152721bdb88119c995e58481c1b185d199bdc9b488b606a1b6083830152691134b6b0b3b2911d101160b11b60968301529251916116d890839060a0840190611fc6565b019060a08201526e2261747472696275746573223a205b60881b60a28201527f7b2274726169745f74797065223a2022496e766f696365204944222c2022766160b182015266363ab2911d101160c91b60d182015261174182518093602060d885019101611fc6565b019062089f4b60ea1b938480928160d88601527f7b2274726169745f74797065223a2022416d6f756e74222c202276616c75652260db860152621d101160e91b948560fb82015261179c82518093602060fe85019101611fc6565b01640814c89f4b60da1b60fe8201527f7b2274726169745f74797065223a2022506169642044617465222c202276616c610103820152653ab2911d101160d11b6101238201528251906117f9826101299560208785019101611fc6565b01918201527f7b2274726169745f74797065223a2022497373756572222c202276616c75652261012c8201528261014c8201528351906118438261014f9660208885019101611fc6565b01928301527f7b2274726169745f74797065223a2022436c69656e74222c202276616c75652261015283015261017282015282519061188c826101759560208785019101611fc6565b01918201527f7b2274726169745f74797065223a2022536f756c626f756e64222c202276616c6101788201526b7565223a202274727565227d60a01b610198820152615d7d60f01b6101a4820152036101868101845201826120fc565b9161193d603d60405180957f646174613a6170706c69636174696f6e2f6a736f6e3b6261736536342c000000602083015261192d8151809260208686019101611fc6565b810103601d8101865201846120fc565b6000828152600260205260409020546001600160a01b031615611b02578160005260066020526040600020835167ffffffffffffffff8111611aec57611983825461206e565b601f8111611aa4575b50806020958690601f8311600114611a4057600092611a35575b50508160011b916000199060031b1c19161790555b7ff8e1a15aba9398e019f0b49df1a4fde98ee17ae345cb5f6b5e2c27f5033e8ce783604051848152a1604080516044356001600160a01b03908116825260643586830152909216916004359184917fb6f259b6ce6dc898b0d9bdbca40ab35d5ac9a54da9f7a6df1036bb81398fb4839190a4604051908152f35b0151905086806119a6565b60008581528881209350601f198516905b818110611a8d5750908460019594939210611a74575b505050811b0190556119bb565b015160001960f88460031b161c19169055868080611a67565b929389600181928786015181550195019301611a51565b826000526020600020601f830160051c81019160208410611ae2575b601f0160051c01905b818110611ad6575061198c565b60008155600101611ac9565b9091508190611ac0565b634e487b7160e01b600052604160045260246000fd5b60405162461bcd60e51b815260206004820152602e60248201527f45524337323155524953746f726167653a2055524920736574206f66206e6f6e60448201526d32bc34b9ba32b73a103a37b5b2b760911b6064820152608490fd5b60405162461bcd60e51b815280611b7760048201612323565b0390fd5b606460405162461bcd60e51b815260206004820152602060248201527f4552433732313a206d696e7420746f20746865207a65726f20616464726573736044820152fd5b015190508880610996565b906005840160005260206000209160005b601f1985168110611c2757509260c0949260019260069583601f19811610611c0e575b505050811b0160058201556109ae565b015160001960f88460031b161c19169055888080611bfe565b91926020600181928685015181550194019201611bdb565b600584016000526020600020601f840160051c810160208510611c7f575b601f830160051c82018110611c73575050610976565b60008155600101611c5d565b5080611c5d565b60405162461bcd60e51b815260206004820152602760248201527f5265636569707420616c72656164792065786973747320666f72207468697320604482015266696e766f69636560c81b6064820152608490fd5b346101e05760203660031901126101e057600435600052600a6020526040600020805460018060a01b0391611d65836001830154169360028301541691600381015460048201549060ff6006611d336005860161211e565b94015416946040519788978852602088015260408701526060860152608085015260e060a085015260e0840190611fe9565b90151560c08301520390f35b61203a565b346101e05760203660031901126101e05760043560005260096020526020604060002054604051908152f35b346101e05760203660031901126101e057600435600052600960205260206040600020541515604051908152f35b346101e05760403660031901126101e057611de961200e565b5060405162461bcd60e51b815260206004820152602f60248201527f496e766f6963654e46543a20536f756c626f756e6420746f6b656e732063616e60448201526e1b9bdd08189948185c1c1c9bdd9959608a1b6064820152608490fd5b346101e05760203660031901126101e057600435600081815260026020526040902054611e7e906001600160a01b0316151561229d565b6000526004602052602060018060a01b0360406000205416604051908152f35b346101e05760003660031901126101e05760405160008054611ebf8161206e565b808452906001908181169081156106905750600114611ee8576102ad84610623818603826120fc565b600080805292507f290decd9548b62a8d60345a988386fc84ba6bc95484008f6362f93160ef3e5635b828410611f2957505050810160200161062382610613565b80546020858701810191909152909301928101611f11565b346101e05760203660031901126101e0576004359063ffffffff60e01b82168092036101e057602091632483248360e11b8114908115611f83575b5015158152f35b6380ac58cd60e01b811491508115611fb5575b8115611fa4575b5083611f7c565b6301ffc9a760e01b14905083611f9d565b635b5e139f60e01b81149150611f96565b60005b838110611fd95750506000910152565b8181015183820152602001611fc9565b9060209161200281518092818552858086019101611fc6565b601f01601f1916010190565b600435906001600160a01b03821682036101e057565b602435906001600160a01b03821682036101e057565b346101e05760603660031901126101e0576001600160a01b03600435818116036101e0576024359081161461280257600080fd5b90600182811c9216801561209e575b602083101461208857565b634e487b7160e01b600052602260045260246000fd5b91607f169161207d565b60e0810190811067ffffffffffffffff821117611aec57604052565b6020810190811067ffffffffffffffff821117611aec57604052565b6060810190811067ffffffffffffffff821117611aec57604052565b90601f8019910116810190811067ffffffffffffffff821117611aec57604052565b90604051918260008254926121328461206e565b9081845260019485811690816000146121a1575060011461215e575b505061215c925003836120fc565b565b9093915060005260209081600020936000915b81831061218957505061215c9350820101388061214e565b85548884018501529485019487945091830191612171565b91505061215c94506020925060ff191682840152151560051b820101388061214e565b67ffffffffffffffff8111611aec57601f01601f191660200190565b9291926121ec826121c4565b916121fa60405193846120fc565b8294818452818301116101e0578281602093846000960137010152565b805482101561222f5760005260206000200190600090565b634e487b7160e01b600052603260045260246000fd5b6007546001600160a01b0316330361225957565b606460405162461bcd60e51b815260206004820152602060248201527f4f776e61626c653a2063616c6c6572206973206e6f7420746865206f776e65726044820152fd5b156122a457565b60405162461bcd60e51b815260206004820152601860248201527f4552433732313a20696e76616c696420746f6b656e20494400000000000000006044820152606490fd5b805468010000000000000000811015611aec5761230b91600182018155612217565b819291549060031b91821b91600019901b1916179055565b60809060208152603260208201527f4552433732313a207472616e7366657220746f206e6f6e20455243373231526560408201527131b2b4bb32b91034b6b83632b6b2b73a32b960711b60608201520190565b1561237d57565b60405162461bcd60e51b815260206004820152601c60248201527f4552433732313a20746f6b656e20616c7265616479206d696e746564000000006044820152606490fd5b91929091803b156124d75761240f936040519081630a85bd0160e11b9384825233600483015260009687602484015260448301526080606483015281878160209a8b966084830190611fe9565b03926001600160a01b03165af1849181612493575b50612482575050503d60001461247a573d61243e816121c4565b9061244c60405192836120fc565b81528091833d92013e5b805191826124775760405162461bcd60e51b815280611b7760048201612323565b01fd5b506060612456565b6001600160e01b0319161492509050565b9091508581813d83116124d0575b6124ab81836120fc565b810103126124cc57516001600160e01b0319811681036124cc579038612424565b8480fd5b503d6124a1565b50915050600190565b156124e757565b60405162461bcd60e51b8152602060048201526014602482015273151bdad95b88191bd95cc81b9bdd08195e1a5cdd60621b6044820152606490fd5b9061252d826121c4565b61253a60405191826120fc565b828152809261254b601f19916121c4565b0190602036910137565b8051156126ab5760405190612569826120e0565b604082527f4142434445464748494a4b4c4d4e4f505152535455565758595a61626364656660208301527f6768696a6b6c6d6e6f707172737475767778797a303132333435363738392b2f60408301528051600291828201809211612695576003918290046001600160fe1b0381168103612695576125eb908495941b612523565b936020850193829183518401906020820192835194600085525b83811061264457505050505251068060011461263157600214612626575090565b603d90600019015390565b50603d9081600019820153600119015390565b87600491999293949901918251600190603f9082828260121c16880101518453828282600c1c16880101518385015382828260061c1688010151888501531685010151898201530197929190612605565b634e487b7160e01b600052601160045260246000fd5b506040516126b8816120c4565b6000815290565b806000917a184f03e93ff9f4daa797ed6e38ed64bf6a1f010000000000000000808210156127f4575b506d04ee2d6d415b85acef8100000000808310156127e5575b50662386f26fc10000808310156127d6575b506305f5e100808310156127c7575b50612710808310156127b8575b5060648210156127a8575b600a8092101561279e575b600190816021612756828701612523565b95860101905b612768575b5050505090565b600019019083906f181899199a1a9b1b9c1cb0b131b232b360811b8282061a8353049182156127995791908261275c565b612761565b9160010191612745565b919060646002910491019161273a565b6004919392049101913861272f565b60089193920491019138612722565b60109193920491019138612713565b60209193920491019138612701565b6040935081049150386126e8565b60405162461bcd60e51b815260206004820152603260248201527f496e766f6963654e46543a20536f756c626f756e6420746f6b656e732063616e6044820152711b9bdd081899481d1c985b9cd9995c9c995960721b6064820152608490fd5b60001981146126955760010190565b90815181101561222f570160200190565b6040519061288f826120e0565b602882526020820190604036833760005b601481106128e457505060226128d1926128e19260405194859261060f60f31b602085015251809285850190611fc6565b81010360028101845201826120fc565b90565b60139080820391821161269557600382901b916001600160fd1b038116036126955760ff8083116126955760019283811b156129a5576001600160a01b038516901c60f0811682821603918211612695576129479060f41b600f60f81b166129bb565b82841b916001600160ff1b03841684036126955761297f9160001a61296c848a612871565b5360f81b6001600160f81b0319166129bb565b9281018091116126955761299a6129a09360001a9187612871565b53612862565b6128a0565b634e487b7160e01b600052601260045260246000fd5b60f81c600a8110156129e25760300160ff81116126955760f81b6001600160f81b03191690565b60570160ff81116126955760f81b6001600160f81b03191690565b8051156126ab5760148151808211612a58575b50612a1a81612523565b91600090815b838110612a2e575050505090565b612a53906001600160f81b0319612a458285612871565b5116841a61299a8288612871565b612a20565b905038612a10565b8051156126ab57601e8151808211612aad575b50612a7d81612523565b91600090815b838110612a91575050505090565b612aa8906001600160f81b0319612a458285612871565b612a83565b905038612a7356fea264697066735822122095695387aeaf491d18a8f08007eff5bf3eca1f4450268cb33d77e8c3b0b6013464736f6c63430008140033",
  "linkReferences": {},
  "deployedLinkReferences": {}
}