{
  "_format": "hh-sol-artifact-1",
  "contractName": "InvoiceManager",
  "sourceName": "contracts/InvoiceManager.sol",
  "abi": [
    {
      "inputs": [],
      "stateMutability": "nonpayable",
      "type": "constructor"
    },
    {
      "anonymous": false,
      "inputs": [
        {
          "indexed": true,
          "internalType": "uint256",
          "name": "invoiceId",
          "type": "uint256"
        },
        {
          "indexed": true,
          "internalType": "address",
          "name": "raiser",
          "type": "address"
        }
      ],
      "name": "DisputeRaised",
      "type": "event"
    },
    {
      "anonymous": false,
      "inputs": [
        {
          "indexed": true,
          "internalType": "uint256",
          "name": "invoiceId",
          "type": "uint256"
        },
        {
          "indexed": false,
          "internalType": "uint256",
          "name": "amount",
          "type": "uint256"
        }
      ],
      "name": "EscrowActivated",
      "type": "event"
    },
    {
      "anonymous": false,
      "inputs": [
        {
          "indexed": true,
          "internalType": "uint256",
          "name": "invoiceId",
          "type": "uint256"
        }
      ],
      "name": "InvoiceCancelled",
      "type": "event"
    },
    {
      "anonymous": false,
      "inputs": [
        {
          "indexed": true,
          "internalType": "uint256",
          "name": "invoiceId",
          "type": "uint256"
        },
        {
          "indexed": true,
          "internalType": "address",
          "name": "issuer",
          "type": "address"
        },
        {
          "indexed": true,
          "internalType": "address",
          "name": "client",
          "type": "address"
        },
        {
          "indexed": false,
          "internalType": "uint256",
          "name": "amount",
          "type": "uint256"
        },
        {
          "indexed": false,
          "internalType": "uint256",
          "name": "dueDate",
          "type": "uint256"
        },
        {
          "indexed": false,
          "internalType": "string",
          "name": "description",
          "type": "string"
        }
      ],
      "name": "InvoiceCreated",
      "type": "event"
    },
    {
      "anonymous": false,
      "inputs": [
        {
          "indexed": true,
          "internalType": "uint256",
          "name": "invoiceId",
          "type": "uint256"
        },
        {
          "indexed": true,
          "internalType": "address",
          "name": "payer",
          "type": "address"
        },
        {
          "indexed": false,
          "internalType": "uint256",
          "name": "amount",
          "type": "uint256"
        }
      ],
      "name": "InvoicePaid",
      "type": "event"
    },
    {
      "anonymous": false,
      "inputs": [
        {
          "indexed": true,
          "internalType": "uint256",
          "name": "invoiceId",
          "type": "uint256"
        },
        {
          "indexed": false,
          "internalType": "uint256",
          "name": "milestoneIndex",
          "type": "uint256"
        }
      ],
      "name": "MilestoneCompleted",
      "type": "event"
    },
    {
      "anonymous": false,
      "inputs": [
        {
          "indexed": true,
          "internalType": "uint256",
          "name": "invoiceId",
          "type": "uint256"
        },
        {
          "indexed": false,
          "internalType": "uint256",
          "name": "milestoneIndex",
          "type": "uint256"
        },
        {
          "indexed": false,
          "internalType": "uint256",
          "name": "amount",
          "type": "uint256"
        }
      ],
      "name": "MilestoneReleased",
      "type": "event"
    },
    {
      "anonymous": false,
      "inputs": [
        {
          "indexed": true,
          "internalType": "address",
          "name": "previousOwner",
          "type": "address"
        },
        {
          "indexed": true,
          "internalType": "address",
          "name": "newOwner",
          "type": "address"
        }
      ],
      "name": "OwnershipTransferred",
      "type": "event"
    },
    {
      "inputs": [
        {
          "internalType": "uint256",
          "name": "invoiceId",
          "type": "uint256"
        },
        {
          "components": [
            {
              "internalType": "uint256",
              "name": "amount",
              "type": "uint256"
            },
            {
              "internalType": "string",
              "name": "description",
              "type": "string"
            },
            {
              "internalType": "bool",
              "name": "isCompleted",
              "type": "bool"
            },
            {
              "internalType": "bool",
              "name": "isReleased",
              "type": "bool"
            }
          ],
          "internalType": "struct InvoiceManager.Milestone[]",
          "name": "milestones",
          "type": "tuple[]"
        }
      ],
      "name": "addMilestones",
      "outputs": [],
      "stateMutability": "nonpayable",
      "type": "function"
    },
    {
      "inputs": [
        {
          "internalType": "uint256",
          "name": "invoiceId",
          "type": "uint256"
        }
      ],
      "name": "cancelInvoice",
      "outputs": [],
      "stateMutability": "nonpayable",
      "type": "function"
    },
    {
      "inputs": [
        {
          "internalType": "address",
          "name": "",
          "type": "address"
        },
        {
          "internalType": "uint256",
          "name": "",
          "type": "uint256"
        }
      ],
      "name": "clientInvoices",
      "outputs": [
        {
          "internalType": "uint256",
          "name": "",
          "type": "uint256"
        }
      ],
      "stateMutability": "view",
      "type": "function"
    },
    {
      "inputs": [
        {
          "internalType": "uint256",
          "name": "invoiceId",
          "type": "uint256"
        },
        {
          "internalType": "uint256",
          "name": "milestoneIndex",
          "type": "uint256"
        }
      ],
      "name": "completeMilestone",
      "outputs": [],
      "stateMutability": "nonpayable",
      "type": "function"
    },
    {
      "inputs": [
        {
          "internalType": "address",
          "name": "client",
          "type": "address"
        },
        {
          "internalType": "address",
          "name": "tokenAddress",
          "type": "address"
        },
        {
          "internalType": "uint256",
          "name": "amount",
          "type": "uint256"
        },
        {
          "internalType": "uint256",
          "name": "dueDate",
          "type": "uint256"
        },
        {
          "internalType": "string",
          "name": "description",
          "type": "string"
        },
        {
          "internalType": "bool",
          "name": "useEscrow",
          "type": "bool"
        }
      ],
      "name": "createInvoice",
      "outputs": [
        {
          "internalType": "uint256",
          "name": "invoiceId",
          "type": "uint256"
        }
      ],
      "stateMutability": "nonpayable",
      "type": "function"
    },
    {
      "inputs": [
        {
          "internalType": "address",
          "name": "tokenAddress",
          "type": "address"
        }
      ],
      "name": "emergencyWithdraw",
      "outputs": [],
      "stateMutability": "nonpayable",
      "type": "function"
    },
    {
      "inputs": [
        {
          "internalType": "uint256",
          "name": "",
          "type": "uint256"
        }
      ],
      "name": "escrowInvoices",
      "outputs": [
        {
          "internalType": "uint256",
          "name": "invoiceId",
          "type": "uint256"
        },
        {
          "internalType": "bool",
          "name": "isActive",
          "type": "bool"
        },
        {
          "internalType": "uint256",
          "name": "totalAmount",
          "type": "uint256"
        },
        {
          "internalType": "uint256",
          "name": "releasedAmount",
          "type": "uint256"
        }
      ],
      "stateMutability": "view",
      "type": "function"
    },
    {
      "inputs": [],
      "name": "feeRecipient",
      "outputs": [
        {
          "internalType": "address",
          "name": "",
          "type": "address"
        }
      ],
      "stateMutability": "view",
      "type": "function"
    },
    {
      "inputs": [
        {
          "internalType": "address",
          "name": "client",
          "type": "address"
        }
      ],
      "name": "getClientInvoices",
      "outputs": [
        {
          "internalType": "uint256[]",
          "name": "",
          "type": "uint256[]"
        }
      ],
      "stateMutability": "view",
      "type": "function"
    },
    {
      "inputs": [
        {
          "internalType": "uint256",
          "name": "invoiceId",
          "type": "uint256"
        }
      ],
      "name": "getInvoice",
      "outputs": [
        {
          "components": [
            {
              "internalType": "uint256",
              "name": "id",
              "type": "uint256"
            },
            {
              "internalType": "address",
              "name": "issuer",
              "type": "address"
            },
            {
              "internalType": "address",
              "name": "client",
              "type": "address"
            },
            {
              "internalType": "address",
              "name": "tokenAddress",
              "type": "address"
            },
            {
              "internalType": "uint256",
              "name": "amount",
              "type": "uint256"
            },
            {
              "internalType": "uint256",
              "name": "amountPaid",
              "type": "uint256"
            },
            {
              "internalType": "uint256",
              "name": "dueDate",
              "type": "uint256"
            },
            {
              "internalType": "string",
              "name": "description",
              "type": "string"
            },
            {
              "internalType": "enum InvoiceManager.InvoiceStatus",
              "name": "status",
              "type": "uint8"
            },
            {
              "internalType": "bool",
              "name": "useEscrow",
              "type": "bool"
            },
            {
              "internalType": "uint256",
              "name": "createdAt",
              "type": "uint256"
            }
          ],
          "internalType": "struct InvoiceManager.Invoice",
          "name": "",
          "type": "tuple"
        }
      ],
      "stateMutability": "view",
      "type": "function"
    },
    {
      "inputs": [
        {
          "internalType": "uint256",
          "name": "invoiceId",
          "type": "uint256"
        }
      ],
      "name": "getInvoiceMilestones",
      "outputs": [
        {
          "components": [
            {
              "internalType": "uint256",
              "name": "amount",
              "type": "uint256"
            },
            {
              "internalType": "string",
              "name": "description",
              "type": "string"
            },
            {
              "internalType": "bool",
              "name": "isCompleted",
              "type": "bool"
            },
            {
              "internalType": "bool",
              "name": "isReleased",
              "type": "bool"
            }
          ],
          "internalType": "struct InvoiceManager.Milestone[]",
          "name": "",
          "type": "tuple[]"
        }
      ],
      "stateMutability": "view",
      "type": "function"
    },
    {
      "inputs": [
        {
          "internalType": "address",
          "name": "user",
          "type": "address"
        }
      ],
      "name": "getUserInvoices",
      "outputs": [
        {
          "internalType": "uint256[]",
          "name": "",
          "type": "uint256[]"
        }
      ],
      "stateMutability": "view",
      "type": "function"
    },
    {
      "inputs": [
        {
          "internalType": "uint256",
          "name": "",
          "type": "uint256"
        },
        {
          "internalType": "uint256",
          "name": "",
          "type": "uint256"
        }
      ],
      "name": "invoiceMilestones",
      "outputs": [
        {
          "internalType": "uint256",
          "name": "amount",
          "type": "uint256"
        },
        {
          "internalType": "string",
          "name": "description",
          "type": "string"
        },
        {
          "internalType": "bool",
          "name": "isCompleted",
          "type": "bool"
        },
        {
          "internalType": "bool",
          "name": "isReleased",
          "type": "bool"
        }
      ],
      "stateMutability": "view",
      "type": "function"
    },
    {
      "inputs": [
        {
          "internalType": "uint256",
          "name": "",
          "type": "uint256"
        }
      ],
      "name": "invoices",
      "outputs": [
        {
          "internalType": "uint256",
          "name": "id",
          "type": "uint256"
        },
        {
          "internalType": "address",
          "name": "issuer",
          "type": "address"
        },
        {
          "internalType": "address",
          "name": "client",
          "type": "address"
        },
        {
          "internalType": "address",
          "name": "tokenAddress",
          "type": "address"
        },
        {
          "internalType": "uint256",
          "name": "amount",
          "type": "uint256"
        },
        {
          "internalType": "uint256",
          "name": "amountPaid",
          "type": "uint256"
        },
        {
          "internalType": "uint256",
          "name": "dueDate",
          "type": "uint256"
        },
        {
          "internalType": "string",
          "name": "description",
          "type": "string"
        },
        {
          "internalType": "enum InvoiceManager.InvoiceStatus",
          "name": "status",
          "type": "uint8"
        },
        {
          "internalType": "bool",
          "name": "useEscrow",
          "type": "bool"
        },
        {
          "internalType": "uint256",
          "name": "createdAt",
          "type": "uint256"
        }
      ],
      "stateMutability": "view",
      "type": "function"
    },
    {
      "inputs": [],
      "name": "nextInvoiceId",
      "outputs": [
        {
          "internalType": "uint256",
          "name": "",
          "type": "uint256"
        }
      ],
      "stateMutability": "view",
      "type": "function"
    },
    {
      "inputs": [],
      "name": "owner",
      "outputs": [
        {
          "internalType": "address",
          "name": "",
          "type": "address"
        }
      ],
      "stateMutability": "view",
      "type": "function"
    },
    {
      "inputs": [
        {
          "internalType": "uint256",
          "name": "invoiceId",
          "type": "uint256"
        }
      ],
      "name": "payInvoice",
      "outputs": [],
      "stateMutability": "payable",
      "type": "function"
    },
    {
      "inputs": [],
      "name": "platformFeePercentage",
      "outputs": [
        {
          "internalType": "uint256",
          "name": "",
          "type": "uint256"
        }
      ],
      "stateMutability": "view",
      "type": "function"
    },
    {
      "inputs": [
        {
          "internalType": "uint256",
          "name": "invoiceId",
          "type": "uint256"
        }
      ],
      "name": "raiseDispute",
      "outputs": [],
      "stateMutability": "nonpayable",
      "type": "function"
    },
    {
      "inputs": [
        {
          "internalType": "uint256",
          "name": "invoiceId",
          "type": "uint256"
        },
        {
          "internalType": "uint256",
          "name": "milestoneIndex",
          "type": "uint256"
        }
      ],
      "name": "releaseMilestone",
      "outputs": [],
      "stateMutability": "nonpayable",
      "type": "function"
    },
    {
      "inputs": [],
      "name": "renounceOwnership",
      "outputs": [],
      "stateMutability": "nonpayable",
      "type": "function"
    },
    {
      "inputs": [
        {
          "internalType": "address",
          "name": "newFeeRecipient",
          "type": "address"
        }
      ],
      "name": "setFeeRecipient",
      "outputs": [],
      "stateMutability": "nonpayable",
      "type": "function"
    },
    {
      "inputs": [
        {
          "internalType": "uint256",
          "name": "newFeePercentage",
          "type": "uint256"
        }
      ],
      "name": "setPlatformFee",
      "outputs": [],
      "stateMutability": "nonpayable",
      "type": "function"
    },
    {
      "inputs": [
        {
          "internalType": "address",
          "name": "newOwner",
          "type": "address"
        }
      ],
      "name": "transferOwnership",
      "outputs": [],
      "stateMutability": "nonpayable",
      "type": "function"
    },
    {
      "inputs": [
        {
          "internalType": "address",
          "name": "",
          "type": "address"
        },
        {
          "internalType": "uint256",
          "name": "",
          "type": "uint256"
        }
      ],
      "name": "userInvoices",
      "outputs": [
        {
          "internalType": "uint256",
          "name": "",
          "type": "uint256"
        }
      ],
      "stateMutability": "view",
      "type": "function"
    }
  ],
  "bytecode": "0x6080604052600160075560fa6008553480156200001b57600080fd5b5062000027336200004e565b6001805562000036336200004e565b600980546001600160a01b031916331790556200009e565b600080546001600160a01b038381166001600160a01b0319831681178455604051919092169283917f8be0079c531659141344cd1fd0a4f28419497f9722a3daafe3b4186f6b6457e09190a35050565b6129cc80620000ae6000396000f3fe6080604052600436106101665760003560e01c80637637e393116100d1578063cdd78cfc1161008a578063dbaf091011610064578063dbaf09101461049f578063e74b981b146104bf578063f2fde38b146104df578063f326206b146104ff57600080fd5b8063cdd78cfc14610449578063d5e57ad51461045f578063da9c273d1461047f57600080fd5b80637637e393146103415780638da5cb5b146103a8578063a5310eab146103c6578063a5c1674e146103e6578063aa12aa6214610406578063ac60a6cd1461043657600080fd5b80633a23cc0a116101235780633a23cc0a1461025a57806346904840146102875780634e6d1405146102bf5780636ff1c9bc146102f65780636ff2a95314610316578063715018a61461032c57600080fd5b80630ad6b0a51461016b57806312e8e2c31461019e578063192b7f41146101c05780631cb9b2aa146101e0578063221604a21461020d57806324d3b3e21461023a575b600080fd5b34801561017757600080fd5b5061018b61018636600461214f565b61051f565b6040519081526020015b60405180910390f35b3480156101aa57600080fd5b506101be6101b9366004612179565b610550565b005b3480156101cc57600080fd5b5061018b6101db366004612280565b6105ac565b3480156101ec57600080fd5b506102006101fb366004612305565b61094f565b6040516101959190612327565b34801561021957600080fd5b5061022d610228366004612179565b6109bb565b60405161019591906123b1565b34801561024657600080fd5b50610200610255366004612305565b610af2565b34801561026657600080fd5b5061027a610275366004612179565b610b5c565b6040516101959190612478565b34801561029357600080fd5b506009546102a7906001600160a01b031681565b6040516001600160a01b039091168152602001610195565b3480156102cb57600080fd5b506102df6102da366004612179565b610d11565b6040516101959b9a99989796959493929190612542565b34801561030257600080fd5b506101be610311366004612305565b610e07565b34801561032257600080fd5b5061018b60075481565b34801561033857600080fd5b506101be610f5a565b34801561034d57600080fd5b5061038861035c366004612179565b60036020819052600091825260409091208054600182015460028301549290930154909260ff16919084565b604080519485529215156020850152918301526060820152608001610195565b3480156103b457600080fd5b506000546001600160a01b03166102a7565b3480156103d257600080fd5b506101be6103e13660046125be565b610f6e565b3480156103f257600080fd5b506101be610401366004612179565b6110eb565b34801561041257600080fd5b506104266104213660046126f3565b6111b6565b6040516101959493929190612715565b6101be610444366004612179565b611291565b34801561045557600080fd5b5061018b60085481565b34801561046b57600080fd5b5061018b61047a36600461214f565b6117fa565b34801561048b57600080fd5b506101be61049a366004612179565b611816565b3480156104ab57600080fd5b506101be6104ba3660046126f3565b61191f565b3480156104cb57600080fd5b506101be6104da366004612305565b611d9e565b3480156104eb57600080fd5b506101be6104fa366004612305565b611e16565b34801561050b57600080fd5b506101be61051a3660046126f3565b611e8c565b6005602052816000526040600020818154811061053b57600080fd5b90600052602060002001600091509150505481565b610558612030565b6103e88111156105a75760405162461bcd60e51b81526020600482015260156024820152744665652063616e6e6f74206578636565642031302560581b60448201526064015b60405180910390fd5b600855565b60006001600160a01b0387166105fd5760405162461bcd60e51b8152602060048201526016602482015275496e76616c696420636c69656e74206164647265737360501b604482015260640161059e565b6000851161064d5760405162461bcd60e51b815260206004820152601d60248201527f416d6f756e74206d7573742062652067726561746572207468616e2030000000604482015260640161059e565b42841161069c5760405162461bcd60e51b815260206004820152601e60248201527f4475652064617465206d75737420626520696e20746865206675747572650000604482015260640161059e565b600780549060006106ac8361275c565b919050559050604051806101600160405280828152602001336001600160a01b03168152602001886001600160a01b03168152602001876001600160a01b03168152602001868152602001600081526020018581526020018481526020016000600381111561071d5761071d612440565b815283151560208083019190915242604092830152600084815260028083529083902084518155918401516001830180546001600160a01b03199081166001600160a01b039384161790915593850151918301805485169282169290921790915560608401516003830180549094169116179091556080820151600482015560a0820151600582015560c0820151600682015560e082015160078201906107c490826127fd565b5061010082015160088201805460ff191660018360038111156107e9576107e9612440565b02179055506101208201516008820180549115156101000261ff001990921691909117905561014090910151600990910155336000908152600560209081526040808320805460018181018355918552838520018590556001600160a01b038b1684526006835290832080549182018155835291200181905581156108f55760408051608081018252828152600160208083018281528385018a8152600060608601818152888252600380865291889020965187559251948601805460ff191695151595909517909455516002850155519290910191909155905186815282917fe3c2e3e893e063a23ddc6faab3e3c024f0524199c4af658eef25bb4eb35e390d910160405180910390a25b866001600160a01b0316336001600160a01b0316827fc42cc137a7bf06606c7b59fc43c02dd34f7a86e23e35de7139fedca54b8616d088888860405161093d939291906128bd565b60405180910390a49695505050505050565b6001600160a01b0381166000908152600660209081526040918290208054835181840281018401909452808452606093928301828280156109af57602002820191906000526020600020905b81548152602001906001019080831161099b575b50505050509050919050565b606060046000838152602001908152602001600020805480602002602001604051908101604052809291908181526020016000905b82821015610ae7578382906000526020600020906003020160405180608001604052908160008201548152602001600182018054610a2d90612775565b80601f0160208091040260200160405190810160405280929190818152602001828054610a5990612775565b8015610aa65780601f10610a7b57610100808354040283529160200191610aa6565b820191906000526020600020905b815481529060010190602001808311610a8957829003601f168201915b50505091835250506002919091015460ff808216151560208085019190915261010090920416151560409092019190915290825260019290920191016109f0565b505050509050919050565b6001600160a01b0381166000908152600560209081526040918290208054835181840281018401909452808452606093928301828280156109af576020028201919060005260206000209081548152602001906001019080831161099b5750505050509050919050565b604080516101608101825260008082526020820181905291810182905260608082018390526080820183905260a0820183905260c0820183905260e0820152610100810182905261012081018290526101408101919091526000828152600260208181526040928390208351610160810185528154815260018201546001600160a01b039081169382019390935292810154821693830193909352600383015416606082015260048201546080820152600582015460a0820152600682015460c082015260078201805491929160e084019190610c3890612775565b80601f0160208091040260200160405190810160405280929190818152602001828054610c6490612775565b8015610cb15780601f10610c8657610100808354040283529160200191610cb1565b820191906000526020600020905b815481529060010190602001808311610c9457829003601f168201915b5050509183525050600882015460209091019060ff166003811115610cd857610cd8612440565b6003811115610ce957610ce9612440565b81526008820154610100900460ff161515602082015260099091015460409091015292915050565b60026020819052600091825260409091208054600182015492820154600383015460048401546005850154600686015460078701805496986001600160a01b039081169896811697951695939492939192610d6b90612775565b80601f0160208091040260200160405190810160405280929190818152602001828054610d9790612775565b8015610de45780601f10610db957610100808354040283529160200191610de4565b820191906000526020600020905b815481529060010190602001808311610dc757829003601f168201915b505050506008830154600990930154919260ff808216936101009092041691508b565b610e0f612030565b6001600160a01b038116610e5b57600080546040516001600160a01b03909116914780156108fc02929091818181858888f19350505050158015610e57573d6000803e3d6000fd5b5050565b806001600160a01b03811663a9059cbb610e7d6000546001600160a01b031690565b6040516370a0823160e01b81523060048201526001600160a01b038516906370a0823190602401602060405180830381865afa158015610ec1573d6000803e3d6000fd5b505050506040513d601f19601f82011682018060405250810190610ee591906128e5565b6040516001600160e01b031960e085901b1681526001600160a01b03909216600483015260248201526044016020604051808303816000875af1158015610f30573d6000803e3d6000fd5b505050506040513d601f19601f82011682018060405250810190610f5491906128fe565b50505b50565b610f62612030565b610f6c600061208a565b565b6000828152600260205260409020600101546001600160a01b03163314610fd75760405162461bcd60e51b815260206004820152601e60248201527f4f6e6c79206973737565722063616e20616464206d696c6573746f6e65730000604482015260640161059e565b600082815260026020526040902060080154610100900460ff1661103d5760405162461bcd60e51b815260206004820152601760248201527f496e766f696365206d7573742075736520657363726f77000000000000000000604482015260640161059e565b60005b8151811015610f54576000838152600460205260409020825183908390811061106b5761106b61291b565b60209081029190910181015182546001818101855560009485529383902082516003909202019081559181015190928201906110a790826127fd565b5060408201516002909101805460609093015115156101000261ff00199215159290921661ffff1990931692909217179055806110e38161275c565b915050611040565b60008181526002602052604090206001015481906001600160a01b031633148061112f5750600081815260026020819052604090912001546001600160a01b031633145b61116c5760405162461bcd60e51b815260206004820152600e60248201526d139bdd08185d5d1a1bdc9a5e995960921b604482015260640161059e565b600082815260026020526040808220600801805460ff1916600317905551339184917f84a477df8a28a4276ca6dee4458a06c3015f30c477d9c949ede4e13ff8a552b49190a35050565b600460205281600052604060002081815481106111d257600080fd5b9060005260206000209060030201600091509150508060000154908060010180546111fc90612775565b80601f016020809104026020016040519081016040528092919081815260200182805461122890612775565b80156112755780601f1061124a57610100808354040283529160200191611275565b820191906000526020600020905b81548152906001019060200180831161125857829003601f168201915b5050506002909301549192505060ff8082169161010090041684565b6112996120da565b600081815260026020526040812080549091036112f15760405162461bcd60e51b8152602060048201526016602482015275125b9d9bda58d948191bd95cc81b9bdd08195e1a5cdd60521b604482015260640161059e565b6000600882015460ff16600381111561130c5761130c612440565b1461134f5760405162461bcd60e51b8152602060048201526013602482015272496e766f696365206e6f742070617961626c6560681b604482015260640161059e565b60028101546001600160a01b031633146113a15760405162461bcd60e51b81526020600482015260136024820152724f6e6c7920636c69656e742063616e2070617960681b604482015260640161059e565b6000816005015482600401546113b79190612931565b60038301549091506001600160a01b031661151057803410156114135760405162461bcd60e51b8152602060048201526014602482015273125b9cdd59999a58da595b9d081c185e5b595b9d60621b604482015260640161059e565b6008820154610100900460ff166114cb57600061271060085483611437919061294a565b6114419190612961565b9050600061144f8284612931565b60018501546040519192506001600160a01b03169082156108fc029083906000818181858888f1935050505015801561148c573d6000803e3d6000fd5b506009546040516001600160a01b039091169083156108fc029084906000818181858888f193505050501580156114c7573d6000803e3d6000fd5b5050505b8034111561150b57336108fc6114e18334612931565b6040518115909202916000818181858888f19350505050158015611509573d6000803e3d6000fd5b505b611790565b60038201546040516323b872dd60e01b8152336004820152306024820152604481018390526001600160a01b039091169081906323b872dd906064016020604051808303816000875af115801561156b573d6000803e3d6000fd5b505050506040513d601f19601f8201168201806040525081019061158f91906128fe565b6115d35760405162461bcd60e51b8152602060048201526015602482015274151bdad95b881d1c985b9cd9995c8819985a5b1959605a1b604482015260640161059e565b6008830154610100900460ff1661178e576000612710600854846115f7919061294a565b6116019190612961565b9050600061160f8285612931565b600186015460405163a9059cbb60e01b81526001600160a01b0391821660048201526024810183905291925084169063a9059cbb906044016020604051808303816000875af1158015611666573d6000803e3d6000fd5b505050506040513d601f19601f8201168201806040525081019061168a91906128fe565b6116d25760405162461bcd60e51b8152602060048201526019602482015278151c985b9cd9995c881d1bc81a5cdcdd595c8819985a5b1959603a1b604482015260640161059e565b60095460405163a9059cbb60e01b81526001600160a01b039182166004820152602481018490529084169063a9059cbb906044016020604051808303816000875af1158015611725573d6000803e3d6000fd5b505050506040513d601f19601f8201168201806040525081019061174991906128fe565b61178b5760405162461bcd60e51b8152602060048201526013602482015272119959481d1c985b9cd9995c8819985a5b1959606a1b604482015260640161059e565b50505b505b808260050160008282546117a49190612983565b909155505060088201805460ff19166001179055604051818152339084907fa6abfda59e12fa300d17e1aa76bd3233eaf23ee4feb4b02b6516ad1d60be84009060200160405180910390a35050610f5760018055565b6006602052816000526040600020818154811061053b57600080fd5b600081815260026020526040902060018101546001600160a01b031633146118795760405162461bcd60e51b815260206004820152601660248201527513db9b1e481a5cdcdd595c8818d85b8818d85b98d95b60521b604482015260640161059e565b6000600882015460ff16600381111561189457611894612440565b146118e15760405162461bcd60e51b815260206004820152601a60248201527f43616e6e6f742063616e63656c207061696420696e766f696365000000000000604482015260640161059e565b60088101805460ff1916600217905560405182907f2e9842040508f80e6420769a8673529eb3af5b952f53af83d9c9d3432da7804690600090a25050565b6000828152600260208190526040909120908101546001600160a01b031633146119965760405162461bcd60e51b815260206004820152602260248201527f4f6e6c7920636c69656e742063616e2072656c65617365206d696c6573746f6e604482015261657360f01b606482015260840161059e565b60008381526004602052604090205482106119ed5760405162461bcd60e51b8152602060048201526017602482015276092dcecc2d8d2c840dad2d8cae6e8dedcca40d2dcc8caf604b1b604482015260640161059e565b6000838152600460205260408120805484908110611a0d57611a0d61291b565b60009182526020909120600390910201600281015490915060ff16611a745760405162461bcd60e51b815260206004820152601760248201527f4d696c6573746f6e65206e6f7420636f6d706c65746564000000000000000000604482015260640161059e565b6002810154610100900460ff1615611ace5760405162461bcd60e51b815260206004820152601a60248201527f4d696c6573746f6e6520616c72656164792072656c6561736564000000000000604482015260640161059e565b60028101805461ff001916610100179055600084815260036020819052604082208354918101805491939091611b05908490612983565b9091555050600854825460009161271091611b20919061294a565b611b2a9190612961565b90506000818460000154611b3e9190612931565b60038601549091506001600160a01b0316611bd05760018501546040516001600160a01b039091169082156108fc029083906000818181858888f19350505050158015611b8f573d6000803e3d6000fd5b506009546040516001600160a01b039091169083156108fc029084906000818181858888f19350505050158015611bca573d6000803e3d6000fd5b50611d52565b6003850154600186015460405163a9059cbb60e01b81526001600160a01b03918216600482015260248101849052911690819063a9059cbb906044016020604051808303816000875af1158015611c2b573d6000803e3d6000fd5b505050506040513d601f19601f82011682018060405250810190611c4f91906128fe565b611c975760405162461bcd60e51b8152602060048201526019602482015278151c985b9cd9995c881d1bc81a5cdcdd595c8819985a5b1959603a1b604482015260640161059e565b60095460405163a9059cbb60e01b81526001600160a01b039182166004820152602481018590529082169063a9059cbb906044016020604051808303816000875af1158015611cea573d6000803e3d6000fd5b505050506040513d601f19601f82011682018060405250810190611d0e91906128fe565b611d505760405162461bcd60e51b8152602060048201526013602482015272119959481d1c985b9cd9995c8819985a5b1959606a1b604482015260640161059e565b505b835460405188917fd33fcd27cbfb73a2d9058c968b560ccb306500bf536133802048489ecc7355e991611d8d918a8252602082015260400190565b60405180910390a250505050505050565b611da6612030565b6001600160a01b038116611df45760405162461bcd60e51b8152602060048201526015602482015274125b9d985b1a5908199959481c9958da5c1a595b9d605a1b604482015260640161059e565b600980546001600160a01b0319166001600160a01b0392909216919091179055565b611e1e612030565b6001600160a01b038116611e835760405162461bcd60e51b815260206004820152602660248201527f4f776e61626c653a206e6577206f776e657220697320746865207a65726f206160448201526564647265737360d01b606482015260840161059e565b610f578161208a565b6000828152600260205260409020600101546001600160a01b03163314611f015760405162461bcd60e51b815260206004820152602360248201527f4f6e6c79206973737565722063616e20636f6d706c657465206d696c6573746f6044820152626e657360e81b606482015260840161059e565b6000828152600460205260409020548110611f585760405162461bcd60e51b8152602060048201526017602482015276092dcecc2d8d2c840dad2d8cae6e8dedcca40d2dcc8caf604b1b604482015260640161059e565b6000828152600460205260408120805483908110611f7857611f7861291b565b60009182526020909120600390910201600281015490915060ff1615611fe05760405162461bcd60e51b815260206004820152601b60248201527f4d696c6573746f6e6520616c726561647920636f6d706c657465640000000000604482015260640161059e565b60028101805460ff1916600117905560405183907f1b7218c0ac23ea9cbe4df603d2b340fbf469a115b73ea3d11460727f445d6be1906120239085815260200190565b60405180910390a2505050565b6000546001600160a01b03163314610f6c5760405162461bcd60e51b815260206004820181905260248201527f4f776e61626c653a2063616c6c6572206973206e6f7420746865206f776e6572604482015260640161059e565b600080546001600160a01b038381166001600160a01b0319831681178455604051919092169283917f8be0079c531659141344cd1fd0a4f28419497f9722a3daafe3b4186f6b6457e09190a35050565b60026001540361212c5760405162461bcd60e51b815260206004820152601f60248201527f5265656e7472616e637947756172643a207265656e7472616e742063616c6c00604482015260640161059e565b6002600155565b80356001600160a01b038116811461214a57600080fd5b919050565b6000806040838503121561216257600080fd5b61216b83612133565b946020939093013593505050565b60006020828403121561218b57600080fd5b5035919050565b634e487b7160e01b600052604160045260246000fd5b6040516080810167ffffffffffffffff811182821017156121cb576121cb612192565b60405290565b604051601f8201601f1916810167ffffffffffffffff811182821017156121fa576121fa612192565b604052919050565b600082601f83011261221357600080fd5b813567ffffffffffffffff81111561222d5761222d612192565b612240601f8201601f19166020016121d1565b81815284602083860101111561225557600080fd5b816020850160208301376000918101602001919091529392505050565b8015158114610f5757600080fd5b60008060008060008060c0878903121561229957600080fd5b6122a287612133565b95506122b060208801612133565b94506040870135935060608701359250608087013567ffffffffffffffff8111156122da57600080fd5b6122e689828a01612202565b92505060a08701356122f781612272565b809150509295509295509295565b60006020828403121561231757600080fd5b61232082612133565b9392505050565b6020808252825182820181905260009190848201906040850190845b8181101561235f57835183529284019291840191600101612343565b50909695505050505050565b6000815180845260005b8181101561239157602081850181015186830182015201612375565b506000602082860101526020601f19601f83011685010191505092915050565b60006020808301818452808551808352604092508286019150828160051b87010184880160005b8381101561243257603f19898403018552815160808151855288820151818a8701526124068287018261236b565b838a01511515878b015260609384015115159390960192909252505093860193908601906001016123d8565b509098975050505050505050565b634e487b7160e01b600052602160045260246000fd5b6004811061247457634e487b7160e01b600052602160045260246000fd5b9052565b60208152815160208201526000602083015161249f60408401826001600160a01b03169052565b5060408301516001600160a01b03811660608401525060608301516001600160a01b038116608084015250608083015160a083015260a083015160c083015260c083015160e083015260e0830151610160610100818186015261250661018086018461236b565b9086015190925061012061251c86820183612456565b86015190506101406125318682018315159052565b959095015193019290925250919050565b8b81526001600160a01b038b811660208301528a81166040830152891660608201526080810188905260a0810187905260c0810186905261016060e082018190526000906125928382018861236b565b9150506125a3610100830186612456565b92151561012082015261014001529998505050505050505050565b600080604083850312156125d157600080fd5b8235915060208084013567ffffffffffffffff808211156125f157600080fd5b818601915086601f83011261260557600080fd5b81358181111561261757612617612192565b8060051b6126268582016121d1565b918252838101850191858101908a84111561264057600080fd5b86860192505b838310156126e25782358581111561265e5760008081fd5b86016080818d03601f19018113156126765760008081fd5b61267e6121a8565b8983013581526040830135888111156126975760008081fd5b6126a58f8c83870101612202565b8b830152506060808401356126b981612272565b604083015292820135926126cc84612272565b8101929092525082529186019190860190612646565b809750505050505050509250929050565b6000806040838503121561270657600080fd5b50508035926020909101359150565b84815260806020820152600061272e608083018661236b565b93151560408301525090151560609091015292915050565b634e487b7160e01b600052601160045260246000fd5b60006001820161276e5761276e612746565b5060010190565b600181811c9082168061278957607f821691505b6020821081036127a957634e487b7160e01b600052602260045260246000fd5b50919050565b601f821115610f5457600081815260208120601f850160051c810160208610156127d65750805b601f850160051c820191505b818110156127f5578281556001016127e2565b505050505050565b815167ffffffffffffffff81111561281757612817612192565b61282b816128258454612775565b846127af565b602080601f83116001811461286057600084156128485750858301515b600019600386901b1c1916600185901b1785556127f5565b600085815260208120601f198616915b8281101561288f57888601518255948401946001909101908401612870565b50858210156128ad5787850151600019600388901b60f8161c191681555b5050505050600190811b01905550565b8381528260208201526060604082015260006128dc606083018461236b565b95945050505050565b6000602082840312156128f757600080fd5b5051919050565b60006020828403121561291057600080fd5b815161232081612272565b634e487b7160e01b600052603260045260246000fd5b8181038181111561294457612944612746565b92915050565b808202811582820484141761294457612944612746565b60008261297e57634e487b7160e01b600052601260045260246000fd5b500490565b808201808211156129445761294461274656fea2646970667358221220da83c8c40cb25ee5cdd7df03e3d9a3f85a1d6e302ed1796e9087993b1326ccd564736f6c63430008140033",
  "linkReferences": {},
  "deployedLinkReferences": {}
}