{
  "_format": "hh-sol-artifact-1",
  "contractName": "InvoiceManager",
  "sourceName": "contracts/InvoiceManager.sol",
  "abi": [
    {
      "inputs": [],
      "stateMutability": "nonpayable",
      "type": "constructor"
    },
    {
      "anonymous": false,
      "inputs": [
        {
          "indexed": true,
          "internalType": "uint256",
          "name": "invoiceId",
          "type": "uint256"
        },
        {
          "indexed": true,
          "internalType": "address",
          "name": "raiser",
          "type": "address"
        }
      ],
      "name": "DisputeRaised",
      "type": "event"
    },
    {
      "anonymous": false,
      "inputs": [
        {
          "indexed": true,
          "internalType": "uint256",
          "name": "invoiceId",
          "type": "uint256"
        },
        {
          "indexed": false,
          "internalType": "uint256",
          "name": "amount",
          "type": "uint256"
        }
      ],
      "name": "EscrowActivated",
      "type": "event"
    },
    {
      "anonymous": false,
      "inputs": [
        {
          "indexed": true,
          "internalType": "uint256",
          "name": "invoiceId",
          "type": "uint256"
        }
      ],
      "name": "InvoiceCancelled",
      "type": "event"
    },
    {
      "anonymous": false,
      "inputs": [
        {
          "indexed": true,
          "internalType": "uint256",
          "name": "invoiceId",
          "type": "uint256"
        },
        {
          "indexed": true,
          "internalType": "address",
          "name": "issuer",
          "type": "address"
        },
        {
          "indexed": true,
          "internalType": "address",
          "name": "client",
          "type": "address"
        },
        {
          "indexed": false,
          "internalType": "uint256",
          "name": "amount",
          "type": "uint256"
        },
        {
          "indexed": false,
          "internalType": "uint256",
          "name": "dueDate",
          "type": "uint256"
        },
        {
          "indexed": false,
          "internalType": "string",
          "name": "description",
          "type": "string"
        }
      ],
      "name": "InvoiceCreated",
      "type": "event"
    },
    {
      "anonymous": false,
      "inputs": [
        {
          "indexed": true,
          "internalType": "uint256",
          "name": "invoiceId",
          "type": "uint256"
        },
        {
          "indexed": true,
          "internalType": "address",
          "name": "payer",
          "type": "address"
        },
        {
          "indexed": false,
          "internalType": "uint256",
          "name": "amount",
          "type": "uint256"
        }
      ],
      "name": "InvoicePaid",
      "type": "event"
    },
    {
      "anonymous": false,
      "inputs": [
        {
          "indexed": true,
          "internalType": "uint256",
          "name": "invoiceId",
          "type": "uint256"
        },
        {
          "indexed": false,
          "internalType": "uint256",
          "name": "milestoneIndex",
          "type": "uint256"
        }
      ],
      "name": "MilestoneCompleted",
      "type": "event"
    },
    {
      "anonymous": false,
      "inputs": [
        {
          "indexed": true,
          "internalType": "uint256",
          "name": "invoiceId",
          "type": "uint256"
        },
        {
          "indexed": false,
          "internalType": "uint256",
          "name": "milestoneIndex",
          "type": "uint256"
        },
        {
          "indexed": false,
          "internalType": "uint256",
          "name": "amount",
          "type": "uint256"
        }
      ],
      "name": "MilestoneReleased",
      "type": "event"
    },
    {
      "anonymous": false,
      "inputs": [
        {
          "indexed": true,
          "internalType": "address",
          "name": "previousOwner",
          "type": "address"
        },
        {
          "indexed": true,
          "internalType": "address",
          "name": "newOwner",
          "type": "address"
        }
      ],
      "name": "OwnershipTransferred",
      "type": "event"
    },
    {
      "anonymous": false,
      "inputs": [
        {
          "indexed": true,
          "internalType": "uint256",
          "name": "invoiceId",
          "type": "uint256"
        },
        {
          "indexed": true,
          "internalType": "uint256",
          "name": "tokenId",
          "type": "uint256"
        },
        {
          "indexed": true,
          "internalType": "address",
          "name": "client",
          "type": "address"
        }
      ],
      "name": "ReceiptMinted",
      "type": "event"
    },
    {
      "inputs": [
        {
          "internalType": "uint256",
          "name": "invoiceId",
          "type": "uint256"
        },
        {
          "components": [
            {
              "internalType": "uint256",
              "name": "amount",
              "type": "uint256"
            },
            {
              "internalType": "string",
              "name": "description",
              "type": "string"
            },
            {
              "internalType": "bool",
              "name": "isCompleted",
              "type": "bool"
            },
            {
              "internalType": "bool",
              "name": "isReleased",
              "type": "bool"
            }
          ],
          "internalType": "struct InvoiceManager.Milestone[]",
          "name": "milestones",
          "type": "tuple[]"
        }
      ],
      "name": "addMilestones",
      "outputs": [],
      "stateMutability": "nonpayable",
      "type": "function"
    },
    {
      "inputs": [
        {
          "internalType": "uint256",
          "name": "invoiceId",
          "type": "uint256"
        }
      ],
      "name": "cancelInvoice",
      "outputs": [],
      "stateMutability": "nonpayable",
      "type": "function"
    },
    {
      "inputs": [
        {
          "internalType": "address",
          "name": "",
          "type": "address"
        },
        {
          "internalType": "uint256",
          "name": "",
          "type": "uint256"
        }
      ],
      "name": "clientInvoices",
      "outputs": [
        {
          "internalType": "uint256",
          "name": "",
          "type": "uint256"
        }
      ],
      "stateMutability": "view",
      "type": "function"
    },
    {
      "inputs": [
        {
          "internalType": "uint256",
          "name": "invoiceId",
          "type": "uint256"
        },
        {
          "internalType": "uint256",
          "name": "milestoneIndex",
          "type": "uint256"
        }
      ],
      "name": "completeMilestone",
      "outputs": [],
      "stateMutability": "nonpayable",
      "type": "function"
    },
    {
      "inputs": [
        {
          "internalType": "address",
          "name": "client",
          "type": "address"
        },
        {
          "internalType": "address",
          "name": "tokenAddress",
          "type": "address"
        },
        {
          "internalType": "uint256",
          "name": "amount",
          "type": "uint256"
        },
        {
          "internalType": "uint256",
          "name": "dueDate",
          "type": "uint256"
        },
        {
          "internalType": "string",
          "name": "description",
          "type": "string"
        },
        {
          "internalType": "bool",
          "name": "useEscrow",
          "type": "bool"
        }
      ],
      "name": "createInvoice",
      "outputs": [
        {
          "internalType": "uint256",
          "name": "invoiceId",
          "type": "uint256"
        }
      ],
      "stateMutability": "nonpayable",
      "type": "function"
    },
    {
      "inputs": [
        {
          "internalType": "address",
          "name": "tokenAddress",
          "type": "address"
        }
      ],
      "name": "emergencyWithdraw",
      "outputs": [],
      "stateMutability": "nonpayable",
      "type": "function"
    },
    {
      "inputs": [
        {
          "internalType": "uint256",
          "name": "",
          "type": "uint256"
        }
      ],
      "name": "escrowInvoices",
      "outputs": [
        {
          "internalType": "uint256",
          "name": "invoiceId",
          "type": "uint256"
        },
        {
          "internalType": "bool",
          "name": "isActive",
          "type": "bool"
        },
        {
          "internalType": "uint256",
          "name": "totalAmount",
          "type": "uint256"
        },
        {
          "internalType": "uint256",
          "name": "releasedAmount",
          "type": "uint256"
        }
      ],
      "stateMutability": "view",
      "type": "function"
    },
    {
      "inputs": [],
      "name": "feeRecipient",
      "outputs": [
        {
          "internalType": "address",
          "name": "",
          "type": "address"
        }
      ],
      "stateMutability": "view",
      "type": "function"
    },
    {
      "inputs": [
        {
          "internalType": "address",
          "name": "client",
          "type": "address"
        }
      ],
      "name": "getClientInvoices",
      "outputs": [
        {
          "internalType": "uint256[]",
          "name": "",
          "type": "uint256[]"
        }
      ],
      "stateMutability": "view",
      "type": "function"
    },
    {
      "inputs": [
        {
          "internalType": "uint256",
          "name": "invoiceId",
          "type": "uint256"
        }
      ],
      "name": "getInvoice",
      "outputs": [
        {
          "components": [
            {
              "internalType": "uint256",
              "name": "id",
              "type": "uint256"
            },
            {
              "internalType": "address",
              "name": "issuer",
              "type": "address"
            },
            {
              "internalType": "address",
              "name": "client",
              "type": "address"
            },
            {
              "internalType": "address",
              "name": "tokenAddress",
              "type": "address"
            },
            {
              "internalType": "uint256",
              "name": "amount",
              "type": "uint256"
            },
            {
              "internalType": "uint256",
              "name": "amountPaid",
              "type": "uint256"
            },
            {
              "internalType": "uint256",
              "name": "dueDate",
              "type": "uint256"
            },
            {
              "internalType": "string",
              "name": "description",
              "type": "string"
            },
            {
              "internalType": "enum InvoiceManager.InvoiceStatus",
              "name": "status",
              "type": "uint8"
            },
            {
              "internalType": "bool",
              "name": "useEscrow",
              "type": "bool"
            },
            {
              "internalType": "uint256",
              "name": "createdAt",
              "type": "uint256"
            }
          ],
          "internalType": "struct InvoiceManager.Invoice",
          "name": "",
          "type": "tuple"
        }
      ],
      "stateMutability": "view",
      "type": "function"
    },
    {
      "inputs": [
        {
          "internalType": "uint256",
          "name": "invoiceId",
          "type": "uint256"
        }
      ],
      "name": "getInvoiceMilestones",
      "outputs": [
        {
          "components": [
            {
              "internalType": "uint256",
              "name": "amount",
              "type": "uint256"
            },
            {
              "internalType": "string",
              "name": "description",
              "type": "string"
            },
            {
              "internalType": "bool",
              "name": "isCompleted",
              "type": "bool"
            },
            {
              "internalType": "bool",
              "name": "isReleased",
              "type": "bool"
            }
          ],
          "internalType": "struct InvoiceManager.Milestone[]",
          "name": "",
          "type": "tuple[]"
        }
      ],
      "stateMutability": "view",
      "type": "function"
    },
    {
      "inputs": [
        {
          "internalType": "address",
          "name": "user",
          "type": "address"
        }
      ],
      "name": "getUserInvoices",
      "outputs": [
        {
          "internalType": "uint256[]",
          "name": "",
          "type": "uint256[]"
        }
      ],
      "stateMutability": "view",
      "type": "function"
    },
    {
      "inputs": [
        {
          "internalType": "uint256",
          "name": "",
          "type": "uint256"
        },
        {
          "internalType": "uint256",
          "name": "",
          "type": "uint256"
        }
      ],
      "name": "invoiceMilestones",
      "outputs": [
        {
          "internalType": "uint256",
          "name": "amount",
          "type": "uint256"
        },
        {
          "internalType": "string",
          "name": "description",
          "type": "string"
        },
        {
          "internalType": "bool",
          "name": "isCompleted",
          "type": "bool"
        },
        {
          "internalType": "bool",
          "name": "isReleased",
          "type": "bool"
        }
      ],
      "stateMutability": "view",
      "type": "function"
    },
    {
      "inputs": [],
      "name": "invoiceNFT",
      "outputs": [
        {
          "internalType": "contract IInvoiceNFT",
          "name": "",
          "type": "address"
        }
      ],
      "stateMutability": "view",
      "type": "function"
    },
    {
      "inputs": [
        {
          "internalType": "uint256",
          "name": "",
          "type": "uint256"
        }
      ],
      "name": "invoices",
      "outputs": [
        {
          "internalType": "uint256",
          "name": "id",
          "type": "uint256"
        },
        {
          "internalType": "address",
          "name": "issuer",
          "type": "address"
        },
        {
          "internalType": "address",
          "name": "client",
          "type": "address"
        },
        {
          "internalType": "address",
          "name": "tokenAddress",
          "type": "address"
        },
        {
          "internalType": "uint256",
          "name": "amount",
          "type": "uint256"
        },
        {
          "internalType": "uint256",
          "name": "amountPaid",
          "type": "uint256"
        },
        {
          "internalType": "uint256",
          "name": "dueDate",
          "type": "uint256"
        },
        {
          "internalType": "string",
          "name": "description",
          "type": "string"
        },
        {
          "internalType": "enum InvoiceManager.InvoiceStatus",
          "name": "status",
          "type": "uint8"
        },
        {
          "internalType": "bool",
          "name": "useEscrow",
          "type": "bool"
        },
        {
          "internalType": "uint256",
          "name": "createdAt",
          "type": "uint256"
        }
      ],
      "stateMutability": "view",
      "type": "function"
    },
    {
      "inputs": [],
      "name": "nextInvoiceId",
      "outputs": [
        {
          "internalType": "uint256",
          "name": "",
          "type": "uint256"
        }
      ],
      "stateMutability": "view",
      "type": "function"
    },
    {
      "inputs": [],
      "name": "owner",
      "outputs": [
        {
          "internalType": "address",
          "name": "",
          "type": "address"
        }
      ],
      "stateMutability": "view",
      "type": "function"
    },
    {
      "inputs": [
        {
          "internalType": "uint256",
          "name": "invoiceId",
          "type": "uint256"
        }
      ],
      "name": "payInvoice",
      "outputs": [],
      "stateMutability": "payable",
      "type": "function"
    },
    {
      "inputs": [],
      "name": "platformFeePercentage",
      "outputs": [
        {
          "internalType": "uint256",
          "name": "",
          "type": "uint256"
        }
      ],
      "stateMutability": "view",
      "type": "function"
    },
    {
      "inputs": [
        {
          "internalType": "uint256",
          "name": "invoiceId",
          "type": "uint256"
        }
      ],
      "name": "raiseDispute",
      "outputs": [],
      "stateMutability": "nonpayable",
      "type": "function"
    },
    {
      "inputs": [
        {
          "internalType": "uint256",
          "name": "invoiceId",
          "type": "uint256"
        },
        {
          "internalType": "uint256",
          "name": "milestoneIndex",
          "type": "uint256"
        }
      ],
      "name": "releaseMilestone",
      "outputs": [],
      "stateMutability": "nonpayable",
      "type": "function"
    },
    {
      "inputs": [],
      "name": "renounceOwnership",
      "outputs": [],
      "stateMutability": "nonpayable",
      "type": "function"
    },
    {
      "inputs": [
        {
          "internalType": "address",
          "name": "newFeeRecipient",
          "type": "address"
        }
      ],
      "name": "setFeeRecipient",
      "outputs": [],
      "stateMutability": "nonpayable",
      "type": "function"
    },
    {
      "inputs": [
        {
          "internalType": "address",
          "name": "nftContractAddress",
          "type": "address"
        }
      ],
      "name": "setInvoiceNFT",
      "outputs": [],
      "stateMutability": "nonpayable",
      "type": "function"
    },
    {
      "inputs": [
        {
          "internalType": "uint256",
          "name": "newFeePercentage",
          "type": "uint256"
        }
      ],
      "name": "setPlatformFee",
      "outputs": [],
      "stateMutability": "nonpayable",
      "type": "function"
    },
    {
      "inputs": [
        {
          "internalType": "address",
          "name": "newOwner",
          "type": "address"
        }
      ],
      "name": "transferOwnership",
      "outputs": [],
      "stateMutability": "nonpayable",
      "type": "function"
    },
    {
      "inputs": [
        {
          "internalType": "address",
          "name": "",
          "type": "address"
        },
        {
          "internalType": "uint256",
          "name": "",
          "type": "uint256"
        }
      ],
      "name": "userInvoices",
      "outputs": [
        {
          "internalType": "uint256",
          "name": "",
          "type": "uint256"
        }
      ],
      "stateMutability": "view",
      "type": "function"
    }
  ],
  "bytecode": "0x608080604052346100745760008054336001600160a01b0319808316821784559290916001600160a01b0316907f8be0079c531659141344cd1fd0a4f28419497f9722a3daafe3b4186f6b6457e09080a360018055600160075560fa60085533906009541617600955612585908161007a8239f35b600080fdfe6080604052600436101561001257600080fd5b60003560e01c80630ad6b0a5146120a557806312e8e2c31461203e578063192b7f4114611b635780631cb9b2aa14611aeb578063221604a2146119ac57806324d3b3e2146119245780633a23cc0a1461175157806346904840146117285780634bb6f06d146116ff5780634e6d1405146116245780636ff1c9bc1461150d5780636ff2a953146114ef578063715018a6146114965780637637e393146114435780638da5cb5b1461141a578063a5310eab14611038578063a5c1674e14610f69578063aa12aa6214610edf578063ac60a6cd14610935578063cdd78cfc14610917578063d5e57ad5146108bf578063da9c273d146107aa578063dbaf091014610458578063e74b981b146103d3578063f2fde38b1461030f578063f326206b146101d75763f939f4961461014557600080fd5b346101d25760203660031901126101d25761015e6120ef565b61016661237e565b6001600160a01b0316801561018d576001600160601b0360a01b600a541617600a55600080f35b60405162461bcd60e51b815260206004820152601c60248201527f496e76616c6964204e465420636f6e74726163742061646472657373000000006044820152606490fd5b600080fd5b346101d2576101e53661234c565b908060005260206002815260018060a01b036001604060002001541633036102bf57816000526004815261021f6040600020548410612503565b81600052600481526002610237846040600020612362565b50019283549360ff851661027a5760017f1b7218c0ac23ea9cbe4df603d2b340fbf469a115b73ea3d11460727f445d6be1949560ff1916179055604051908152a2005b60405162461bcd60e51b815260048101849052601b60248201527f4d696c6573746f6e6520616c726561647920636f6d706c6574656400000000006044820152606490fd5b6084906040519062461bcd60e51b82526004820152602360248201527f4f6e6c79206973737565722063616e20636f6d706c657465206d696c6573746f6044820152626e657360e81b6064820152fd5b346101d25760203660031901126101d2576103286120ef565b61033061237e565b6001600160a01b0390811690811561037f57600054826001600160601b0360a01b821617600055167f8be0079c531659141344cd1fd0a4f28419497f9722a3daafe3b4186f6b6457e0600080a3005b60405162461bcd60e51b815260206004820152602660248201527f4f776e61626c653a206e6577206f776e657220697320746865207a65726f206160448201526564647265737360d01b6064820152608490fd5b346101d25760203660031901126101d2576103ec6120ef565b6103f461237e565b6001600160a01b0316801561041b576001600160601b0360a01b6009541617600955600080f35b60405162461bcd60e51b8152602060048201526015602482015274125b9d985b1a5908199959481c9958da5c1a595b9d605a1b6044820152606490fd5b346101d2576104663661234c565b816000526020906002825260406000209060018060a01b039182600282015416330361075a5784600052600484526104a46040600020548310612503565b84600052600484526104ba826040600020612362565b509260028401805460ff8116156107155760ff8160081c166106d0576101009061ff001916179055856000526003855260406000206105006003865492019182546124f6565b905583549161051f61271061051760085486612455565b048094612430565b908260038201541680156000146105b65750600080809385600183950154168282156105ad575bf1156105985760008080938193600954168282156105a4575bf115610598577fd33fcd27cbfb73a2d9058c968b560ccb306500bf536133802048489ecc7355e9926040925b54908351928352820152a2005b6040513d6000823e3d90fd5b506108fc61055f565b506108fc610546565b6001919091015460405163a9059cbb60e01b8082529185166001600160a01b031660048201526024810193909352929693919284846044816000865af180156105985761064098610612600092889784916106b3575b50612468565b600954604051938452166001600160a01b031660048301526024820193909352968792839182906044820190565b03925af1928315610598576106816040947fd33fcd27cbfb73a2d9058c968b560ccb306500bf536133802048489ecc7355e996600091610686575b506124b4565b61058b565b6106a69150843d86116106ac575b61069e8183612156565b81019061243d565b8861067b565b503d610694565b6106ca9150883d8a116106ac5761069e8183612156565b8d61060c565b60405162461bcd60e51b815260048101889052601a60248201527f4d696c6573746f6e6520616c72656164792072656c65617365640000000000006044820152606490fd5b60405162461bcd60e51b815260048101889052601760248201527f4d696c6573746f6e65206e6f7420636f6d706c657465640000000000000000006044820152606490fd5b60405162461bcd60e51b815260048101859052602260248201527f4f6e6c7920636c69656e742063616e2072656c65617365206d696c6573746f6e604482015261657360f01b6064820152608490fd5b346101d25760203660031901126101d257600435600081815260026020526040902060018101546001600160a01b0316330361088157600801805460ff8116600481101561086b576108265760ff191660021790557f2e9842040508f80e6420769a8673529eb3af5b952f53af83d9c9d3432da78046600080a2005b60405162461bcd60e51b815260206004820152601a60248201527f43616e6e6f742063616e63656c207061696420696e766f6963650000000000006044820152606490fd5b634e487b7160e01b600052602160045260246000fd5b60405162461bcd60e51b815260206004820152601660248201527513db9b1e481a5cdcdd595c8818d85b8818d85b98d95b60521b6044820152606490fd5b346101d25760403660031901126101d2576108d86120ef565b6001600160a01b03166000908152600660205260409020805460243591908210156101d25760209161090991612105565b90546040519160031b1c8152f35b346101d25760003660031901126101d2576020600854604051908152f35b6020806003193601126101d257600435906001916002835414610e9a576002835580600052600282526040600020805415610e5c57600881019260ff845416600481101561086b57610e22576002820180546001600160a01b039081163303610de75760048401938454946109b06005830196875490612430565b97836003840154168015600014610c285750883410610bec57888a60ff835460081c1615610b86575b503411610b53575b6109ec8988546124f6565b8097558960ff19825416179055548095101580610b46575b610a3c575b5050507fa6abfda59e12fa300d17e1aa76bd3233eaf23ee4feb4b02b6516ad1d60be840091506040519384523393a38055005b839082600a5416838a83015416600089610a9087895416956040519b8c9788968795635c6b8fcb60e01b8752600487015260248601526044850152606484015260a06084840152600760a48401910161229e565b03925af19182600093610af7575b7fa6abfda59e12fa300d17e1aa76bd3233eaf23ee4feb4b02b6516ad1d60be8400955015610a0957541690847fddbf9d9b2b8ec52d81ebdd4358971424e6dcfd1343b0f03b2dceb9c85c168e35600080a4858080610a09565b92508385813d8311610b3f575b610b0e8183612156565b810103126101d2577fa6abfda59e12fa300d17e1aa76bd3233eaf23ee4feb4b02b6516ad1d60be8400945192610a9e565b503d610b04565b5081600a54161515610a04565b6000808080610b628d34612430565b818115610b7d575b3390f16109e1576040513d6000823e3d90fd5b506108fc610b6a565b60008080809389610ba7612710610b9f6008548a612455565b048098612430565b918a015416828215610be3575bf115610598576000808080938860095416828215610bda575bf11561059857888a6109d9565b506108fc610bcd565b506108fc610bb4565b60405162461bcd60e51b8152600481018790526014602482015273125b9cdd59999a58da595b9d081c185e5b595b9d60621b6044820152606490fd5b6040516323b872dd60e01b8152336004820152306024820152604481018b905287816064816000865af190811561059857600091610dca575b5015610d8d578a8a60ff845460081c1615610c7f575b5050506109e1565b610cd8928988610c9f612710610c9760085487612455565b048095612430565b9489015460405163a9059cbb60e01b808252929091166001600160a01b0316600482015260248101959095529394859081906044820190565b03816000855af192831561059857610cfc8b94610d3096600091610d705750612468565b60095460405191825289166001600160a01b0316600482015260248101929092529092839190829060009082906044820190565b03925af1801561059857610d4b91600091610d5357506124b4565b8a8a8a610c77565b610d6a9150883d8a116106ac5761069e8183612156565b8c61067b565b610d879150863d88116106ac5761069e8183612156565b3861060c565b60405162461bcd60e51b8152600481018890526015602482015274151bdad95b881d1c985b9cd9995c8819985a5b1959605a1b6044820152606490fd5b610de19150883d8a116106ac5761069e8183612156565b8c610c61565b60405162461bcd60e51b81526004810184905260136024820152724f6e6c7920636c69656e742063616e2070617960681b6044820152606490fd5b6064906040519062461bcd60e51b825260048201526013602482015272496e766f696365206e6f742070617961626c6560681b6044820152fd5b60405162461bcd60e51b8152600481018490526016602482015275125b9d9bda58d948191bd95cc81b9bdd08195e1a5cdd60521b6044820152606490fd5b60405162461bcd60e51b815260048101839052601f60248201527f5265656e7472616e637947756172643a207265656e7472616e742063616c6c006044820152606490fd5b346101d257610eed3661234c565b90600052600460205260406000209081548110156101d257610f0e91612362565b508054600260405192610f2f84610f28816001850161229e565b0385612156565b015460ff610f4f6040519485948552608060208601526080850190612217565b918181161515604085015260081c16151560608301520390f35b346101d25760203660031901126101d25760043560008181526002602052604090206001810154336001600160a01b0391821614918215611027575b505015610ff1578060005260026020526008604060002001600360ff1982541617905533907f84a477df8a28a4276ca6dee4458a06c3015f30c477d9c949ede4e13ff8a552b4600080a3005b60405162461bcd60e51b815260206004820152600e60248201526d139bdd08185d5d1a1bdc9a5e995960921b6044820152606490fd5b600291925001541633148280610fa5565b346101d25760403660031901126101d25760243567ffffffffffffffff81116101d257366023820112156101d257806004013561107481612334565b916110826040519384612156565b8183526024602084019260051b820101903682116101d25760248101925b82841061138b5760043560009081526002602052604090206001015485906001600160a01b0316330361134657600435600052600260205260ff60086040600020015460081c16156113015760005b81518110156112ff576004356000526004602052604060002082518210156112e95760208260051b84010151908054600160401b8110156112bd5761113991600182018155612362565b6112d35781518155602082015180519067ffffffffffffffff82116112bd576111656001840154612264565b601f8111611276575b50602090601f83116001146111f9576111e493836111e99796946060946002946000926111ee575b50508160011b916000199060031b1c19161760018201555b01916111cc60408201511515849060ff801983541691151516179055565b0151815461ff00191690151560081b61ff0016179055565b6123d6565b6110ef565b015190508a80611196565b906001840160005260206000209160005b601f198516811061125e5750936001846060946002946111e4986111e99b9a98601f19811610611245575b505050811b0160018201556111ae565b015160001960f88460031b161c191690558a8080611235565b9192602060018192868501518155019401920161120a565b600184016000526020600020601f840160051c8101602085106112b6575b601f830160051c820181106112aa57505061116e565b60008155600101611294565b5080611294565b634e487b7160e01b600052604160045260246000fd5b634e487b7160e01b600052600060045260246000fd5b634e487b7160e01b600052603260045260246000fd5b005b60405162461bcd60e51b815260206004820152601760248201527f496e766f696365206d7573742075736520657363726f770000000000000000006044820152606490fd5b60405162461bcd60e51b815260206004820152601e60248201527f4f6e6c79206973737565722063616e20616464206d696c6573746f6e657300006044820152606490fd5b833567ffffffffffffffff81116101d257820190608060231983360301126101d257604051906113ba8261213a565b6024830135825260448301359167ffffffffffffffff83116101d25761140a60846020956113ef879660243691840101612178565b868501526113ff606482016121cf565b6040850152016121cf565b60608201528152019301926110a0565b346101d25760003660031901126101d2576000546040516001600160a01b039091168152602090f35b346101d25760203660031901126101d25760043560005260036020526080604060002080549060ff6001820154169060036002820154910154916040519384521515602084015260408301526060820152f35b346101d25760003660031901126101d2576114af61237e565b600080546001600160a01b0319811682556001600160a01b03167f8be0079c531659141344cd1fd0a4f28419497f9722a3daafe3b4186f6b6457e08280a3005b346101d25760003660031901126101d2576020600754604051908152f35b346101d2576020806003193601126101d2576115276120ef565b9061153061237e565b6001600160a01b0391821680611566575050600080808093815416479082821561155d575bf11561059857005b506108fc611555565b909160005416604051906370a0823160e01b82523060048301528382602481865afa9081156105985784926000926115f1575b5060405163a9059cbb60e01b81526001600160a01b039091166004820152602481019190915291829081600081604481015b03925af18015610598576115db57005b816112ff92903d106106ac5761069e8183612156565b8381949293503d831161161d575b6116098183612156565b810103126101d257905183916115cb611599565b503d6115ff565b346101d25760203660031901126101d25760043560005260026020526040600020805460018060a01b0391826001820154169260ff6116d8826002850154169260038501541660048501546005860154600687015491604051936116968561168f8160078d0161229e565b0386612156565b600960088a0154990154976040519b8c9b8c5260208c015260408b015260608a0152608089015260a088015260c08701526101608060e0880152860190612217565b926116e96101008601838316612257565b60081c1615156101208401526101408301520390f35b346101d25760003660031901126101d257600a546040516001600160a01b039091168152602090f35b346101d25760003660031901126101d2576009546040516001600160a01b039091168152602090f35b346101d25760203660031901126101d25760006101406040516117738161211d565b8281528260208201528260408201528260608201528260808201528260a08201528260c0820152606060e08201528261010082015282610120820152015260043560005260026020526040600020604051906117ce8261211d565b8054825260018101546001600160a01b039081166020840152600282015481166040808501919091526003830154909116606084015260048201546080840152600582015460a0840152600682015460c08401525161183b81611834816007860161229e565b0382612156565b60e0830152600881015490600460ff8316101561086b5760ff82816009941661010086015260081c16151561012084015201546101408201526040518091602082528051602083015260018060a01b03602082015116604083015260018060a01b03604082015116606083015260018060a01b036060820151166080830152608081015160a083015260a081015160c083015260c081015160e083015260e08101516101406118f96101609283610100870152610180860190612217565b9261190e610100820151610120870190612257565b6101208101511515828601520151908301520390f35b346101d2576020806003193601126101d2576001600160a01b036119466120ef565b1660005260058152604060002090604051908181845491828152019360005281600020916000905b828210611995576119918561198581890382612156565b604051918291826121dc565b0390f35b83548652948501946001938401939091019061196e565b346101d2576020806003193601126101d257600435600052600481526040600020908154916119da83612334565b926119e86040519485612156565b8084528284018092600052836000206000915b838310611a8d5750505050604051918083019381845251809452604083019360408160051b85010192916000955b828710611a365785850386f35b909192938280600192603f1989820301855287519081518152611a658383015160808086850152830190612217565b9160408101511515604083015260608091015115159101529601920196019592919092611a29565b600386600192604099989951611aa28161213a565b85548152604051611ab98161183481898b0161229e565b83820152600286015460ff908181161515604084015260081c16151560608201528152019201920191909594956119fb565b346101d2576020806003193601126101d2576001600160a01b03611b0d6120ef565b1660005260068152604060002090604051908181845491828152019360005281600020916000905b828210611b4c576119918561198581890382612156565b835486529485019460019384019390910190611b35565b346101d25760c03660031901126101d257611b7c6120ef565b602435906001600160a01b03821682036101d25760843567ffffffffffffffff81116101d257611bb0903690600401612178565b9060a435151560a435036101d2576001600160a01b038116156120005760443515611fbb57426064351115611f765760075491611bec836123d6565b60075560405193611bfc8561211d565b83855233602086015260018060a01b038316604086015260018060a01b031660608501526044356080850152600060a085015260643560c08501528060e0850152600061010085015260a4351515610120850152426101408501528260005260026020526040600020845181556001810160018060a01b03602087015116906001600160601b0360a01b91828254161790556002820160018060a01b0360408801511682825416179055600382019060018060a01b03606088015116908254161790556080850151600482015560a0850151600582015560c0850151600682015560e085015180519067ffffffffffffffff82116112bd578190611d036007850154612264565b601f8111611f23575b50602090601f8311600114611eb657600092611eab575b50508160011b916000199060031b1c19161760078201555b61010085015160088201600482101561086b57805461012088015161ff0090151560081b1660ff9390931661ffff199091161791909117905560209460099061014001519101553360005260058452611d988360406000206123fb565b60018060a01b03821660005260068452611db68360406000206123fb565b60a435611e1b575b827fc42cc137a7bf06606c7b59fc43c02dd34f7a86e23e35de7139fedca54b8616d0604051936044358552606435878601526060604086015260018060a01b03169380611e1033956060830190612217565b0390a4604051908152f35b604051611e278161213a565b838152600385820160018152604083016044358152611e7060608501926000845288600052848a52604060002095518655511515600186019060ff801983541691151516179055565b51600284015551910155827fe3c2e3e893e063a23ddc6faab3e3c024f0524199c4af658eef25bb4eb35e390d856040516044358152a2611dbe565b015190508780611d23565b600785016000908152602081209350601f198516905b818110611f0b5750908460019594939210611ef2575b505050811b016007820155611d3b565b015160001960f88460031b161c19169055878080611ee2565b92936020600181928786015181550195019301611ecc565b909150600784016000526020600020601f840160051c810160208510611f6f575b90849392915b601f830160051c82018110611f60575050611d0c565b60008155859450600101611f4a565b5080611f44565b60405162461bcd60e51b815260206004820152601e60248201527f4475652064617465206d75737420626520696e207468652066757475726500006044820152606490fd5b60405162461bcd60e51b815260206004820152601d60248201527f416d6f756e74206d7573742062652067726561746572207468616e20300000006044820152606490fd5b60405162461bcd60e51b8152602060048201526016602482015275496e76616c696420636c69656e74206164647265737360501b6044820152606490fd5b346101d25760203660031901126101d25760043561205a61237e565b6103e8811161206857600855005b60405162461bcd60e51b81526020600482015260156024820152744665652063616e6e6f74206578636565642031302560581b6044820152606490fd5b346101d25760403660031901126101d2576120be6120ef565b6001600160a01b03166000908152600560205260409020805460243591908210156101d25760209161090991612105565b600435906001600160a01b03821682036101d257565b80548210156112e95760005260206000200190600090565b610160810190811067ffffffffffffffff8211176112bd57604052565b6080810190811067ffffffffffffffff8211176112bd57604052565b90601f8019910116810190811067ffffffffffffffff8211176112bd57604052565b81601f820112156101d25780359067ffffffffffffffff82116112bd57604051926121ad601f8401601f191660200185612156565b828452602083830101116101d257816000926020809301838601378301015290565b359081151582036101d257565b6020908160408183019282815285518094520193019160005b828110612203575050505090565b8351855293810193928101926001016121f5565b919082519283825260005b848110612243575050826000602080949584010152601f8019910116010190565b602081830181015184830182015201612222565b90600482101561086b5752565b90600182811c92168015612294575b602083101461227e57565b634e487b7160e01b600052602260045260246000fd5b91607f1691612273565b90600092918054916122af83612264565b91828252600193848116908160001461231157506001146122d1575b50505050565b90919394506000526020928360002092846000945b8386106122fd5750505050010190388080806122cb565b8054858701830152940193859082016122e6565b9294505050602093945060ff191683830152151560051b010190388080806122cb565b67ffffffffffffffff81116112bd5760051b60200190565b60409060031901126101d2576004359060243590565b80548210156112e9576000526003602060002091020190600090565b6000546001600160a01b0316330361239257565b606460405162461bcd60e51b815260206004820152602060248201527f4f776e61626c653a2063616c6c6572206973206e6f7420746865206f776e65726044820152fd5b60001981146123e55760010190565b634e487b7160e01b600052601160045260246000fd5b8054600160401b8110156112bd5761241891600182018155612105565b819291549060031b91821b91600019901b1916179055565b919082039182116123e557565b908160209103126101d2575180151581036101d25790565b818102929181159184041417156123e557565b1561246f57565b60405162461bcd60e51b815260206004820152601960248201527f5472616e7366657220746f20697373756572206661696c6564000000000000006044820152606490fd5b156124bb57565b60405162461bcd60e51b8152602060048201526013602482015272119959481d1c985b9cd9995c8819985a5b1959606a1b6044820152606490fd5b919082018092116123e557565b1561250a57565b60405162461bcd60e51b815260206004820152601760248201527f496e76616c6964206d696c6573746f6e6520696e6465780000000000000000006044820152606490fdfea2646970667358221220ff34554db971e7af78bccc4f2c7c74b7816c1fa8ee5783dbc6841d6d2850b6ef64736f6c63430008140033",
  "linkReferences": {},
  "deployedLinkReferences": {}
}