{
  "_format": "hh-sol-artifact-1",
  "contractName": "Escrow",
  "sourceName": "contracts/Escrow.sol",
  "abi": [
    {
      "inputs": [],
      "stateMutability": "nonpayable",
      "type": "constructor"
    },
    {
      "anonymous": false,
      "inputs": [
        {
          "indexed": true,
          "internalType": "uint256",
          "name": "escrowId",
          "type": "uint256"
        },
        {
          "indexed": true,
          "internalType": "address",
          "name": "raiser",
          "type": "address"
        }
      ],
      "name": "DisputeRaised",
      "type": "event"
    },
    {
      "anonymous": false,
      "inputs": [
        {
          "indexed": true,
          "internalType": "uint256",
          "name": "escrowId",
          "type": "uint256"
        }
      ],
      "name": "EscrowCancelled",
      "type": "event"
    },
    {
      "anonymous": false,
      "inputs": [
        {
          "indexed": true,
          "internalType": "uint256",
          "name": "escrowId",
          "type": "uint256"
        }
      ],
      "name": "EscrowCompleted",
      "type": "event"
    },
    {
      "anonymous": false,
      "inputs": [
        {
          "indexed": true,
          "internalType": "uint256",
          "name": "escrowId",
          "type": "uint256"
        },
        {
          "indexed": true,
          "internalType": "address",
          "name": "payer",
          "type": "address"
        },
        {
          "indexed": true,
          "internalType": "address",
          "name": "payee",
          "type": "address"
        },
        {
          "indexed": false,
          "internalType": "uint256",
          "name": "amount",
          "type": "uint256"
        }
      ],
      "name": "EscrowCreated",
      "type": "event"
    },
    {
      "anonymous": false,
      "inputs": [
        {
          "indexed": true,
          "internalType": "uint256",
          "name": "escrowId",
          "type": "uint256"
        },
        {
          "indexed": false,
          "internalType": "uint256",
          "name": "amount",
          "type": "uint256"
        }
      ],
      "name": "FundsReleased",
      "type": "event"
    },
    {
      "anonymous": false,
      "inputs": [
        {
          "indexed": true,
          "internalType": "address",
          "name": "previousOwner",
          "type": "address"
        },
        {
          "indexed": true,
          "internalType": "address",
          "name": "newOwner",
          "type": "address"
        }
      ],
      "name": "OwnershipTransferred",
      "type": "event"
    },
    {
      "inputs": [
        {
          "internalType": "uint256",
          "name": "escrowId",
          "type": "uint256"
        }
      ],
      "name": "cancelEscrow",
      "outputs": [],
      "stateMutability": "nonpayable",
      "type": "function"
    },
    {
      "inputs": [
        {
          "internalType": "address",
          "name": "payee",
          "type": "address"
        },
        {
          "internalType": "address",
          "name": "tokenAddress",
          "type": "address"
        },
        {
          "internalType": "uint256",
          "name": "amount",
          "type": "uint256"
        },
        {
          "internalType": "uint256",
          "name": "deadline",
          "type": "uint256"
        },
        {
          "internalType": "string",
          "name": "description",
          "type": "string"
        }
      ],
      "name": "createEscrow",
      "outputs": [
        {
          "internalType": "uint256",
          "name": "escrowId",
          "type": "uint256"
        }
      ],
      "stateMutability": "payable",
      "type": "function"
    },
    {
      "inputs": [],
      "name": "disputeTimeWindow",
      "outputs": [
        {
          "internalType": "uint256",
          "name": "",
          "type": "uint256"
        }
      ],
      "stateMutability": "view",
      "type": "function"
    },
    {
      "inputs": [
        {
          "internalType": "uint256",
          "name": "",
          "type": "uint256"
        }
      ],
      "name": "escrows",
      "outputs": [
        {
          "internalType": "uint256",
          "name": "id",
          "type": "uint256"
        },
        {
          "internalType": "address",
          "name": "payer",
          "type": "address"
        },
        {
          "internalType": "address",
          "name": "payee",
          "type": "address"
        },
        {
          "internalType": "address",
          "name": "tokenAddress",
          "type": "address"
        },
        {
          "internalType": "uint256",
          "name": "amount",
          "type": "uint256"
        },
        {
          "internalType": "uint256",
          "name": "releasedAmount",
          "type": "uint256"
        },
        {
          "internalType": "enum Escrow.EscrowStatus",
          "name": "status",
          "type": "uint8"
        },
        {
          "internalType": "uint256",
          "name": "createdAt",
          "type": "uint256"
        },
        {
          "internalType": "uint256",
          "name": "deadline",
          "type": "uint256"
        },
        {
          "internalType": "string",
          "name": "description",
          "type": "string"
        }
      ],
      "stateMutability": "view",
      "type": "function"
    },
    {
      "inputs": [
        {
          "internalType": "uint256",
          "name": "escrowId",
          "type": "uint256"
        }
      ],
      "name": "getEscrow",
      "outputs": [
        {
          "components": [
            {
              "internalType": "uint256",
              "name": "id",
              "type": "uint256"
            },
            {
              "internalType": "address",
              "name": "payer",
              "type": "address"
            },
            {
              "internalType": "address",
              "name": "payee",
              "type": "address"
            },
            {
              "internalType": "address",
              "name": "tokenAddress",
              "type": "address"
            },
            {
              "internalType": "uint256",
              "name": "amount",
              "type": "uint256"
            },
            {
              "internalType": "uint256",
              "name": "releasedAmount",
              "type": "uint256"
            },
            {
              "internalType": "enum Escrow.EscrowStatus",
              "name": "status",
              "type": "uint8"
            },
            {
              "internalType": "uint256",
              "name": "createdAt",
              "type": "uint256"
            },
            {
              "internalType": "uint256",
              "name": "deadline",
              "type": "uint256"
            },
            {
              "internalType": "string",
              "name": "description",
              "type": "string"
            }
          ],
          "internalType": "struct Escrow.EscrowAgreement",
          "name": "",
          "type": "tuple"
        }
      ],
      "stateMutability": "view",
      "type": "function"
    },
    {
      "inputs": [
        {
          "internalType": "address",
          "name": "user",
          "type": "address"
        }
      ],
      "name": "getUserEscrows",
      "outputs": [
        {
          "internalType": "uint256[]",
          "name": "",
          "type": "uint256[]"
        }
      ],
      "stateMutability": "view",
      "type": "function"
    },
    {
      "inputs": [],
      "name": "nextEscrowId",
      "outputs": [
        {
          "internalType": "uint256",
          "name": "",
          "type": "uint256"
        }
      ],
      "stateMutability": "view",
      "type": "function"
    },
    {
      "inputs": [],
      "name": "owner",
      "outputs": [
        {
          "internalType": "address",
          "name": "",
          "type": "address"
        }
      ],
      "stateMutability": "view",
      "type": "function"
    },
    {
      "inputs": [
        {
          "internalType": "uint256",
          "name": "escrowId",
          "type": "uint256"
        }
      ],
      "name": "raiseDispute",
      "outputs": [],
      "stateMutability": "nonpayable",
      "type": "function"
    },
    {
      "inputs": [
        {
          "internalType": "uint256",
          "name": "escrowId",
          "type": "uint256"
        },
        {
          "internalType": "uint256",
          "name": "amount",
          "type": "uint256"
        }
      ],
      "name": "releaseFunds",
      "outputs": [],
      "stateMutability": "nonpayable",
      "type": "function"
    },
    {
      "inputs": [],
      "name": "renounceOwnership",
      "outputs": [],
      "stateMutability": "nonpayable",
      "type": "function"
    },
    {
      "inputs": [
        {
          "internalType": "uint256",
          "name": "escrowId",
          "type": "uint256"
        },
        {
          "internalType": "uint256",
          "name": "payerAmount",
          "type": "uint256"
        },
        {
          "internalType": "uint256",
          "name": "payeeAmount",
          "type": "uint256"
        }
      ],
      "name": "resolveDispute",
      "outputs": [],
      "stateMutability": "nonpayable",
      "type": "function"
    },
    {
      "inputs": [
        {
          "internalType": "uint256",
          "name": "newTimeWindow",
          "type": "uint256"
        }
      ],
      "name": "setDisputeTimeWindow",
      "outputs": [],
      "stateMutability": "nonpayable",
      "type": "function"
    },
    {
      "inputs": [
        {
          "internalType": "address",
          "name": "newOwner",
          "type": "address"
        }
      ],
      "name": "transferOwnership",
      "outputs": [],
      "stateMutability": "nonpayable",
      "type": "function"
    },
    {
      "inputs": [
        {
          "internalType": "address",
          "name": "",
          "type": "address"
        },
        {
          "internalType": "uint256",
          "name": "",
          "type": "uint256"
        }
      ],
      "name": "userEscrows",
      "outputs": [
        {
          "internalType": "uint256",
          "name": "",
          "type": "uint256"
        }
      ],
      "stateMutability": "view",
      "type": "function"
    }
  ],
  "bytecode": "0x6080806040523461006b5760008054336001600160a01b0319821681178355916001600160a01b03909116907f8be0079c531659141344cd1fd0a4f28419497f9722a3daafe3b4186f6b6457e09080a360018055600160045562093a8060055561172c90816100718239f35b600080fdfe6080604052600436101561001257600080fd5b60003560e01c8063012f52ee146112bc5780633fabe74f14610f5b5780635ccea85e14610ea7578063708831e414610e86578063715018a614610e2d5780637d19e59614610c905780637e4dcc0614610c725780637f944dd014610c1957806389cb29dd14610bfb5780638da5cb5b14610bd2578063a5c1674e14610b20578063d27dc2db1461065f578063df7843ae146103ce578063e01824361461018f5763f2fde38b146100c157600080fd5b3461018a57602036600319011261018a576100da6114e1565b6100e2611525565b6001600160a01b0390811690811561013657600054826bffffffffffffffffffffffff60a01b821617600055167f8be0079c531659141344cd1fd0a4f28419497f9722a3daafe3b4186f6b6457e0600080a3005b60405162461bcd60e51b815260206004820152602660248201527f4f776e61626c653a206e6577206f776e657220697320746865207a65726f206160448201526564647265737360d01b6064820152608490fd5b600080fd5b3461018a5760208060031936011261018a576004359081600052600281526040600020906001820160018060a01b039182825416803303610391576006850180549060ff8216600481101561037b576101e8901561169c565b6005870154918261032b5786926003928361020e9360ff191617905560048901546116e9565b9601541690816102705750505060008093819382935416828215610267575bf11561025b575b7f0d977c6b1a383ac5ce532b4a668d0ef9ad38478e1a5ff28abb221f4b682b2643600080a2005b6040513d6000823e3d90fd5b506108fc61022d565b60405163a9059cbb60e01b81526001600160a01b03919091166004820152602481019590955290939250839150829060449082906000905af190811561025b576000916102fe575b50156102c45750610234565b6064906040519062461bcd60e51b825260048201526013602482015272151bdad95b881c99599d5b990819985a5b1959606a1b6044820152fd5b61031e9150823d8411610324575b61031681836113cc565b8101906115c9565b836102b8565b503d61030c565b60405162461bcd60e51b815260048101869052602260248201527f43616e6e6f742063616e63656c2061667465722066756e64732072656c656173604482015261195960f21b6064820152608490fd5b634e487b7160e01b600052602160045260246000fd5b60405162461bcd60e51b815260048101839052601560248201527413db9b1e481c185e595c8818d85b8818d85b98d95b605a1b6044820152606490fd5b3461018a57604036600319011261018a57600435602435908060005260029160209083825260406000209360018060a01b03926104216001968584818a840154163314928315610650575b50505061165f565b8186541461060c5781865584600052818152604060002092600684019460ff865416600481101561037b57610456901561169c565b811590610463821561157d565b600586019485549661047585896116dc565b9760048201988954106105c7578561048c916116dc565b8755600381015483168061052e575084600094859485948594015416908390610525575bf11561025b5785917f80230996023d69b50793fa73f1919127c9d8e741d3989743c479169f22e7a288915b604051908152a2549054146104ef57828055005b805460ff1916831790557f9285bd636dda01bef18996aa38303bb742f6c67a6941646dddb17630cb492c2e600080a28180828055005b506108fc6104b0565b91015460405163a9059cbb60e01b815292166001600160a01b03166004830152602482018490529093915081908490816000816044810103925af191821561025b576105a57f80230996023d69b50793fa73f1919127c9d8e741d3989743c479169f22e7a2889389956000916105aa575b506115e1565b6104db565b6105c19150843d86116103245761031681836113cc565b8b61059f565b60405162461bcd60e51b815260048101889052601c60248201527f496e73756666696369656e742066756e647320696e20657363726f77000000006044820152606490fd5b6064906040519062461bcd60e51b82526004820152601f60248201527f5265656e7472616e637947756172643a207265656e7472616e742063616c6c006044820152fd5b0154163314905085848a610419565b60a036600319011261018a576106736114e1565b602435906001600160a01b038216820361018a576084359067ffffffffffffffff821161018a573660238301121561018a57816004013567ffffffffffffffff81116109c657604051926106d1601f8301601f1916602001856113cc565b818452366024838301011161018a578160009260246020930183870137840101526001600160a01b03811615610ae35761070e604435151561157d565b426064351115610a9e57600454916000198314610a8857600183016004556001600160a01b038416610a185760443534036109dc575b60405193610751856113af565b8385523360208087019182526001600160a01b038581166040808a0191825294821660608a0190815260443560808b01908152600060a08c0181815260c08d018281524260e08f01526064356101008f01526101208e019a909a528b82526002968790529790208b51815595516001870180549186166001600160a01b0319928316179055925194860180549585169584169590951790945551600385018054919093169116179055516004808301919091559151600582015591516006830192909182101561037b576101209260099260ff8019835416911617905560e0860151600782015561010086015160088201550193015192835167ffffffffffffffff81116109c6576108638254611375565b601f811161097e575b50806020958690601f831160011461091a5760009261090f575b50508160011b916000199060031b1c19161790555b33600052600383526108b1826040600020611625565b60018060a01b038116600052600383526108cf826040600020611625565b60405190604435825260018060a01b031690827f9405ad0a6208539879349284d71265479b1623846f70303da1f9890d6e8c10a7853393a4604051908152f35b015190508680610886565b60008581528881209350601f198516905b818110610967575090846001959493921061094e575b505050811b01905561089b565b015160001960f88460031b161c19169055868080610941565b92938960018192878601518155019501930161092b565b826000526020600020601f830160051c810191602084106109bc575b601f0160051c01905b8181106109b0575061086c565b600081556001016109a3565b909150819061099a565b634e487b7160e01b600052604160045260246000fd5b60405162461bcd60e51b8152602060048201526014602482015273125b98dbdc9c9958dd0811551208185b5bdd5b9d60621b6044820152606490fd5b6040516323b872dd60e01b8152336004820152306024820152604480359082015260208160648160006001600160a01b038a165af1801561025b57610a6491600091610a6957506115e1565b610744565b610a82915060203d6020116103245761031681836113cc565b8661059f565b634e487b7160e01b600052601160045260246000fd5b60405162461bcd60e51b815260206004820152601e60248201527f446561646c696e65206d75737420626520696e207468652066757475726500006044820152606490fd5b60405162461bcd60e51b8152602060048201526015602482015274496e76616c6964207061796565206164647265737360581b6044820152606490fd5b3461018a57602036600319011261018a57600435806000526002602052610b64604060002060018060a01b03806001830154163314918215610bc1575b505061165f565b8060005260026020526006604060002001805460ff811690600482101561037b57610b916002921561169c565b60ff191617905533907f84a477df8a28a4276ca6dee4458a06c3015f30c477d9c949ede4e13ff8a552b4600080a3005b600291925001541633148380610b5d565b3461018a57600036600319011261018a576000546040516001600160a01b039091168152602090f35b3461018a57600036600319011261018a576020600454604051908152f35b3461018a57604036600319011261018a57610c326114e1565b6001600160a01b031660009081526003602052604090208054602435919082101561018a57602091610c63916114f7565b90549060031b1c604051908152f35b3461018a57600036600319011261018a576020600554604051908152f35b3461018a57602036600319011261018a576060610120604051610cb2816113af565b60008152600060208201526000604082015260008382015260006080820152600060a0820152600060c0820152600060e08201526000610100820152015260043560005260026020526040600020604051610d0c816113af565b8154815260018201546001600160a01b03908116602083015260028301548116604083015260038301541660608201526004808301546080830152600583015460a0830152600683015460ff16929083101561037b576009610d8c916101209460c0850152600781015460e08501526008810154610100850152016113ee565b82820152610e29604051928392602084528051602085015260018060a01b03602082015116604085015260018060a01b03604082015116606085015260018060a01b036060820151166080850152608081015160a085015260a081015160c0850152610e0060c082015160e0860190611494565b60e0810151610100850152610100810151828501520151610140808401526101608301906114a1565b0390f35b3461018a57600036600319011261018a57610e46611525565b600080546001600160a01b0319811682556001600160a01b03167f8be0079c531659141344cd1fd0a4f28419497f9722a3daafe3b4186f6b6457e08280a3005b3461018a57602036600319011261018a57610e9f611525565b600435600555005b3461018a5760208060031936011261018a576001600160a01b03610ec96114e1565b1660005260038152604060002060405190818382549182815201908192600052846000209060005b86828210610f47578686610f07828803836113cc565b604051928392818401908285525180915260408401929160005b828110610f3057505050500390f35b835185528695509381019392810192600101610f21565b835485529093019260019283019201610ef1565b3461018a57606036600319011261018a57600435602480359060443590610f80611525565b8360005260209260028452604060002093600685019260ff84541660048110156112a75760020361126e57610fb585846116dc565b956004810195865497610fce60058401998a54906116e9565b0361121e5780158015611126575b50508315928315611022575b5050505050600160ff198254161790555490557f9285bd636dda01bef18996aa38303bb742f6c67a6941646dddb17630cb492c2e600080a2005b60038201546001600160a01b03939084168061106b575050506000938493849360018594015416908390611062575bf11561025b575b8480808080610fe8565b506108fc611051565b6001939093015460405163a9059cbb60e01b815294166001600160a01b03166004850152602484019590955293925083908290816000816044810103925af190811561025b57600091611109575b50156110c6575050611058565b90601e6064926040519262461bcd60e51b845260048401528201527f546f6b656e207472616e7366657220746f207061796572206661696c656400006044820152fd5b6111209150833d85116103245761031681836113cc565b876110b9565b60038301546001600160a01b0390869082168061116c5750506000809381938293600288015416908390611163575bf11561025b575b8880610fdc565b506108fc611155565b600286015460405163a9059cbb60e01b815293166001600160a01b03166004840152602483019490945290929091508290816000816044810103925af190811561025b57600091611201575b5061115c5760405162461bcd60e51b815260048101849052601e818401527f546f6b656e207472616e7366657220746f207061796565206661696c656400006044820152606490fd5b6112189150843d86116103245761031681836113cc565b896111b8565b60405162461bcd60e51b8152600481018590526023818501527f416d6f756e747320646f6e2774206d617463682072656d61696e696e672066756044820152626e647360e81b6064820152608490fd5b9060136064926040519262461bcd60e51b8452600484015282015272115cd8dc9bddc81b9bdd08191a5cdc1d5d1959606a1b6044820152fd5b50634e487b7160e01b60009081526021600452fd5b3461018a57602036600319011261018a57600435600052600260205260406000208054610e2960018060a01b03806001850154169381600282015416916003820154166113586004830154600584015460ff6006860154169160078601549461132c6009600889015498016113ee565b976040519b8c9b8c5260208c015260408b015260608a0152608089015260a088015260c0870190611494565b60e0850152610100840152610140806101208501528301906114a1565b90600182811c921680156113a5575b602083101461138f57565b634e487b7160e01b600052602260045260246000fd5b91607f1691611384565b610140810190811067ffffffffffffffff8211176109c657604052565b90601f8019910116810190811067ffffffffffffffff8211176109c657604052565b906040519182600082549261140284611375565b908184526001948581169081600014611471575060011461142e575b505061142c925003836113cc565b565b9093915060005260209081600020936000915b81831061145957505061142c9350820101388061141e565b85548884018501529485019487945091830191611441565b91505061142c94506020925060ff191682840152151560051b820101388061141e565b90600482101561037b5752565b919082519283825260005b8481106114cd575050826000602080949584010152601f8019910116010190565b6020818301810151848301820152016114ac565b600435906001600160a01b038216820361018a57565b805482101561150f5760005260206000200190600090565b634e487b7160e01b600052603260045260246000fd5b6000546001600160a01b0316330361153957565b606460405162461bcd60e51b815260206004820152602060248201527f4f776e61626c653a2063616c6c6572206973206e6f7420746865206f776e65726044820152fd5b1561158457565b60405162461bcd60e51b815260206004820152601d60248201527f416d6f756e74206d7573742062652067726561746572207468616e20300000006044820152606490fd5b9081602091031261018a5751801515810361018a5790565b156115e857565b60405162461bcd60e51b8152602060048201526015602482015274151bdad95b881d1c985b9cd9995c8819985a5b1959605a1b6044820152606490fd5b8054680100000000000000008110156109c657611647916001820181556114f7565b819291549060031b91821b91600019901b1916179055565b1561166657565b60405162461bcd60e51b815260206004820152600e60248201526d139bdd08185d5d1a1bdc9a5e995960921b6044820152606490fd5b156116a357565b60405162461bcd60e51b8152602060048201526011602482015270457363726f77206e6f742061637469766560781b6044820152606490fd5b91908201809211610a8857565b91908203918211610a885756fea26469706673582212200c4207f8454d31f00180fffa20b586fdc4d9b0bafaa3328ed81fa32aa6c3e33864736f6c63430008140033",
  "linkReferences": {},
  "deployedLinkReferences": {}
}