{
  "_format": "hh-sol-artifact-1",
  "contractName": "Escrow",
  "sourceName": "contracts/Escrow.sol",
  "abi": [
    {
      "inputs": [],
      "stateMutability": "nonpayable",
      "type": "constructor"
    },
    {
      "anonymous": false,
      "inputs": [
        {
          "indexed": true,
          "internalType": "uint256",
          "name": "escrowId",
          "type": "uint256"
        },
        {
          "indexed": true,
          "internalType": "address",
          "name": "raiser",
          "type": "address"
        }
      ],
      "name": "DisputeRaised",
      "type": "event"
    },
    {
      "anonymous": false,
      "inputs": [
        {
          "indexed": true,
          "internalType": "uint256",
          "name": "escrowId",
          "type": "uint256"
        }
      ],
      "name": "EscrowCancelled",
      "type": "event"
    },
    {
      "anonymous": false,
      "inputs": [
        {
          "indexed": true,
          "internalType": "uint256",
          "name": "escrowId",
          "type": "uint256"
        }
      ],
      "name": "EscrowCompleted",
      "type": "event"
    },
    {
      "anonymous": false,
      "inputs": [
        {
          "indexed": true,
          "internalType": "uint256",
          "name": "escrowId",
          "type": "uint256"
        },
        {
          "indexed": true,
          "internalType": "address",
          "name": "payer",
          "type": "address"
        },
        {
          "indexed": true,
          "internalType": "address",
          "name": "payee",
          "type": "address"
        },
        {
          "indexed": false,
          "internalType": "uint256",
          "name": "amount",
          "type": "uint256"
        }
      ],
      "name": "EscrowCreated",
      "type": "event"
    },
    {
      "anonymous": false,
      "inputs": [
        {
          "indexed": true,
          "internalType": "uint256",
          "name": "escrowId",
          "type": "uint256"
        },
        {
          "indexed": false,
          "internalType": "uint256",
          "name": "amount",
          "type": "uint256"
        }
      ],
      "name": "FundsReleased",
      "type": "event"
    },
    {
      "anonymous": false,
      "inputs": [
        {
          "indexed": true,
          "internalType": "address",
          "name": "previousOwner",
          "type": "address"
        },
        {
          "indexed": true,
          "internalType": "address",
          "name": "newOwner",
          "type": "address"
        }
      ],
      "name": "OwnershipTransferred",
      "type": "event"
    },
    {
      "inputs": [
        {
          "internalType": "uint256",
          "name": "escrowId",
          "type": "uint256"
        }
      ],
      "name": "cancelEscrow",
      "outputs": [],
      "stateMutability": "nonpayable",
      "type": "function"
    },
    {
      "inputs": [
        {
          "internalType": "address",
          "name": "payee",
          "type": "address"
        },
        {
          "internalType": "address",
          "name": "tokenAddress",
          "type": "address"
        },
        {
          "internalType": "uint256",
          "name": "amount",
          "type": "uint256"
        },
        {
          "internalType": "uint256",
          "name": "deadline",
          "type": "uint256"
        },
        {
          "internalType": "string",
          "name": "description",
          "type": "string"
        }
      ],
      "name": "createEscrow",
      "outputs": [
        {
          "internalType": "uint256",
          "name": "escrowId",
          "type": "uint256"
        }
      ],
      "stateMutability": "payable",
      "type": "function"
    },
    {
      "inputs": [],
      "name": "disputeTimeWindow",
      "outputs": [
        {
          "internalType": "uint256",
          "name": "",
          "type": "uint256"
        }
      ],
      "stateMutability": "view",
      "type": "function"
    },
    {
      "inputs": [
        {
          "internalType": "uint256",
          "name": "",
          "type": "uint256"
        }
      ],
      "name": "escrows",
      "outputs": [
        {
          "internalType": "uint256",
          "name": "id",
          "type": "uint256"
        },
        {
          "internalType": "address",
          "name": "payer",
          "type": "address"
        },
        {
          "internalType": "address",
          "name": "payee",
          "type": "address"
        },
        {
          "internalType": "address",
          "name": "tokenAddress",
          "type": "address"
        },
        {
          "internalType": "uint256",
          "name": "amount",
          "type": "uint256"
        },
        {
          "internalType": "uint256",
          "name": "releasedAmount",
          "type": "uint256"
        },
        {
          "internalType": "enum Escrow.EscrowStatus",
          "name": "status",
          "type": "uint8"
        },
        {
          "internalType": "uint256",
          "name": "createdAt",
          "type": "uint256"
        },
        {
          "internalType": "uint256",
          "name": "deadline",
          "type": "uint256"
        },
        {
          "internalType": "string",
          "name": "description",
          "type": "string"
        }
      ],
      "stateMutability": "view",
      "type": "function"
    },
    {
      "inputs": [
        {
          "internalType": "uint256",
          "name": "escrowId",
          "type": "uint256"
        }
      ],
      "name": "getEscrow",
      "outputs": [
        {
          "components": [
            {
              "internalType": "uint256",
              "name": "id",
              "type": "uint256"
            },
            {
              "internalType": "address",
              "name": "payer",
              "type": "address"
            },
            {
              "internalType": "address",
              "name": "payee",
              "type": "address"
            },
            {
              "internalType": "address",
              "name": "tokenAddress",
              "type": "address"
            },
            {
              "internalType": "uint256",
              "name": "amount",
              "type": "uint256"
            },
            {
              "internalType": "uint256",
              "name": "releasedAmount",
              "type": "uint256"
            },
            {
              "internalType": "enum Escrow.EscrowStatus",
              "name": "status",
              "type": "uint8"
            },
            {
              "internalType": "uint256",
              "name": "createdAt",
              "type": "uint256"
            },
            {
              "internalType": "uint256",
              "name": "deadline",
              "type": "uint256"
            },
            {
              "internalType": "string",
              "name": "description",
              "type": "string"
            }
          ],
          "internalType": "struct Escrow.EscrowAgreement",
          "name": "",
          "type": "tuple"
        }
      ],
      "stateMutability": "view",
      "type": "function"
    },
    {
      "inputs": [
        {
          "internalType": "address",
          "name": "user",
          "type": "address"
        }
      ],
      "name": "getUserEscrows",
      "outputs": [
        {
          "internalType": "uint256[]",
          "name": "",
          "type": "uint256[]"
        }
      ],
      "stateMutability": "view",
      "type": "function"
    },
    {
      "inputs": [],
      "name": "nextEscrowId",
      "outputs": [
        {
          "internalType": "uint256",
          "name": "",
          "type": "uint256"
        }
      ],
      "stateMutability": "view",
      "type": "function"
    },
    {
      "inputs": [],
      "name": "owner",
      "outputs": [
        {
          "internalType": "address",
          "name": "",
          "type": "address"
        }
      ],
      "stateMutability": "view",
      "type": "function"
    },
    {
      "inputs": [
        {
          "internalType": "uint256",
          "name": "escrowId",
          "type": "uint256"
        }
      ],
      "name": "raiseDispute",
      "outputs": [],
      "stateMutability": "nonpayable",
      "type": "function"
    },
    {
      "inputs": [
        {
          "internalType": "uint256",
          "name": "escrowId",
          "type": "uint256"
        },
        {
          "internalType": "uint256",
          "name": "amount",
          "type": "uint256"
        }
      ],
      "name": "releaseFunds",
      "outputs": [],
      "stateMutability": "nonpayable",
      "type": "function"
    },
    {
      "inputs": [],
      "name": "renounceOwnership",
      "outputs": [],
      "stateMutability": "nonpayable",
      "type": "function"
    },
    {
      "inputs": [
        {
          "internalType": "uint256",
          "name": "escrowId",
          "type": "uint256"
        },
        {
          "internalType": "uint256",
          "name": "payerAmount",
          "type": "uint256"
        },
        {
          "internalType": "uint256",
          "name": "payeeAmount",
          "type": "uint256"
        }
      ],
      "name": "resolveDispute",
      "outputs": [],
      "stateMutability": "nonpayable",
      "type": "function"
    },
    {
      "inputs": [
        {
          "internalType": "uint256",
          "name": "newTimeWindow",
          "type": "uint256"
        }
      ],
      "name": "setDisputeTimeWindow",
      "outputs": [],
      "stateMutability": "nonpayable",
      "type": "function"
    },
    {
      "inputs": [
        {
          "internalType": "address",
          "name": "newOwner",
          "type": "address"
        }
      ],
      "name": "transferOwnership",
      "outputs": [],
      "stateMutability": "nonpayable",
      "type": "function"
    },
    {
      "inputs": [
        {
          "internalType": "address",
          "name": "",
          "type": "address"
        },
        {
          "internalType": "uint256",
          "name": "",
          "type": "uint256"
        }
      ],
      "name": "userEscrows",
      "outputs": [
        {
          "internalType": "uint256",
          "name": "",
          "type": "uint256"
        }
      ],
      "stateMutability": "view",
      "type": "function"
    }
  ],
  "bytecode": "0x6080604052600160045562093a8060055534801561001c57600080fd5b5061002633610038565b6001805561003333610038565b610088565b600080546001600160a01b038381166001600160a01b0319831681178455604051919092169283917f8be0079c531659141344cd1fd0a4f28419497f9722a3daafe3b4186f6b6457e09190a35050565b611bbe806100976000396000f3fe6080604052600436106100e85760003560e01c80637f944dd01161008a578063d27dc2db11610059578063d27dc2db1461027f578063df7843ae14610292578063e0182436146102b2578063f2fde38b146102d257600080fd5b80637f944dd01461020157806389cb29dd146102215780638da5cb5b14610237578063a5c1674e1461025f57600080fd5b8063708831e4116100c6578063708831e41461017b578063715018a61461019b5780637d19e596146101b05780637e4dcc06146101dd57600080fd5b8063012f52ee146100ed5780633fabe74f1461012c5780635ccea85e1461014e575b600080fd5b3480156100f957600080fd5b5061010d6101083660046115e3565b6102f2565b6040516101239a9998979695949392919061167a565b60405180910390f35b34801561013857600080fd5b5061014c6101473660046116ed565b6103e1565b005b34801561015a57600080fd5b5061016e610169366004611735565b61076b565b6040516101239190611757565b34801561018757600080fd5b5061014c6101963660046115e3565b6107d7565b3480156101a757600080fd5b5061014c6107e4565b3480156101bc57600080fd5b506101d06101cb3660046115e3565b6107f8565b604051610123919061179b565b3480156101e957600080fd5b506101f360055481565b604051908152602001610123565b34801561020d57600080fd5b506101f361021c366004611850565b610997565b34801561022d57600080fd5b506101f360045481565b34801561024357600080fd5b506000546040516001600160a01b039091168152602001610123565b34801561026b57600080fd5b5061014c61027a3660046115e3565b6109c8565b6101f361028d366004611890565b610acf565b34801561029e57600080fd5b5061014c6102ad366004611976565b610ebb565b3480156102be57600080fd5b5061014c6102cd3660046115e3565b611201565b3480156102de57600080fd5b5061014c6102ed366004611735565b611467565b60026020819052600091825260409091208054600182015492820154600383015460048401546005850154600686015460078701546008880154600989018054989a6001600160a01b039081169a988116999716979596949560ff909416949293919261035e90611998565b80601f016020809104026020016040519081016040528092919081815260200182805461038a90611998565b80156103d75780601f106103ac576101008083540402835291602001916103d7565b820191906000526020600020905b8154815290600101906020018083116103ba57829003601f168201915b505050505090508a565b6103e96114e0565b600083815260026020819052604090912090600682015460ff166003811115610414576104146115fc565b1461045c5760405162461bcd60e51b8152602060048201526013602482015272115cd8dc9bddc81b9bdd08191a5cdc1d5d1959606a1b60448201526064015b60405180910390fd5b8060050154816004015461047091906119e8565b61047a8385611a01565b146104d35760405162461bcd60e51b815260206004820152602360248201527f416d6f756e747320646f6e2774206d617463682072656d61696e696e672066756044820152626e647360e81b6064820152608401610453565b81156105fa5760038101546001600160a01b031661052d5760028101546040516001600160a01b039091169083156108fc029084906000818181858888f19350505050158015610527573d6000803e3d6000fd5b506105fa565b6003810154600282015460405163a9059cbb60e01b81526001600160a01b03918216600482015260248101859052911690819063a9059cbb906044016020604051808303816000875af1158015610588573d6000803e3d6000fd5b505050506040513d601f19601f820116820180604052508101906105ac9190611a14565b6105f85760405162461bcd60e51b815260206004820152601e60248201527f546f6b656e207472616e7366657220746f207061796565206661696c656400006044820152606401610453565b505b82156107215760038101546001600160a01b03166106545760018101546040516001600160a01b039091169084156108fc029085906000818181858888f1935050505015801561064e573d6000803e3d6000fd5b50610721565b6003810154600182015460405163a9059cbb60e01b81526001600160a01b03918216600482015260248101869052911690819063a9059cbb906044016020604051808303816000875af11580156106af573d6000803e3d6000fd5b505050506040513d601f19601f820116820180604052508101906106d39190611a14565b61071f5760405162461bcd60e51b815260206004820152601e60248201527f546f6b656e207472616e7366657220746f207061796572206661696c656400006044820152606401610453565b505b60068101805460ff191660011790556004810154600582015560405184907f9285bd636dda01bef18996aa38303bb742f6c67a6941646dddb17630cb492c2e90600090a250505050565b6001600160a01b0381166000908152600360209081526040918290208054835181840281018401909452808452606093928301828280156107cb57602002820191906000526020600020905b8154815260200190600101908083116107b7575b50505050509050919050565b6107df6114e0565b600555565b6107ec6114e0565b6107f6600061153a565b565b61084e6040805161014081018252600080825260208201819052918101829052606081018290526080810182905260a081018290529060c082019081526020016000815260200160008152602001606081525090565b6000828152600260208181526040928390208351610140810185528154815260018201546001600160a01b039081169382019390935292810154821693830193909352600380840154909116606083015260048301546080830152600583015460a0830152600683015491929160c084019160ff909116908111156108d5576108d56115fc565b60038111156108e6576108e66115fc565b8152602001600782015481526020016008820154815260200160098201805461090e90611998565b80601f016020809104026020016040519081016040528092919081815260200182805461093a90611998565b80156109875780601f1061095c57610100808354040283529160200191610987565b820191906000526020600020905b81548152906001019060200180831161096a57829003601f168201915b5050505050815250509050919050565b600360205281600052604060002081815481106109b357600080fd5b90600052602060002001600091509150505481565b60008181526002602052604090206001015481906001600160a01b0316331480610a0c5750600081815260026020819052604090912001546001600160a01b031633145b610a495760405162461bcd60e51b815260206004820152600e60248201526d139bdd08185d5d1a1bdc9a5e995960921b6044820152606401610453565b600082815260026020526040812090600682015460ff166003811115610a7157610a716115fc565b14610a8e5760405162461bcd60e51b815260040161045390611a36565b60068101805460ff19166002179055604051339084907f84a477df8a28a4276ca6dee4458a06c3015f30c477d9c949ede4e13ff8a552b490600090a3505050565b60006001600160a01b038616610b1f5760405162461bcd60e51b8152602060048201526015602482015274496e76616c6964207061796565206164647265737360581b6044820152606401610453565b60008411610b6f5760405162461bcd60e51b815260206004820152601d60248201527f416d6f756e74206d7573742062652067726561746572207468616e20300000006044820152606401610453565b428311610bbe5760405162461bcd60e51b815260206004820152601e60248201527f446561646c696e65206d75737420626520696e207468652066757475726500006044820152606401610453565b60048054906000610bce83611a61565b9091555090506001600160a01b038516610c2d57833414610c285760405162461bcd60e51b8152602060048201526014602482015273125b98dbdc9c9958dd0811551208185b5bdd5b9d60621b6044820152606401610453565b610cec565b6040516323b872dd60e01b81523360048201523060248201526044810185905285906001600160a01b038216906323b872dd906064016020604051808303816000875af1158015610c82573d6000803e3d6000fd5b505050506040513d601f19601f82011682018060405250810190610ca69190611a14565b610cea5760405162461bcd60e51b8152602060048201526015602482015274151bdad95b881d1c985b9cd9995c8819985a5b1959605a1b6044820152606401610453565b505b604051806101400160405280828152602001336001600160a01b03168152602001876001600160a01b03168152602001866001600160a01b031681526020018581526020016000815260200160006003811115610d4b57610d4b6115fc565b8152426020808301919091526040808301879052606092830186905260008581526002808452908290208551815592850151600180850180546001600160a01b03199081166001600160a01b0394851617909155938701519285018054851693831693909317909255938501516003808501805490941691909516179091556080840151600483015560a0840151600583015560c084015160068301805493949193909260ff19909116918490811115610e0757610e076115fc565b021790555060e0820151600782015561010082015160088201556101208201516009820190610e369082611ac8565b5050336000818152600360209081526040808320805460018082018355918552838520018790556001600160a01b038c1680855282852080549283018155855293839020018690555188815291935084917f9405ad0a6208539879349284d71265479b1623846f70303da1f9890d6e8c10a7910160405180910390a495945050505050565b60008281526002602052604090206001015482906001600160a01b0316331480610eff5750600081815260026020819052604090912001546001600160a01b031633145b610f3c5760405162461bcd60e51b815260206004820152600e60248201526d139bdd08185d5d1a1bdc9a5e995960921b6044820152606401610453565b610f4461158a565b600083815260026020526040812090600682015460ff166003811115610f6c57610f6c6115fc565b14610f895760405162461bcd60e51b815260040161045390611a36565b60008311610fd95760405162461bcd60e51b815260206004820152601d60248201527f416d6f756e74206d7573742062652067726561746572207468616e20300000006044820152606401610453565b8060040154838260050154610fee9190611a01565b111561103c5760405162461bcd60e51b815260206004820152601c60248201527f496e73756666696369656e742066756e647320696e20657363726f77000000006044820152606401610453565b828160050160008282546110509190611a01565b909155505060038101546001600160a01b03166110a95760028101546040516001600160a01b039091169084156108fc029085906000818181858888f193505050501580156110a3573d6000803e3d6000fd5b5061116e565b6003810154600282015460405163a9059cbb60e01b81526001600160a01b03918216600482015260248101869052911690819063a9059cbb906044016020604051808303816000875af1158015611104573d6000803e3d6000fd5b505050506040513d601f19601f820116820180604052508101906111289190611a14565b61116c5760405162461bcd60e51b8152602060048201526015602482015274151bdad95b881d1c985b9cd9995c8819985a5b1959605a1b6044820152606401610453565b505b837f80230996023d69b50793fa73f1919127c9d8e741d3989743c479169f22e7a288846040516111a091815260200190565b60405180910390a280600401548160050154036111f25760068101805460ff1916600117905560405184907f9285bd636dda01bef18996aa38303bb742f6c67a6941646dddb17630cb492c2e90600090a25b506111fc60018055565b505050565b600081815260026020526040902060018101546001600160a01b031633146112635760405162461bcd60e51b815260206004820152601560248201527413db9b1e481c185e595c8818d85b8818d85b98d95b605a1b6044820152606401610453565b6000600682015460ff16600381111561127e5761127e6115fc565b1461129b5760405162461bcd60e51b815260040161045390611a36565b6005810154156112f85760405162461bcd60e51b815260206004820152602260248201527f43616e6e6f742063616e63656c2061667465722066756e64732072656c656173604482015261195960f21b6064820152608401610453565b60068101805460ff191660031790556005810154600482015460009161131d916119e8565b60038301549091506001600160a01b03166113745760018201546040516001600160a01b039091169082156108fc029083906000818181858888f1935050505015801561136e573d6000803e3d6000fd5b50611437565b6003820154600183015460405163a9059cbb60e01b81526001600160a01b03918216600482015260248101849052911690819063a9059cbb906044016020604051808303816000875af11580156113cf573d6000803e3d6000fd5b505050506040513d601f19601f820116820180604052508101906113f39190611a14565b6114355760405162461bcd60e51b8152602060048201526013602482015272151bdad95b881c99599d5b990819985a5b1959606a1b6044820152606401610453565b505b60405183907f0d977c6b1a383ac5ce532b4a668d0ef9ad38478e1a5ff28abb221f4b682b264390600090a2505050565b61146f6114e0565b6001600160a01b0381166114d45760405162461bcd60e51b815260206004820152602660248201527f4f776e61626c653a206e6577206f776e657220697320746865207a65726f206160448201526564647265737360d01b6064820152608401610453565b6114dd8161153a565b50565b6000546001600160a01b031633146107f65760405162461bcd60e51b815260206004820181905260248201527f4f776e61626c653a2063616c6c6572206973206e6f7420746865206f776e65726044820152606401610453565b600080546001600160a01b038381166001600160a01b0319831681178455604051919092169283917f8be0079c531659141344cd1fd0a4f28419497f9722a3daafe3b4186f6b6457e09190a35050565b6002600154036115dc5760405162461bcd60e51b815260206004820152601f60248201527f5265656e7472616e637947756172643a207265656e7472616e742063616c6c006044820152606401610453565b6002600155565b6000602082840312156115f557600080fd5b5035919050565b634e487b7160e01b600052602160045260246000fd5b6004811061163057634e487b7160e01b600052602160045260246000fd5b9052565b6000815180845260005b8181101561165a5760208185018101518683018201520161163e565b506000602082860101526020601f19601f83011685010191505092915050565b8a81526001600160a01b038a811660208301528981166040830152881660608201526080810187905260a0810186905260006101406116bc60c0840188611612565b8560e084015284610100840152806101208401526116dc81840185611634565b9d9c50505050505050505050505050565b60008060006060848603121561170257600080fd5b505081359360208301359350604090920135919050565b80356001600160a01b038116811461173057600080fd5b919050565b60006020828403121561174757600080fd5b61175082611719565b9392505050565b6020808252825182820181905260009190848201906040850190845b8181101561178f57835183529284019291840191600101611773565b50909695505050505050565b6020815281516020820152600060208301516117c260408401826001600160a01b03169052565b5060408301516001600160a01b03811660608401525060608301516001600160a01b038116608084015250608083015160a083015260a083015160c083015260c083015161181360e0840182611612565b5060e0830151610100838101919091528301516101208084019190915283015161014080840152611848610160840182611634565b949350505050565b6000806040838503121561186357600080fd5b61186c83611719565b946020939093013593505050565b634e487b7160e01b600052604160045260246000fd5b600080600080600060a086880312156118a857600080fd5b6118b186611719565b94506118bf60208701611719565b93506040860135925060608601359150608086013567ffffffffffffffff808211156118ea57600080fd5b818801915088601f8301126118fe57600080fd5b8135818111156119105761191061187a565b604051601f8201601f19908116603f011681019083821181831017156119385761193861187a565b816040528281528b602084870101111561195157600080fd5b8260208601602083013760006020848301015280955050505050509295509295909350565b6000806040838503121561198957600080fd5b50508035926020909101359150565b600181811c908216806119ac57607f821691505b6020821081036119cc57634e487b7160e01b600052602260045260246000fd5b50919050565b634e487b7160e01b600052601160045260246000fd5b818103818111156119fb576119fb6119d2565b92915050565b808201808211156119fb576119fb6119d2565b600060208284031215611a2657600080fd5b8151801515811461175057600080fd5b602080825260119082015270457363726f77206e6f742061637469766560781b604082015260600190565b600060018201611a7357611a736119d2565b5060010190565b601f8211156111fc57600081815260208120601f850160051c81016020861015611aa15750805b601f850160051c820191505b81811015611ac057828155600101611aad565b505050505050565b815167ffffffffffffffff811115611ae257611ae261187a565b611af681611af08454611998565b84611a7a565b602080601f831160018114611b2b5760008415611b135750858301515b600019600386901b1c1916600185901b178555611ac0565b600085815260208120601f198616915b82811015611b5a57888601518255948401946001909101908401611b3b565b5085821015611b785787850151600019600388901b60f8161c191681555b5050505050600190811b0190555056fea26469706673582212201f4a741e6ada019afa431edaa348d41a74387f2be4ff4cd0ce5878462fdec3a864736f6c63430008140033",
  "linkReferences": {},
  "deployedLinkReferences": {}
}